{"abi":[{"inputs":[],"stateMutability":"payable","type":"constructor","name":"constructor"},{"anonymous":false,"inputs":[{"indexed":false,"internalType":"address","name":"owner_address","type":"address"},{"indexed":false,"internalType":"uint256","name":"id","type":"uint256"},{"indexed":false,"internalType":"string","name":"firstName","type":"string"},{"indexed":false,"internalType":"string","name":"lastName","type":"string"},{"indexed":false,"internalType":"string","name":"codiceFiscale","type":"string"},{"indexed":false,"internalType":"string","name":"docType","type":"string"},{"indexed":false,"internalType":"string","name":"docNumber","type":"string"}],"name":"NewOwnerCreated","type":"event"},{"anonymous":false,"inputs":[{"indexed":false,"internalType":"uint256","name":"id","type":"uint256"},{"indexed":false,"internalType":"uint256","name":"areaSqm","type":"uint256"},{"indexed":false,"internalType":"uint256","name":"floor","type":"uint256"},{"indexed":false,"internalType":"uint256","name":"zipCode","type":"uint256"},{"indexed":false,"internalType":"string","name":"country","type":"string"},{"indexed":false,"internalType":"string","name":"region","type":"string"},{"indexed":false,"internalType":"string","name":"city","type":"string"},{"indexed":false,"internalType":"string","name":"street","type":"string"},{"indexed":false,"internalType":"string","name":"streetNumber","type":"string"},{"indexed":false,"internalType":"string","name":"adressAdditional","type":"string"},{"indexed":false,"internalType":"string","name":"houseType","type":"string"}],"name":"NewPropertyRegistered","type":"event"},{"anonymous":false,"inputs":[{"indexed":false,"internalType":"address","name":"new_owner","type":"address"},{"indexed":false,"internalType":"uint256","name":"propert_id","type":"uint256"}],"name":"OwnershipTransferred","type":"event"},{"inputs":[],"name":"Payment","outputs":[],"stateMutability":"payable","type":"function"},{"inputs":[{"internalType":"uint256","name":"_property_id","type":"uint256"},{"internalType":"address","name":"_new_owner_address","type":"address"}],"name":"Transfer","outputs":[],"stateMutability":"nonpayable","type":"function"},{"inputs":[{"internalType":"uint256","name":"_id","type":"uint256"},{"internalType":"uint256","name":"_areaSqm","type":"uint256"},{"internalType":"uint256","name":"_floor","type":"uint256"},{"internalType":"uint256","name":"_zipCode","type":"uint256"},{"internalType":"string","name":"_country","type":"string"},{"internalType":"string","name":"_region","type":"string"},{"internalType":"string","name":"_city","type":"string"},{"internalType":"string","name":"_street","type":"string"},{"internalType":"string","name":"_streetNumber","type":"string"},{"internalType":"string","name":"_addressAdditional","type":"string"},{"internalType":"string","name":"_houseType","type":"string"}],"name":"Update","outputs":[],"stateMutability":"nonpayable","type":"function"},{"inputs":[{"internalType":"address","name":"","type":"address"}],"name":"address_to_owner","outputs":[{"internalType":"uint256","name":"","type":"uint256"}],"stateMutability":"view","type":"function"},{"inputs":[{"internalType":"uint256","name":"","type":"uint256"}],"name":"addresses_list","outputs":[{"internalType":"address","name":"","type":"address"}],"stateMutability":"view","type":"function"},{"inputs":[{"internalType":"uint256","name":"","type":"uint256"}],"name":"all_prop_id_to_personal_prop_id","outputs":[{"internalType":"uint256","name":"","type":"uint256"}],"stateMutability":"view","type":"function"},{"inputs":[{"internalType":"uint256","name":"_new_price_registration","type":"uint256"}],"name":"changePriceRegistration","outputs":[],"stateMutability":"nonpayable","type":"function"},{"inputs":[{"internalType":"uint256","name":"_new_price_transfers","type":"uint256"}],"name":"changePriceTransfer","outputs":[],"stateMutability":"nonpayable","type":"function"},{"inputs":[{"internalType":"address","name":"_owner","type":"address"}],"name":"countOwnerProperties","outputs":[{"internalType":"uint256","name":"","type":"uint256"}],"stateMutability":"view","type":"function"},{"inputs":[{"internalType":"address","name":"","type":"address"}],"name":"customerBalance","outputs":[{"internalType":"uint256","name":"","type":"uint256"}],"stateMutability":"view","type":"function"},{"inputs":[{"internalType":"address","name":"_owner","type":"address"}],"name":"findOwner","outputs":[{"internalType":"string","name":"","type":"string"},{"internalType":"string","name":"","type":"string"}],"stateMutability":"view","type":"function"},{"inputs":[{"internalType":"uint256","name":"_id","type":"uint256"}],"name":"findPropertyOwner","outputs":[{"internalType":"string","name":"","type":"string"},{"internalType":"string","name":"","type":"string"},{"internalType":"address","name":"","type":"address"}],"stateMutability":"view","type":"function"},{"inputs":[{"internalType":"address","name":"_owner","type":"address"}],"name":"find_properties","outputs":[{"internalType":"uint256[]","name":"","type":"uint256[]"}],"stateMutability":"view","type":"function"},{"inputs":[{"internalType":"address","name":"","type":"address"}],"name":"ownerPropertyCount","outputs":[{"internalType":"uint256","name":"","type":"uint256"}],"stateMutability":"view","type":"function"},{"inputs":[{"internalType":"address","name":"","type":"address"},{"internalType":"uint256","name":"","type":"uint256"}],"name":"owner_to_property","outputs":[{"internalType":"uint256","name":"","type":"uint256"}],"stateMutability":"view","type":"function"},{"inputs":[{"internalType":"uint256","name":"","type":"uint256"}],"name":"owners","outputs":[{"internalType":"uint256","name":"id","type":"uint256"},{"internalType":"string","name":"firstName","type":"string"},{"internalType":"string","name":"lastName","type":"string"},{"internalType":"string","name":"codiceFisc","type":"string"},{"internalType":"string","name":"docType","type":"string"},{"internalType":"string","name":"docNumber","type":"string"}],"stateMutability":"view","type":"function"},{"inputs":[{"internalType":"uint256","name":"","type":"uint256"}],"name":"properties","outputs":[{"internalType":"uint256","name":"id","type":"uint256"},{"internalType":"uint256","name":"sqm","type":"uint256"},{"internalType":"uint256","name":"floor","type":"uint256"},{"internalType":"uint256","name":"zipCode","type":"uint256"},{"internalType":"string","name":"country","type":"string"},{"internalType":"string","name":"region","type":"string"},{"internalType":"string","name":"city","type":"string"},{"internalType":"string","name":"street","type":"string"},{"internalType":"string","name":"streetnum","type":"string"},{"internalType":"string","name":"addressAdditional","type":"string"},{"internalType":"string","name":"houseType","type":"string"}],"stateMutability":"view","type":"function"},{"inputs":[{"internalType":"string","name":"_firstName","type":"string"},{"internalType":"string","name":"_lastName","type":"string"},{"internalType":"address","name":"_address","type":"address"},{"internalType":"string","name":"_codiceFiscale","type":"string"},{"internalType":"string","name":"_docType","type":"string"},{"internalType":"string","name":"_docNumber","type":"string"}],"name":"registerOwner","outputs":[],"stateMutability":"nonpayable","type":"function"},{"inputs":[{"internalType":"address","name":"_Owner","type":"address"},{"internalType":"uint256","name":"_areaSqm","type":"uint256"},{"internalType":"uint256","name":"_floor","type":"uint256"},{"internalType":"uint256","name":"_zipCode","type":"uint256"},{"internalType":"string","name":"_country","type":"string"},{"internalType":"string","name":"_region","type":"string"},{"internalType":"string","name":"_city","type":"string"},{"internalType":"string","name":"_street","type":"string"},{"internalType":"string","name":"_streetNumber","type":"string"},{"internalType":"string","name":"_addressAdditional","type":"string"},{"internalType":"string","name":"_houseType","type":"string"}],"name":"registerProperty","outputs":[],"stateMutability":"nonpayable","type":"function"},{"inputs":[],"name":"revenue","outputs":[{"internalType":"uint256","name":"","type":"uint256"}],"stateMutability":"view","type":"function"},{"inputs":[],"name":"showBalance","outputs":[{"internalType":"uint256","name":"","type":"uint256"}],"stateMutability":"view","type":"function"},{"inputs":[{"internalType":"address","name":"_owner","type":"address"}],"name":"showOwnerBalance","outputs":[{"internalType":"uint256","name":"","type":"uint256"}],"stateMutability":"view","type":"function"},{"inputs":[],"name":"showOwnersCount","outputs":[{"internalType":"uint256","name":"","type":"uint256"}],"stateMutability":"view","type":"function"},{"inputs":[],"name":"showPropertyCount","outputs":[{"internalType":"uint256","name":"","type":"uint256"}],"stateMutability":"view","type":"function"},{"inputs":[],"name":"showRegistrationPrice","outputs":[{"internalType":"uint256","name":"","type":"uint256"}],"stateMutability":"view","type":"function"},{"inputs":[],"name":"showTransferPrice","outputs":[{"internalType":"uint256","name":"","type":"uint256"}],"stateMutability":"view","type":"function"},{"inputs":[],"name":"show_revenue","outputs":[{"internalType":"uint256","name":"","type":"uint256"}],"stateMutability":"view","type":"function"},{"stateMutability":"payable","type":"receive"}],"bytecode":"60806040526001600681905560075560146008556005600955600b80546001600160a01b031916331790556126c8806100396000396000f3fe6080604052600436106101a05760003560e01c806392fd14d0116100ec578063dd7bfcb81161008a578063eda943b511610064578063eda943b514610571578063f26ec4171461059e578063f7b10808146105be578063f969c083146105f557600080fd5b8063dd7bfcb814610506578063e2d24b441461051b578063e3c16efe1461053b57600080fd5b8063abe1dcf9116100c6578063abe1dcf914610484578063aeb272e8146104a4578063b7440467146104b9578063c38c1b35146104e657600080fd5b806392fd14d0146104475780639bdb448f1461045c578063a33b12601461047c57600080fd5b8063421235d51161015957806360e38ae21161013357806360e38ae2146103b657806381b2d07b146103e557806389cb8f6d146103fa5780638d5d39111461042757600080fd5b8063421235d5146103395780634fd1f68b146103665780635bcf45901461039457600080fd5b8063025e7c271461022a578063225898c9146102655780632e735c7d1461029d578063306acf02146102e157806337ebe47b146102f65780633e9491a21461032357600080fd5b3661022557336000908152602081905260409020546101ff5760405162461bcd60e51b8152602060048201526016602482015275165bdd48185c99481b9bdd081c9959da5cdd195c995960521b60448201526064015b60405180910390fd5b336000908152600360205260408120805434929061021e908490611f1a565b9091555050005b600080fd5b34801561023657600080fd5b5061024a610245366004611f32565b61060a565b60405161025c96959493929190611f98565b60405180910390f35b34801561027157600080fd5b50610285610280366004611f32565b6108fa565b6040516001600160a01b03909116815260200161025c565b3480156102a957600080fd5b506102d36102b8366004612023565b6001600160a01b031660009081526003602052604090205490565b60405190815260200161025c565b3480156102ed57600080fd5b506008546102d3565b34801561030257600080fd5b506102d3610311366004612023565b60036020526000908152604090205481565b34801561032f57600080fd5b506102d3600a5481565b34801561034557600080fd5b506102d3610354366004612023565b60006020819052908152604090205481565b34801561037257600080fd5b50610386610381366004612023565b610924565b60405161025c929190612045565b3480156103a057600080fd5b506103b46103af366004612116565b610aec565b005b3480156103c257600080fd5b506103d66103d1366004611f32565b610bdc565b60405161025c93929190612266565b3480156103f157600080fd5b506102d3610d8e565b34801561040657600080fd5b506102d3610415366004612023565b60016020526000908152604090205481565b34801561043357600080fd5b506103b46104423660046122a4565b610dc0565b34801561045357600080fd5b506009546102d3565b34801561046857600080fd5b506102d3610477366004612385565b61104b565b6103b461107c565b34801561049057600080fd5b506103b461049f3660046123af565b61116f565b3480156104b057600080fd5b50600d546102d3565b3480156104c557600080fd5b506104d96104d4366004612023565b6114ed565b60405161025c91906123db565b3480156104f257600080fd5b506103b461050136600461241f565b611585565b34801561051257600080fd5b506102d36119b7565b34801561052757600080fd5b506103b4610536366004611f32565b6119eb565b34801561054757600080fd5b506102d3610556366004612023565b6001600160a01b031660009081526001602052604090205490565b34801561057d57600080fd5b506102d361058c366004611f32565b60056020526000908152604090205481565b3480156105aa57600080fd5b506103b46105b9366004611f32565b611a1a565b3480156105ca57600080fd5b506105de6105d9366004611f32565b611a49565b60405161025c9b9a9998979695949392919061247b565b34801561060157600080fd5b50600c546102d3565b600d818154811061061a57600080fd5b6000918252602090912060069091020180546001820180549193509061063f90612534565b80601f016020809104026020016040519081016040528092919081815260200182805461066b90612534565b80156106b85780601f1061068d576101008083540402835291602001916106b8565b820191906000526020600020905b81548152906001019060200180831161069b57829003601f168201915b5050505050908060020180546106cd90612534565b80601f01602080910402602001604051908101604052809291908181526020018280546106f990612534565b80156107465780601f1061071b57610100808354040283529160200191610746565b820191906000526020600020905b81548152906001019060200180831161072957829003601f168201915b50505050509080600301805461075b90612534565b80601f016020809104026020016040519081016040528092919081815260200182805461078790612534565b80156107d45780601f106107a9576101008083540402835291602001916107d4565b820191906000526020600020905b8154815290600101906020018083116107b757829003601f168201915b5050505050908060040180546107e990612534565b80601f016020809104026020016040519081016040528092919081815260200182805461081590612534565b80156108625780601f1061083757610100808354040283529160200191610862565b820191906000526020600020905b81548152906001019060200180831161084557829003601f168201915b50505050509080600501805461087790612534565b80601f01602080910402602001604051908101604052809291908181526020018280546108a390612534565b80156108f05780601f106108c5576101008083540402835291602001916108f0565b820191906000526020600020905b8154815290600101906020018083116108d357829003601f168201915b5050505050905086565b600e818154811061090a57600080fd5b6000918252602090912001546001600160a01b0316905081565b600b5460609081906001600160a01b031633146109535760405162461bcd60e51b81526004016101f69061256f565b6001600160a01b038316600090815260208190526040902054600d61097960018361259a565b81548110610989576109896125b1565b9060005260206000209060060201600101600d6001836109a9919061259a565b815481106109b9576109b96125b1565b90600052602060002090600602016002018180546109d690612534565b80601f0160208091040260200160405190810160405280929190818152602001828054610a0290612534565b8015610a4f5780601f10610a2457610100808354040283529160200191610a4f565b820191906000526020600020905b815481529060010190602001808311610a3257829003601f168201915b50505050509150808054610a6290612534565b80601f0160208091040260200160405190810160405280929190818152602001828054610a8e90612534565b8015610adb5780601f10610ab057610100808354040283529160200191610adb565b820191906000526020600020905b815481529060010190602001808311610abe57829003601f168201915b505050505090509250925050915091565b6000600c610afb60018e61259a565b81548110610b0b57610b0b6125b1565b60009182526020918290206001600b909202019081018d9055600281018c9055600381018b90558951909250610b49916004840191908b0190611e6b565b508651610b5f90600583019060208a0190611e6b565b508551610b759060068301906020890190611e6b565b508451610b8b9060078301906020880190611e6b565b508351610ba19060088301906020870190611e6b565b508251610bb79060098301906020860190611e6b565b508151610bcd90600a8301906020850190611e6b565b50505050505050505050505050565b6000818152600260209081526040808320546001600160a01b03168084529183905282205460609283929091600d610c1560018361259a565b81548110610c2557610c256125b1565b9060005260206000209060060201600101600d600183610c45919061259a565b81548110610c5557610c556125b1565b906000526020600020906006020160020183828054610c7390612534565b80601f0160208091040260200160405190810160405280929190818152602001828054610c9f90612534565b8015610cec5780601f10610cc157610100808354040283529160200191610cec565b820191906000526020600020905b815481529060010190602001808311610ccf57829003601f168201915b50505050509250818054610cff90612534565b80601f0160208091040260200160405190810160405280929190818152602001828054610d2b90612534565b8015610d785780601f10610d4d57610100808354040283529160200191610d78565b820191906000526020600020905b815481529060010190602001808311610d5b57829003601f168201915b5050505050915094509450945050509193909250565b600b546000906001600160a01b03163314610dbb5760405162461bcd60e51b81526004016101f69061256f565b504790565b600b546001600160a01b03163314610dea5760405162461bcd60e51b81526004016101f69061256f565b6001600160a01b03841660009081526020819052604090205415610e505760405162461bcd60e51b815260206004820152601e60248201527f4164647265737320697320616c726561647920726567697374657265642e000060448201526064016101f6565b6040805160c08101825260068054825260208083018a8152938301899052606083018790526080830186905260a08301859052600d8054600181018255600091909152835192027fd7b6990105719101dabeb77144f2a3385c8033acd3af97e9423a695e81ad1eb581019283559351805193949293610ef6937fd7b6990105719101dabeb77144f2a3385c8033acd3af97e9423a695e81ad1eb601929190910190611e6b565b5060408201518051610f12916002840191602090910190611e6b565b5060608201518051610f2e916003840191602090910190611e6b565b5060808201518051610f4a916004840191602090910190611e6b565b5060a08201518051610f66916005840191602090910190611e6b565b5050600e80546001810182556000919091527fbb7b4a454dc3493923482f07822329ed19e8244eff582cc204f8554c3620c3fd0180546001600160a01b0319166001600160a01b038716179055506006546040517fe6d2b367293bc1ae37f7c0ecd6e2fb1df341a2c0194e8d70775c415495b8ace591610ff2918791908a908a908990899089906125c7565b60405180910390a1600680546001600160a01b03861660009081526020819052604081208290559091906110258361264a565b9091555050506001600160a01b0390921660009081526003602052604081205550505050565b6004602052816000526040600020818154811061106757600080fd5b90600052602060002001600091509150505481565b600b546001600160a01b031633146110a65760405162461bcd60e51b81526004016101f69061256f565b600b546001600160a01b0316600a47116110bf57600080fd5b6000600a80546110cf919061259a565b600a80556040519091506000906001600160a01b0384169083908381818185875af1925050503d8060008114611121576040519150601f19603f3d011682016040523d82523d6000602084013e611126565b606091505b505090508061116a5760405162461bcd60e51b815260206004820152601060248201526f2a3930b739b332b9103330b4b632b21760811b60448201526064016101f6565b505050565b6000828152600260205260409020546001600160a01b031633146112145760405162461bcd60e51b815260206004820152605060248201527f4f6e6c79204f776e6572732063616e207472616e736665722070726f7065727460448201527f792e20576520646f206e6f74206861766520796f75206173206f776e6572206f60648201526f33103a3434b990383937b832b93a3c9760811b608482015260a4016101f6565b6009546001600160a01b03821660009081526003602052604090205410156112a45760405162461bcd60e51b815260206004820152603760248201527f42616c616e6365206f662061206e6577206f776e657220697320746f6f206c6f60448201527f7720746f207472616e736665722070726f70657274792e00000000000000000060648201526084016101f6565b6001600160a01b0381166000908152602081905260409020546113095760405162461bcd60e51b815260206004820152601b60248201527f4e6577206f776e6572206973206e6f742072656769737465726564000000000060448201526064016101f6565b600082815260026020908152604080832080546001600160a01b0319166001600160a01b03861617905533835260049091529020805461134b9060019061259a565b8154811061135b5761135b6125b1565b6000918252602080832090910154338352600482526040808420600754855260059093529092205481548110611393576113936125b1565b60009182526020808320909101929092553381526004909152604090208054806113bf576113bf612665565b6000828152602080822083016000199081018390559092019092556001600160a01b03831680835260048252604080842080546001818101835591865284862001879055918452915281208054916114168361264a565b90915550506001600160a01b0381166000908152600160208181526040808420546007548552600583528185205533845291905281208054916114588361267b565b9091555050604080516001600160a01b0383168152602081018490527fbf0996050d830a4094913360f3aca6a3d35dc19fbda52e1f983f5e1e3c5f8f2d910160405180910390a16009546001600160a01b038216600090815260036020526040812080549091906114ca90849061259a565b9091555050600954600a80546000906114e4908490611f1a565b90915550505050565b600b546060906001600160a01b0316331461151a5760405162461bcd60e51b81526004016101f69061256f565b6001600160a01b0382166000908152600460209081526040918290208054835181840281018401909452808452909183018282801561157857602002820191906000526020600020905b815481526020019060010190808311611564575b505050505090505b919050565b600b546001600160a01b031633146115af5760405162461bcd60e51b81526004016101f69061256f565b6008546001600160a01b038c1660009081526003602052604090205410156116575760405162461bcd60e51b815260206004820152604f60248201527f42616c616e636520746f6f206c6f7720746f2072656769737465722070726f7060448201527f657274792e20506c6561736520696e63726561736520796f75722062616c616e60648201526e31b29013103a393c9030b3b0b4b71760891b608482015260a4016101f6565b6040805161016081018252600754815260208082018d81529282018c8152606083018c8152608084018c815260a085018c905260c085018b905260e085018a9052610100850189905261012085018890526101408501879052600c80546001810182556000919091528551600b9091027fdf6966c971051c3d54ec59162606531493a51404a002842f56009d7e5cf4a8c7810191825596517fdf6966c971051c3d54ec59162606531493a51404a002842f56009d7e5cf4a8c888015592517fdf6966c971051c3d54ec59162606531493a51404a002842f56009d7e5cf4a8c987015590517fdf6966c971051c3d54ec59162606531493a51404a002842f56009d7e5cf4a8ca86015551805193949193611799937fdf6966c971051c3d54ec59162606531493a51404a002842f56009d7e5cf4a8cb909301929190910190611e6b565b5060a082015180516117b5916005840191602090910190611e6b565b5060c082015180516117d1916006840191602090910190611e6b565b5060e082015180516117ed916007840191602090910190611e6b565b50610100820151805161180a916008840191602090910190611e6b565b506101208201518051611827916009840191602090910190611e6b565b50610140820151805161184491600a840191602090910190611e6b565b5050507f7a320318f8ddfe7528cb7b0a1fdaf9466f7fd11a31f4d72ed4c96a07624589d96007548b8b8b8b8b8b8b8b8b8b60405161188c9b9a9998979695949392919061247b565b60405180910390a18a60026000600754815260200190815260200160002060006101000a8154816001600160a01b0302191690836001600160a01b03160217905550600160008c6001600160a01b03166001600160a01b0316815260200190815260200160002060008154809291906119049061264a565b90915550506001600160a01b038b1660008181526004602090815260408083206007805482546001818101855593875285872001559484528252808320548454845260059092528220558154919061195b8361264a565b90915550506008546001600160a01b038c166000908152600360205260408120805490919061198b90849061259a565b9091555050600854600a80546000906119a5908490611f1a565b90915550505050505050505050505050565b600b546000906001600160a01b031633146119e45760405162461bcd60e51b81526004016101f69061256f565b50600a5490565b600b546001600160a01b03163314611a155760405162461bcd60e51b81526004016101f69061256f565b600855565b600b546001600160a01b03163314611a445760405162461bcd60e51b81526004016101f69061256f565b600955565b600c8181548110611a5957600080fd5b90600052602060002090600b0201600091509050806000015490806001015490806002015490806003015490806004018054611a9490612534565b80601f0160208091040260200160405190810160405280929190818152602001828054611ac090612534565b8015611b0d5780601f10611ae257610100808354040283529160200191611b0d565b820191906000526020600020905b815481529060010190602001808311611af057829003601f168201915b505050505090806005018054611b2290612534565b80601f0160208091040260200160405190810160405280929190818152602001828054611b4e90612534565b8015611b9b5780601f10611b7057610100808354040283529160200191611b9b565b820191906000526020600020905b815481529060010190602001808311611b7e57829003601f168201915b505050505090806006018054611bb090612534565b80601f0160208091040260200160405190810160405280929190818152602001828054611bdc90612534565b8015611c295780601f10611bfe57610100808354040283529160200191611c29565b820191906000526020600020905b815481529060010190602001808311611c0c57829003601f168201915b505050505090806007018054611c3e90612534565b80601f0160208091040260200160405190810160405280929190818152602001828054611c6a90612534565b8015611cb75780601f10611c8c57610100808354040283529160200191611cb7565b820191906000526020600020905b815481529060010190602001808311611c9a57829003601f168201915b505050505090806008018054611ccc90612534565b80601f0160208091040260200160405190810160405280929190818152602001828054611cf890612534565b8015611d455780601f10611d1a57610100808354040283529160200191611d45565b820191906000526020600020905b815481529060010190602001808311611d2857829003601f168201915b505050505090806009018054611d5a90612534565b80601f0160208091040260200160405190810160405280929190818152602001828054611d8690612534565b8015611dd35780601f10611da857610100808354040283529160200191611dd3565b820191906000526020600020905b815481529060010190602001808311611db657829003601f168201915b50505050509080600a018054611de890612534565b80601f0160208091040260200160405190810160405280929190818152602001828054611e1490612534565b8015611e615780601f10611e3657610100808354040283529160200191611e61565b820191906000526020600020905b815481529060010190602001808311611e4457829003601f168201915b505050505090508b565b828054611e7790612534565b90600052602060002090601f016020900481019282611e995760008555611edf565b82601f10611eb257805160ff1916838001178555611edf565b82800160010185558215611edf579182015b82811115611edf578251825591602001919060010190611ec4565b50611eeb929150611eef565b5090565b5b80821115611eeb5760008155600101611ef0565b634e487b7160e01b600052601160045260246000fd5b60008219821115611f2d57611f2d611f04565b500190565b600060208284031215611f4457600080fd5b5035919050565b6000815180845260005b81811015611f7157602081850181015186830182015201611f55565b81811115611f83576000602083870101525b50601f01601f19169290920160200192915050565b86815260c060208201526000611fb160c0830188611f4b565b8281036040840152611fc38188611f4b565b90508281036060840152611fd78187611f4b565b90508281036080840152611feb8186611f4b565b905082810360a0840152611fff8185611f4b565b9998505050505050505050565b80356001600160a01b038116811461158057600080fd5b60006020828403121561203557600080fd5b61203e8261200c565b9392505050565b6040815260006120586040830185611f4b565b828103602084015261206a8185611f4b565b95945050505050565b634e487b7160e01b600052604160045260246000fd5b600082601f83011261209a57600080fd5b813567ffffffffffffffff808211156120b5576120b5612073565b604051601f8301601f19908116603f011681019082821181831017156120dd576120dd612073565b816040528381528660208588010111156120f657600080fd5b836020870160208301376000602085830101528094505050505092915050565b60008060008060008060008060008060006101608c8e03121561213857600080fd5b8b359a5060208c0135995060408c0135985060608c0135975067ffffffffffffffff8060808e0135111561216b57600080fd5b61217b8e60808f01358f01612089565b97508060a08e0135111561218e57600080fd5b61219e8e60a08f01358f01612089565b96508060c08e013511156121b157600080fd5b6121c18e60c08f01358f01612089565b95508060e08e013511156121d457600080fd5b6121e48e60e08f01358f01612089565b9450806101008e013511156121f857600080fd5b6122098e6101008f01358f01612089565b9350806101208e0135111561221d57600080fd5b61222e8e6101208f01358f01612089565b9250806101408e0135111561224257600080fd5b506122548d6101408e01358e01612089565b90509295989b509295989b9093969950565b6060815260006122796060830186611f4b565b828103602084015261228b8186611f4b565b91505060018060a01b0383166040830152949350505050565b60008060008060008060c087890312156122bd57600080fd5b863567ffffffffffffffff808211156122d557600080fd5b6122e18a838b01612089565b975060208901359150808211156122f757600080fd5b6123038a838b01612089565b965061231160408a0161200c565b9550606089013591508082111561232757600080fd5b6123338a838b01612089565b9450608089013591508082111561234957600080fd5b6123558a838b01612089565b935060a089013591508082111561236b57600080fd5b5061237889828a01612089565b9150509295509295509295565b6000806040838503121561239857600080fd5b6123a18361200c565b946020939093013593505050565b600080604083850312156123c257600080fd5b823591506123d26020840161200c565b90509250929050565b6020808252825182820181905260009190848201906040850190845b81811015612413578351835292840192918401916001016123f7565b50909695505050505050565b60008060008060008060008060008060006101608c8e03121561244157600080fd5b61244a8c61200c565b9a5060208c0135995060408c0135985060608c0135975067ffffffffffffffff8060808e0135111561216b57600080fd5b60006101608d83528c60208401528b60408401528a60608401528060808401526124a78184018b611f4b565b905082810360a08401526124bb818a611f4b565b905082810360c08401526124cf8189611f4b565b905082810360e08401526124e38188611f4b565b90508281036101008401526124f88187611f4b565b905082810361012084015261250d8186611f4b565b90508281036101408401526125228185611f4b565b9e9d5050505050505050505050505050565b600181811c9082168061254857607f821691505b6020821081141561256957634e487b7160e01b600052602260045260246000fd5b50919050565b60208082526011908201527014195c9b5a5cdcda5bdb8819195b9a5959607a1b604082015260600190565b6000828210156125ac576125ac611f04565b500390565b634e487b7160e01b600052603260045260246000fd5b60018060a01b038816815286602082015260e0604082015260006125ee60e0830188611f4b565b82810360608401526126008188611f4b565b905082810360808401526126148187611f4b565b905082810360a08401526126288186611f4b565b905082810360c084015261263c8185611f4b565b9a9950505050505050505050565b600060001982141561265e5761265e611f04565b5060010190565b634e487b7160e01b600052603160045260246000fd5b60008161268a5761268a611f04565b50600019019056fea2646970667358221220266ed76e6e19f1483e90774cc755a50907be7296220a4c13b8d30a101113328f64736f6c634300080b0033","bytecodeSha1":"557e960582f558efa2cf04a721d1ca48629f6f8b","compiler":{"evm_version":"istanbul","optimizer":{"enabled":true,"runs":200},"version":"0.8.11+commit.d7f03943"},"contractName":"Registry","language":"Solidity","natspec":{"kind":"dev","methods":{},"version":1},"opcodes":"PUSH1 0x80 PUSH1 0x40 MSTORE PUSH1 0x4 CALLDATASIZE LT PUSH2 0x1A0 JUMPI PUSH1 0x0 CALLDATALOAD PUSH1 0xE0 SHR DUP1 PUSH4 0x92FD14D0 GT PUSH2 0xEC JUMPI DUP1 PUSH4 0xDD7BFCB8 GT PUSH2 0x8A JUMPI DUP1 PUSH4 0xEDA943B5 GT PUSH2 0x64 JUMPI DUP1 PUSH4 0xEDA943B5 EQ PUSH2 0x571 JUMPI DUP1 PUSH4 0xF26EC417 EQ PUSH2 0x59E JUMPI DUP1 PUSH4 0xF7B10808 EQ PUSH2 0x5BE JUMPI DUP1 PUSH4 0xF969C083 EQ PUSH2 0x5F5 JUMPI PUSH1 0x0 DUP1 REVERT JUMPDEST DUP1 PUSH4 0xDD7BFCB8 EQ PUSH2 0x506 JUMPI DUP1 PUSH4 0xE2D24B44 EQ PUSH2 0x51B JUMPI DUP1 PUSH4 0xE3C16EFE EQ PUSH2 0x53B JUMPI PUSH1 0x0 DUP1 REVERT JUMPDEST DUP1 PUSH4 0xABE1DCF9 GT PUSH2 0xC6 JUMPI DUP1 PUSH4 0xABE1DCF9 EQ PUSH2 0x484 JUMPI DUP1 PUSH4 0xAEB272E8 EQ PUSH2 0x4A4 JUMPI DUP1 PUSH4 0xB7440467 EQ PUSH2 0x4B9 JUMPI DUP1 PUSH4 0xC38C1B35 EQ PUSH2 0x4E6 JUMPI PUSH1 0x0 DUP1 REVERT JUMPDEST DUP1 PUSH4 0x92FD14D0 EQ PUSH2 0x447 JUMPI DUP1 PUSH4 0x9BDB448F EQ PUSH2 0x45C JUMPI DUP1 PUSH4 0xA33B1260 EQ PUSH2 0x47C JUMPI PUSH1 0x0 DUP1 REVERT JUMPDEST DUP1 PUSH4 0x421235D5 GT PUSH2 0x159 JUMPI DUP1 PUSH4 0x60E38AE2 GT PUSH2 0x133 JUMPI DUP1 PUSH4 0x60E38AE2 EQ PUSH2 0x3B6 JUMPI DUP1 PUSH4 0x81B2D07B EQ PUSH2 0x3E5 JUMPI DUP1 PUSH4 0x89CB8F6D EQ PUSH2 0x3FA JUMPI DUP1 PUSH4 0x8D5D3911 EQ PUSH2 0x427 JUMPI PUSH1 0x0 DUP1 REVERT JUMPDEST DUP1 PUSH4 0x421235D5 EQ PUSH2 0x339 JUMPI DUP1 PUSH4 0x4FD1F68B EQ PUSH2 0x366 JUMPI DUP1 PUSH4 0x5BCF4590 EQ PUSH2 0x394 JUMPI PUSH1 0x0 DUP1 REVERT JUMPDEST DUP1 PUSH4 0x25E7C27 EQ PUSH2 0x22A JUMPI DUP1 PUSH4 0x225898C9 EQ PUSH2 0x265 JUMPI DUP1 PUSH4 0x2E735C7D EQ PUSH2 0x29D JUMPI DUP1 PUSH4 0x306ACF02 EQ PUSH2 0x2E1 JUMPI DUP1 PUSH4 0x37EBE47B EQ PUSH2 0x2F6 JUMPI DUP1 PUSH4 0x3E9491A2 EQ PUSH2 0x323 JUMPI PUSH1 0x0 DUP1 REVERT JUMPDEST CALLDATASIZE PUSH2 0x225 JUMPI CALLER PUSH1 0x0 SWAP1 DUP2 MSTORE PUSH1 0x20 DUP2 SWAP1 MSTORE PUSH1 0x40 SWAP1 KECCAK256 SLOAD PUSH2 0x1FF JUMPI PUSH1 0x40 MLOAD PUSH3 0x461BCD PUSH1 0xE5 SHL DUP2 MSTORE PUSH1 0x20 PUSH1 0x4 DUP3 ADD MSTORE PUSH1 0x16 PUSH1 0x24 DUP3 ADD MSTORE PUSH22 0x165BDD48185C99481B9BDD081C9959DA5CDD195C9959 PUSH1 0x52 SHL PUSH1 0x44 DUP3 ADD MSTORE PUSH1 0x64 ADD JUMPDEST PUSH1 0x40 MLOAD DUP1 SWAP2 SUB SWAP1 REVERT JUMPDEST CALLER PUSH1 0x0 SWAP1 DUP2 MSTORE PUSH1 0x3 PUSH1 0x20 MSTORE PUSH1 0x40 DUP2 KECCAK256 DUP1 SLOAD CALLVALUE SWAP3 SWAP1 PUSH2 0x21E SWAP1 DUP5 SWAP1 PUSH2 0x1F1A JUMP JUMPDEST SWAP1 SWAP2 SSTORE POP POP STOP JUMPDEST PUSH1 0x0 DUP1 REVERT JUMPDEST CALLVALUE DUP1 ISZERO PUSH2 0x236 JUMPI PUSH1 0x0 DUP1 REVERT JUMPDEST POP PUSH2 0x24A PUSH2 0x245 CALLDATASIZE PUSH1 0x4 PUSH2 0x1F32 JUMP JUMPDEST PUSH2 0x60A JUMP JUMPDEST PUSH1 0x40 MLOAD PUSH2 0x25C SWAP7 SWAP6 SWAP5 SWAP4 SWAP3 SWAP2 SWAP1 PUSH2 0x1F98 JUMP JUMPDEST PUSH1 0x40 MLOAD DUP1 SWAP2 SUB SWAP1 RETURN JUMPDEST CALLVALUE DUP1 ISZERO PUSH2 0x271 JUMPI PUSH1 0x0 DUP1 REVERT JUMPDEST POP PUSH2 0x285 PUSH2 0x280 CALLDATASIZE PUSH1 0x4 PUSH2 0x1F32 JUMP JUMPDEST PUSH2 0x8FA JUMP JUMPDEST PUSH1 0x40 MLOAD PUSH1 0x1 PUSH1 0x1 PUSH1 0xA0 SHL SUB SWAP1 SWAP2 AND DUP2 MSTORE PUSH1 0x20 ADD PUSH2 0x25C JUMP JUMPDEST CALLVALUE DUP1 ISZERO PUSH2 0x2A9 JUMPI PUSH1 0x0 DUP1 REVERT JUMPDEST POP PUSH2 0x2D3 PUSH2 0x2B8 CALLDATASIZE PUSH1 0x4 PUSH2 0x2023 JUMP JUMPDEST PUSH1 0x1 PUSH1 0x1 PUSH1 0xA0 SHL SUB AND PUSH1 0x0 SWAP1 DUP2 MSTORE PUSH1 0x3 PUSH1 0x20 MSTORE PUSH1 0x40 SWAP1 KECCAK256 SLOAD SWAP1 JUMP JUMPDEST PUSH1 0x40 MLOAD SWAP1 DUP2 MSTORE PUSH1 0x20 ADD PUSH2 0x25C JUMP JUMPDEST CALLVALUE DUP1 ISZERO PUSH2 0x2ED JUMPI PUSH1 0x0 DUP1 REVERT JUMPDEST POP PUSH1 0x8 SLOAD PUSH2 0x2D3 JUMP JUMPDEST CALLVALUE DUP1 ISZERO PUSH2 0x302 JUMPI PUSH1 0x0 DUP1 REVERT JUMPDEST POP PUSH2 0x2D3 PUSH2 0x311 CALLDATASIZE PUSH1 0x4 PUSH2 0x2023 JUMP JUMPDEST PUSH1 0x3 PUSH1 0x20 MSTORE PUSH1 0x0 SWAP1 DUP2 MSTORE PUSH1 0x40 SWAP1 KECCAK256 SLOAD DUP2 JUMP JUMPDEST CALLVALUE DUP1 ISZERO PUSH2 0x32F JUMPI PUSH1 0x0 DUP1 REVERT JUMPDEST POP PUSH2 0x2D3 PUSH1 0xA SLOAD DUP2 JUMP JUMPDEST CALLVALUE DUP1 ISZERO PUSH2 0x345 JUMPI PUSH1 0x0 DUP1 REVERT JUMPDEST POP PUSH2 0x2D3 PUSH2 0x354 CALLDATASIZE PUSH1 0x4 PUSH2 0x2023 JUMP JUMPDEST PUSH1 0x0 PUSH1 0x20 DUP2 SWAP1 MSTORE SWAP1 DUP2 MSTORE PUSH1 0x40 SWAP1 KECCAK256 SLOAD DUP2 JUMP JUMPDEST CALLVALUE DUP1 ISZERO PUSH2 0x372 JUMPI PUSH1 0x0 DUP1 REVERT JUMPDEST POP PUSH2 0x386 PUSH2 0x381 CALLDATASIZE PUSH1 0x4 PUSH2 0x2023 JUMP JUMPDEST PUSH2 0x924 JUMP JUMPDEST PUSH1 0x40 MLOAD PUSH2 0x25C SWAP3 SWAP2 SWAP1 PUSH2 0x2045 JUMP JUMPDEST CALLVALUE DUP1 ISZERO PUSH2 0x3A0 JUMPI PUSH1 0x0 DUP1 REVERT JUMPDEST POP PUSH2 0x3B4 PUSH2 0x3AF CALLDATASIZE PUSH1 0x4 PUSH2 0x2116 JUMP JUMPDEST PUSH2 0xAEC JUMP JUMPDEST STOP JUMPDEST CALLVALUE DUP1 ISZERO PUSH2 0x3C2 JUMPI PUSH1 0x0 DUP1 REVERT JUMPDEST POP PUSH2 0x3D6 PUSH2 0x3D1 CALLDATASIZE PUSH1 0x4 PUSH2 0x1F32 JUMP JUMPDEST PUSH2 0xBDC JUMP JUMPDEST PUSH1 0x40 MLOAD PUSH2 0x25C SWAP4 SWAP3 SWAP2 SWAP1 PUSH2 0x2266 JUMP JUMPDEST CALLVALUE DUP1 ISZERO PUSH2 0x3F1 JUMPI PUSH1 0x0 DUP1 REVERT JUMPDEST POP PUSH2 0x2D3 PUSH2 0xD8E JUMP JUMPDEST CALLVALUE DUP1 ISZERO PUSH2 0x406 JUMPI PUSH1 0x0 DUP1 REVERT JUMPDEST POP PUSH2 0x2D3 PUSH2 0x415 CALLDATASIZE PUSH1 0x4 PUSH2 0x2023 JUMP JUMPDEST PUSH1 0x1 PUSH1 0x20 MSTORE PUSH1 0x0 SWAP1 DUP2 MSTORE PUSH1 0x40 SWAP1 KECCAK256 SLOAD DUP2 JUMP JUMPDEST CALLVALUE DUP1 ISZERO PUSH2 0x433 JUMPI PUSH1 0x0 DUP1 REVERT JUMPDEST POP PUSH2 0x3B4 PUSH2 0x442 CALLDATASIZE PUSH1 0x4 PUSH2 0x22A4 JUMP JUMPDEST PUSH2 0xDC0 JUMP JUMPDEST CALLVALUE DUP1 ISZERO PUSH2 0x453 JUMPI PUSH1 0x0 DUP1 REVERT JUMPDEST POP PUSH1 0x9 SLOAD PUSH2 0x2D3 JUMP JUMPDEST CALLVALUE DUP1 ISZERO PUSH2 0x468 JUMPI PUSH1 0x0 DUP1 REVERT JUMPDEST POP PUSH2 0x2D3 PUSH2 0x477 CALLDATASIZE PUSH1 0x4 PUSH2 0x2385 JUMP JUMPDEST PUSH2 0x104B JUMP JUMPDEST PUSH2 0x3B4 PUSH2 0x107C JUMP JUMPDEST CALLVALUE DUP1 ISZERO PUSH2 0x490 JUMPI PUSH1 0x0 DUP1 REVERT JUMPDEST POP PUSH2 0x3B4 PUSH2 0x49F CALLDATASIZE PUSH1 0x4 PUSH2 0x23AF JUMP JUMPDEST PUSH2 0x116F JUMP JUMPDEST CALLVALUE DUP1 ISZERO PUSH2 0x4B0 JUMPI PUSH1 0x0 DUP1 REVERT JUMPDEST POP PUSH1 0xD SLOAD PUSH2 0x2D3 JUMP JUMPDEST CALLVALUE DUP1 ISZERO PUSH2 0x4C5 JUMPI PUSH1 0x0 DUP1 REVERT JUMPDEST POP PUSH2 0x4D9 PUSH2 0x4D4 CALLDATASIZE PUSH1 0x4 PUSH2 0x2023 JUMP JUMPDEST PUSH2 0x14ED JUMP JUMPDEST PUSH1 0x40 MLOAD PUSH2 0x25C SWAP2 SWAP1 PUSH2 0x23DB JUMP JUMPDEST CALLVALUE DUP1 ISZERO PUSH2 0x4F2 JUMPI PUSH1 0x0 DUP1 REVERT JUMPDEST POP PUSH2 0x3B4 PUSH2 0x501 CALLDATASIZE PUSH1 0x4 PUSH2 0x241F JUMP JUMPDEST PUSH2 0x1585 JUMP JUMPDEST CALLVALUE DUP1 ISZERO PUSH2 0x512 JUMPI PUSH1 0x0 DUP1 REVERT JUMPDEST POP PUSH2 0x2D3 PUSH2 0x19B7 JUMP JUMPDEST CALLVALUE DUP1 ISZERO PUSH2 0x527 JUMPI PUSH1 0x0 DUP1 REVERT JUMPDEST POP PUSH2 0x3B4 PUSH2 0x536 CALLDATASIZE PUSH1 0x4 PUSH2 0x1F32 JUMP JUMPDEST PUSH2 0x19EB JUMP JUMPDEST CALLVALUE DUP1 ISZERO PUSH2 0x547 JUMPI PUSH1 0x0 DUP1 REVERT JUMPDEST POP PUSH2 0x2D3 PUSH2 0x556 CALLDATASIZE PUSH1 0x4 PUSH2 0x2023 JUMP JUMPDEST PUSH1 0x1 PUSH1 0x1 PUSH1 0xA0 SHL SUB AND PUSH1 0x0 SWAP1 DUP2 MSTORE PUSH1 0x1 PUSH1 0x20 MSTORE PUSH1 0x40 SWAP1 KECCAK256 SLOAD SWAP1 JUMP JUMPDEST CALLVALUE DUP1 ISZERO PUSH2 0x57D JUMPI PUSH1 0x0 DUP1 REVERT JUMPDEST POP PUSH2 0x2D3 PUSH2 0x58C CALLDATASIZE PUSH1 0x4 PUSH2 0x1F32 JUMP JUMPDEST PUSH1 0x5 PUSH1 0x20 MSTORE PUSH1 0x0 SWAP1 DUP2 MSTORE PUSH1 0x40 SWAP1 KECCAK256 SLOAD DUP2 JUMP JUMPDEST CALLVALUE DUP1 ISZERO PUSH2 0x5AA JUMPI PUSH1 0x0 DUP1 REVERT JUMPDEST POP PUSH2 0x3B4 PUSH2 0x5B9 CALLDATASIZE PUSH1 0x4 PUSH2 0x1F32 JUMP JUMPDEST PUSH2 0x1A1A JUMP JUMPDEST CALLVALUE DUP1 ISZERO PUSH2 0x5CA JUMPI PUSH1 0x0 DUP1 REVERT JUMPDEST POP PUSH2 0x5DE PUSH2 0x5D9 CALLDATASIZE PUSH1 0x4 PUSH2 0x1F32 JUMP JUMPDEST PUSH2 0x1A49 JUMP JUMPDEST PUSH1 0x40 MLOAD PUSH2 0x25C SWAP12 SWAP11 SWAP10 SWAP9 SWAP8 SWAP7 SWAP6 SWAP5 SWAP4 SWAP3 SWAP2 SWAP1 PUSH2 0x247B JUMP JUMPDEST CALLVALUE DUP1 ISZERO PUSH2 0x601 JUMPI PUSH1 0x0 DUP1 REVERT JUMPDEST POP PUSH1 0xC SLOAD PUSH2 0x2D3 JUMP JUMPDEST PUSH1 0xD DUP2 DUP2 SLOAD DUP2 LT PUSH2 0x61A JUMPI PUSH1 0x0 DUP1 REVERT JUMPDEST PUSH1 0x0 SWAP2 DUP3 MSTORE PUSH1 0x20 SWAP1 SWAP2 KECCAK256 PUSH1 0x6 SWAP1 SWAP2 MUL ADD DUP1 SLOAD PUSH1 0x1 DUP3 ADD DUP1 SLOAD SWAP2 SWAP4 POP SWAP1 PUSH2 0x63F SWAP1 PUSH2 0x2534 JUMP JUMPDEST DUP1 PUSH1 0x1F ADD PUSH1 0x20 DUP1 SWAP2 DIV MUL PUSH1 0x20 ADD PUSH1 0x40 MLOAD SWAP1 DUP2 ADD PUSH1 0x40 MSTORE DUP1 SWAP3 SWAP2 SWAP1 DUP2 DUP2 MSTORE PUSH1 0x20 ADD DUP3 DUP1 SLOAD PUSH2 0x66B SWAP1 PUSH2 0x2534 JUMP JUMPDEST DUP1 ISZERO PUSH2 0x6B8 JUMPI DUP1 PUSH1 0x1F LT PUSH2 0x68D JUMPI PUSH2 0x100 DUP1 DUP4 SLOAD DIV MUL DUP4 MSTORE SWAP2 PUSH1 0x20 ADD SWAP2 PUSH2 0x6B8 JUMP JUMPDEST DUP3 ADD SWAP2 SWAP1 PUSH1 0x0 MSTORE PUSH1 0x20 PUSH1 0x0 KECCAK256 SWAP1 JUMPDEST DUP2 SLOAD DUP2 MSTORE SWAP1 PUSH1 0x1 ADD SWAP1 PUSH1 0x20 ADD DUP1 DUP4 GT PUSH2 0x69B JUMPI DUP3 SWAP1 SUB PUSH1 0x1F AND DUP3 ADD SWAP2 JUMPDEST POP POP POP POP POP SWAP1 DUP1 PUSH1 0x2 ADD DUP1 SLOAD PUSH2 0x6CD SWAP1 PUSH2 0x2534 JUMP JUMPDEST DUP1 PUSH1 0x1F ADD PUSH1 0x20 DUP1 SWAP2 DIV MUL PUSH1 0x20 ADD PUSH1 0x40 MLOAD SWAP1 DUP2 ADD PUSH1 0x40 MSTORE DUP1 SWAP3 SWAP2 SWAP1 DUP2 DUP2 MSTORE PUSH1 0x20 ADD DUP3 DUP1 SLOAD PUSH2 0x6F9 SWAP1 PUSH2 0x2534 JUMP JUMPDEST DUP1 ISZERO PUSH2 0x746 JUMPI DUP1 PUSH1 0x1F LT PUSH2 0x71B JUMPI PUSH2 0x100 DUP1 DUP4 SLOAD DIV MUL DUP4 MSTORE SWAP2 PUSH1 0x20 ADD SWAP2 PUSH2 0x746 JUMP JUMPDEST DUP3 ADD SWAP2 SWAP1 PUSH1 0x0 MSTORE PUSH1 0x20 PUSH1 0x0 KECCAK256 SWAP1 JUMPDEST DUP2 SLOAD DUP2 MSTORE SWAP1 PUSH1 0x1 ADD SWAP1 PUSH1 0x20 ADD DUP1 DUP4 GT PUSH2 0x729 JUMPI DUP3 SWAP1 SUB PUSH1 0x1F AND DUP3 ADD SWAP2 JUMPDEST POP POP POP POP POP SWAP1 DUP1 PUSH1 0x3 ADD DUP1 SLOAD PUSH2 0x75B SWAP1 PUSH2 0x2534 JUMP JUMPDEST DUP1 PUSH1 0x1F ADD PUSH1 0x20 DUP1 SWAP2 DIV MUL PUSH1 0x20 ADD PUSH1 0x40 MLOAD SWAP1 DUP2 ADD PUSH1 0x40 MSTORE DUP1 SWAP3 SWAP2 SWAP1 DUP2 DUP2 MSTORE PUSH1 0x20 ADD DUP3 DUP1 SLOAD PUSH2 0x787 SWAP1 PUSH2 0x2534 JUMP JUMPDEST DUP1 ISZERO PUSH2 0x7D4 JUMPI DUP1 PUSH1 0x1F LT PUSH2 0x7A9 JUMPI PUSH2 0x100 DUP1 DUP4 SLOAD DIV MUL DUP4 MSTORE SWAP2 PUSH1 0x20 ADD SWAP2 PUSH2 0x7D4 JUMP JUMPDEST DUP3 ADD SWAP2 SWAP1 PUSH1 0x0 MSTORE PUSH1 0x20 PUSH1 0x0 KECCAK256 SWAP1 JUMPDEST DUP2 SLOAD DUP2 MSTORE SWAP1 PUSH1 0x1 ADD SWAP1 PUSH1 0x20 ADD DUP1 DUP4 GT PUSH2 0x7B7 JUMPI DUP3 SWAP1 SUB PUSH1 0x1F AND DUP3 ADD SWAP2 JUMPDEST POP POP POP POP POP SWAP1 DUP1 PUSH1 0x4 ADD DUP1 SLOAD PUSH2 0x7E9 SWAP1 PUSH2 0x2534 JUMP JUMPDEST DUP1 PUSH1 0x1F ADD PUSH1 0x20 DUP1 SWAP2 DIV MUL PUSH1 0x20 ADD PUSH1 0x40 MLOAD SWAP1 DUP2 ADD PUSH1 0x40 MSTORE DUP1 SWAP3 SWAP2 SWAP1 DUP2 DUP2 MSTORE PUSH1 0x20 ADD DUP3 DUP1 SLOAD PUSH2 0x815 SWAP1 PUSH2 0x2534 JUMP JUMPDEST DUP1 ISZERO PUSH2 0x862 JUMPI DUP1 PUSH1 0x1F LT PUSH2 0x837 JUMPI PUSH2 0x100 DUP1 DUP4 SLOAD DIV MUL DUP4 MSTORE SWAP2 PUSH1 0x20 ADD SWAP2 PUSH2 0x862 JUMP JUMPDEST DUP3 ADD SWAP2 SWAP1 PUSH1 0x0 MSTORE PUSH1 0x20 PUSH1 0x0 KECCAK256 SWAP1 JUMPDEST DUP2 SLOAD DUP2 MSTORE SWAP1 PUSH1 0x1 ADD SWAP1 PUSH1 0x20 ADD DUP1 DUP4 GT PUSH2 0x845 JUMPI DUP3 SWAP1 SUB PUSH1 0x1F AND DUP3 ADD SWAP2 JUMPDEST POP POP POP POP POP SWAP1 DUP1 PUSH1 0x5 ADD DUP1 SLOAD PUSH2 0x877 SWAP1 PUSH2 0x2534 JUMP JUMPDEST DUP1 PUSH1 0x1F ADD PUSH1 0x20 DUP1 SWAP2 DIV MUL PUSH1 0x20 ADD PUSH1 0x40 MLOAD SWAP1 DUP2 ADD PUSH1 0x40 MSTORE DUP1 SWAP3 SWAP2 SWAP1 DUP2 DUP2 MSTORE PUSH1 0x20 ADD DUP3 DUP1 SLOAD PUSH2 0x8A3 SWAP1 PUSH2 0x2534 JUMP JUMPDEST DUP1 ISZERO PUSH2 0x8F0 JUMPI DUP1 PUSH1 0x1F LT PUSH2 0x8C5 JUMPI PUSH2 0x100 DUP1 DUP4 SLOAD DIV MUL DUP4 MSTORE SWAP2 PUSH1 0x20 ADD SWAP2 PUSH2 0x8F0 JUMP JUMPDEST DUP3 ADD SWAP2 SWAP1 PUSH1 0x0 MSTORE PUSH1 0x20 PUSH1 0x0 KECCAK256 SWAP1 JUMPDEST DUP2 SLOAD DUP2 MSTORE SWAP1 PUSH1 0x1 ADD SWAP1 PUSH1 0x20 ADD DUP1 DUP4 GT PUSH2 0x8D3 JUMPI DUP3 SWAP1 SUB PUSH1 0x1F AND DUP3 ADD SWAP2 JUMPDEST POP POP POP POP POP SWAP1 POP DUP7 JUMP JUMPDEST PUSH1 0xE DUP2 DUP2 SLOAD DUP2 LT PUSH2 0x90A JUMPI PUSH1 0x0 DUP1 REVERT JUMPDEST PUSH1 0x0 SWAP2 DUP3 MSTORE PUSH1 0x20 SWAP1 SWAP2 KECCAK256 ADD SLOAD PUSH1 0x1 PUSH1 0x1 PUSH1 0xA0 SHL SUB AND SWAP1 POP DUP2 JUMP JUMPDEST PUSH1 0xB SLOAD PUSH1 0x60 SWAP1 DUP2 SWAP1 PUSH1 0x1 PUSH1 0x1 PUSH1 0xA0 SHL SUB AND CALLER EQ PUSH2 0x953 JUMPI PUSH1 0x40 MLOAD PUSH3 0x461BCD PUSH1 0xE5 SHL DUP2 MSTORE PUSH1 0x4 ADD PUSH2 0x1F6 SWAP1 PUSH2 0x256F JUMP JUMPDEST PUSH1 0x1 PUSH1 0x1 PUSH1 0xA0 SHL SUB DUP4 AND PUSH1 0x0 SWAP1 DUP2 MSTORE PUSH1 0x20 DUP2 SWAP1 MSTORE PUSH1 0x40 SWAP1 KECCAK256 SLOAD PUSH1 0xD PUSH2 0x979 PUSH1 0x1 DUP4 PUSH2 0x259A JUMP JUMPDEST DUP2 SLOAD DUP2 LT PUSH2 0x989 JUMPI PUSH2 0x989 PUSH2 0x25B1 JUMP JUMPDEST SWAP1 PUSH1 0x0 MSTORE PUSH1 0x20 PUSH1 0x0 KECCAK256 SWAP1 PUSH1 0x6 MUL ADD PUSH1 0x1 ADD PUSH1 0xD PUSH1 0x1 DUP4 PUSH2 0x9A9 SWAP2 SWAP1 PUSH2 0x259A JUMP JUMPDEST DUP2 SLOAD DUP2 LT PUSH2 0x9B9 JUMPI PUSH2 0x9B9 PUSH2 0x25B1 JUMP JUMPDEST SWAP1 PUSH1 0x0 MSTORE PUSH1 0x20 PUSH1 0x0 KECCAK256 SWAP1 PUSH1 0x6 MUL ADD PUSH1 0x2 ADD DUP2 DUP1 SLOAD PUSH2 0x9D6 SWAP1 PUSH2 0x2534 JUMP JUMPDEST DUP1 PUSH1 0x1F ADD PUSH1 0x20 DUP1 SWAP2 DIV MUL PUSH1 0x20 ADD PUSH1 0x40 MLOAD SWAP1 DUP2 ADD PUSH1 0x40 MSTORE DUP1 SWAP3 SWAP2 SWAP1 DUP2 DUP2 MSTORE PUSH1 0x20 ADD DUP3 DUP1 SLOAD PUSH2 0xA02 SWAP1 PUSH2 0x2534 JUMP JUMPDEST DUP1 ISZERO PUSH2 0xA4F JUMPI DUP1 PUSH1 0x1F LT PUSH2 0xA24 JUMPI PUSH2 0x100 DUP1 DUP4 SLOAD DIV MUL DUP4 MSTORE SWAP2 PUSH1 0x20 ADD SWAP2 PUSH2 0xA4F JUMP JUMPDEST DUP3 ADD SWAP2 SWAP1 PUSH1 0x0 MSTORE PUSH1 0x20 PUSH1 0x0 KECCAK256 SWAP1 JUMPDEST DUP2 SLOAD DUP2 MSTORE SWAP1 PUSH1 0x1 ADD SWAP1 PUSH1 0x20 ADD DUP1 DUP4 GT PUSH2 0xA32 JUMPI DUP3 SWAP1 SUB PUSH1 0x1F AND DUP3 ADD SWAP2 JUMPDEST POP POP POP POP POP SWAP2 POP DUP1 DUP1 SLOAD PUSH2 0xA62 SWAP1 PUSH2 0x2534 JUMP JUMPDEST DUP1 PUSH1 0x1F ADD PUSH1 0x20 DUP1 SWAP2 DIV MUL PUSH1 0x20 ADD PUSH1 0x40 MLOAD SWAP1 DUP2 ADD PUSH1 0x40 MSTORE DUP1 SWAP3 SWAP2 SWAP1 DUP2 DUP2 MSTORE PUSH1 0x20 ADD DUP3 DUP1 SLOAD PUSH2 0xA8E SWAP1 PUSH2 0x2534 JUMP JUMPDEST DUP1 ISZERO PUSH2 0xADB JUMPI DUP1 PUSH1 0x1F LT PUSH2 0xAB0 JUMPI PUSH2 0x100 DUP1 DUP4 SLOAD DIV MUL DUP4 MSTORE SWAP2 PUSH1 0x20 ADD SWAP2 PUSH2 0xADB JUMP JUMPDEST DUP3 ADD SWAP2 SWAP1 PUSH1 0x0 MSTORE PUSH1 0x20 PUSH1 0x0 KECCAK256 SWAP1 JUMPDEST DUP2 SLOAD DUP2 MSTORE SWAP1 PUSH1 0x1 ADD SWAP1 PUSH1 0x20 ADD DUP1 DUP4 GT PUSH2 0xABE JUMPI DUP3 SWAP1 SUB PUSH1 0x1F AND DUP3 ADD SWAP2 JUMPDEST POP POP POP POP POP SWAP1 POP SWAP3 POP SWAP3 POP POP SWAP2 POP SWAP2 JUMP JUMPDEST PUSH1 0x0 PUSH1 0xC PUSH2 0xAFB PUSH1 0x1 DUP15 PUSH2 0x259A JUMP JUMPDEST DUP2 SLOAD DUP2 LT PUSH2 0xB0B JUMPI PUSH2 0xB0B PUSH2 0x25B1 JUMP JUMPDEST PUSH1 0x0 SWAP2 DUP3 MSTORE PUSH1 0x20 SWAP2 DUP3 SWAP1 KECCAK256 PUSH1 0x1 PUSH1 0xB SWAP1 SWAP3 MUL ADD SWAP1 DUP2 ADD DUP14 SWAP1 SSTORE PUSH1 0x2 DUP2 ADD DUP13 SWAP1 SSTORE PUSH1 0x3 DUP2 ADD DUP12 SWAP1 SSTORE DUP10 MLOAD SWAP1 SWAP3 POP PUSH2 0xB49 SWAP2 PUSH1 0x4 DUP5 ADD SWAP2 SWAP1 DUP12 ADD SWAP1 PUSH2 0x1E6B JUMP JUMPDEST POP DUP7 MLOAD PUSH2 0xB5F SWAP1 PUSH1 0x5 DUP4 ADD SWAP1 PUSH1 0x20 DUP11 ADD SWAP1 PUSH2 0x1E6B JUMP JUMPDEST POP DUP6 MLOAD PUSH2 0xB75 SWAP1 PUSH1 0x6 DUP4 ADD SWAP1 PUSH1 0x20 DUP10 ADD SWAP1 PUSH2 0x1E6B JUMP JUMPDEST POP DUP5 MLOAD PUSH2 0xB8B SWAP1 PUSH1 0x7 DUP4 ADD SWAP1 PUSH1 0x20 DUP9 ADD SWAP1 PUSH2 0x1E6B JUMP JUMPDEST POP DUP4 MLOAD PUSH2 0xBA1 SWAP1 PUSH1 0x8 DUP4 ADD SWAP1 PUSH1 0x20 DUP8 ADD SWAP1 PUSH2 0x1E6B JUMP JUMPDEST POP DUP3 MLOAD PUSH2 0xBB7 SWAP1 PUSH1 0x9 DUP4 ADD SWAP1 PUSH1 0x20 DUP7 ADD SWAP1 PUSH2 0x1E6B JUMP JUMPDEST POP DUP2 MLOAD PUSH2 0xBCD SWAP1 PUSH1 0xA DUP4 ADD SWAP1 PUSH1 0x20 DUP6 ADD SWAP1 PUSH2 0x1E6B JUMP JUMPDEST POP POP POP POP POP POP POP POP POP POP POP POP POP JUMP JUMPDEST PUSH1 0x0 DUP2 DUP2 MSTORE PUSH1 0x2 PUSH1 0x20 SWAP1 DUP2 MSTORE PUSH1 0x40 DUP1 DUP4 KECCAK256 SLOAD PUSH1 0x1 PUSH1 0x1 PUSH1 0xA0 SHL SUB AND DUP1 DUP5 MSTORE SWAP2 DUP4 SWAP1 MSTORE DUP3 KECCAK256 SLOAD PUSH1 0x60 SWAP3 DUP4 SWAP3 SWAP1 SWAP2 PUSH1 0xD PUSH2 0xC15 PUSH1 0x1 DUP4 PUSH2 0x259A JUMP JUMPDEST DUP2 SLOAD DUP2 LT PUSH2 0xC25 JUMPI PUSH2 0xC25 PUSH2 0x25B1 JUMP JUMPDEST SWAP1 PUSH1 0x0 MSTORE PUSH1 0x20 PUSH1 0x0 KECCAK256 SWAP1 PUSH1 0x6 MUL ADD PUSH1 0x1 ADD PUSH1 0xD PUSH1 0x1 DUP4 PUSH2 0xC45 SWAP2 SWAP1 PUSH2 0x259A JUMP JUMPDEST DUP2 SLOAD DUP2 LT PUSH2 0xC55 JUMPI PUSH2 0xC55 PUSH2 0x25B1 JUMP JUMPDEST SWAP1 PUSH1 0x0 MSTORE PUSH1 0x20 PUSH1 0x0 KECCAK256 SWAP1 PUSH1 0x6 MUL ADD PUSH1 0x2 ADD DUP4 DUP3 DUP1 SLOAD PUSH2 0xC73 SWAP1 PUSH2 0x2534 JUMP JUMPDEST DUP1 PUSH1 0x1F ADD PUSH1 0x20 DUP1 SWAP2 DIV MUL PUSH1 0x20 ADD PUSH1 0x40 MLOAD SWAP1 DUP2 ADD PUSH1 0x40 MSTORE DUP1 SWAP3 SWAP2 SWAP1 DUP2 DUP2 MSTORE PUSH1 0x20 ADD DUP3 DUP1 SLOAD PUSH2 0xC9F SWAP1 PUSH2 0x2534 JUMP JUMPDEST DUP1 ISZERO PUSH2 0xCEC JUMPI DUP1 PUSH1 0x1F LT PUSH2 0xCC1 JUMPI PUSH2 0x100 DUP1 DUP4 SLOAD DIV MUL DUP4 MSTORE SWAP2 PUSH1 0x20 ADD SWAP2 PUSH2 0xCEC JUMP JUMPDEST DUP3 ADD SWAP2 SWAP1 PUSH1 0x0 MSTORE PUSH1 0x20 PUSH1 0x0 KECCAK256 SWAP1 JUMPDEST DUP2 SLOAD DUP2 MSTORE SWAP1 PUSH1 0x1 ADD SWAP1 PUSH1 0x20 ADD DUP1 DUP4 GT PUSH2 0xCCF JUMPI DUP3 SWAP1 SUB PUSH1 0x1F AND DUP3 ADD SWAP2 JUMPDEST POP POP POP POP POP SWAP3 POP DUP2 DUP1 SLOAD PUSH2 0xCFF SWAP1 PUSH2 0x2534 JUMP JUMPDEST DUP1 PUSH1 0x1F ADD PUSH1 0x20 DUP1 SWAP2 DIV MUL PUSH1 0x20 ADD PUSH1 0x40 MLOAD SWAP1 DUP2 ADD PUSH1 0x40 MSTORE DUP1 SWAP3 SWAP2 SWAP1 DUP2 DUP2 MSTORE PUSH1 0x20 ADD DUP3 DUP1 SLOAD PUSH2 0xD2B SWAP1 PUSH2 0x2534 JUMP JUMPDEST DUP1 ISZERO PUSH2 0xD78 JUMPI DUP1 PUSH1 0x1F LT PUSH2 0xD4D JUMPI PUSH2 0x100 DUP1 DUP4 SLOAD DIV MUL DUP4 MSTORE SWAP2 PUSH1 0x20 ADD SWAP2 PUSH2 0xD78 JUMP JUMPDEST DUP3 ADD SWAP2 SWAP1 PUSH1 0x0 MSTORE PUSH1 0x20 PUSH1 0x0 KECCAK256 SWAP1 JUMPDEST DUP2 SLOAD DUP2 MSTORE SWAP1 PUSH1 0x1 ADD SWAP1 PUSH1 0x20 ADD DUP1 DUP4 GT PUSH2 0xD5B JUMPI DUP3 SWAP1 SUB PUSH1 0x1F AND DUP3 ADD SWAP2 JUMPDEST POP POP POP POP POP SWAP2 POP SWAP5 POP SWAP5 POP SWAP5 POP POP POP SWAP2 SWAP4 SWAP1 SWAP3 POP JUMP JUMPDEST PUSH1 0xB SLOAD PUSH1 0x0 SWAP1 PUSH1 0x1 PUSH1 0x1 PUSH1 0xA0 SHL SUB AND CALLER EQ PUSH2 0xDBB JUMPI PUSH1 0x40 MLOAD PUSH3 0x461BCD PUSH1 0xE5 SHL DUP2 MSTORE PUSH1 0x4 ADD PUSH2 0x1F6 SWAP1 PUSH2 0x256F JUMP JUMPDEST POP SELFBALANCE SWAP1 JUMP JUMPDEST PUSH1 0xB SLOAD PUSH1 0x1 PUSH1 0x1 PUSH1 0xA0 SHL SUB AND CALLER EQ PUSH2 0xDEA JUMPI PUSH1 0x40 MLOAD PUSH3 0x461BCD PUSH1 0xE5 SHL DUP2 MSTORE PUSH1 0x4 ADD PUSH2 0x1F6 SWAP1 PUSH2 0x256F JUMP JUMPDEST PUSH1 0x1 PUSH1 0x1 PUSH1 0xA0 SHL SUB DUP5 AND PUSH1 0x0 SWAP1 DUP2 MSTORE PUSH1 0x20 DUP2 SWAP1 MSTORE PUSH1 0x40 SWAP1 KECCAK256 SLOAD ISZERO PUSH2 0xE50 JUMPI PUSH1 0x40 MLOAD PUSH3 0x461BCD PUSH1 0xE5 SHL DUP2 MSTORE PUSH1 0x20 PUSH1 0x4 DUP3 ADD MSTORE PUSH1 0x1E PUSH1 0x24 DUP3 ADD MSTORE PUSH32 0x4164647265737320697320616C726561647920726567697374657265642E0000 PUSH1 0x44 DUP3 ADD MSTORE PUSH1 0x64 ADD PUSH2 0x1F6 JUMP JUMPDEST PUSH1 0x40 DUP1 MLOAD PUSH1 0xC0 DUP2 ADD DUP3 MSTORE PUSH1 0x6 DUP1 SLOAD DUP3 MSTORE PUSH1 0x20 DUP1 DUP4 ADD DUP11 DUP2 MSTORE SWAP4 DUP4 ADD DUP10 SWAP1 MSTORE PUSH1 0x60 DUP4 ADD DUP8 SWAP1 MSTORE PUSH1 0x80 DUP4 ADD DUP7 SWAP1 MSTORE PUSH1 0xA0 DUP4 ADD DUP6 SWAP1 MSTORE PUSH1 0xD DUP1 SLOAD PUSH1 0x1 DUP2 ADD DUP3 SSTORE PUSH1 0x0 SWAP2 SWAP1 SWAP2 MSTORE DUP4 MLOAD SWAP3 MUL PUSH32 0xD7B6990105719101DABEB77144F2A3385C8033ACD3AF97E9423A695E81AD1EB5 DUP2 ADD SWAP3 DUP4 SSTORE SWAP4 MLOAD DUP1 MLOAD SWAP4 SWAP5 SWAP3 SWAP4 PUSH2 0xEF6 SWAP4 PUSH32 0xD7B6990105719101DABEB77144F2A3385C8033ACD3AF97E9423A695E81AD1EB6 ADD SWAP3 SWAP2 SWAP1 SWAP2 ADD SWAP1 PUSH2 0x1E6B JUMP JUMPDEST POP PUSH1 0x40 DUP3 ADD MLOAD DUP1 MLOAD PUSH2 0xF12 SWAP2 PUSH1 0x2 DUP5 ADD SWAP2 PUSH1 0x20 SWAP1 SWAP2 ADD SWAP1 PUSH2 0x1E6B JUMP JUMPDEST POP PUSH1 0x60 DUP3 ADD MLOAD DUP1 MLOAD PUSH2 0xF2E SWAP2 PUSH1 0x3 DUP5 ADD SWAP2 PUSH1 0x20 SWAP1 SWAP2 ADD SWAP1 PUSH2 0x1E6B JUMP JUMPDEST POP PUSH1 0x80 DUP3 ADD MLOAD DUP1 MLOAD PUSH2 0xF4A SWAP2 PUSH1 0x4 DUP5 ADD SWAP2 PUSH1 0x20 SWAP1 SWAP2 ADD SWAP1 PUSH2 0x1E6B JUMP JUMPDEST POP PUSH1 0xA0 DUP3 ADD MLOAD DUP1 MLOAD PUSH2 0xF66 SWAP2 PUSH1 0x5 DUP5 ADD SWAP2 PUSH1 0x20 SWAP1 SWAP2 ADD SWAP1 PUSH2 0x1E6B JUMP JUMPDEST POP POP PUSH1 0xE DUP1 SLOAD PUSH1 0x1 DUP2 ADD DUP3 SSTORE PUSH1 0x0 SWAP2 SWAP1 SWAP2 MSTORE PUSH32 0xBB7B4A454DC3493923482F07822329ED19E8244EFF582CC204F8554C3620C3FD ADD DUP1 SLOAD PUSH1 0x1 PUSH1 0x1 PUSH1 0xA0 SHL SUB NOT AND PUSH1 0x1 PUSH1 0x1 PUSH1 0xA0 SHL SUB DUP8 AND OR SWAP1 SSTORE POP PUSH1 0x6 SLOAD PUSH1 0x40 MLOAD PUSH32 0xE6D2B367293BC1AE37F7C0ECD6E2FB1DF341A2C0194E8D70775C415495B8ACE5 SWAP2 PUSH2 0xFF2 SWAP2 DUP8 SWAP2 SWAP1 DUP11 SWAP1 DUP11 SWAP1 DUP10 SWAP1 DUP10 SWAP1 DUP10 SWAP1 PUSH2 0x25C7 JUMP JUMPDEST PUSH1 0x40 MLOAD DUP1 SWAP2 SUB SWAP1 LOG1 PUSH1 0x6 DUP1 SLOAD PUSH1 0x1 PUSH1 0x1 PUSH1 0xA0 SHL SUB DUP7 AND PUSH1 0x0 SWAP1 DUP2 MSTORE PUSH1 0x20 DUP2 SWAP1 MSTORE PUSH1 0x40 DUP2 KECCAK256 DUP3 SWAP1 SSTORE SWAP1 SWAP2 SWAP1 PUSH2 0x1025 DUP4 PUSH2 0x264A JUMP JUMPDEST SWAP1 SWAP2 SSTORE POP POP POP PUSH1 0x1 PUSH1 0x1 PUSH1 0xA0 SHL SUB SWAP1 SWAP3 AND PUSH1 0x0 SWAP1 DUP2 MSTORE PUSH1 0x3 PUSH1 0x20 MSTORE PUSH1 0x40 DUP2 KECCAK256 SSTORE POP POP POP POP JUMP JUMPDEST PUSH1 0x4 PUSH1 0x20 MSTORE DUP2 PUSH1 0x0 MSTORE PUSH1 0x40 PUSH1 0x0 KECCAK256 DUP2 DUP2 SLOAD DUP2 LT PUSH2 0x1067 JUMPI PUSH1 0x0 DUP1 REVERT JUMPDEST SWAP1 PUSH1 0x0 MSTORE PUSH1 0x20 PUSH1 0x0 KECCAK256 ADD PUSH1 0x0 SWAP2 POP SWAP2 POP POP SLOAD DUP2 JUMP JUMPDEST PUSH1 0xB SLOAD PUSH1 0x1 PUSH1 0x1 PUSH1 0xA0 SHL SUB AND CALLER EQ PUSH2 0x10A6 JUMPI PUSH1 0x40 MLOAD PUSH3 0x461BCD PUSH1 0xE5 SHL DUP2 MSTORE PUSH1 0x4 ADD PUSH2 0x1F6 SWAP1 PUSH2 0x256F JUMP JUMPDEST PUSH1 0xB SLOAD PUSH1 0x1 PUSH1 0x1 PUSH1 0xA0 SHL SUB AND PUSH1 0xA SELFBALANCE GT PUSH2 0x10BF JUMPI PUSH1 0x0 DUP1 REVERT JUMPDEST PUSH1 0x0 PUSH1 0xA DUP1 SLOAD PUSH2 0x10CF SWAP2 SWAP1 PUSH2 0x259A JUMP JUMPDEST PUSH1 0xA DUP1 SSTORE PUSH1 0x40 MLOAD SWAP1 SWAP2 POP PUSH1 0x0 SWAP1 PUSH1 0x1 PUSH1 0x1 PUSH1 0xA0 SHL SUB DUP5 AND SWAP1 DUP4 SWAP1 DUP4 DUP2 DUP2 DUP2 DUP6 DUP8 GAS CALL SWAP3 POP POP POP RETURNDATASIZE DUP1 PUSH1 0x0 DUP2 EQ PUSH2 0x1121 JUMPI PUSH1 0x40 MLOAD SWAP2 POP PUSH1 0x1F NOT PUSH1 0x3F RETURNDATASIZE ADD AND DUP3 ADD PUSH1 0x40 MSTORE RETURNDATASIZE DUP3 MSTORE RETURNDATASIZE PUSH1 0x0 PUSH1 0x20 DUP5 ADD RETURNDATACOPY PUSH2 0x1126 JUMP JUMPDEST PUSH1 0x60 SWAP2 POP JUMPDEST POP POP SWAP1 POP DUP1 PUSH2 0x116A JUMPI PUSH1 0x40 MLOAD PUSH3 0x461BCD PUSH1 0xE5 SHL DUP2 MSTORE PUSH1 0x20 PUSH1 0x4 DUP3 ADD MSTORE PUSH1 0x10 PUSH1 0x24 DUP3 ADD MSTORE PUSH16 0x2A3930B739B332B9103330B4B632B217 PUSH1 0x81 SHL PUSH1 0x44 DUP3 ADD MSTORE PUSH1 0x64 ADD PUSH2 0x1F6 JUMP JUMPDEST POP POP POP JUMP JUMPDEST PUSH1 0x0 DUP3 DUP2 MSTORE PUSH1 0x2 PUSH1 0x20 MSTORE PUSH1 0x40 SWAP1 KECCAK256 SLOAD PUSH1 0x1 PUSH1 0x1 PUSH1 0xA0 SHL SUB AND CALLER EQ PUSH2 0x1214 JUMPI PUSH1 0x40 MLOAD PUSH3 0x461BCD PUSH1 0xE5 SHL DUP2 MSTORE PUSH1 0x20 PUSH1 0x4 DUP3 ADD MSTORE PUSH1 0x50 PUSH1 0x24 DUP3 ADD MSTORE PUSH32 0x4F6E6C79204F776E6572732063616E207472616E736665722070726F70657274 PUSH1 0x44 DUP3 ADD MSTORE PUSH32 0x792E20576520646F206E6F74206861766520796F75206173206F776E6572206F PUSH1 0x64 DUP3 ADD MSTORE PUSH16 0x33103A3434B990383937B832B93A3C97 PUSH1 0x81 SHL PUSH1 0x84 DUP3 ADD MSTORE PUSH1 0xA4 ADD PUSH2 0x1F6 JUMP JUMPDEST PUSH1 0x9 SLOAD PUSH1 0x1 PUSH1 0x1 PUSH1 0xA0 SHL SUB DUP3 AND PUSH1 0x0 SWAP1 DUP2 MSTORE PUSH1 0x3 PUSH1 0x20 MSTORE PUSH1 0x40 SWAP1 KECCAK256 SLOAD LT ISZERO PUSH2 0x12A4 JUMPI PUSH1 0x40 MLOAD PUSH3 0x461BCD PUSH1 0xE5 SHL DUP2 MSTORE PUSH1 0x20 PUSH1 0x4 DUP3 ADD MSTORE PUSH1 0x37 PUSH1 0x24 DUP3 ADD MSTORE PUSH32 0x42616C616E6365206F662061206E6577206F776E657220697320746F6F206C6F PUSH1 0x44 DUP3 ADD MSTORE PUSH32 0x7720746F207472616E736665722070726F70657274792E000000000000000000 PUSH1 0x64 DUP3 ADD MSTORE PUSH1 0x84 ADD PUSH2 0x1F6 JUMP JUMPDEST PUSH1 0x1 PUSH1 0x1 PUSH1 0xA0 SHL SUB DUP2 AND PUSH1 0x0 SWAP1 DUP2 MSTORE PUSH1 0x20 DUP2 SWAP1 MSTORE PUSH1 0x40 SWAP1 KECCAK256 SLOAD PUSH2 0x1309 JUMPI PUSH1 0x40 MLOAD PUSH3 0x461BCD PUSH1 0xE5 SHL DUP2 MSTORE PUSH1 0x20 PUSH1 0x4 DUP3 ADD MSTORE PUSH1 0x1B PUSH1 0x24 DUP3 ADD MSTORE PUSH32 0x4E6577206F776E6572206973206E6F7420726567697374657265640000000000 PUSH1 0x44 DUP3 ADD MSTORE PUSH1 0x64 ADD PUSH2 0x1F6 JUMP JUMPDEST PUSH1 0x0 DUP3 DUP2 MSTORE PUSH1 0x2 PUSH1 0x20 SWAP1 DUP2 MSTORE PUSH1 0x40 DUP1 DUP4 KECCAK256 DUP1 SLOAD PUSH1 0x1 PUSH1 0x1 PUSH1 0xA0 SHL SUB NOT AND PUSH1 0x1 PUSH1 0x1 PUSH1 0xA0 SHL SUB DUP7 AND OR SWAP1 SSTORE CALLER DUP4 MSTORE PUSH1 0x4 SWAP1 SWAP2 MSTORE SWAP1 KECCAK256 DUP1 SLOAD PUSH2 0x134B SWAP1 PUSH1 0x1 SWAP1 PUSH2 0x259A JUMP JUMPDEST DUP2 SLOAD DUP2 LT PUSH2 0x135B JUMPI PUSH2 0x135B PUSH2 0x25B1 JUMP JUMPDEST PUSH1 0x0 SWAP2 DUP3 MSTORE PUSH1 0x20 DUP1 DUP4 KECCAK256 SWAP1 SWAP2 ADD SLOAD CALLER DUP4 MSTORE PUSH1 0x4 DUP3 MSTORE PUSH1 0x40 DUP1 DUP5 KECCAK256 PUSH1 0x7 SLOAD DUP6 MSTORE PUSH1 0x5 SWAP1 SWAP4 MSTORE SWAP1 SWAP3 KECCAK256 SLOAD DUP2 SLOAD DUP2 LT PUSH2 0x1393 JUMPI PUSH2 0x1393 PUSH2 0x25B1 JUMP JUMPDEST PUSH1 0x0 SWAP2 DUP3 MSTORE PUSH1 0x20 DUP1 DUP4 KECCAK256 SWAP1 SWAP2 ADD SWAP3 SWAP1 SWAP3 SSTORE CALLER DUP2 MSTORE PUSH1 0x4 SWAP1 SWAP2 MSTORE PUSH1 0x40 SWAP1 KECCAK256 DUP1 SLOAD DUP1 PUSH2 0x13BF JUMPI PUSH2 0x13BF PUSH2 0x2665 JUMP JUMPDEST PUSH1 0x0 DUP3 DUP2 MSTORE PUSH1 0x20 DUP1 DUP3 KECCAK256 DUP4 ADD PUSH1 0x0 NOT SWAP1 DUP2 ADD DUP4 SWAP1 SSTORE SWAP1 SWAP3 ADD SWAP1 SWAP3 SSTORE PUSH1 0x1 PUSH1 0x1 PUSH1 0xA0 SHL SUB DUP4 AND DUP1 DUP4 MSTORE PUSH1 0x4 DUP3 MSTORE PUSH1 0x40 DUP1 DUP5 KECCAK256 DUP1 SLOAD PUSH1 0x1 DUP2 DUP2 ADD DUP4 SSTORE SWAP2 DUP7 MSTORE DUP5 DUP7 KECCAK256 ADD DUP8 SWAP1 SSTORE SWAP2 DUP5 MSTORE SWAP2 MSTORE DUP2 KECCAK256 DUP1 SLOAD SWAP2 PUSH2 0x1416 DUP4 PUSH2 0x264A JUMP JUMPDEST SWAP1 SWAP2 SSTORE POP POP PUSH1 0x1 PUSH1 0x1 PUSH1 0xA0 SHL SUB DUP2 AND PUSH1 0x0 SWAP1 DUP2 MSTORE PUSH1 0x1 PUSH1 0x20 DUP2 DUP2 MSTORE PUSH1 0x40 DUP1 DUP5 KECCAK256 SLOAD PUSH1 0x7 SLOAD DUP6 MSTORE PUSH1 0x5 DUP4 MSTORE DUP2 DUP6 KECCAK256 SSTORE CALLER DUP5 MSTORE SWAP2 SWAP1 MSTORE DUP2 KECCAK256 DUP1 SLOAD SWAP2 PUSH2 0x1458 DUP4 PUSH2 0x267B JUMP JUMPDEST SWAP1 SWAP2 SSTORE POP POP PUSH1 0x40 DUP1 MLOAD PUSH1 0x1 PUSH1 0x1 PUSH1 0xA0 SHL SUB DUP4 AND DUP2 MSTORE PUSH1 0x20 DUP2 ADD DUP5 SWAP1 MSTORE PUSH32 0xBF0996050D830A4094913360F3ACA6A3D35DC19FBDA52E1F983F5E1E3C5F8F2D SWAP2 ADD PUSH1 0x40 MLOAD DUP1 SWAP2 SUB SWAP1 LOG1 PUSH1 0x9 SLOAD PUSH1 0x1 PUSH1 0x1 PUSH1 0xA0 SHL SUB DUP3 AND PUSH1 0x0 SWAP1 DUP2 MSTORE PUSH1 0x3 PUSH1 0x20 MSTORE PUSH1 0x40 DUP2 KECCAK256 DUP1 SLOAD SWAP1 SWAP2 SWAP1 PUSH2 0x14CA SWAP1 DUP5 SWAP1 PUSH2 0x259A JUMP JUMPDEST SWAP1 SWAP2 SSTORE POP POP PUSH1 0x9 SLOAD PUSH1 0xA DUP1 SLOAD PUSH1 0x0 SWAP1 PUSH2 0x14E4 SWAP1 DUP5 SWAP1 PUSH2 0x1F1A JUMP JUMPDEST SWAP1 SWAP2 SSTORE POP POP POP POP JUMP JUMPDEST PUSH1 0xB SLOAD PUSH1 0x60 SWAP1 PUSH1 0x1 PUSH1 0x1 PUSH1 0xA0 SHL SUB AND CALLER EQ PUSH2 0x151A JUMPI PUSH1 0x40 MLOAD PUSH3 0x461BCD PUSH1 0xE5 SHL DUP2 MSTORE PUSH1 0x4 ADD PUSH2 0x1F6 SWAP1 PUSH2 0x256F JUMP JUMPDEST PUSH1 0x1 PUSH1 0x1 PUSH1 0xA0 SHL SUB DUP3 AND PUSH1 0x0 SWAP1 DUP2 MSTORE PUSH1 0x4 PUSH1 0x20 SWAP1 DUP2 MSTORE PUSH1 0x40 SWAP2 DUP3 SWAP1 KECCAK256 DUP1 SLOAD DUP4 MLOAD DUP2 DUP5 MUL DUP2 ADD DUP5 ADD SWAP1 SWAP5 MSTORE DUP1 DUP5 MSTORE SWAP1 SWAP2 DUP4 ADD DUP3 DUP3 DUP1 ISZERO PUSH2 0x1578 JUMPI PUSH1 0x20 MUL DUP3 ADD SWAP2 SWAP1 PUSH1 0x0 MSTORE PUSH1 0x20 PUSH1 0x0 KECCAK256 SWAP1 JUMPDEST DUP2 SLOAD DUP2 MSTORE PUSH1 0x20 ADD SWAP1 PUSH1 0x1 ADD SWAP1 DUP1 DUP4 GT PUSH2 0x1564 JUMPI JUMPDEST POP POP POP POP POP SWAP1 POP JUMPDEST SWAP2 SWAP1 POP JUMP JUMPDEST PUSH1 0xB SLOAD PUSH1 0x1 PUSH1 0x1 PUSH1 0xA0 SHL SUB AND CALLER EQ PUSH2 0x15AF JUMPI PUSH1 0x40 MLOAD PUSH3 0x461BCD PUSH1 0xE5 SHL DUP2 MSTORE PUSH1 0x4 ADD PUSH2 0x1F6 SWAP1 PUSH2 0x256F JUMP JUMPDEST PUSH1 0x8 SLOAD PUSH1 0x1 PUSH1 0x1 PUSH1 0xA0 SHL SUB DUP13 AND PUSH1 0x0 SWAP1 DUP2 MSTORE PUSH1 0x3 PUSH1 0x20 MSTORE PUSH1 0x40 SWAP1 KECCAK256 SLOAD LT ISZERO PUSH2 0x1657 JUMPI PUSH1 0x40 MLOAD PUSH3 0x461BCD PUSH1 0xE5 SHL DUP2 MSTORE PUSH1 0x20 PUSH1 0x4 DUP3 ADD MSTORE PUSH1 0x4F PUSH1 0x24 DUP3 ADD MSTORE PUSH32 0x42616C616E636520746F6F206C6F7720746F2072656769737465722070726F70 PUSH1 0x44 DUP3 ADD MSTORE PUSH32 0x657274792E20506C6561736520696E63726561736520796F75722062616C616E PUSH1 0x64 DUP3 ADD MSTORE PUSH15 0x31B29013103A393C9030B3B0B4B717 PUSH1 0x89 SHL PUSH1 0x84 DUP3 ADD MSTORE PUSH1 0xA4 ADD PUSH2 0x1F6 JUMP JUMPDEST PUSH1 0x40 DUP1 MLOAD PUSH2 0x160 DUP2 ADD DUP3 MSTORE PUSH1 0x7 SLOAD DUP2 MSTORE PUSH1 0x20 DUP1 DUP3 ADD DUP14 DUP2 MSTORE SWAP3 DUP3 ADD DUP13 DUP2 MSTORE PUSH1 0x60 DUP4 ADD DUP13 DUP2 MSTORE PUSH1 0x80 DUP5 ADD DUP13 DUP2 MSTORE PUSH1 0xA0 DUP6 ADD DUP13 SWAP1 MSTORE PUSH1 0xC0 DUP6 ADD DUP12 SWAP1 MSTORE PUSH1 0xE0 DUP6 ADD DUP11 SWAP1 MSTORE PUSH2 0x100 DUP6 ADD DUP10 SWAP1 MSTORE PUSH2 0x120 DUP6 ADD DUP9 SWAP1 MSTORE PUSH2 0x140 DUP6 ADD DUP8 SWAP1 MSTORE PUSH1 0xC DUP1 SLOAD PUSH1 0x1 DUP2 ADD DUP3 SSTORE PUSH1 0x0 SWAP2 SWAP1 SWAP2 MSTORE DUP6 MLOAD PUSH1 0xB SWAP1 SWAP2 MUL PUSH32 0xDF6966C971051C3D54EC59162606531493A51404A002842F56009D7E5CF4A8C7 DUP2 ADD SWAP2 DUP3 SSTORE SWAP7 MLOAD PUSH32 0xDF6966C971051C3D54EC59162606531493A51404A002842F56009D7E5CF4A8C8 DUP9 ADD SSTORE SWAP3 MLOAD PUSH32 0xDF6966C971051C3D54EC59162606531493A51404A002842F56009D7E5CF4A8C9 DUP8 ADD SSTORE SWAP1 MLOAD PUSH32 0xDF6966C971051C3D54EC59162606531493A51404A002842F56009D7E5CF4A8CA DUP7 ADD SSTORE MLOAD DUP1 MLOAD SWAP4 SWAP5 SWAP2 SWAP4 PUSH2 0x1799 SWAP4 PUSH32 0xDF6966C971051C3D54EC59162606531493A51404A002842F56009D7E5CF4A8CB SWAP1 SWAP4 ADD SWAP3 SWAP2 SWAP1 SWAP2 ADD SWAP1 PUSH2 0x1E6B JUMP JUMPDEST POP PUSH1 0xA0 DUP3 ADD MLOAD DUP1 MLOAD PUSH2 0x17B5 SWAP2 PUSH1 0x5 DUP5 ADD SWAP2 PUSH1 0x20 SWAP1 SWAP2 ADD SWAP1 PUSH2 0x1E6B JUMP JUMPDEST POP PUSH1 0xC0 DUP3 ADD MLOAD DUP1 MLOAD PUSH2 0x17D1 SWAP2 PUSH1 0x6 DUP5 ADD SWAP2 PUSH1 0x20 SWAP1 SWAP2 ADD SWAP1 PUSH2 0x1E6B JUMP JUMPDEST POP PUSH1 0xE0 DUP3 ADD MLOAD DUP1 MLOAD PUSH2 0x17ED SWAP2 PUSH1 0x7 DUP5 ADD SWAP2 PUSH1 0x20 SWAP1 SWAP2 ADD SWAP1 PUSH2 0x1E6B JUMP JUMPDEST POP PUSH2 0x100 DUP3 ADD MLOAD DUP1 MLOAD PUSH2 0x180A SWAP2 PUSH1 0x8 DUP5 ADD SWAP2 PUSH1 0x20 SWAP1 SWAP2 ADD SWAP1 PUSH2 0x1E6B JUMP JUMPDEST POP PUSH2 0x120 DUP3 ADD MLOAD DUP1 MLOAD PUSH2 0x1827 SWAP2 PUSH1 0x9 DUP5 ADD SWAP2 PUSH1 0x20 SWAP1 SWAP2 ADD SWAP1 PUSH2 0x1E6B JUMP JUMPDEST POP PUSH2 0x140 DUP3 ADD MLOAD DUP1 MLOAD PUSH2 0x1844 SWAP2 PUSH1 0xA DUP5 ADD SWAP2 PUSH1 0x20 SWAP1 SWAP2 ADD SWAP1 PUSH2 0x1E6B JUMP JUMPDEST POP POP POP PUSH32 0x7A320318F8DDFE7528CB7B0A1FDAF9466F7FD11A31F4D72ED4C96A07624589D9 PUSH1 0x7 SLOAD DUP12 DUP12 DUP12 DUP12 DUP12 DUP12 DUP12 DUP12 DUP12 DUP12 PUSH1 0x40 MLOAD PUSH2 0x188C SWAP12 SWAP11 SWAP10 SWAP9 SWAP8 SWAP7 SWAP6 SWAP5 SWAP4 SWAP3 SWAP2 SWAP1 PUSH2 0x247B JUMP JUMPDEST PUSH1 0x40 MLOAD DUP1 SWAP2 SUB SWAP1 LOG1 DUP11 PUSH1 0x2 PUSH1 0x0 PUSH1 0x7 SLOAD DUP2 MSTORE PUSH1 0x20 ADD SWAP1 DUP2 MSTORE PUSH1 0x20 ADD PUSH1 0x0 KECCAK256 PUSH1 0x0 PUSH2 0x100 EXP DUP2 SLOAD DUP2 PUSH1 0x1 PUSH1 0x1 PUSH1 0xA0 SHL SUB MUL NOT AND SWAP1 DUP4 PUSH1 0x1 PUSH1 0x1 PUSH1 0xA0 SHL SUB AND MUL OR SWAP1 SSTORE POP PUSH1 0x1 PUSH1 0x0 DUP13 PUSH1 0x1 PUSH1 0x1 PUSH1 0xA0 SHL SUB AND PUSH1 0x1 PUSH1 0x1 PUSH1 0xA0 SHL SUB AND DUP2 MSTORE PUSH1 0x20 ADD SWAP1 DUP2 MSTORE PUSH1 0x20 ADD PUSH1 0x0 KECCAK256 PUSH1 0x0 DUP2 SLOAD DUP1 SWAP3 SWAP2 SWAP1 PUSH2 0x1904 SWAP1 PUSH2 0x264A JUMP JUMPDEST SWAP1 SWAP2 SSTORE POP POP PUSH1 0x1 PUSH1 0x1 PUSH1 0xA0 SHL SUB DUP12 AND PUSH1 0x0 DUP2 DUP2 MSTORE PUSH1 0x4 PUSH1 0x20 SWAP1 DUP2 MSTORE PUSH1 0x40 DUP1 DUP4 KECCAK256 PUSH1 0x7 DUP1 SLOAD DUP3 SLOAD PUSH1 0x1 DUP2 DUP2 ADD DUP6 SSTORE SWAP4 DUP8 MSTORE DUP6 DUP8 KECCAK256 ADD SSTORE SWAP5 DUP5 MSTORE DUP3 MSTORE DUP1 DUP4 KECCAK256 SLOAD DUP5 SLOAD DUP5 MSTORE PUSH1 0x5 SWAP1 SWAP3 MSTORE DUP3 KECCAK256 SSTORE DUP2 SLOAD SWAP2 SWAP1 PUSH2 0x195B DUP4 PUSH2 0x264A JUMP JUMPDEST SWAP1 SWAP2 SSTORE POP POP PUSH1 0x8 SLOAD PUSH1 0x1 PUSH1 0x1 PUSH1 0xA0 SHL SUB DUP13 AND PUSH1 0x0 SWAP1 DUP2 MSTORE PUSH1 0x3 PUSH1 0x20 MSTORE PUSH1 0x40 DUP2 KECCAK256 DUP1 SLOAD SWAP1 SWAP2 SWAP1 PUSH2 0x198B SWAP1 DUP5 SWAP1 PUSH2 0x259A JUMP JUMPDEST SWAP1 SWAP2 SSTORE POP POP PUSH1 0x8 SLOAD PUSH1 0xA DUP1 SLOAD PUSH1 0x0 SWAP1 PUSH2 0x19A5 SWAP1 DUP5 SWAP1 PUSH2 0x1F1A JUMP JUMPDEST SWAP1 SWAP2 SSTORE POP POP POP POP POP POP POP POP POP POP POP POP POP JUMP JUMPDEST PUSH1 0xB SLOAD PUSH1 0x0 SWAP1 PUSH1 0x1 PUSH1 0x1 PUSH1 0xA0 SHL SUB AND CALLER EQ PUSH2 0x19E4 JUMPI PUSH1 0x40 MLOAD PUSH3 0x461BCD PUSH1 0xE5 SHL DUP2 MSTORE PUSH1 0x4 ADD PUSH2 0x1F6 SWAP1 PUSH2 0x256F JUMP JUMPDEST POP PUSH1 0xA SLOAD SWAP1 JUMP JUMPDEST PUSH1 0xB SLOAD PUSH1 0x1 PUSH1 0x1 PUSH1 0xA0 SHL SUB AND CALLER EQ PUSH2 0x1A15 JUMPI PUSH1 0x40 MLOAD PUSH3 0x461BCD PUSH1 0xE5 SHL DUP2 MSTORE PUSH1 0x4 ADD PUSH2 0x1F6 SWAP1 PUSH2 0x256F JUMP JUMPDEST PUSH1 0x8 SSTORE JUMP JUMPDEST PUSH1 0xB SLOAD PUSH1 0x1 PUSH1 0x1 PUSH1 0xA0 SHL SUB AND CALLER EQ PUSH2 0x1A44 JUMPI PUSH1 0x40 MLOAD PUSH3 0x461BCD PUSH1 0xE5 SHL DUP2 MSTORE PUSH1 0x4 ADD PUSH2 0x1F6 SWAP1 PUSH2 0x256F JUMP JUMPDEST PUSH1 0x9 SSTORE JUMP JUMPDEST PUSH1 0xC DUP2 DUP2 SLOAD DUP2 LT PUSH2 0x1A59 JUMPI PUSH1 0x0 DUP1 REVERT JUMPDEST SWAP1 PUSH1 0x0 MSTORE PUSH1 0x20 PUSH1 0x0 KECCAK256 SWAP1 PUSH1 0xB MUL ADD PUSH1 0x0 SWAP2 POP SWAP1 POP DUP1 PUSH1 0x0 ADD SLOAD SWAP1 DUP1 PUSH1 0x1 ADD SLOAD SWAP1 DUP1 PUSH1 0x2 ADD SLOAD SWAP1 DUP1 PUSH1 0x3 ADD SLOAD SWAP1 DUP1 PUSH1 0x4 ADD DUP1 SLOAD PUSH2 0x1A94 SWAP1 PUSH2 0x2534 JUMP JUMPDEST DUP1 PUSH1 0x1F ADD PUSH1 0x20 DUP1 SWAP2 DIV MUL PUSH1 0x20 ADD PUSH1 0x40 MLOAD SWAP1 DUP2 ADD PUSH1 0x40 MSTORE DUP1 SWAP3 SWAP2 SWAP1 DUP2 DUP2 MSTORE PUSH1 0x20 ADD DUP3 DUP1 SLOAD PUSH2 0x1AC0 SWAP1 PUSH2 0x2534 JUMP JUMPDEST DUP1 ISZERO PUSH2 0x1B0D JUMPI DUP1 PUSH1 0x1F LT PUSH2 0x1AE2 JUMPI PUSH2 0x100 DUP1 DUP4 SLOAD DIV MUL DUP4 MSTORE SWAP2 PUSH1 0x20 ADD SWAP2 PUSH2 0x1B0D JUMP JUMPDEST DUP3 ADD SWAP2 SWAP1 PUSH1 0x0 MSTORE PUSH1 0x20 PUSH1 0x0 KECCAK256 SWAP1 JUMPDEST DUP2 SLOAD DUP2 MSTORE SWAP1 PUSH1 0x1 ADD SWAP1 PUSH1 0x20 ADD DUP1 DUP4 GT PUSH2 0x1AF0 JUMPI DUP3 SWAP1 SUB PUSH1 0x1F AND DUP3 ADD SWAP2 JUMPDEST POP POP POP POP POP SWAP1 DUP1 PUSH1 0x5 ADD DUP1 SLOAD PUSH2 0x1B22 SWAP1 PUSH2 0x2534 JUMP JUMPDEST DUP1 PUSH1 0x1F ADD PUSH1 0x20 DUP1 SWAP2 DIV MUL PUSH1 0x20 ADD PUSH1 0x40 MLOAD SWAP1 DUP2 ADD PUSH1 0x40 MSTORE DUP1 SWAP3 SWAP2 SWAP1 DUP2 DUP2 MSTORE PUSH1 0x20 ADD DUP3 DUP1 SLOAD PUSH2 0x1B4E SWAP1 PUSH2 0x2534 JUMP JUMPDEST DUP1 ISZERO PUSH2 0x1B9B JUMPI DUP1 PUSH1 0x1F LT PUSH2 0x1B70 JUMPI PUSH2 0x100 DUP1 DUP4 SLOAD DIV MUL DUP4 MSTORE SWAP2 PUSH1 0x20 ADD SWAP2 PUSH2 0x1B9B JUMP JUMPDEST DUP3 ADD SWAP2 SWAP1 PUSH1 0x0 MSTORE PUSH1 0x20 PUSH1 0x0 KECCAK256 SWAP1 JUMPDEST DUP2 SLOAD DUP2 MSTORE SWAP1 PUSH1 0x1 ADD SWAP1 PUSH1 0x20 ADD DUP1 DUP4 GT PUSH2 0x1B7E JUMPI DUP3 SWAP1 SUB PUSH1 0x1F AND DUP3 ADD SWAP2 JUMPDEST POP POP POP POP POP SWAP1 DUP1 PUSH1 0x6 ADD DUP1 SLOAD PUSH2 0x1BB0 SWAP1 PUSH2 0x2534 JUMP JUMPDEST DUP1 PUSH1 0x1F ADD PUSH1 0x20 DUP1 SWAP2 DIV MUL PUSH1 0x20 ADD PUSH1 0x40 MLOAD SWAP1 DUP2 ADD PUSH1 0x40 MSTORE DUP1 SWAP3 SWAP2 SWAP1 DUP2 DUP2 MSTORE PUSH1 0x20 ADD DUP3 DUP1 SLOAD PUSH2 0x1BDC SWAP1 PUSH2 0x2534 JUMP JUMPDEST DUP1 ISZERO PUSH2 0x1C29 JUMPI DUP1 PUSH1 0x1F LT PUSH2 0x1BFE JUMPI PUSH2 0x100 DUP1 DUP4 SLOAD DIV MUL DUP4 MSTORE SWAP2 PUSH1 0x20 ADD SWAP2 PUSH2 0x1C29 JUMP JUMPDEST DUP3 ADD SWAP2 SWAP1 PUSH1 0x0 MSTORE PUSH1 0x20 PUSH1 0x0 KECCAK256 SWAP1 JUMPDEST DUP2 SLOAD DUP2 MSTORE SWAP1 PUSH1 0x1 ADD SWAP1 PUSH1 0x20 ADD DUP1 DUP4 GT PUSH2 0x1C0C JUMPI DUP3 SWAP1 SUB PUSH1 0x1F AND DUP3 ADD SWAP2 JUMPDEST POP POP POP POP POP SWAP1 DUP1 PUSH1 0x7 ADD DUP1 SLOAD PUSH2 0x1C3E SWAP1 PUSH2 0x2534 JUMP JUMPDEST DUP1 PUSH1 0x1F ADD PUSH1 0x20 DUP1 SWAP2 DIV MUL PUSH1 0x20 ADD PUSH1 0x40 MLOAD SWAP1 DUP2 ADD PUSH1 0x40 MSTORE DUP1 SWAP3 SWAP2 SWAP1 DUP2 DUP2 MSTORE PUSH1 0x20 ADD DUP3 DUP1 SLOAD PUSH2 0x1C6A SWAP1 PUSH2 0x2534 JUMP JUMPDEST DUP1 ISZERO PUSH2 0x1CB7 JUMPI DUP1 PUSH1 0x1F LT PUSH2 0x1C8C JUMPI PUSH2 0x100 DUP1 DUP4 SLOAD DIV MUL DUP4 MSTORE SWAP2 PUSH1 0x20 ADD SWAP2 PUSH2 0x1CB7 JUMP JUMPDEST DUP3 ADD SWAP2 SWAP1 PUSH1 0x0 MSTORE PUSH1 0x20 PUSH1 0x0 KECCAK256 SWAP1 JUMPDEST DUP2 SLOAD DUP2 MSTORE SWAP1 PUSH1 0x1 ADD SWAP1 PUSH1 0x20 ADD DUP1 DUP4 GT PUSH2 0x1C9A JUMPI DUP3 SWAP1 SUB PUSH1 0x1F AND DUP3 ADD SWAP2 JUMPDEST POP POP POP POP POP SWAP1 DUP1 PUSH1 0x8 ADD DUP1 SLOAD PUSH2 0x1CCC SWAP1 PUSH2 0x2534 JUMP JUMPDEST DUP1 PUSH1 0x1F ADD PUSH1 0x20 DUP1 SWAP2 DIV MUL PUSH1 0x20 ADD PUSH1 0x40 MLOAD SWAP1 DUP2 ADD PUSH1 0x40 MSTORE DUP1 SWAP3 SWAP2 SWAP1 DUP2 DUP2 MSTORE PUSH1 0x20 ADD DUP3 DUP1 SLOAD PUSH2 0x1CF8 SWAP1 PUSH2 0x2534 JUMP JUMPDEST DUP1 ISZERO PUSH2 0x1D45 JUMPI DUP1 PUSH1 0x1F LT PUSH2 0x1D1A JUMPI PUSH2 0x100 DUP1 DUP4 SLOAD DIV MUL DUP4 MSTORE SWAP2 PUSH1 0x20 ADD SWAP2 PUSH2 0x1D45 JUMP JUMPDEST DUP3 ADD SWAP2 SWAP1 PUSH1 0x0 MSTORE PUSH1 0x20 PUSH1 0x0 KECCAK256 SWAP1 JUMPDEST DUP2 SLOAD DUP2 MSTORE SWAP1 PUSH1 0x1 ADD SWAP1 PUSH1 0x20 ADD DUP1 DUP4 GT PUSH2 0x1D28 JUMPI DUP3 SWAP1 SUB PUSH1 0x1F AND DUP3 ADD SWAP2 JUMPDEST POP POP POP POP POP SWAP1 DUP1 PUSH1 0x9 ADD DUP1 SLOAD PUSH2 0x1D5A SWAP1 PUSH2 0x2534 JUMP JUMPDEST DUP1 PUSH1 0x1F ADD PUSH1 0x20 DUP1 SWAP2 DIV MUL PUSH1 0x20 ADD PUSH1 0x40 MLOAD SWAP1 DUP2 ADD PUSH1 0x40 MSTORE DUP1 SWAP3 SWAP2 SWAP1 DUP2 DUP2 MSTORE PUSH1 0x20 ADD DUP3 DUP1 SLOAD PUSH2 0x1D86 SWAP1 PUSH2 0x2534 JUMP JUMPDEST DUP1 ISZERO PUSH2 0x1DD3 JUMPI DUP1 PUSH1 0x1F LT PUSH2 0x1DA8 JUMPI PUSH2 0x100 DUP1 DUP4 SLOAD DIV MUL DUP4 MSTORE SWAP2 PUSH1 0x20 ADD SWAP2 PUSH2 0x1DD3 JUMP JUMPDEST DUP3 ADD SWAP2 SWAP1 PUSH1 0x0 MSTORE PUSH1 0x20 PUSH1 0x0 KECCAK256 SWAP1 JUMPDEST DUP2 SLOAD DUP2 MSTORE SWAP1 PUSH1 0x1 ADD SWAP1 PUSH1 0x20 ADD DUP1 DUP4 GT PUSH2 0x1DB6 JUMPI DUP3 SWAP1 SUB PUSH1 0x1F AND DUP3 ADD SWAP2 JUMPDEST POP POP POP POP POP SWAP1 DUP1 PUSH1 0xA ADD DUP1 SLOAD PUSH2 0x1DE8 SWAP1 PUSH2 0x2534 JUMP JUMPDEST DUP1 PUSH1 0x1F ADD PUSH1 0x20 DUP1 SWAP2 DIV MUL PUSH1 0x20 ADD PUSH1 0x40 MLOAD SWAP1 DUP2 ADD PUSH1 0x40 MSTORE DUP1 SWAP3 SWAP2 SWAP1 DUP2 DUP2 MSTORE PUSH1 0x20 ADD DUP3 DUP1 SLOAD PUSH2 0x1E14 SWAP1 PUSH2 0x2534 JUMP JUMPDEST DUP1 ISZERO PUSH2 0x1E61 JUMPI DUP1 PUSH1 0x1F LT PUSH2 0x1E36 JUMPI PUSH2 0x100 DUP1 DUP4 SLOAD DIV MUL DUP4 MSTORE SWAP2 PUSH1 0x20 ADD SWAP2 PUSH2 0x1E61 JUMP JUMPDEST DUP3 ADD SWAP2 SWAP1 PUSH1 0x0 MSTORE PUSH1 0x20 PUSH1 0x0 KECCAK256 SWAP1 JUMPDEST DUP2 SLOAD DUP2 MSTORE SWAP1 PUSH1 0x1 ADD SWAP1 PUSH1 0x20 ADD DUP1 DUP4 GT PUSH2 0x1E44 JUMPI DUP3 SWAP1 SUB PUSH1 0x1F AND DUP3 ADD SWAP2 JUMPDEST POP POP POP POP POP SWAP1 POP DUP12 JUMP JUMPDEST DUP3 DUP1 SLOAD PUSH2 0x1E77 SWAP1 PUSH2 0x2534 JUMP JUMPDEST SWAP1 PUSH1 0x0 MSTORE PUSH1 0x20 PUSH1 0x0 KECCAK256 SWAP1 PUSH1 0x1F ADD PUSH1 0x20 SWAP1 DIV DUP2 ADD SWAP3 DUP3 PUSH2 0x1E99 JUMPI PUSH1 0x0 DUP6 SSTORE PUSH2 0x1EDF JUMP JUMPDEST DUP3 PUSH1 0x1F LT PUSH2 0x1EB2 JUMPI DUP1 MLOAD PUSH1 0xFF NOT AND DUP4 DUP1 ADD OR DUP6 SSTORE PUSH2 0x1EDF JUMP JUMPDEST DUP3 DUP1 ADD PUSH1 0x1 ADD DUP6 SSTORE DUP3 ISZERO PUSH2 0x1EDF JUMPI SWAP2 DUP3 ADD JUMPDEST DUP3 DUP2 GT ISZERO PUSH2 0x1EDF JUMPI DUP3 MLOAD DUP3 SSTORE SWAP2 PUSH1 0x20 ADD SWAP2 SWAP1 PUSH1 0x1 ADD SWAP1 PUSH2 0x1EC4 JUMP JUMPDEST POP PUSH2 0x1EEB SWAP3 SWAP2 POP PUSH2 0x1EEF JUMP JUMPDEST POP SWAP1 JUMP JUMPDEST JUMPDEST DUP1 DUP3 GT ISZERO PUSH2 0x1EEB JUMPI PUSH1 0x0 DUP2 SSTORE PUSH1 0x1 ADD PUSH2 0x1EF0 JUMP JUMPDEST PUSH4 0x4E487B71 PUSH1 0xE0 SHL PUSH1 0x0 MSTORE PUSH1 0x11 PUSH1 0x4 MSTORE PUSH1 0x24 PUSH1 0x0 REVERT JUMPDEST PUSH1 0x0 DUP3 NOT DUP3 GT ISZERO PUSH2 0x1F2D JUMPI PUSH2 0x1F2D PUSH2 0x1F04 JUMP JUMPDEST POP ADD SWAP1 JUMP JUMPDEST PUSH1 0x0 PUSH1 0x20 DUP3 DUP5 SUB SLT ISZERO PUSH2 0x1F44 JUMPI PUSH1 0x0 DUP1 REVERT JUMPDEST POP CALLDATALOAD SWAP2 SWAP1 POP JUMP JUMPDEST PUSH1 0x0 DUP2 MLOAD DUP1 DUP5 MSTORE PUSH1 0x0 JUMPDEST DUP2 DUP2 LT ISZERO PUSH2 0x1F71 JUMPI PUSH1 0x20 DUP2 DUP6 ADD DUP2 ADD MLOAD DUP7 DUP4 ADD DUP3 ADD MSTORE ADD PUSH2 0x1F55 JUMP JUMPDEST DUP2 DUP2 GT ISZERO PUSH2 0x1F83 JUMPI PUSH1 0x0 PUSH1 0x20 DUP4 DUP8 ADD ADD MSTORE JUMPDEST POP PUSH1 0x1F ADD PUSH1 0x1F NOT AND SWAP3 SWAP1 SWAP3 ADD PUSH1 0x20 ADD SWAP3 SWAP2 POP POP JUMP JUMPDEST DUP7 DUP2 MSTORE PUSH1 0xC0 PUSH1 0x20 DUP3 ADD MSTORE PUSH1 0x0 PUSH2 0x1FB1 PUSH1 0xC0 DUP4 ADD DUP9 PUSH2 0x1F4B JUMP JUMPDEST DUP3 DUP2 SUB PUSH1 0x40 DUP5 ADD MSTORE PUSH2 0x1FC3 DUP2 DUP9 PUSH2 0x1F4B JUMP JUMPDEST SWAP1 POP DUP3 DUP2 SUB PUSH1 0x60 DUP5 ADD MSTORE PUSH2 0x1FD7 DUP2 DUP8 PUSH2 0x1F4B JUMP JUMPDEST SWAP1 POP DUP3 DUP2 SUB PUSH1 0x80 DUP5 ADD MSTORE PUSH2 0x1FEB DUP2 DUP7 PUSH2 0x1F4B JUMP JUMPDEST SWAP1 POP DUP3 DUP2 SUB PUSH1 0xA0 DUP5 ADD MSTORE PUSH2 0x1FFF DUP2 DUP6 PUSH2 0x1F4B JUMP JUMPDEST SWAP10 SWAP9 POP POP POP POP POP POP POP POP POP JUMP JUMPDEST DUP1 CALLDATALOAD PUSH1 0x1 PUSH1 0x1 PUSH1 0xA0 SHL SUB DUP2 AND DUP2 EQ PUSH2 0x1580 JUMPI PUSH1 0x0 DUP1 REVERT JUMPDEST PUSH1 0x0 PUSH1 0x20 DUP3 DUP5 SUB SLT ISZERO PUSH2 0x2035 JUMPI PUSH1 0x0 DUP1 REVERT JUMPDEST PUSH2 0x203E DUP3 PUSH2 0x200C JUMP JUMPDEST SWAP4 SWAP3 POP POP POP JUMP JUMPDEST PUSH1 0x40 DUP2 MSTORE PUSH1 0x0 PUSH2 0x2058 PUSH1 0x40 DUP4 ADD DUP6 PUSH2 0x1F4B JUMP JUMPDEST DUP3 DUP2 SUB PUSH1 0x20 DUP5 ADD MSTORE PUSH2 0x206A DUP2 DUP6 PUSH2 0x1F4B JUMP JUMPDEST SWAP6 SWAP5 POP POP POP POP POP JUMP JUMPDEST PUSH4 0x4E487B71 PUSH1 0xE0 SHL PUSH1 0x0 MSTORE PUSH1 0x41 PUSH1 0x4 MSTORE PUSH1 0x24 PUSH1 0x0 REVERT JUMPDEST PUSH1 0x0 DUP3 PUSH1 0x1F DUP4 ADD SLT PUSH2 0x209A JUMPI PUSH1 0x0 DUP1 REVERT JUMPDEST DUP2 CALLDATALOAD PUSH8 0xFFFFFFFFFFFFFFFF DUP1 DUP3 GT ISZERO PUSH2 0x20B5 JUMPI PUSH2 0x20B5 PUSH2 0x2073 JUMP JUMPDEST PUSH1 0x40 MLOAD PUSH1 0x1F DUP4 ADD PUSH1 0x1F NOT SWAP1 DUP2 AND PUSH1 0x3F ADD AND DUP2 ADD SWAP1 DUP3 DUP3 GT DUP2 DUP4 LT OR ISZERO PUSH2 0x20DD JUMPI PUSH2 0x20DD PUSH2 0x2073 JUMP JUMPDEST DUP2 PUSH1 0x40 MSTORE DUP4 DUP2 MSTORE DUP7 PUSH1 0x20 DUP6 DUP9 ADD ADD GT ISZERO PUSH2 0x20F6 JUMPI PUSH1 0x0 DUP1 REVERT JUMPDEST DUP4 PUSH1 0x20 DUP8 ADD PUSH1 0x20 DUP4 ADD CALLDATACOPY PUSH1 0x0 PUSH1 0x20 DUP6 DUP4 ADD ADD MSTORE DUP1 SWAP5 POP POP POP POP POP SWAP3 SWAP2 POP POP JUMP JUMPDEST PUSH1 0x0 DUP1 PUSH1 0x0 DUP1 PUSH1 0x0 DUP1 PUSH1 0x0 DUP1 PUSH1 0x0 DUP1 PUSH1 0x0 PUSH2 0x160 DUP13 DUP15 SUB SLT ISZERO PUSH2 0x2138 JUMPI PUSH1 0x0 DUP1 REVERT JUMPDEST DUP12 CALLDATALOAD SWAP11 POP PUSH1 0x20 DUP13 ADD CALLDATALOAD SWAP10 POP PUSH1 0x40 DUP13 ADD CALLDATALOAD SWAP9 POP PUSH1 0x60 DUP13 ADD CALLDATALOAD SWAP8 POP PUSH8 0xFFFFFFFFFFFFFFFF DUP1 PUSH1 0x80 DUP15 ADD CALLDATALOAD GT ISZERO PUSH2 0x216B JUMPI PUSH1 0x0 DUP1 REVERT JUMPDEST PUSH2 0x217B DUP15 PUSH1 0x80 DUP16 ADD CALLDATALOAD DUP16 ADD PUSH2 0x2089 JUMP JUMPDEST SWAP8 POP DUP1 PUSH1 0xA0 DUP15 ADD CALLDATALOAD GT ISZERO PUSH2 0x218E JUMPI PUSH1 0x0 DUP1 REVERT JUMPDEST PUSH2 0x219E DUP15 PUSH1 0xA0 DUP16 ADD CALLDATALOAD DUP16 ADD PUSH2 0x2089 JUMP JUMPDEST SWAP7 POP DUP1 PUSH1 0xC0 DUP15 ADD CALLDATALOAD GT ISZERO PUSH2 0x21B1 JUMPI PUSH1 0x0 DUP1 REVERT JUMPDEST PUSH2 0x21C1 DUP15 PUSH1 0xC0 DUP16 ADD CALLDATALOAD DUP16 ADD PUSH2 0x2089 JUMP JUMPDEST SWAP6 POP DUP1 PUSH1 0xE0 DUP15 ADD CALLDATALOAD GT ISZERO PUSH2 0x21D4 JUMPI PUSH1 0x0 DUP1 REVERT JUMPDEST PUSH2 0x21E4 DUP15 PUSH1 0xE0 DUP16 ADD CALLDATALOAD DUP16 ADD PUSH2 0x2089 JUMP JUMPDEST SWAP5 POP DUP1 PUSH2 0x100 DUP15 ADD CALLDATALOAD GT ISZERO PUSH2 0x21F8 JUMPI PUSH1 0x0 DUP1 REVERT JUMPDEST PUSH2 0x2209 DUP15 PUSH2 0x100 DUP16 ADD CALLDATALOAD DUP16 ADD PUSH2 0x2089 JUMP JUMPDEST SWAP4 POP DUP1 PUSH2 0x120 DUP15 ADD CALLDATALOAD GT ISZERO PUSH2 0x221D JUMPI PUSH1 0x0 DUP1 REVERT JUMPDEST PUSH2 0x222E DUP15 PUSH2 0x120 DUP16 ADD CALLDATALOAD DUP16 ADD PUSH2 0x2089 JUMP JUMPDEST SWAP3 POP DUP1 PUSH2 0x140 DUP15 ADD CALLDATALOAD GT ISZERO PUSH2 0x2242 JUMPI PUSH1 0x0 DUP1 REVERT JUMPDEST POP PUSH2 0x2254 DUP14 PUSH2 0x140 DUP15 ADD CALLDATALOAD DUP15 ADD PUSH2 0x2089 JUMP JUMPDEST SWAP1 POP SWAP3 SWAP6 SWAP9 SWAP12 POP SWAP3 SWAP6 SWAP9 SWAP12 SWAP1 SWAP4 SWAP7 SWAP10 POP JUMP JUMPDEST PUSH1 0x60 DUP2 MSTORE PUSH1 0x0 PUSH2 0x2279 PUSH1 0x60 DUP4 ADD DUP7 PUSH2 0x1F4B JUMP JUMPDEST DUP3 DUP2 SUB PUSH1 0x20 DUP5 ADD MSTORE PUSH2 0x228B DUP2 DUP7 PUSH2 0x1F4B JUMP JUMPDEST SWAP2 POP POP PUSH1 0x1 DUP1 PUSH1 0xA0 SHL SUB DUP4 AND PUSH1 0x40 DUP4 ADD MSTORE SWAP5 SWAP4 POP POP POP POP JUMP JUMPDEST PUSH1 0x0 DUP1 PUSH1 0x0 DUP1 PUSH1 0x0 DUP1 PUSH1 0xC0 DUP8 DUP10 SUB SLT ISZERO PUSH2 0x22BD JUMPI PUSH1 0x0 DUP1 REVERT JUMPDEST DUP7 CALLDATALOAD PUSH8 0xFFFFFFFFFFFFFFFF DUP1 DUP3 GT ISZERO PUSH2 0x22D5 JUMPI PUSH1 0x0 DUP1 REVERT JUMPDEST PUSH2 0x22E1 DUP11 DUP4 DUP12 ADD PUSH2 0x2089 JUMP JUMPDEST SWAP8 POP PUSH1 0x20 DUP10 ADD CALLDATALOAD SWAP2 POP DUP1 DUP3 GT ISZERO PUSH2 0x22F7 JUMPI PUSH1 0x0 DUP1 REVERT JUMPDEST PUSH2 0x2303 DUP11 DUP4 DUP12 ADD PUSH2 0x2089 JUMP JUMPDEST SWAP7 POP PUSH2 0x2311 PUSH1 0x40 DUP11 ADD PUSH2 0x200C JUMP JUMPDEST SWAP6 POP PUSH1 0x60 DUP10 ADD CALLDATALOAD SWAP2 POP DUP1 DUP3 GT ISZERO PUSH2 0x2327 JUMPI PUSH1 0x0 DUP1 REVERT JUMPDEST PUSH2 0x2333 DUP11 DUP4 DUP12 ADD PUSH2 0x2089 JUMP JUMPDEST SWAP5 POP PUSH1 0x80 DUP10 ADD CALLDATALOAD SWAP2 POP DUP1 DUP3 GT ISZERO PUSH2 0x2349 JUMPI PUSH1 0x0 DUP1 REVERT JUMPDEST PUSH2 0x2355 DUP11 DUP4 DUP12 ADD PUSH2 0x2089 JUMP JUMPDEST SWAP4 POP PUSH1 0xA0 DUP10 ADD CALLDATALOAD SWAP2 POP DUP1 DUP3 GT ISZERO PUSH2 0x236B JUMPI PUSH1 0x0 DUP1 REVERT JUMPDEST POP PUSH2 0x2378 DUP10 DUP3 DUP11 ADD PUSH2 0x2089 JUMP JUMPDEST SWAP2 POP POP SWAP3 SWAP6 POP SWAP3 SWAP6 POP SWAP3 SWAP6 JUMP JUMPDEST PUSH1 0x0 DUP1 PUSH1 0x40 DUP4 DUP6 SUB SLT ISZERO PUSH2 0x2398 JUMPI PUSH1 0x0 DUP1 REVERT JUMPDEST PUSH2 0x23A1 DUP4 PUSH2 0x200C JUMP JUMPDEST SWAP5 PUSH1 0x20 SWAP4 SWAP1 SWAP4 ADD CALLDATALOAD SWAP4 POP POP POP JUMP JUMPDEST PUSH1 0x0 DUP1 PUSH1 0x40 DUP4 DUP6 SUB SLT ISZERO PUSH2 0x23C2 JUMPI PUSH1 0x0 DUP1 REVERT JUMPDEST DUP3 CALLDATALOAD SWAP2 POP PUSH2 0x23D2 PUSH1 0x20 DUP5 ADD PUSH2 0x200C JUMP JUMPDEST SWAP1 POP SWAP3 POP SWAP3 SWAP1 POP JUMP JUMPDEST PUSH1 0x20 DUP1 DUP3 MSTORE DUP3 MLOAD DUP3 DUP3 ADD DUP2 SWAP1 MSTORE PUSH1 0x0 SWAP2 SWAP1 DUP5 DUP3 ADD SWAP1 PUSH1 0x40 DUP6 ADD SWAP1 DUP5 JUMPDEST DUP2 DUP2 LT ISZERO PUSH2 0x2413 JUMPI DUP4 MLOAD DUP4 MSTORE SWAP3 DUP5 ADD SWAP3 SWAP2 DUP5 ADD SWAP2 PUSH1 0x1 ADD PUSH2 0x23F7 JUMP JUMPDEST POP SWAP1 SWAP7 SWAP6 POP POP POP POP POP POP JUMP JUMPDEST PUSH1 0x0 DUP1 PUSH1 0x0 DUP1 PUSH1 0x0 DUP1 PUSH1 0x0 DUP1 PUSH1 0x0 DUP1 PUSH1 0x0 PUSH2 0x160 DUP13 DUP15 SUB SLT ISZERO PUSH2 0x2441 JUMPI PUSH1 0x0 DUP1 REVERT JUMPDEST PUSH2 0x244A DUP13 PUSH2 0x200C JUMP JUMPDEST SWAP11 POP PUSH1 0x20 DUP13 ADD CALLDATALOAD SWAP10 POP PUSH1 0x40 DUP13 ADD CALLDATALOAD SWAP9 POP PUSH1 0x60 DUP13 ADD CALLDATALOAD SWAP8 POP PUSH8 0xFFFFFFFFFFFFFFFF DUP1 PUSH1 0x80 DUP15 ADD CALLDATALOAD GT ISZERO PUSH2 0x216B JUMPI PUSH1 0x0 DUP1 REVERT JUMPDEST PUSH1 0x0 PUSH2 0x160 DUP14 DUP4 MSTORE DUP13 PUSH1 0x20 DUP5 ADD MSTORE DUP12 PUSH1 0x40 DUP5 ADD MSTORE DUP11 PUSH1 0x60 DUP5 ADD MSTORE DUP1 PUSH1 0x80 DUP5 ADD MSTORE PUSH2 0x24A7 DUP2 DUP5 ADD DUP12 PUSH2 0x1F4B JUMP JUMPDEST SWAP1 POP DUP3 DUP2 SUB PUSH1 0xA0 DUP5 ADD MSTORE PUSH2 0x24BB DUP2 DUP11 PUSH2 0x1F4B JUMP JUMPDEST SWAP1 POP DUP3 DUP2 SUB PUSH1 0xC0 DUP5 ADD MSTORE PUSH2 0x24CF DUP2 DUP10 PUSH2 0x1F4B JUMP JUMPDEST SWAP1 POP DUP3 DUP2 SUB PUSH1 0xE0 DUP5 ADD MSTORE PUSH2 0x24E3 DUP2 DUP9 PUSH2 0x1F4B JUMP JUMPDEST SWAP1 POP DUP3 DUP2 SUB PUSH2 0x100 DUP5 ADD MSTORE PUSH2 0x24F8 DUP2 DUP8 PUSH2 0x1F4B JUMP JUMPDEST SWAP1 POP DUP3 DUP2 SUB PUSH2 0x120 DUP5 ADD MSTORE PUSH2 0x250D DUP2 DUP7 PUSH2 0x1F4B JUMP JUMPDEST SWAP1 POP DUP3 DUP2 SUB PUSH2 0x140 DUP5 ADD MSTORE PUSH2 0x2522 DUP2 DUP6 PUSH2 0x1F4B JUMP JUMPDEST SWAP15 SWAP14 POP POP POP POP POP POP POP POP POP POP POP POP POP POP JUMP JUMPDEST PUSH1 0x1 DUP2 DUP2 SHR SWAP1 DUP3 AND DUP1 PUSH2 0x2548 JUMPI PUSH1 0x7F DUP3 AND SWAP2 POP JUMPDEST PUSH1 0x20 DUP3 LT DUP2 EQ ISZERO PUSH2 0x2569 JUMPI PUSH4 0x4E487B71 PUSH1 0xE0 SHL PUSH1 0x0 MSTORE PUSH1 0x22 PUSH1 0x4 MSTORE PUSH1 0x24 PUSH1 0x0 REVERT JUMPDEST POP SWAP2 SWAP1 POP JUMP JUMPDEST PUSH1 0x20 DUP1 DUP3 MSTORE PUSH1 0x11 SWAP1 DUP3 ADD MSTORE PUSH17 0x14195C9B5A5CDCDA5BDB8819195B9A5959 PUSH1 0x7A SHL PUSH1 0x40 DUP3 ADD MSTORE PUSH1 0x60 ADD SWAP1 JUMP JUMPDEST PUSH1 0x0 DUP3 DUP3 LT ISZERO PUSH2 0x25AC JUMPI PUSH2 0x25AC PUSH2 0x1F04 JUMP JUMPDEST POP SUB SWAP1 JUMP JUMPDEST PUSH4 0x4E487B71 PUSH1 0xE0 SHL PUSH1 0x0 MSTORE PUSH1 0x32 PUSH1 0x4 MSTORE PUSH1 0x24 PUSH1 0x0 REVERT JUMPDEST PUSH1 0x1 DUP1 PUSH1 0xA0 SHL SUB DUP9 AND DUP2 MSTORE DUP7 PUSH1 0x20 DUP3 ADD MSTORE PUSH1 0xE0 PUSH1 0x40 DUP3 ADD MSTORE PUSH1 0x0 PUSH2 0x25EE PUSH1 0xE0 DUP4 ADD DUP9 PUSH2 0x1F4B JUMP JUMPDEST DUP3 DUP2 SUB PUSH1 0x60 DUP5 ADD MSTORE PUSH2 0x2600 DUP2 DUP9 PUSH2 0x1F4B JUMP JUMPDEST SWAP1 POP DUP3 DUP2 SUB PUSH1 0x80 DUP5 ADD MSTORE PUSH2 0x2614 DUP2 DUP8 PUSH2 0x1F4B JUMP JUMPDEST SWAP1 POP DUP3 DUP2 SUB PUSH1 0xA0 DUP5 ADD MSTORE PUSH2 0x2628 DUP2 DUP7 PUSH2 0x1F4B JUMP JUMPDEST SWAP1 POP DUP3 DUP2 SUB PUSH1 0xC0 DUP5 ADD MSTORE PUSH2 0x263C DUP2 DUP6 PUSH2 0x1F4B JUMP JUMPDEST SWAP11 SWAP10 POP POP POP POP POP POP POP POP POP POP JUMP JUMPDEST PUSH1 0x0 PUSH1 0x0 NOT DUP3 EQ ISZERO PUSH2 0x265E JUMPI PUSH2 0x265E PUSH2 0x1F04 JUMP JUMPDEST POP PUSH1 0x1 ADD SWAP1 JUMP JUMPDEST PUSH4 0x4E487B71 PUSH1 0xE0 SHL PUSH1 0x0 MSTORE PUSH1 0x31 PUSH1 0x4 MSTORE PUSH1 0x24 PUSH1 0x0 REVERT JUMPDEST PUSH1 0x0 DUP2 PUSH2 0x268A JUMPI PUSH2 0x268A PUSH2 0x1F04 JUMP JUMPDEST POP PUSH1 0x0 NOT ADD SWAP1 JUMP INVALID LOG2 PUSH5 0x6970667358 0x22 SLT KECCAK256 0x26 PUSH15 0xD76E6E19F1483E90774CC755A50907 0xBE PUSH19 0x96220A4C13B8D30A101113328F64736F6C6343 STOP ADDMOD SIGNEXTEND STOP CALLER ","sha1":"5ff6ea9423d6c846e3036e3d5170962a606860a4","source":"//Main Land Registry Contract\n//SPDX-License-Identifier: UNLICENSED\n\npragma solidity  ^0.8.0;\n\n//import \"./ownable.sol\"; //this is a standard file from OpenZapplin used for transferring or used for validating \n                        //also used as function modiers so that only an owner of a contract can call a function and make changes\n                        //need to integerate it with our land registry contract especially the Transfer function\n\n//import \"https://github.com/OpenZeppelin/openzeppelin-contracts/blob/master/contracts/utils/math/SafeMath.sol\";\n//In Solidity 0.8+ you don't need to use SafeMath anymore, because the integer underflow/overflow check is performed on a lower level.\n\ncontract  Registry { //registry contract inheriting from the ownable contract\n\n    struct Property {\n        uint id; //id generated inside the function First Registration\n        uint sqm;\n        uint floor;\n        uint zipCode;\n        string country;\n        string region;\n        string city;\n        string street;\n        string streetnum;\n        string addressAdditional;\n        string houseType;\n\n    }\n\n    struct Owner {\n        //address owner_addr; //id generated inside the function OwnerInformation\n        uint id;        \n        string firstName;\n        string lastName;\n        string codiceFisc;\n        string docType;\n        string docNumber;\n    }\n\n    mapping (address => uint) public address_to_owner;\n    mapping (address => uint) public ownerPropertyCount; //in case owner has more than 1 property\n    mapping (uint => address) private propertyToOwner;\n    mapping (address => uint) public customerBalance;\n\tmapping (address => uint []) public owner_to_property;\n    mapping (uint => uint) public all_prop_id_to_personal_prop_id;\n    modifier validateSender {\n        require(msg.sender == Validator, \"Permission denied\");\n        _;\n    }\n\t\n    modifier isRegistered {\n        require(address_to_owner[msg.sender] != 0, \"You are not registered\");\n        _;\n    }\n\n\tconstructor()  payable {\n        Validator = msg.sender;\n    }\n\n    //using SafeMath for uint;\n\n\n    uint owner_id = 1; // 0 means owner is not registered\n    uint property_id = 1;\n    uint registration_price = 20; //at current market value ~$37 \n    uint transfer_price = 5; //at current market value ~$37\n\tuint public revenue; // our revenue that can be withdrawn as services have been performed\n    address private Validator;\n    //keccak256(abi.encodePacked(_str)) -> this creates a unique hash based on arguments passed, might be required if we want a unique identifier for a property/owner\n    \n    // Creating events of new property and owner\n    event NewPropertyRegistered (uint id, uint areaSqm, uint floor, uint zipCode, string country, \n                                string region, string city, string street, string streetNumber, \n                                string adressAdditional, string houseType);\n    event NewOwnerCreated (address owner_address, uint id,  string firstName, string lastName, \n                             string codiceFiscale, string docType, string docNumber);\n    event OwnershipTransferred (address new_owner, uint propert_id);\n\n    //declaring arrays of the two structs created above\n    Property[] public properties; // Do we use these at all?\n    Owner[] public owners;\n    address[] public addresses_list;\n\n    function registerOwner(string memory _firstName, string memory _lastName, \n                            address _address, string memory _codiceFiscale, \n                                string memory _docType, string memory _docNumber) validateSender public {\n        require (address_to_owner[_address] == 0, \"Address is already registered.\"); // checking if owner is already registered or not\n        owners.push(Owner(owner_id,_firstName, _lastName, \n                            _codiceFiscale, _docType, _docNumber));\n        addresses_list.push(_address);\n        emit NewOwnerCreated(_address, owner_id, _firstName, _lastName,  \n                                _codiceFiscale, _docType, _docNumber);\n        address_to_owner[_address] = owner_id;\n        owner_id ++;\n        customerBalance[_address] = 0;\n    }\n\n    //ownership is verified before construction is called\n    function registerProperty(address _Owner, uint _areaSqm, uint _floor, uint _zipCode, \n                                string memory _country, string memory _region, string memory _city, \n                                string memory _street, string memory _streetNumber, string memory _addressAdditional, \n                                string memory _houseType) validateSender public { // Add property to \n        require(customerBalance[_Owner] >= registration_price, \"Balance too low to register property. Please increase your balance & try again.\");\n        properties.push(Property(property_id,_areaSqm, _floor, _zipCode, _country, _region, _city, \n                                _street, _streetNumber, _addressAdditional, _houseType));\n        // Check for Customer Properties on \n        emit NewPropertyRegistered(property_id, _areaSqm, _floor, _zipCode, _country, _region, _city, \n                                    _street, _streetNumber, _addressAdditional, _houseType);\n        propertyToOwner[property_id] = _Owner;   //using the mapping\n        ownerPropertyCount[_Owner]++;   //using the mapping   \n        owner_to_property[_Owner].push(property_id);\n        all_prop_id_to_personal_prop_id[property_id] = ownerPropertyCount[_Owner];\n        property_id ++;\n        customerBalance[_Owner] -= registration_price; // after successful listing, deduct the fee from customers account balance\n        revenue += registration_price;\n    }\n\n    receive () external payable isRegistered {\n        customerBalance[msg.sender] += msg.value; // increase the owners balance\n    }\n\n    function Transfer (uint _property_id, address _new_owner_address) public { //Change in ownership  - DO WE NEED A VALIDATION IN HERE?\n        require(msg.sender == propertyToOwner[_property_id], \"Only Owners can transfer property. We do not have you as owner of this property.\");  //First we check if the person transferring the property actually owns it or not\n        require(customerBalance[_new_owner_address] >= transfer_price, \"Balance of a new owner is too low to transfer property.\");\n        require(address_to_owner[_new_owner_address] != 0, \"New owner is not registered\");\n        propertyToOwner[_property_id] = _new_owner_address;\n        owner_to_property[msg.sender][all_prop_id_to_personal_prop_id[property_id]] = owner_to_property[msg.sender][owner_to_property[msg.sender].length -1];\n        owner_to_property[msg.sender].pop();\n        owner_to_property[_new_owner_address].push(_property_id);\n        ownerPropertyCount[_new_owner_address]++; // incresing new owner's property count\n        all_prop_id_to_personal_prop_id[property_id] = ownerPropertyCount[_new_owner_address];\n        ownerPropertyCount[msg.sender]--; // decreasing old owner's property count\n        emit OwnershipTransferred (_new_owner_address, _property_id);\n        //the old address would still be pointing to the property which has been transferred\n        //so we can fill it with a value which the property id -> 'counter' is unlikely to reach\n        //we can do this for any address which has relinquished control of a property\n        // address_to_owner[msg.sender] = 2**256 - 1; // we do not need it since the customer's still in db\n        customerBalance[_new_owner_address] -= transfer_price; // after successful transfer, deduct the fee from customers account balance\n        revenue += transfer_price;\n        \n    // ensure that no NFT is open against the property\n\n    }\n\n    // should we update all attributes within one function?\n    function Update (uint _id, uint _areaSqm, uint _floor, uint _zipCode, string memory _country, \n                        string memory _region, string memory _city, string memory _street, \n                        string memory _streetNumber, string memory _addressAdditional, \n                        string memory _houseType) public {  //Change in one of the Property variables - Shaurya - maybe infeasible. Work around could be to simply add another property for the difference in floorspace (assumed to be positive), and treat as 2 separate properties\n        Property storage prop = properties[_id-1];\n        prop.sqm = _areaSqm;\n        prop.floor = _floor;\n        prop.zipCode = _zipCode;\n        prop.country = _country;\n        prop.region = _region;\n        prop.city = _city;\n        prop.street = _street;\n        prop.streetnum = _streetNumber;\n        prop.addressAdditional = _addressAdditional;\n        prop.houseType = _houseType;\n    }\n\n    function changePriceRegistration(uint _new_price_registration) public validateSender {\n        registration_price = _new_price_registration;\n    }\n\n    function changePriceTransfer(uint _new_price_transfers) public validateSender {\n        transfer_price = _new_price_transfers;\n    }\n\n    function showOwnerBalance (address _owner) public view returns (uint) {\n        return customerBalance[_owner];\n    }\n\n    function show_revenue () public view validateSender returns (uint) { //Function to show realized revenue from sign up & subscription\n        return revenue;\n    }\n\n    function Payment () validateSender public payable { \n        address payable deposit = payable(Validator);\n        require(address(this).balance > 10);\n        uint payout = revenue - 10;\n        revenue = 10;\n        (bool success, ) = deposit.call{value : payout}(\"\");\n        require(success, \"Transfer failed.\");\n        // if (address(this).balance < 1000000000000000) {  // == 0.01 ETH\n        //     revenue -= 100000000000000; // to prevent running out of money (for gas) in the contract, we save 0.0001 ETH if our balance is below 0.01 ether\n        // }\n        // deposit.transfer(payout); // we pay out the generated revenues to our address\n    }\n\n\n\n    function showBalance () public view validateSender returns (uint) {\n        return address(this).balance;\n    }\n\n\n    function showRegistrationPrice () public view returns (uint) {\n        return registration_price;\n    }\n\n    function showTransferPrice () public view returns (uint) {\n        return transfer_price;\n    }\n\n    function showOwnersCount () public view returns (uint) {\n        return owners.length;\n    }\n\n    function showPropertyCount () public view returns (uint) {\n        return properties.length;\n    }  \n\n    function findOwner(address _owner) public view validateSender returns (string memory,\n                                                                           string memory) {\n        uint ownerId = address_to_owner[_owner];\n        return (owners[ownerId - 1].firstName, owners[ownerId - 1].lastName);\n    }\n\n    function countOwnerProperties(address _owner) public view returns (uint) {\n        return ownerPropertyCount[_owner];\n    }\n\n    function findPropertyOwner(uint _id) public view returns (string memory, \n                                                              string memory, \n                                                              address) {\n        address owner_address = propertyToOwner[_id];\n        uint ownerId = address_to_owner[owner_address];\n        return (owners[ownerId - 1].firstName, owners[ownerId - 1].lastName, owner_address);\n    }\n\n    function find_properties(address _owner) public view validateSender returns (uint[] memory) {\n        return owner_to_property[_owner];\n    } \n\n}\n\n\n\n","sourcePath":"contracts/Registry.sol","type":"contract","deployment":{"address":"0x645342Aa53571ABC47EA292Cea3aD00c5439E69f","chainid":"3","blockHeight":11672915}}