{
  "_format": "hh-sol-artifact-1",
  "contractName": "Insurance",
  "sourceName": "contracts/Insurance.sol",
  "abi": [
    {
      "inputs": [
        {
          "internalType": "address payable",
          "name": "_first",
          "type": "address"
        },
        {
          "internalType": "address payable",
          "name": "_second",
          "type": "address"
        },
        {
          "internalType": "string",
          "name": "_customer",
          "type": "string"
        },
        {
          "internalType": "string",
          "name": "_property_address",
          "type": "string"
        },
        {
          "internalType": "uint256",
          "name": "_payout",
          "type": "uint256"
        }
      ],
      "stateMutability": "nonpayable",
      "type": "constructor"
    },
    {
      "inputs": [],
      "name": "amount",
      "outputs": [
        {
          "internalType": "uint256",
          "name": "",
          "type": "uint256"
        }
      ],
      "stateMutability": "view",
      "type": "function"
    },
    {
      "inputs": [],
      "name": "customer_name",
      "outputs": [
        {
          "internalType": "string",
          "name": "",
          "type": "string"
        }
      ],
      "stateMutability": "view",
      "type": "function"
    },
    {
      "inputs": [],
      "name": "owner",
      "outputs": [
        {
          "internalType": "address",
          "name": "",
          "type": "address"
        }
      ],
      "stateMutability": "view",
      "type": "function"
    },
    {
      "inputs": [],
      "name": "pay_out",
      "outputs": [],
      "stateMutability": "nonpayable",
      "type": "function"
    },
    {
      "inputs": [],
      "name": "payout",
      "outputs": [
        {
          "internalType": "uint256",
          "name": "",
          "type": "uint256"
        }
      ],
      "stateMutability": "view",
      "type": "function"
    },
    {
      "inputs": [],
      "name": "property_address",
      "outputs": [
        {
          "internalType": "string",
          "name": "",
          "type": "string"
        }
      ],
      "stateMutability": "view",
      "type": "function"
    },
    {
      "stateMutability": "payable",
      "type": "receive"
    }
  ],
  "bytecode": "0x60806040523480156200001157600080fd5b5060405162000ca538038062000ca5833981810160405281019062000037919062000295565b846000806101000a81548173ffffffffffffffffffffffffffffffffffffffff021916908373ffffffffffffffffffffffffffffffffffffffff16021790555033600560006101000a81548173ffffffffffffffffffffffffffffffffffffffff021916908373ffffffffffffffffffffffffffffffffffffffff16021790555083600160006101000a81548173ffffffffffffffffffffffffffffffffffffffff021916908373ffffffffffffffffffffffffffffffffffffffff160217905550600060028190555082600390805190602001906200011992919062000145565b5081600490805190602001906200013292919062000145565b50806006819055505050505050620004ec565b828054620001539062000424565b90600052602060002090601f016020900481019282620001775760008555620001c3565b82601f106200019257805160ff1916838001178555620001c3565b82800160010185558215620001c3579182015b82811115620001c2578251825591602001919060010190620001a5565b5b509050620001d29190620001d6565b5090565b5b80821115620001f1576000816000905550600101620001d7565b5090565b60006200020c62000206846200037d565b62000349565b9050828152602081018484840111156200022557600080fd5b62000232848285620003ee565b509392505050565b6000815190506200024b81620004b8565b92915050565b600082601f8301126200026357600080fd5b815162000275848260208601620001f5565b91505092915050565b6000815190506200028f81620004d2565b92915050565b600080600080600060a08688031215620002ae57600080fd5b6000620002be888289016200023a565b9550506020620002d1888289016200023a565b945050604086015167ffffffffffffffff811115620002ef57600080fd5b620002fd8882890162000251565b935050606086015167ffffffffffffffff8111156200031b57600080fd5b620003298882890162000251565b92505060806200033c888289016200027e565b9150509295509295909350565b6000604051905081810181811067ffffffffffffffff8211171562000373576200037262000489565b5b8060405250919050565b600067ffffffffffffffff8211156200039b576200039a62000489565b5b601f19601f8301169050602081019050919050565b6000620003bd82620003c4565b9050919050565b600073ffffffffffffffffffffffffffffffffffffffff82169050919050565b6000819050919050565b60005b838110156200040e578082015181840152602081019050620003f1565b838111156200041e576000848401525b50505050565b600060028204905060018216806200043d57607f821691505b602082108114156200045457620004536200045a565b5b50919050565b7f4e487b7100000000000000000000000000000000000000000000000000000000600052602260045260246000fd5b7f4e487b7100000000000000000000000000000000000000000000000000000000600052604160045260246000fd5b620004c381620003b0565b8114620004cf57600080fd5b50565b620004dd81620003e4565b8114620004e957600080fd5b50565b6107a980620004fc6000396000f3fe6080604052600436106100595760003560e01c806326fadb7c146100e457806363bd1d4a146100fb5780638da5cb5b146101265780639696e02a14610151578063aa8c217c1461017c578063d492e8f9146101a7576100df565b366100df57600160009054906101000a900473ffffffffffffffffffffffffffffffffffffffff1673ffffffffffffffffffffffffffffffffffffffff163373ffffffffffffffffffffffffffffffffffffffff161480156100bb5750600034115b6100c457600080fd5b34600260008282546100d691906105d9565b92505081905550005b600080fd5b3480156100f057600080fd5b506100f96101d2565b005b34801561010757600080fd5b50610110610326565b60405161011d9190610597565b60405180910390f35b34801561013257600080fd5b5061013b61032c565b604051610148919061053a565b60405180910390f35b34801561015d57600080fd5b50610166610352565b6040516101739190610555565b60405180910390f35b34801561018857600080fd5b506101916103e0565b60405161019e9190610597565b60405180910390f35b3480156101b357600080fd5b506101bc6103e6565b6040516101c99190610555565b60405180910390f35b600560009054906101000a900473ffffffffffffffffffffffffffffffffffffffff1673ffffffffffffffffffffffffffffffffffffffff163373ffffffffffffffffffffffffffffffffffffffff161461022c57600080fd5b600060065490506000600681905550806002600082825461024d919061062f565b925050819055506000600160009054906101000a900473ffffffffffffffffffffffffffffffffffffffff1673ffffffffffffffffffffffffffffffffffffffff168260405161029c90610525565b60006040518083038185875af1925050503d80600081146102d9576040519150601f19603f3d011682016040523d82523d6000602084013e6102de565b606091505b5050905080610322576040517f08c379a000000000000000000000000000000000000000000000000000000000815260040161031990610577565b60405180910390fd5b5050565b60065481565b600560009054906101000a900473ffffffffffffffffffffffffffffffffffffffff1681565b6004805461035f906106d2565b80601f016020809104026020016040519081016040528092919081815260200182805461038b906106d2565b80156103d85780601f106103ad576101008083540402835291602001916103d8565b820191906000526020600020905b8154815290600101906020018083116103bb57829003601f168201915b505050505081565b60025481565b600380546103f3906106d2565b80601f016020809104026020016040519081016040528092919081815260200182805461041f906106d2565b801561046c5780601f106104415761010080835404028352916020019161046c565b820191906000526020600020905b81548152906001019060200180831161044f57829003601f168201915b505050505081565b61047d81610663565b82525050565b600061048e826105b2565b61049881856105c8565b93506104a881856020860161069f565b6104b181610762565b840191505092915050565b60006104c96000836105bd565b9150600082019050919050565b60006104e36010836105c8565b91507f5472616e73666572206661696c65642e000000000000000000000000000000006000830152602082019050919050565b61051f81610695565b82525050565b6000610530826104bc565b9150819050919050565b600060208201905061054f6000830184610474565b92915050565b6000602082019050818103600083015261056f8184610483565b905092915050565b60006020820190508181036000830152610590816104d6565b9050919050565b60006020820190506105ac6000830184610516565b92915050565b600081519050919050565b600081905092915050565b600082825260208201905092915050565b60006105e482610695565b91506105ef83610695565b9250827fffffffffffffffffffffffffffffffffffffffffffffffffffffffffffffffff0382111561062457610623610704565b5b828201905092915050565b600061063a82610695565b915061064583610695565b92508282101561065857610657610704565b5b828203905092915050565b600061066e82610675565b9050919050565b600073ffffffffffffffffffffffffffffffffffffffff82169050919050565b6000819050919050565b60005b838110156106bd5780820151818401526020810190506106a2565b838111156106cc576000848401525b50505050565b600060028204905060018216806106ea57607f821691505b602082108114156106fe576106fd610733565b5b50919050565b7f4e487b7100000000000000000000000000000000000000000000000000000000600052601160045260246000fd5b7f4e487b7100000000000000000000000000000000000000000000000000000000600052602260045260246000fd5b6000601f19601f830116905091905056fea2646970667358221220cafb9e8dea3513a3fb9070e4219a7ba593f0c768721750d8a3d6e67e2b0571ef64736f6c63430008000033",
  "linkReferences": {},
  "deployedLinkReferences": {}
}