{
  "abi": [
    {
      "inputs": [],
      "stateMutability": "nonpayable",
      "type": "constructor"
    },
    {
      "anonymous": false,
      "inputs": [
        {
          "indexed": true,
          "internalType": "address",
          "name": "owner",
          "type": "address"
        },
        {
          "indexed": true,
          "internalType": "address",
          "name": "approved",
          "type": "address"
        },
        {
          "indexed": true,
          "internalType": "uint256",
          "name": "tokenId",
          "type": "uint256"
        }
      ],
      "name": "Approval",
      "type": "event"
    },
    {
      "anonymous": false,
      "inputs": [
        {
          "indexed": true,
          "internalType": "address",
          "name": "owner",
          "type": "address"
        },
        {
          "indexed": true,
          "internalType": "address",
          "name": "operator",
          "type": "address"
        },
        {
          "indexed": false,
          "internalType": "bool",
          "name": "approved",
          "type": "bool"
        }
      ],
      "name": "ApprovalForAll",
      "type": "event"
    },
    {
      "anonymous": false,
      "inputs": [
        {
          "indexed": false,
          "internalType": "uint256",
          "name": "tokenId",
          "type": "uint256"
        },
        {
          "indexed": false,
          "internalType": "uint256",
          "name": "amount",
          "type": "uint256"
        }
      ],
      "name": "TokenCollateralized",
      "type": "event"
    },
    {
      "anonymous": false,
      "inputs": [
        {
          "indexed": true,
          "internalType": "address",
          "name": "from",
          "type": "address"
        },
        {
          "indexed": true,
          "internalType": "address",
          "name": "to",
          "type": "address"
        },
        {
          "indexed": true,
          "internalType": "uint256",
          "name": "tokenId",
          "type": "uint256"
        }
      ],
      "name": "Transfer",
      "type": "event"
    },
    {
      "anonymous": false,
      "inputs": [
        {
          "indexed": false,
          "internalType": "uint256",
          "name": "tokenId",
          "type": "uint256"
        }
      ],
      "name": "priceCalculation",
      "type": "event"
    },
    {
      "inputs": [
        {
          "internalType": "uint256",
          "name": "tokenId",
          "type": "uint256"
        }
      ],
      "name": "_checkCollateralization",
      "outputs": [
        {
          "internalType": "bool",
          "name": "",
          "type": "bool"
        }
      ],
      "stateMutability": "view",
      "type": "function"
    },
    {
      "inputs": [
        {
          "internalType": "uint256",
          "name": "tokenId",
          "type": "uint256"
        },
        {
          "internalType": "uint256",
          "name": "collateralization_amount",
          "type": "uint256"
        },
        {
          "internalType": "uint256",
          "name": "value",
          "type": "uint256"
        }
      ],
      "name": "_collateralize",
      "outputs": [],
      "stateMutability": "nonpayable",
      "type": "function"
    },
    {
      "inputs": [
        {
          "internalType": "uint256",
          "name": "tokenId",
          "type": "uint256"
        }
      ],
      "name": "_requireCollateralValue",
      "outputs": [],
      "stateMutability": "nonpayable",
      "type": "function"
    },
    {
      "inputs": [
        {
          "internalType": "address",
          "name": "to",
          "type": "address"
        },
        {
          "internalType": "uint256",
          "name": "tokenId",
          "type": "uint256"
        }
      ],
      "name": "approve",
      "outputs": [],
      "stateMutability": "nonpayable",
      "type": "function"
    },
    {
      "inputs": [
        {
          "internalType": "address",
          "name": "owner",
          "type": "address"
        }
      ],
      "name": "balanceOf",
      "outputs": [
        {
          "internalType": "uint256",
          "name": "",
          "type": "uint256"
        }
      ],
      "stateMutability": "view",
      "type": "function"
    },
    {
      "inputs": [
        {
          "internalType": "uint256",
          "name": "tokenId",
          "type": "uint256"
        }
      ],
      "name": "burnNFT",
      "outputs": [],
      "stateMutability": "nonpayable",
      "type": "function"
    },
    {
      "inputs": [
        {
          "internalType": "uint256",
          "name": "tokenId",
          "type": "uint256"
        }
      ],
      "name": "getApproved",
      "outputs": [
        {
          "internalType": "address",
          "name": "",
          "type": "address"
        }
      ],
      "stateMutability": "view",
      "type": "function"
    },
    {
      "inputs": [
        {
          "internalType": "uint256",
          "name": "tokenId",
          "type": "uint256"
        }
      ],
      "name": "gettokenURI",
      "outputs": [
        {
          "internalType": "string",
          "name": "",
          "type": "string"
        }
      ],
      "stateMutability": "view",
      "type": "function"
    },
    {
      "inputs": [
        {
          "internalType": "address",
          "name": "owner",
          "type": "address"
        },
        {
          "internalType": "address",
          "name": "operator",
          "type": "address"
        }
      ],
      "name": "isApprovedForAll",
      "outputs": [
        {
          "internalType": "bool",
          "name": "",
          "type": "bool"
        }
      ],
      "stateMutability": "view",
      "type": "function"
    },
    {
      "inputs": [
        {
          "internalType": "uint256",
          "name": "tokenId",
          "type": "uint256"
        }
      ],
      "name": "isOwner",
      "outputs": [
        {
          "internalType": "address",
          "name": "",
          "type": "address"
        }
      ],
      "stateMutability": "view",
      "type": "function"
    },
    {
      "inputs": [
        {
          "internalType": "string",
          "name": "_uri",
          "type": "string"
        },
        {
          "internalType": "address",
          "name": "_owner",
          "type": "address"
        }
      ],
      "name": "mintNFT",
      "outputs": [
        {
          "internalType": "uint256",
          "name": "",
          "type": "uint256"
        }
      ],
      "stateMutability": "nonpayable",
      "type": "function"
    },
    {
      "inputs": [],
      "name": "name",
      "outputs": [
        {
          "internalType": "string",
          "name": "",
          "type": "string"
        }
      ],
      "stateMutability": "view",
      "type": "function"
    },
    {
      "inputs": [
        {
          "internalType": "uint256",
          "name": "tokenId",
          "type": "uint256"
        }
      ],
      "name": "ownerOf",
      "outputs": [
        {
          "internalType": "address",
          "name": "",
          "type": "address"
        }
      ],
      "stateMutability": "view",
      "type": "function"
    },
    {
      "inputs": [
        {
          "internalType": "address",
          "name": "from",
          "type": "address"
        },
        {
          "internalType": "address",
          "name": "to",
          "type": "address"
        },
        {
          "internalType": "uint256",
          "name": "tokenId",
          "type": "uint256"
        }
      ],
      "name": "safeTransferFrom",
      "outputs": [],
      "stateMutability": "nonpayable",
      "type": "function"
    },
    {
      "inputs": [
        {
          "internalType": "address",
          "name": "from",
          "type": "address"
        },
        {
          "internalType": "address",
          "name": "to",
          "type": "address"
        },
        {
          "internalType": "uint256",
          "name": "tokenId",
          "type": "uint256"
        },
        {
          "internalType": "bytes",
          "name": "_data",
          "type": "bytes"
        }
      ],
      "name": "safeTransferFrom",
      "outputs": [],
      "stateMutability": "nonpayable",
      "type": "function"
    },
    {
      "inputs": [
        {
          "internalType": "address",
          "name": "operator",
          "type": "address"
        },
        {
          "internalType": "bool",
          "name": "approved",
          "type": "bool"
        }
      ],
      "name": "setApprovalForAll",
      "outputs": [],
      "stateMutability": "nonpayable",
      "type": "function"
    },
    {
      "inputs": [
        {
          "internalType": "bytes4",
          "name": "interfaceId",
          "type": "bytes4"
        }
      ],
      "name": "supportsInterface",
      "outputs": [
        {
          "internalType": "bool",
          "name": "",
          "type": "bool"
        }
      ],
      "stateMutability": "view",
      "type": "function"
    },
    {
      "inputs": [],
      "name": "symbol",
      "outputs": [
        {
          "internalType": "string",
          "name": "",
          "type": "string"
        }
      ],
      "stateMutability": "view",
      "type": "function"
    },
    {
      "inputs": [],
      "name": "tokenCounter",
      "outputs": [
        {
          "internalType": "uint256",
          "name": "",
          "type": "uint256"
        }
      ],
      "stateMutability": "view",
      "type": "function"
    },
    {
      "inputs": [
        {
          "internalType": "uint256",
          "name": "tokenId",
          "type": "uint256"
        }
      ],
      "name": "tokenURI",
      "outputs": [
        {
          "internalType": "string",
          "name": "",
          "type": "string"
        }
      ],
      "stateMutability": "view",
      "type": "function"
    },
    {
      "inputs": [
        {
          "internalType": "address",
          "name": "from",
          "type": "address"
        },
        {
          "internalType": "address",
          "name": "to",
          "type": "address"
        },
        {
          "internalType": "uint256",
          "name": "tokenId",
          "type": "uint256"
        }
      ],
      "name": "transferFrom",
      "outputs": [],
      "stateMutability": "nonpayable",
      "type": "function"
    }
  ],
  "bytecode": "60806040523480156200001157600080fd5b5060408051808201825260078152661c1c9bdc13919560ca1b60208083019182528351808501909452600384526213919560ea1b9084015281519192916200005c9160009162000092565b5080516200007290600190602084019062000092565b5050600060065550600780546001600160a01b0319163317905562000175565b828054620000a09062000138565b90600052602060002090601f016020900481019282620000c457600085556200010f565b82601f10620000df57805160ff19168380011785556200010f565b828001600101855582156200010f579182015b828111156200010f578251825591602001919060010190620000f2565b506200011d92915062000121565b5090565b5b808211156200011d576000815560010162000122565b600181811c908216806200014d57607f821691505b602082108114156200016f57634e487b7160e01b600052602260045260246000fd5b50919050565b611c0180620001856000396000f3fe608060405234801561001057600080fd5b50600436106101375760003560e01c806339c7639c116100b8578063a22cb4651161007c578063a22cb4651461028d578063b88d4fde146102a0578063c87b56dd146102b3578063d082e381146102c6578063e985e9c5146102cf578063f3f0cd7f1461030b57600080fd5b806339c7639c1461023957806342842e0e1461024c5780636352211e1461025f57806370a082311461027257806395d89b411461028557600080fd5b80630b862fa7116100ff5780630b862fa7146101da57806323b872dd146101ed578063256076a314610200578063258390ff146102135780632890e0d71461022657600080fd5b806301ffc9a71461013c57806304f322791461016457806306fdde0314610185578063081812fc1461019a578063095ea7b3146101c5575b600080fd5b61014f61014a3660046115e4565b61031e565b60405190151581526020015b60405180910390f35b6101776101723660046116a9565b610370565b60405190815260200161015b565b61018d6103ef565b60405161015b9190611763565b6101ad6101a8366004611776565b610481565b6040516001600160a01b03909116815260200161015b565b6101d86101d336600461178f565b610509565b005b6101d86101e83660046117b9565b61061f565b6101d86101fb3660046117e5565b610783565b6101d861020e366004611776565b6107b4565b61014f610221366004611776565b610811565b6101d8610234366004611776565b6108bd565b6101ad610247366004611776565b610919565b6101d861025a3660046117e5565b610951565b6101ad61026d366004611776565b61096c565b610177610280366004611821565b6109e3565b61018d610a6a565b6101d861029b36600461183c565b610a79565b6101d86102ae366004611878565b610a84565b61018d6102c1366004611776565b610abc565b61017760065481565b61014f6102dd3660046118f4565b6001600160a01b03918216600090815260056020908152604080832093909416825291909152205460ff1690565b61018d610319366004611776565b610b93565b60006001600160e01b031982166380ac58cd60e01b148061034f57506001600160e01b03198216635b5e139f60e01b145b8061036a57506301ffc9a760e01b6001600160e01b03198316145b92915050565b6007546000906001600160a01b031633146103a65760405162461bcd60e51b815260040161039d9061191e565b60405180910390fd5b6006546103b38382610c5b565b6103bd8185610c75565b600680549060006103cd8361195f565b90915550506000818152600860205260409020805460ff191690559392505050565b6060600080546103fe9061197a565b80601f016020809104026020016040519081016040528092919081815260200182805461042a9061197a565b80156104775780601f1061044c57610100808354040283529160200191610477565b820191906000526020600020905b81548152906001019060200180831161045a57829003601f168201915b5050505050905090565b600061048c82610ce4565b6104ed5760405162461bcd60e51b815260206004820152602c60248201527f4552433732313a20617070726f76656420717565727920666f72206e6f6e657860448201526b34b9ba32b73a103a37b5b2b760a11b606482015260840161039d565b506000908152600460205260409020546001600160a01b031690565b60006105148261096c565b9050806001600160a01b0316836001600160a01b031614156105825760405162461bcd60e51b815260206004820152602160248201527f4552433732313a20617070726f76616c20746f2063757272656e74206f776e656044820152603960f91b606482015260840161039d565b336001600160a01b038216148061059e575061059e81336102dd565b6106105760405162461bcd60e51b815260206004820152603860248201527f4552433732313a20617070726f76652063616c6c6572206973206e6f74206f7760448201527f6e6572206e6f7220617070726f76656420666f7220616c6c0000000000000000606482015260840161039d565b61061a8383610d01565b505050565b6007546001600160a01b031633146106495760405162461bcd60e51b815260040161039d9061191e565b8261065381610ce4565b61066f5760405162461bcd60e51b815260040161039d906119af565b60008481526008602052604090205460ff16156106ce5760405162461bcd60e51b815260206004820181905260248201527f546f6b656e20616c7265616479207573656420617320636f6c6c61746572616c604482015260640161039d565b82600a6106dc8460086119fd565b6106e69190611a32565b1161072c5760405162461bcd60e51b81526020600482015260166024820152750a8ded6cadc40dcdee840eedee4e8d040cadcdeeaced60531b604482015260640161039d565b60408051858152602081018590527f4109159191acc706479df65b87973196a654191dbba26b323461f73dfd1a1d4e910160405180910390a15050506000908152600860205260409020805460ff19166001179055565b61078d3382610d6f565b6107a95760405162461bcd60e51b815260040161039d90611a46565b61061a838383610e59565b806107be81610ce4565b6107da5760405162461bcd60e51b815260040161039d906119af565b6040518281527fd72ea6680b538106fc7a736ac4587f6fb7d3484c571e6c5118f663d2763347da9060200160405180910390a15050565b60008161081d81610ce4565b6108395760405162461bcd60e51b815260040161039d906119af565b61084283610919565b6001600160a01b0316336001600160a01b0316146108a25760405162461bcd60e51b815260206004820181905260248201527f4f776e61626c653a2063616c6c6572206973206e6f7420746865206f776e6572604482015260640161039d565b60008381526008602052604090205460ff1691505b50919050565b806108c781610ce4565b6108e35760405162461bcd60e51b815260040161039d906119af565b6108ec82610ff9565b6000828152600860209081526040808320805460ff1916905560099091528120610915916114f8565b5050565b60008161092581610ce4565b6109415760405162461bcd60e51b815260040161039d906119af565b61094a8361096c565b9392505050565b61061a83838360405180602001604052806000815250610a84565b6000818152600260205260408120546001600160a01b03168061036a5760405162461bcd60e51b815260206004820152602960248201527f4552433732313a206f776e657220717565727920666f72206e6f6e657869737460448201526832b73a103a37b5b2b760b91b606482015260840161039d565b60006001600160a01b038216610a4e5760405162461bcd60e51b815260206004820152602a60248201527f4552433732313a2062616c616e636520717565727920666f7220746865207a65604482015269726f206164647265737360b01b606482015260840161039d565b506001600160a01b031660009081526003602052604090205490565b6060600180546103fe9061197a565b610915338383611094565b610a8e3383610d6f565b610aaa5760405162461bcd60e51b815260040161039d90611a46565b610ab684848484611163565b50505050565b6060610ac782610ce4565b610b2b5760405162461bcd60e51b815260206004820152602f60248201527f4552433732314d657461646174613a2055524920717565727920666f72206e6f60448201526e3732bc34b9ba32b73a103a37b5b2b760891b606482015260840161039d565b6000610b4260408051602081019091526000815290565b90506000815111610b62576040518060200160405280600081525061094a565b80610b6c84611196565b604051602001610b7d929190611a97565b6040516020818303038152906040529392505050565b606081610b9f81610ce4565b610bbb5760405162461bcd60e51b815260040161039d906119af565b60008381526009602052604081208054610bd49061197a565b80601f0160208091040260200160405190810160405280929190818152602001828054610c009061197a565b8015610c4d5780601f10610c2257610100808354040283529160200191610c4d565b820191906000526020600020905b815481529060010190602001808311610c3057829003601f168201915b509398975050505050505050565b610915828260405180602001604052806000815250611294565b6007546001600160a01b03163314610c9f5760405162461bcd60e51b815260040161039d9061191e565b81610ca981610ce4565b610cc55760405162461bcd60e51b815260040161039d906119af565b60008381526009602090815260409091208351610ab692850190611535565b6000908152600260205260409020546001600160a01b0316151590565b600081815260046020526040902080546001600160a01b0319166001600160a01b0384169081179091558190610d368261096c565b6001600160a01b03167f8c5be1e5ebec7d5bd14f71427d1e84f3dd0314c0f7b2291e5b200ac8c7c3b92560405160405180910390a45050565b6000610d7a82610ce4565b610ddb5760405162461bcd60e51b815260206004820152602c60248201527f4552433732313a206f70657261746f7220717565727920666f72206e6f6e657860448201526b34b9ba32b73a103a37b5b2b760a11b606482015260840161039d565b6000610de68361096c565b9050806001600160a01b0316846001600160a01b03161480610e215750836001600160a01b0316610e1684610481565b6001600160a01b0316145b80610e5157506001600160a01b0380821660009081526005602090815260408083209388168352929052205460ff165b949350505050565b826001600160a01b0316610e6c8261096c565b6001600160a01b031614610ed45760405162461bcd60e51b815260206004820152602960248201527f4552433732313a207472616e73666572206f6620746f6b656e2074686174206960448201526839903737ba1037bbb760b91b606482015260840161039d565b6001600160a01b038216610f365760405162461bcd60e51b8152602060048201526024808201527f4552433732313a207472616e7366657220746f20746865207a65726f206164646044820152637265737360e01b606482015260840161039d565b610f41600082610d01565b6001600160a01b0383166000908152600360205260408120805460019290610f6a908490611ac6565b90915550506001600160a01b0382166000908152600360205260408120805460019290610f98908490611add565b909155505060008181526002602052604080822080546001600160a01b0319166001600160a01b0386811691821790925591518493918716917fddf252ad1be2c89b69c2b068fc378daa952ba7f163c4a11628f55a4df523b3ef91a4505050565b60006110048261096c565b9050611011600083610d01565b6001600160a01b038116600090815260036020526040812080546001929061103a908490611ac6565b909155505060008281526002602052604080822080546001600160a01b0319169055518391906001600160a01b038416907fddf252ad1be2c89b69c2b068fc378daa952ba7f163c4a11628f55a4df523b3ef908390a45050565b816001600160a01b0316836001600160a01b031614156110f65760405162461bcd60e51b815260206004820152601960248201527f4552433732313a20617070726f766520746f2063616c6c657200000000000000604482015260640161039d565b6001600160a01b03838116600081815260056020908152604080832094871680845294825291829020805460ff191686151590811790915591519182527f17307eab39ab6107e8899845ad3d59bd9653f200f220920489ca2b5937696c31910160405180910390a3505050565b61116e848484610e59565b61117a848484846112c7565b610ab65760405162461bcd60e51b815260040161039d90611af5565b6060816111ba5750506040805180820190915260018152600360fc1b602082015290565b8160005b81156111e457806111ce8161195f565b91506111dd9050600a83611a32565b91506111be565b60008167ffffffffffffffff8111156111ff576111ff611601565b6040519080825280601f01601f191660200182016040528015611229576020820181803683370190505b5090505b8415610e515761123e600183611ac6565b915061124b600a86611b47565b611256906030611add565b60f81b81838151811061126b5761126b611b5b565b60200101906001600160f81b031916908160001a90535061128d600a86611a32565b945061122d565b61129e83836113c5565b6112ab60008484846112c7565b61061a5760405162461bcd60e51b815260040161039d90611af5565b60006001600160a01b0384163b156113ba57604051630a85bd0160e11b81526001600160a01b0385169063150b7a029061130b903390899088908890600401611b71565b6020604051808303816000875af1925050508015611346575060408051601f3d908101601f1916820190925261134391810190611bae565b60015b6113a0573d808015611374576040519150601f19603f3d011682016040523d82523d6000602084013e611379565b606091505b5080516113985760405162461bcd60e51b815260040161039d90611af5565b805181602001fd5b6001600160e01b031916630a85bd0160e11b149050610e51565b506001949350505050565b6001600160a01b03821661141b5760405162461bcd60e51b815260206004820181905260248201527f4552433732313a206d696e7420746f20746865207a65726f2061646472657373604482015260640161039d565b61142481610ce4565b156114715760405162461bcd60e51b815260206004820152601c60248201527f4552433732313a20746f6b656e20616c7265616479206d696e74656400000000604482015260640161039d565b6001600160a01b038216600090815260036020526040812080546001929061149a908490611add565b909155505060008181526002602052604080822080546001600160a01b0319166001600160a01b03861690811790915590518392907fddf252ad1be2c89b69c2b068fc378daa952ba7f163c4a11628f55a4df523b3ef908290a45050565b5080546115049061197a565b6000825580601f10611514575050565b601f01602090049060005260206000209081019061153291906115b9565b50565b8280546115419061197a565b90600052602060002090601f01602090048101928261156357600085556115a9565b82601f1061157c57805160ff19168380011785556115a9565b828001600101855582156115a9579182015b828111156115a957825182559160200191906001019061158e565b506115b59291506115b9565b5090565b5b808211156115b557600081556001016115ba565b6001600160e01b03198116811461153257600080fd5b6000602082840312156115f657600080fd5b813561094a816115ce565b634e487b7160e01b600052604160045260246000fd5b600067ffffffffffffffff8084111561163257611632611601565b604051601f8501601f19908116603f0116810190828211818310171561165a5761165a611601565b8160405280935085815286868601111561167357600080fd5b858560208301376000602087830101525050509392505050565b80356001600160a01b03811681146116a457600080fd5b919050565b600080604083850312156116bc57600080fd5b823567ffffffffffffffff8111156116d357600080fd5b8301601f810185136116e457600080fd5b6116f385823560208401611617565b9250506117026020840161168d565b90509250929050565b60005b8381101561172657818101518382015260200161170e565b83811115610ab65750506000910152565b6000815180845261174f81602086016020860161170b565b601f01601f19169290920160200192915050565b60208152600061094a6020830184611737565b60006020828403121561178857600080fd5b5035919050565b600080604083850312156117a257600080fd5b6117ab8361168d565b946020939093013593505050565b6000806000606084860312156117ce57600080fd5b505081359360208301359350604090920135919050565b6000806000606084860312156117fa57600080fd5b6118038461168d565b92506118116020850161168d565b9150604084013590509250925092565b60006020828403121561183357600080fd5b61094a8261168d565b6000806040838503121561184f57600080fd5b6118588361168d565b91506020830135801515811461186d57600080fd5b809150509250929050565b6000806000806080858703121561188e57600080fd5b6118978561168d565b93506118a56020860161168d565b925060408501359150606085013567ffffffffffffffff8111156118c857600080fd5b8501601f810187136118d957600080fd5b6118e887823560208401611617565b91505092959194509250565b6000806040838503121561190757600080fd5b6119108361168d565b91506117026020840161168d565b60208082526011908201527014195c9b5a5cdcda5bdb8819195b9a5959607a1b604082015260600190565b634e487b7160e01b600052601160045260246000fd5b600060001982141561197357611973611949565b5060010190565b600181811c9082168061198e57607f821691505b602082108114156108b757634e487b7160e01b600052602260045260246000fd5b6020808252602e908201527f45524337323155524953746f726167653a2055524920736574206f66206e6f6e60408201526d32bc34b9ba32b73a103a37b5b2b760911b606082015260800190565b6000816000190483118215151615611a1757611a17611949565b500290565b634e487b7160e01b600052601260045260246000fd5b600082611a4157611a41611a1c565b500490565b60208082526031908201527f4552433732313a207472616e736665722063616c6c6572206973206e6f74206f6040820152701ddb995c881b9bdc88185c1c1c9bdd9959607a1b606082015260800190565b60008351611aa981846020880161170b565b835190830190611abd81836020880161170b565b01949350505050565b600082821015611ad857611ad8611949565b500390565b60008219821115611af057611af0611949565b500190565b60208082526032908201527f4552433732313a207472616e7366657220746f206e6f6e20455243373231526560408201527131b2b4bb32b91034b6b83632b6b2b73a32b960711b606082015260800190565b600082611b5657611b56611a1c565b500690565b634e487b7160e01b600052603260045260246000fd5b6001600160a01b0385811682528416602082015260408101839052608060608201819052600090611ba490830184611737565b9695505050505050565b600060208284031215611bc057600080fd5b815161094a816115ce56fea26469706673582212206fa75f8c5d7d3a9e1c2155ce1dbc75a3aa570608cf1569588f5583eda3d9654064736f6c634300080b0033",
  "bytecodeSha1": "1c428ebf8353e27dc7136835f3e91ac093c2019e",
  "compiler": {
    "evm_version": "istanbul",
    "optimizer": {
      "enabled": true,
      "runs": 200
    },
    "version": "0.8.11+commit.d7f03943"
  },
  "contractName": "propNFT",
  "language": "Solidity",
  "natspec": {
    "kind": "dev",
    "methods": {
      "approve(address,uint256)": {
        "details": "See {IERC721-approve}."
      },
      "balanceOf(address)": {
        "details": "See {IERC721-balanceOf}."
      },
      "getApproved(uint256)": {
        "details": "See {IERC721-getApproved}."
      },
      "isApprovedForAll(address,address)": {
        "details": "See {IERC721-isApprovedForAll}."
      },
      "name()": {
        "details": "See {IERC721Metadata-name}."
      },
      "ownerOf(uint256)": {
        "details": "See {IERC721-ownerOf}."
      },
      "safeTransferFrom(address,address,uint256)": {
        "details": "See {IERC721-safeTransferFrom}."
      },
      "safeTransferFrom(address,address,uint256,bytes)": {
        "details": "See {IERC721-safeTransferFrom}."
      },
      "setApprovalForAll(address,bool)": {
        "details": "See {IERC721-setApprovalForAll}."
      },
      "supportsInterface(bytes4)": {
        "details": "See {IERC165-supportsInterface}."
      },
      "symbol()": {
        "details": "See {IERC721Metadata-symbol}."
      },
      "tokenURI(uint256)": {
        "details": "See {IERC721Metadata-tokenURI}."
      },
      "transferFrom(address,address,uint256)": {
        "details": "See {IERC721-transferFrom}."
      }
    },
    "version": 1
  },
  "opcodes": "PUSH1 0x80 PUSH1 0x40 MSTORE CALLVALUE DUP1 ISZERO PUSH2 0x10 JUMPI PUSH1 0x0 DUP1 REVERT JUMPDEST POP PUSH1 0x4 CALLDATASIZE LT PUSH2 0x137 JUMPI PUSH1 0x0 CALLDATALOAD PUSH1 0xE0 SHR DUP1 PUSH4 0x39C7639C GT PUSH2 0xB8 JUMPI DUP1 PUSH4 0xA22CB465 GT PUSH2 0x7C JUMPI DUP1 PUSH4 0xA22CB465 EQ PUSH2 0x28D JUMPI DUP1 PUSH4 0xB88D4FDE EQ PUSH2 0x2A0 JUMPI DUP1 PUSH4 0xC87B56DD EQ PUSH2 0x2B3 JUMPI DUP1 PUSH4 0xD082E381 EQ PUSH2 0x2C6 JUMPI DUP1 PUSH4 0xE985E9C5 EQ PUSH2 0x2CF JUMPI DUP1 PUSH4 0xF3F0CD7F EQ PUSH2 0x30B JUMPI PUSH1 0x0 DUP1 REVERT JUMPDEST DUP1 PUSH4 0x39C7639C EQ PUSH2 0x239 JUMPI DUP1 PUSH4 0x42842E0E EQ PUSH2 0x24C JUMPI DUP1 PUSH4 0x6352211E EQ PUSH2 0x25F JUMPI DUP1 PUSH4 0x70A08231 EQ PUSH2 0x272 JUMPI DUP1 PUSH4 0x95D89B41 EQ PUSH2 0x285 JUMPI PUSH1 0x0 DUP1 REVERT JUMPDEST DUP1 PUSH4 0xB862FA7 GT PUSH2 0xFF JUMPI DUP1 PUSH4 0xB862FA7 EQ PUSH2 0x1DA JUMPI DUP1 PUSH4 0x23B872DD EQ PUSH2 0x1ED JUMPI DUP1 PUSH4 0x256076A3 EQ PUSH2 0x200 JUMPI DUP1 PUSH4 0x258390FF EQ PUSH2 0x213 JUMPI DUP1 PUSH4 0x2890E0D7 EQ PUSH2 0x226 JUMPI PUSH1 0x0 DUP1 REVERT JUMPDEST DUP1 PUSH4 0x1FFC9A7 EQ PUSH2 0x13C JUMPI DUP1 PUSH4 0x4F32279 EQ PUSH2 0x164 JUMPI DUP1 PUSH4 0x6FDDE03 EQ PUSH2 0x185 JUMPI DUP1 PUSH4 0x81812FC EQ PUSH2 0x19A JUMPI DUP1 PUSH4 0x95EA7B3 EQ PUSH2 0x1C5 JUMPI JUMPDEST PUSH1 0x0 DUP1 REVERT JUMPDEST PUSH2 0x14F PUSH2 0x14A CALLDATASIZE PUSH1 0x4 PUSH2 0x15E4 JUMP JUMPDEST PUSH2 0x31E JUMP JUMPDEST PUSH1 0x40 MLOAD SWAP1 ISZERO ISZERO DUP2 MSTORE PUSH1 0x20 ADD JUMPDEST PUSH1 0x40 MLOAD DUP1 SWAP2 SUB SWAP1 RETURN JUMPDEST PUSH2 0x177 PUSH2 0x172 CALLDATASIZE PUSH1 0x4 PUSH2 0x16A9 JUMP JUMPDEST PUSH2 0x370 JUMP JUMPDEST PUSH1 0x40 MLOAD SWAP1 DUP2 MSTORE PUSH1 0x20 ADD PUSH2 0x15B JUMP JUMPDEST PUSH2 0x18D PUSH2 0x3EF JUMP JUMPDEST PUSH1 0x40 MLOAD PUSH2 0x15B SWAP2 SWAP1 PUSH2 0x1763 JUMP JUMPDEST PUSH2 0x1AD PUSH2 0x1A8 CALLDATASIZE PUSH1 0x4 PUSH2 0x1776 JUMP JUMPDEST PUSH2 0x481 JUMP JUMPDEST PUSH1 0x40 MLOAD PUSH1 0x1 PUSH1 0x1 PUSH1 0xA0 SHL SUB SWAP1 SWAP2 AND DUP2 MSTORE PUSH1 0x20 ADD PUSH2 0x15B JUMP JUMPDEST PUSH2 0x1D8 PUSH2 0x1D3 CALLDATASIZE PUSH1 0x4 PUSH2 0x178F JUMP JUMPDEST PUSH2 0x509 JUMP JUMPDEST STOP JUMPDEST PUSH2 0x1D8 PUSH2 0x1E8 CALLDATASIZE PUSH1 0x4 PUSH2 0x17B9 JUMP JUMPDEST PUSH2 0x61F JUMP JUMPDEST PUSH2 0x1D8 PUSH2 0x1FB CALLDATASIZE PUSH1 0x4 PUSH2 0x17E5 JUMP JUMPDEST PUSH2 0x783 JUMP JUMPDEST PUSH2 0x1D8 PUSH2 0x20E CALLDATASIZE PUSH1 0x4 PUSH2 0x1776 JUMP JUMPDEST PUSH2 0x7B4 JUMP JUMPDEST PUSH2 0x14F PUSH2 0x221 CALLDATASIZE PUSH1 0x4 PUSH2 0x1776 JUMP JUMPDEST PUSH2 0x811 JUMP JUMPDEST PUSH2 0x1D8 PUSH2 0x234 CALLDATASIZE PUSH1 0x4 PUSH2 0x1776 JUMP JUMPDEST PUSH2 0x8BD JUMP JUMPDEST PUSH2 0x1AD PUSH2 0x247 CALLDATASIZE PUSH1 0x4 PUSH2 0x1776 JUMP JUMPDEST PUSH2 0x919 JUMP JUMPDEST PUSH2 0x1D8 PUSH2 0x25A CALLDATASIZE PUSH1 0x4 PUSH2 0x17E5 JUMP JUMPDEST PUSH2 0x951 JUMP JUMPDEST PUSH2 0x1AD PUSH2 0x26D CALLDATASIZE PUSH1 0x4 PUSH2 0x1776 JUMP JUMPDEST PUSH2 0x96C JUMP JUMPDEST PUSH2 0x177 PUSH2 0x280 CALLDATASIZE PUSH1 0x4 PUSH2 0x1821 JUMP JUMPDEST PUSH2 0x9E3 JUMP JUMPDEST PUSH2 0x18D PUSH2 0xA6A JUMP JUMPDEST PUSH2 0x1D8 PUSH2 0x29B CALLDATASIZE PUSH1 0x4 PUSH2 0x183C JUMP JUMPDEST PUSH2 0xA79 JUMP JUMPDEST PUSH2 0x1D8 PUSH2 0x2AE CALLDATASIZE PUSH1 0x4 PUSH2 0x1878 JUMP JUMPDEST PUSH2 0xA84 JUMP JUMPDEST PUSH2 0x18D PUSH2 0x2C1 CALLDATASIZE PUSH1 0x4 PUSH2 0x1776 JUMP JUMPDEST PUSH2 0xABC JUMP JUMPDEST PUSH2 0x177 PUSH1 0x6 SLOAD DUP2 JUMP JUMPDEST PUSH2 0x14F PUSH2 0x2DD CALLDATASIZE PUSH1 0x4 PUSH2 0x18F4 JUMP JUMPDEST PUSH1 0x1 PUSH1 0x1 PUSH1 0xA0 SHL SUB SWAP2 DUP3 AND PUSH1 0x0 SWAP1 DUP2 MSTORE PUSH1 0x5 PUSH1 0x20 SWAP1 DUP2 MSTORE PUSH1 0x40 DUP1 DUP4 KECCAK256 SWAP4 SWAP1 SWAP5 AND DUP3 MSTORE SWAP2 SWAP1 SWAP2 MSTORE KECCAK256 SLOAD PUSH1 0xFF AND SWAP1 JUMP JUMPDEST PUSH2 0x18D PUSH2 0x319 CALLDATASIZE PUSH1 0x4 PUSH2 0x1776 JUMP JUMPDEST PUSH2 0xB93 JUMP JUMPDEST PUSH1 0x0 PUSH1 0x1 PUSH1 0x1 PUSH1 0xE0 SHL SUB NOT DUP3 AND PUSH4 0x80AC58CD PUSH1 0xE0 SHL EQ DUP1 PUSH2 0x34F JUMPI POP PUSH1 0x1 PUSH1 0x1 PUSH1 0xE0 SHL SUB NOT DUP3 AND PUSH4 0x5B5E139F PUSH1 0xE0 SHL EQ JUMPDEST DUP1 PUSH2 0x36A JUMPI POP PUSH4 0x1FFC9A7 PUSH1 0xE0 SHL PUSH1 0x1 PUSH1 0x1 PUSH1 0xE0 SHL SUB NOT DUP4 AND EQ JUMPDEST SWAP3 SWAP2 POP POP JUMP JUMPDEST PUSH1 0x7 SLOAD PUSH1 0x0 SWAP1 PUSH1 0x1 PUSH1 0x1 PUSH1 0xA0 SHL SUB AND CALLER EQ PUSH2 0x3A6 JUMPI PUSH1 0x40 MLOAD PUSH3 0x461BCD PUSH1 0xE5 SHL DUP2 MSTORE PUSH1 0x4 ADD PUSH2 0x39D SWAP1 PUSH2 0x191E JUMP JUMPDEST PUSH1 0x40 MLOAD DUP1 SWAP2 SUB SWAP1 REVERT JUMPDEST PUSH1 0x6 SLOAD PUSH2 0x3B3 DUP4 DUP3 PUSH2 0xC5B JUMP JUMPDEST PUSH2 0x3BD DUP2 DUP6 PUSH2 0xC75 JUMP JUMPDEST PUSH1 0x6 DUP1 SLOAD SWAP1 PUSH1 0x0 PUSH2 0x3CD DUP4 PUSH2 0x195F JUMP JUMPDEST SWAP1 SWAP2 SSTORE POP POP PUSH1 0x0 DUP2 DUP2 MSTORE PUSH1 0x8 PUSH1 0x20 MSTORE PUSH1 0x40 SWAP1 KECCAK256 DUP1 SLOAD PUSH1 0xFF NOT AND SWAP1 SSTORE SWAP4 SWAP3 POP POP POP JUMP JUMPDEST PUSH1 0x60 PUSH1 0x0 DUP1 SLOAD PUSH2 0x3FE SWAP1 PUSH2 0x197A JUMP JUMPDEST DUP1 PUSH1 0x1F ADD PUSH1 0x20 DUP1 SWAP2 DIV MUL PUSH1 0x20 ADD PUSH1 0x40 MLOAD SWAP1 DUP2 ADD PUSH1 0x40 MSTORE DUP1 SWAP3 SWAP2 SWAP1 DUP2 DUP2 MSTORE PUSH1 0x20 ADD DUP3 DUP1 SLOAD PUSH2 0x42A SWAP1 PUSH2 0x197A JUMP JUMPDEST DUP1 ISZERO PUSH2 0x477 JUMPI DUP1 PUSH1 0x1F LT PUSH2 0x44C JUMPI PUSH2 0x100 DUP1 DUP4 SLOAD DIV MUL DUP4 MSTORE SWAP2 PUSH1 0x20 ADD SWAP2 PUSH2 0x477 JUMP JUMPDEST DUP3 ADD SWAP2 SWAP1 PUSH1 0x0 MSTORE PUSH1 0x20 PUSH1 0x0 KECCAK256 SWAP1 JUMPDEST DUP2 SLOAD DUP2 MSTORE SWAP1 PUSH1 0x1 ADD SWAP1 PUSH1 0x20 ADD DUP1 DUP4 GT PUSH2 0x45A JUMPI DUP3 SWAP1 SUB PUSH1 0x1F AND DUP3 ADD SWAP2 JUMPDEST POP POP POP POP POP SWAP1 POP SWAP1 JUMP JUMPDEST PUSH1 0x0 PUSH2 0x48C DUP3 PUSH2 0xCE4 JUMP JUMPDEST PUSH2 0x4ED JUMPI PUSH1 0x40 MLOAD PUSH3 0x461BCD PUSH1 0xE5 SHL DUP2 MSTORE PUSH1 0x20 PUSH1 0x4 DUP3 ADD MSTORE PUSH1 0x2C PUSH1 0x24 DUP3 ADD MSTORE PUSH32 0x4552433732313A20617070726F76656420717565727920666F72206E6F6E6578 PUSH1 0x44 DUP3 ADD MSTORE PUSH12 0x34B9BA32B73A103A37B5B2B7 PUSH1 0xA1 SHL PUSH1 0x64 DUP3 ADD MSTORE PUSH1 0x84 ADD PUSH2 0x39D JUMP JUMPDEST POP PUSH1 0x0 SWAP1 DUP2 MSTORE PUSH1 0x4 PUSH1 0x20 MSTORE PUSH1 0x40 SWAP1 KECCAK256 SLOAD PUSH1 0x1 PUSH1 0x1 PUSH1 0xA0 SHL SUB AND SWAP1 JUMP JUMPDEST PUSH1 0x0 PUSH2 0x514 DUP3 PUSH2 0x96C JUMP JUMPDEST SWAP1 POP DUP1 PUSH1 0x1 PUSH1 0x1 PUSH1 0xA0 SHL SUB AND DUP4 PUSH1 0x1 PUSH1 0x1 PUSH1 0xA0 SHL SUB AND EQ ISZERO PUSH2 0x582 JUMPI PUSH1 0x40 MLOAD PUSH3 0x461BCD PUSH1 0xE5 SHL DUP2 MSTORE PUSH1 0x20 PUSH1 0x4 DUP3 ADD MSTORE PUSH1 0x21 PUSH1 0x24 DUP3 ADD MSTORE PUSH32 0x4552433732313A20617070726F76616C20746F2063757272656E74206F776E65 PUSH1 0x44 DUP3 ADD MSTORE PUSH1 0x39 PUSH1 0xF9 SHL PUSH1 0x64 DUP3 ADD MSTORE PUSH1 0x84 ADD PUSH2 0x39D JUMP JUMPDEST CALLER PUSH1 0x1 PUSH1 0x1 PUSH1 0xA0 SHL SUB DUP3 AND EQ DUP1 PUSH2 0x59E JUMPI POP PUSH2 0x59E DUP2 CALLER PUSH2 0x2DD JUMP JUMPDEST PUSH2 0x610 JUMPI PUSH1 0x40 MLOAD PUSH3 0x461BCD PUSH1 0xE5 SHL DUP2 MSTORE PUSH1 0x20 PUSH1 0x4 DUP3 ADD MSTORE PUSH1 0x38 PUSH1 0x24 DUP3 ADD MSTORE PUSH32 0x4552433732313A20617070726F76652063616C6C6572206973206E6F74206F77 PUSH1 0x44 DUP3 ADD MSTORE PUSH32 0x6E6572206E6F7220617070726F76656420666F7220616C6C0000000000000000 PUSH1 0x64 DUP3 ADD MSTORE PUSH1 0x84 ADD PUSH2 0x39D JUMP JUMPDEST PUSH2 0x61A DUP4 DUP4 PUSH2 0xD01 JUMP JUMPDEST POP POP POP JUMP JUMPDEST PUSH1 0x7 SLOAD PUSH1 0x1 PUSH1 0x1 PUSH1 0xA0 SHL SUB AND CALLER EQ PUSH2 0x649 JUMPI PUSH1 0x40 MLOAD PUSH3 0x461BCD PUSH1 0xE5 SHL DUP2 MSTORE PUSH1 0x4 ADD PUSH2 0x39D SWAP1 PUSH2 0x191E JUMP JUMPDEST DUP3 PUSH2 0x653 DUP2 PUSH2 0xCE4 JUMP JUMPDEST PUSH2 0x66F JUMPI PUSH1 0x40 MLOAD PUSH3 0x461BCD PUSH1 0xE5 SHL DUP2 MSTORE PUSH1 0x4 ADD PUSH2 0x39D SWAP1 PUSH2 0x19AF JUMP JUMPDEST PUSH1 0x0 DUP5 DUP2 MSTORE PUSH1 0x8 PUSH1 0x20 MSTORE PUSH1 0x40 SWAP1 KECCAK256 SLOAD PUSH1 0xFF AND ISZERO PUSH2 0x6CE JUMPI PUSH1 0x40 MLOAD PUSH3 0x461BCD PUSH1 0xE5 SHL DUP2 MSTORE PUSH1 0x20 PUSH1 0x4 DUP3 ADD DUP2 SWAP1 MSTORE PUSH1 0x24 DUP3 ADD MSTORE PUSH32 0x546F6B656E20616C7265616479207573656420617320636F6C6C61746572616C PUSH1 0x44 DUP3 ADD MSTORE PUSH1 0x64 ADD PUSH2 0x39D JUMP JUMPDEST DUP3 PUSH1 0xA PUSH2 0x6DC DUP5 PUSH1 0x8 PUSH2 0x19FD JUMP JUMPDEST PUSH2 0x6E6 SWAP2 SWAP1 PUSH2 0x1A32 JUMP JUMPDEST GT PUSH2 0x72C JUMPI PUSH1 0x40 MLOAD PUSH3 0x461BCD PUSH1 0xE5 SHL DUP2 MSTORE PUSH1 0x20 PUSH1 0x4 DUP3 ADD MSTORE PUSH1 0x16 PUSH1 0x24 DUP3 ADD MSTORE PUSH22 0xA8DED6CADC40DCDEE840EEDEE4E8D040CADCDEEACED PUSH1 0x53 SHL PUSH1 0x44 DUP3 ADD MSTORE PUSH1 0x64 ADD PUSH2 0x39D JUMP JUMPDEST PUSH1 0x40 DUP1 MLOAD DUP6 DUP2 MSTORE PUSH1 0x20 DUP2 ADD DUP6 SWAP1 MSTORE PUSH32 0x4109159191ACC706479DF65B87973196A654191DBBA26B323461F73DFD1A1D4E SWAP2 ADD PUSH1 0x40 MLOAD DUP1 SWAP2 SUB SWAP1 LOG1 POP POP POP PUSH1 0x0 SWAP1 DUP2 MSTORE PUSH1 0x8 PUSH1 0x20 MSTORE PUSH1 0x40 SWAP1 KECCAK256 DUP1 SLOAD PUSH1 0xFF NOT AND PUSH1 0x1 OR SWAP1 SSTORE JUMP JUMPDEST PUSH2 0x78D CALLER DUP3 PUSH2 0xD6F JUMP JUMPDEST PUSH2 0x7A9 JUMPI PUSH1 0x40 MLOAD PUSH3 0x461BCD PUSH1 0xE5 SHL DUP2 MSTORE PUSH1 0x4 ADD PUSH2 0x39D SWAP1 PUSH2 0x1A46 JUMP JUMPDEST PUSH2 0x61A DUP4 DUP4 DUP4 PUSH2 0xE59 JUMP JUMPDEST DUP1 PUSH2 0x7BE DUP2 PUSH2 0xCE4 JUMP JUMPDEST PUSH2 0x7DA JUMPI PUSH1 0x40 MLOAD PUSH3 0x461BCD PUSH1 0xE5 SHL DUP2 MSTORE PUSH1 0x4 ADD PUSH2 0x39D SWAP1 PUSH2 0x19AF JUMP JUMPDEST PUSH1 0x40 MLOAD DUP3 DUP2 MSTORE PUSH32 0xD72EA6680B538106FC7A736AC4587F6FB7D3484C571E6C5118F663D2763347DA SWAP1 PUSH1 0x20 ADD PUSH1 0x40 MLOAD DUP1 SWAP2 SUB SWAP1 LOG1 POP POP JUMP JUMPDEST PUSH1 0x0 DUP2 PUSH2 0x81D DUP2 PUSH2 0xCE4 JUMP JUMPDEST PUSH2 0x839 JUMPI PUSH1 0x40 MLOAD PUSH3 0x461BCD PUSH1 0xE5 SHL DUP2 MSTORE PUSH1 0x4 ADD PUSH2 0x39D SWAP1 PUSH2 0x19AF JUMP JUMPDEST PUSH2 0x842 DUP4 PUSH2 0x919 JUMP JUMPDEST PUSH1 0x1 PUSH1 0x1 PUSH1 0xA0 SHL SUB AND CALLER PUSH1 0x1 PUSH1 0x1 PUSH1 0xA0 SHL SUB AND EQ PUSH2 0x8A2 JUMPI PUSH1 0x40 MLOAD PUSH3 0x461BCD PUSH1 0xE5 SHL DUP2 MSTORE PUSH1 0x20 PUSH1 0x4 DUP3 ADD DUP2 SWAP1 MSTORE PUSH1 0x24 DUP3 ADD MSTORE PUSH32 0x4F776E61626C653A2063616C6C6572206973206E6F7420746865206F776E6572 PUSH1 0x44 DUP3 ADD MSTORE PUSH1 0x64 ADD PUSH2 0x39D JUMP JUMPDEST PUSH1 0x0 DUP4 DUP2 MSTORE PUSH1 0x8 PUSH1 0x20 MSTORE PUSH1 0x40 SWAP1 KECCAK256 SLOAD PUSH1 0xFF AND SWAP2 POP JUMPDEST POP SWAP2 SWAP1 POP JUMP JUMPDEST DUP1 PUSH2 0x8C7 DUP2 PUSH2 0xCE4 JUMP JUMPDEST PUSH2 0x8E3 JUMPI PUSH1 0x40 MLOAD PUSH3 0x461BCD PUSH1 0xE5 SHL DUP2 MSTORE PUSH1 0x4 ADD PUSH2 0x39D SWAP1 PUSH2 0x19AF JUMP JUMPDEST PUSH2 0x8EC DUP3 PUSH2 0xFF9 JUMP JUMPDEST PUSH1 0x0 DUP3 DUP2 MSTORE PUSH1 0x8 PUSH1 0x20 SWAP1 DUP2 MSTORE PUSH1 0x40 DUP1 DUP4 KECCAK256 DUP1 SLOAD PUSH1 0xFF NOT AND SWAP1 SSTORE PUSH1 0x9 SWAP1 SWAP2 MSTORE DUP2 KECCAK256 PUSH2 0x915 SWAP2 PUSH2 0x14F8 JUMP JUMPDEST POP POP JUMP JUMPDEST PUSH1 0x0 DUP2 PUSH2 0x925 DUP2 PUSH2 0xCE4 JUMP JUMPDEST PUSH2 0x941 JUMPI PUSH1 0x40 MLOAD PUSH3 0x461BCD PUSH1 0xE5 SHL DUP2 MSTORE PUSH1 0x4 ADD PUSH2 0x39D SWAP1 PUSH2 0x19AF JUMP JUMPDEST PUSH2 0x94A DUP4 PUSH2 0x96C JUMP JUMPDEST SWAP4 SWAP3 POP POP POP JUMP JUMPDEST PUSH2 0x61A DUP4 DUP4 DUP4 PUSH1 0x40 MLOAD DUP1 PUSH1 0x20 ADD PUSH1 0x40 MSTORE DUP1 PUSH1 0x0 DUP2 MSTORE POP PUSH2 0xA84 JUMP JUMPDEST PUSH1 0x0 DUP2 DUP2 MSTORE PUSH1 0x2 PUSH1 0x20 MSTORE PUSH1 0x40 DUP2 KECCAK256 SLOAD PUSH1 0x1 PUSH1 0x1 PUSH1 0xA0 SHL SUB AND DUP1 PUSH2 0x36A JUMPI PUSH1 0x40 MLOAD PUSH3 0x461BCD PUSH1 0xE5 SHL DUP2 MSTORE PUSH1 0x20 PUSH1 0x4 DUP3 ADD MSTORE PUSH1 0x29 PUSH1 0x24 DUP3 ADD MSTORE PUSH32 0x4552433732313A206F776E657220717565727920666F72206E6F6E6578697374 PUSH1 0x44 DUP3 ADD MSTORE PUSH9 0x32B73A103A37B5B2B7 PUSH1 0xB9 SHL PUSH1 0x64 DUP3 ADD MSTORE PUSH1 0x84 ADD PUSH2 0x39D JUMP JUMPDEST PUSH1 0x0 PUSH1 0x1 PUSH1 0x1 PUSH1 0xA0 SHL SUB DUP3 AND PUSH2 0xA4E JUMPI PUSH1 0x40 MLOAD PUSH3 0x461BCD PUSH1 0xE5 SHL DUP2 MSTORE PUSH1 0x20 PUSH1 0x4 DUP3 ADD MSTORE PUSH1 0x2A PUSH1 0x24 DUP3 ADD MSTORE PUSH32 0x4552433732313A2062616C616E636520717565727920666F7220746865207A65 PUSH1 0x44 DUP3 ADD MSTORE PUSH10 0x726F2061646472657373 PUSH1 0xB0 SHL PUSH1 0x64 DUP3 ADD MSTORE PUSH1 0x84 ADD PUSH2 0x39D JUMP JUMPDEST POP PUSH1 0x1 PUSH1 0x1 PUSH1 0xA0 SHL SUB AND PUSH1 0x0 SWAP1 DUP2 MSTORE PUSH1 0x3 PUSH1 0x20 MSTORE PUSH1 0x40 SWAP1 KECCAK256 SLOAD SWAP1 JUMP JUMPDEST PUSH1 0x60 PUSH1 0x1 DUP1 SLOAD PUSH2 0x3FE SWAP1 PUSH2 0x197A JUMP JUMPDEST PUSH2 0x915 CALLER DUP4 DUP4 PUSH2 0x1094 JUMP JUMPDEST PUSH2 0xA8E CALLER DUP4 PUSH2 0xD6F JUMP JUMPDEST PUSH2 0xAAA JUMPI PUSH1 0x40 MLOAD PUSH3 0x461BCD PUSH1 0xE5 SHL DUP2 MSTORE PUSH1 0x4 ADD PUSH2 0x39D SWAP1 PUSH2 0x1A46 JUMP JUMPDEST PUSH2 0xAB6 DUP5 DUP5 DUP5 DUP5 PUSH2 0x1163 JUMP JUMPDEST POP POP POP POP JUMP JUMPDEST PUSH1 0x60 PUSH2 0xAC7 DUP3 PUSH2 0xCE4 JUMP JUMPDEST PUSH2 0xB2B JUMPI PUSH1 0x40 MLOAD PUSH3 0x461BCD PUSH1 0xE5 SHL DUP2 MSTORE PUSH1 0x20 PUSH1 0x4 DUP3 ADD MSTORE PUSH1 0x2F PUSH1 0x24 DUP3 ADD MSTORE PUSH32 0x4552433732314D657461646174613A2055524920717565727920666F72206E6F PUSH1 0x44 DUP3 ADD MSTORE PUSH15 0x3732BC34B9BA32B73A103A37B5B2B7 PUSH1 0x89 SHL PUSH1 0x64 DUP3 ADD MSTORE PUSH1 0x84 ADD PUSH2 0x39D JUMP JUMPDEST PUSH1 0x0 PUSH2 0xB42 PUSH1 0x40 DUP1 MLOAD PUSH1 0x20 DUP2 ADD SWAP1 SWAP2 MSTORE PUSH1 0x0 DUP2 MSTORE SWAP1 JUMP JUMPDEST SWAP1 POP PUSH1 0x0 DUP2 MLOAD GT PUSH2 0xB62 JUMPI PUSH1 0x40 MLOAD DUP1 PUSH1 0x20 ADD PUSH1 0x40 MSTORE DUP1 PUSH1 0x0 DUP2 MSTORE POP PUSH2 0x94A JUMP JUMPDEST DUP1 PUSH2 0xB6C DUP5 PUSH2 0x1196 JUMP JUMPDEST PUSH1 0x40 MLOAD PUSH1 0x20 ADD PUSH2 0xB7D SWAP3 SWAP2 SWAP1 PUSH2 0x1A97 JUMP JUMPDEST PUSH1 0x40 MLOAD PUSH1 0x20 DUP2 DUP4 SUB SUB DUP2 MSTORE SWAP1 PUSH1 0x40 MSTORE SWAP4 SWAP3 POP POP POP JUMP JUMPDEST PUSH1 0x60 DUP2 PUSH2 0xB9F DUP2 PUSH2 0xCE4 JUMP JUMPDEST PUSH2 0xBBB JUMPI PUSH1 0x40 MLOAD PUSH3 0x461BCD PUSH1 0xE5 SHL DUP2 MSTORE PUSH1 0x4 ADD PUSH2 0x39D SWAP1 PUSH2 0x19AF JUMP JUMPDEST PUSH1 0x0 DUP4 DUP2 MSTORE PUSH1 0x9 PUSH1 0x20 MSTORE PUSH1 0x40 DUP2 KECCAK256 DUP1 SLOAD PUSH2 0xBD4 SWAP1 PUSH2 0x197A JUMP JUMPDEST DUP1 PUSH1 0x1F ADD PUSH1 0x20 DUP1 SWAP2 DIV MUL PUSH1 0x20 ADD PUSH1 0x40 MLOAD SWAP1 DUP2 ADD PUSH1 0x40 MSTORE DUP1 SWAP3 SWAP2 SWAP1 DUP2 DUP2 MSTORE PUSH1 0x20 ADD DUP3 DUP1 SLOAD PUSH2 0xC00 SWAP1 PUSH2 0x197A JUMP JUMPDEST DUP1 ISZERO PUSH2 0xC4D JUMPI DUP1 PUSH1 0x1F LT PUSH2 0xC22 JUMPI PUSH2 0x100 DUP1 DUP4 SLOAD DIV MUL DUP4 MSTORE SWAP2 PUSH1 0x20 ADD SWAP2 PUSH2 0xC4D JUMP JUMPDEST DUP3 ADD SWAP2 SWAP1 PUSH1 0x0 MSTORE PUSH1 0x20 PUSH1 0x0 KECCAK256 SWAP1 JUMPDEST DUP2 SLOAD DUP2 MSTORE SWAP1 PUSH1 0x1 ADD SWAP1 PUSH1 0x20 ADD DUP1 DUP4 GT PUSH2 0xC30 JUMPI DUP3 SWAP1 SUB PUSH1 0x1F AND DUP3 ADD SWAP2 JUMPDEST POP SWAP4 SWAP9 SWAP8 POP POP POP POP POP POP POP POP JUMP JUMPDEST PUSH2 0x915 DUP3 DUP3 PUSH1 0x40 MLOAD DUP1 PUSH1 0x20 ADD PUSH1 0x40 MSTORE DUP1 PUSH1 0x0 DUP2 MSTORE POP PUSH2 0x1294 JUMP JUMPDEST PUSH1 0x7 SLOAD PUSH1 0x1 PUSH1 0x1 PUSH1 0xA0 SHL SUB AND CALLER EQ PUSH2 0xC9F JUMPI PUSH1 0x40 MLOAD PUSH3 0x461BCD PUSH1 0xE5 SHL DUP2 MSTORE PUSH1 0x4 ADD PUSH2 0x39D SWAP1 PUSH2 0x191E JUMP JUMPDEST DUP2 PUSH2 0xCA9 DUP2 PUSH2 0xCE4 JUMP JUMPDEST PUSH2 0xCC5 JUMPI PUSH1 0x40 MLOAD PUSH3 0x461BCD PUSH1 0xE5 SHL DUP2 MSTORE PUSH1 0x4 ADD PUSH2 0x39D SWAP1 PUSH2 0x19AF JUMP JUMPDEST PUSH1 0x0 DUP4 DUP2 MSTORE PUSH1 0x9 PUSH1 0x20 SWAP1 DUP2 MSTORE PUSH1 0x40 SWAP1 SWAP2 KECCAK256 DUP4 MLOAD PUSH2 0xAB6 SWAP3 DUP6 ADD SWAP1 PUSH2 0x1535 JUMP JUMPDEST PUSH1 0x0 SWAP1 DUP2 MSTORE PUSH1 0x2 PUSH1 0x20 MSTORE PUSH1 0x40 SWAP1 KECCAK256 SLOAD PUSH1 0x1 PUSH1 0x1 PUSH1 0xA0 SHL SUB AND ISZERO ISZERO SWAP1 JUMP JUMPDEST PUSH1 0x0 DUP2 DUP2 MSTORE PUSH1 0x4 PUSH1 0x20 MSTORE PUSH1 0x40 SWAP1 KECCAK256 DUP1 SLOAD PUSH1 0x1 PUSH1 0x1 PUSH1 0xA0 SHL SUB NOT AND PUSH1 0x1 PUSH1 0x1 PUSH1 0xA0 SHL SUB DUP5 AND SWAP1 DUP2 OR SWAP1 SWAP2 SSTORE DUP2 SWAP1 PUSH2 0xD36 DUP3 PUSH2 0x96C JUMP JUMPDEST PUSH1 0x1 PUSH1 0x1 PUSH1 0xA0 SHL SUB AND PUSH32 0x8C5BE1E5EBEC7D5BD14F71427D1E84F3DD0314C0F7B2291E5B200AC8C7C3B925 PUSH1 0x40 MLOAD PUSH1 0x40 MLOAD DUP1 SWAP2 SUB SWAP1 LOG4 POP POP JUMP JUMPDEST PUSH1 0x0 PUSH2 0xD7A DUP3 PUSH2 0xCE4 JUMP JUMPDEST PUSH2 0xDDB JUMPI PUSH1 0x40 MLOAD PUSH3 0x461BCD PUSH1 0xE5 SHL DUP2 MSTORE PUSH1 0x20 PUSH1 0x4 DUP3 ADD MSTORE PUSH1 0x2C PUSH1 0x24 DUP3 ADD MSTORE PUSH32 0x4552433732313A206F70657261746F7220717565727920666F72206E6F6E6578 PUSH1 0x44 DUP3 ADD MSTORE PUSH12 0x34B9BA32B73A103A37B5B2B7 PUSH1 0xA1 SHL PUSH1 0x64 DUP3 ADD MSTORE PUSH1 0x84 ADD PUSH2 0x39D JUMP JUMPDEST PUSH1 0x0 PUSH2 0xDE6 DUP4 PUSH2 0x96C JUMP JUMPDEST SWAP1 POP DUP1 PUSH1 0x1 PUSH1 0x1 PUSH1 0xA0 SHL SUB AND DUP5 PUSH1 0x1 PUSH1 0x1 PUSH1 0xA0 SHL SUB AND EQ DUP1 PUSH2 0xE21 JUMPI POP DUP4 PUSH1 0x1 PUSH1 0x1 PUSH1 0xA0 SHL SUB AND PUSH2 0xE16 DUP5 PUSH2 0x481 JUMP JUMPDEST PUSH1 0x1 PUSH1 0x1 PUSH1 0xA0 SHL SUB AND EQ JUMPDEST DUP1 PUSH2 0xE51 JUMPI POP PUSH1 0x1 PUSH1 0x1 PUSH1 0xA0 SHL SUB DUP1 DUP3 AND PUSH1 0x0 SWAP1 DUP2 MSTORE PUSH1 0x5 PUSH1 0x20 SWAP1 DUP2 MSTORE PUSH1 0x40 DUP1 DUP4 KECCAK256 SWAP4 DUP9 AND DUP4 MSTORE SWAP3 SWAP1 MSTORE KECCAK256 SLOAD PUSH1 0xFF AND JUMPDEST SWAP5 SWAP4 POP POP POP POP JUMP JUMPDEST DUP3 PUSH1 0x1 PUSH1 0x1 PUSH1 0xA0 SHL SUB AND PUSH2 0xE6C DUP3 PUSH2 0x96C JUMP JUMPDEST PUSH1 0x1 PUSH1 0x1 PUSH1 0xA0 SHL SUB AND EQ PUSH2 0xED4 JUMPI PUSH1 0x40 MLOAD PUSH3 0x461BCD PUSH1 0xE5 SHL DUP2 MSTORE PUSH1 0x20 PUSH1 0x4 DUP3 ADD MSTORE PUSH1 0x29 PUSH1 0x24 DUP3 ADD MSTORE PUSH32 0x4552433732313A207472616E73666572206F6620746F6B656E20746861742069 PUSH1 0x44 DUP3 ADD MSTORE PUSH9 0x39903737BA1037BBB7 PUSH1 0xB9 SHL PUSH1 0x64 DUP3 ADD MSTORE PUSH1 0x84 ADD PUSH2 0x39D JUMP JUMPDEST PUSH1 0x1 PUSH1 0x1 PUSH1 0xA0 SHL SUB DUP3 AND PUSH2 0xF36 JUMPI PUSH1 0x40 MLOAD PUSH3 0x461BCD PUSH1 0xE5 SHL DUP2 MSTORE PUSH1 0x20 PUSH1 0x4 DUP3 ADD MSTORE PUSH1 0x24 DUP1 DUP3 ADD MSTORE PUSH32 0x4552433732313A207472616E7366657220746F20746865207A65726F20616464 PUSH1 0x44 DUP3 ADD MSTORE PUSH4 0x72657373 PUSH1 0xE0 SHL PUSH1 0x64 DUP3 ADD MSTORE PUSH1 0x84 ADD PUSH2 0x39D JUMP JUMPDEST PUSH2 0xF41 PUSH1 0x0 DUP3 PUSH2 0xD01 JUMP JUMPDEST PUSH1 0x1 PUSH1 0x1 PUSH1 0xA0 SHL SUB DUP4 AND PUSH1 0x0 SWAP1 DUP2 MSTORE PUSH1 0x3 PUSH1 0x20 MSTORE PUSH1 0x40 DUP2 KECCAK256 DUP1 SLOAD PUSH1 0x1 SWAP3 SWAP1 PUSH2 0xF6A SWAP1 DUP5 SWAP1 PUSH2 0x1AC6 JUMP JUMPDEST SWAP1 SWAP2 SSTORE POP POP PUSH1 0x1 PUSH1 0x1 PUSH1 0xA0 SHL SUB DUP3 AND PUSH1 0x0 SWAP1 DUP2 MSTORE PUSH1 0x3 PUSH1 0x20 MSTORE PUSH1 0x40 DUP2 KECCAK256 DUP1 SLOAD PUSH1 0x1 SWAP3 SWAP1 PUSH2 0xF98 SWAP1 DUP5 SWAP1 PUSH2 0x1ADD JUMP JUMPDEST SWAP1 SWAP2 SSTORE POP POP PUSH1 0x0 DUP2 DUP2 MSTORE PUSH1 0x2 PUSH1 0x20 MSTORE PUSH1 0x40 DUP1 DUP3 KECCAK256 DUP1 SLOAD PUSH1 0x1 PUSH1 0x1 PUSH1 0xA0 SHL SUB NOT AND PUSH1 0x1 PUSH1 0x1 PUSH1 0xA0 SHL SUB DUP7 DUP2 AND SWAP2 DUP3 OR SWAP1 SWAP3 SSTORE SWAP2 MLOAD DUP5 SWAP4 SWAP2 DUP8 AND SWAP2 PUSH32 0xDDF252AD1BE2C89B69C2B068FC378DAA952BA7F163C4A11628F55A4DF523B3EF SWAP2 LOG4 POP POP POP JUMP JUMPDEST PUSH1 0x0 PUSH2 0x1004 DUP3 PUSH2 0x96C JUMP JUMPDEST SWAP1 POP PUSH2 0x1011 PUSH1 0x0 DUP4 PUSH2 0xD01 JUMP JUMPDEST PUSH1 0x1 PUSH1 0x1 PUSH1 0xA0 SHL SUB DUP2 AND PUSH1 0x0 SWAP1 DUP2 MSTORE PUSH1 0x3 PUSH1 0x20 MSTORE PUSH1 0x40 DUP2 KECCAK256 DUP1 SLOAD PUSH1 0x1 SWAP3 SWAP1 PUSH2 0x103A SWAP1 DUP5 SWAP1 PUSH2 0x1AC6 JUMP JUMPDEST SWAP1 SWAP2 SSTORE POP POP PUSH1 0x0 DUP3 DUP2 MSTORE PUSH1 0x2 PUSH1 0x20 MSTORE PUSH1 0x40 DUP1 DUP3 KECCAK256 DUP1 SLOAD PUSH1 0x1 PUSH1 0x1 PUSH1 0xA0 SHL SUB NOT AND SWAP1 SSTORE MLOAD DUP4 SWAP2 SWAP1 PUSH1 0x1 PUSH1 0x1 PUSH1 0xA0 SHL SUB DUP5 AND SWAP1 PUSH32 0xDDF252AD1BE2C89B69C2B068FC378DAA952BA7F163C4A11628F55A4DF523B3EF SWAP1 DUP4 SWAP1 LOG4 POP POP JUMP JUMPDEST DUP2 PUSH1 0x1 PUSH1 0x1 PUSH1 0xA0 SHL SUB AND DUP4 PUSH1 0x1 PUSH1 0x1 PUSH1 0xA0 SHL SUB AND EQ ISZERO PUSH2 0x10F6 JUMPI PUSH1 0x40 MLOAD PUSH3 0x461BCD PUSH1 0xE5 SHL DUP2 MSTORE PUSH1 0x20 PUSH1 0x4 DUP3 ADD MSTORE PUSH1 0x19 PUSH1 0x24 DUP3 ADD MSTORE PUSH32 0x4552433732313A20617070726F766520746F2063616C6C657200000000000000 PUSH1 0x44 DUP3 ADD MSTORE PUSH1 0x64 ADD PUSH2 0x39D JUMP JUMPDEST PUSH1 0x1 PUSH1 0x1 PUSH1 0xA0 SHL SUB DUP4 DUP2 AND PUSH1 0x0 DUP2 DUP2 MSTORE PUSH1 0x5 PUSH1 0x20 SWAP1 DUP2 MSTORE PUSH1 0x40 DUP1 DUP4 KECCAK256 SWAP5 DUP8 AND DUP1 DUP5 MSTORE SWAP5 DUP3 MSTORE SWAP2 DUP3 SWAP1 KECCAK256 DUP1 SLOAD PUSH1 0xFF NOT AND DUP7 ISZERO ISZERO SWAP1 DUP2 OR SWAP1 SWAP2 SSTORE SWAP2 MLOAD SWAP2 DUP3 MSTORE PUSH32 0x17307EAB39AB6107E8899845AD3D59BD9653F200F220920489CA2B5937696C31 SWAP2 ADD PUSH1 0x40 MLOAD DUP1 SWAP2 SUB SWAP1 LOG3 POP POP POP JUMP JUMPDEST PUSH2 0x116E DUP5 DUP5 DUP5 PUSH2 0xE59 JUMP JUMPDEST PUSH2 0x117A DUP5 DUP5 DUP5 DUP5 PUSH2 0x12C7 JUMP JUMPDEST PUSH2 0xAB6 JUMPI PUSH1 0x40 MLOAD PUSH3 0x461BCD PUSH1 0xE5 SHL DUP2 MSTORE PUSH1 0x4 ADD PUSH2 0x39D SWAP1 PUSH2 0x1AF5 JUMP JUMPDEST PUSH1 0x60 DUP2 PUSH2 0x11BA JUMPI POP POP PUSH1 0x40 DUP1 MLOAD DUP1 DUP3 ADD SWAP1 SWAP2 MSTORE PUSH1 0x1 DUP2 MSTORE PUSH1 0x3 PUSH1 0xFC SHL PUSH1 0x20 DUP3 ADD MSTORE SWAP1 JUMP JUMPDEST DUP2 PUSH1 0x0 JUMPDEST DUP2 ISZERO PUSH2 0x11E4 JUMPI DUP1 PUSH2 0x11CE DUP2 PUSH2 0x195F JUMP JUMPDEST SWAP2 POP PUSH2 0x11DD SWAP1 POP PUSH1 0xA DUP4 PUSH2 0x1A32 JUMP JUMPDEST SWAP2 POP PUSH2 0x11BE JUMP JUMPDEST PUSH1 0x0 DUP2 PUSH8 0xFFFFFFFFFFFFFFFF DUP2 GT ISZERO PUSH2 0x11FF JUMPI PUSH2 0x11FF PUSH2 0x1601 JUMP JUMPDEST PUSH1 0x40 MLOAD SWAP1 DUP1 DUP3 MSTORE DUP1 PUSH1 0x1F ADD PUSH1 0x1F NOT AND PUSH1 0x20 ADD DUP3 ADD PUSH1 0x40 MSTORE DUP1 ISZERO PUSH2 0x1229 JUMPI PUSH1 0x20 DUP3 ADD DUP2 DUP1 CALLDATASIZE DUP4 CALLDATACOPY ADD SWAP1 POP JUMPDEST POP SWAP1 POP JUMPDEST DUP5 ISZERO PUSH2 0xE51 JUMPI PUSH2 0x123E PUSH1 0x1 DUP4 PUSH2 0x1AC6 JUMP JUMPDEST SWAP2 POP PUSH2 0x124B PUSH1 0xA DUP7 PUSH2 0x1B47 JUMP JUMPDEST PUSH2 0x1256 SWAP1 PUSH1 0x30 PUSH2 0x1ADD JUMP JUMPDEST PUSH1 0xF8 SHL DUP2 DUP4 DUP2 MLOAD DUP2 LT PUSH2 0x126B JUMPI PUSH2 0x126B PUSH2 0x1B5B JUMP JUMPDEST PUSH1 0x20 ADD ADD SWAP1 PUSH1 0x1 PUSH1 0x1 PUSH1 0xF8 SHL SUB NOT AND SWAP1 DUP2 PUSH1 0x0 BYTE SWAP1 MSTORE8 POP PUSH2 0x128D PUSH1 0xA DUP7 PUSH2 0x1A32 JUMP JUMPDEST SWAP5 POP PUSH2 0x122D JUMP JUMPDEST PUSH2 0x129E DUP4 DUP4 PUSH2 0x13C5 JUMP JUMPDEST PUSH2 0x12AB PUSH1 0x0 DUP5 DUP5 DUP5 PUSH2 0x12C7 JUMP JUMPDEST PUSH2 0x61A JUMPI PUSH1 0x40 MLOAD PUSH3 0x461BCD PUSH1 0xE5 SHL DUP2 MSTORE PUSH1 0x4 ADD PUSH2 0x39D SWAP1 PUSH2 0x1AF5 JUMP JUMPDEST PUSH1 0x0 PUSH1 0x1 PUSH1 0x1 PUSH1 0xA0 SHL SUB DUP5 AND EXTCODESIZE ISZERO PUSH2 0x13BA JUMPI PUSH1 0x40 MLOAD PUSH4 0xA85BD01 PUSH1 0xE1 SHL DUP2 MSTORE PUSH1 0x1 PUSH1 0x1 PUSH1 0xA0 SHL SUB DUP6 AND SWAP1 PUSH4 0x150B7A02 SWAP1 PUSH2 0x130B SWAP1 CALLER SWAP1 DUP10 SWAP1 DUP9 SWAP1 DUP9 SWAP1 PUSH1 0x4 ADD PUSH2 0x1B71 JUMP JUMPDEST PUSH1 0x20 PUSH1 0x40 MLOAD DUP1 DUP4 SUB DUP2 PUSH1 0x0 DUP8 GAS CALL SWAP3 POP POP POP DUP1 ISZERO PUSH2 0x1346 JUMPI POP PUSH1 0x40 DUP1 MLOAD PUSH1 0x1F RETURNDATASIZE SWAP1 DUP2 ADD PUSH1 0x1F NOT AND DUP3 ADD SWAP1 SWAP3 MSTORE PUSH2 0x1343 SWAP2 DUP2 ADD SWAP1 PUSH2 0x1BAE JUMP JUMPDEST PUSH1 0x1 JUMPDEST PUSH2 0x13A0 JUMPI RETURNDATASIZE DUP1 DUP1 ISZERO PUSH2 0x1374 JUMPI PUSH1 0x40 MLOAD SWAP2 POP PUSH1 0x1F NOT PUSH1 0x3F RETURNDATASIZE ADD AND DUP3 ADD PUSH1 0x40 MSTORE RETURNDATASIZE DUP3 MSTORE RETURNDATASIZE PUSH1 0x0 PUSH1 0x20 DUP5 ADD RETURNDATACOPY PUSH2 0x1379 JUMP JUMPDEST PUSH1 0x60 SWAP2 POP JUMPDEST POP DUP1 MLOAD PUSH2 0x1398 JUMPI PUSH1 0x40 MLOAD PUSH3 0x461BCD PUSH1 0xE5 SHL DUP2 MSTORE PUSH1 0x4 ADD PUSH2 0x39D SWAP1 PUSH2 0x1AF5 JUMP JUMPDEST DUP1 MLOAD DUP2 PUSH1 0x20 ADD REVERT JUMPDEST PUSH1 0x1 PUSH1 0x1 PUSH1 0xE0 SHL SUB NOT AND PUSH4 0xA85BD01 PUSH1 0xE1 SHL EQ SWAP1 POP PUSH2 0xE51 JUMP JUMPDEST POP PUSH1 0x1 SWAP5 SWAP4 POP POP POP POP JUMP JUMPDEST PUSH1 0x1 PUSH1 0x1 PUSH1 0xA0 SHL SUB DUP3 AND PUSH2 0x141B JUMPI PUSH1 0x40 MLOAD PUSH3 0x461BCD PUSH1 0xE5 SHL DUP2 MSTORE PUSH1 0x20 PUSH1 0x4 DUP3 ADD DUP2 SWAP1 MSTORE PUSH1 0x24 DUP3 ADD MSTORE PUSH32 0x4552433732313A206D696E7420746F20746865207A65726F2061646472657373 PUSH1 0x44 DUP3 ADD MSTORE PUSH1 0x64 ADD PUSH2 0x39D JUMP JUMPDEST PUSH2 0x1424 DUP2 PUSH2 0xCE4 JUMP JUMPDEST ISZERO PUSH2 0x1471 JUMPI PUSH1 0x40 MLOAD PUSH3 0x461BCD PUSH1 0xE5 SHL DUP2 MSTORE PUSH1 0x20 PUSH1 0x4 DUP3 ADD MSTORE PUSH1 0x1C PUSH1 0x24 DUP3 ADD MSTORE PUSH32 0x4552433732313A20746F6B656E20616C7265616479206D696E74656400000000 PUSH1 0x44 DUP3 ADD MSTORE PUSH1 0x64 ADD PUSH2 0x39D JUMP JUMPDEST PUSH1 0x1 PUSH1 0x1 PUSH1 0xA0 SHL SUB DUP3 AND PUSH1 0x0 SWAP1 DUP2 MSTORE PUSH1 0x3 PUSH1 0x20 MSTORE PUSH1 0x40 DUP2 KECCAK256 DUP1 SLOAD PUSH1 0x1 SWAP3 SWAP1 PUSH2 0x149A SWAP1 DUP5 SWAP1 PUSH2 0x1ADD JUMP JUMPDEST SWAP1 SWAP2 SSTORE POP POP PUSH1 0x0 DUP2 DUP2 MSTORE PUSH1 0x2 PUSH1 0x20 MSTORE PUSH1 0x40 DUP1 DUP3 KECCAK256 DUP1 SLOAD PUSH1 0x1 PUSH1 0x1 PUSH1 0xA0 SHL SUB NOT AND PUSH1 0x1 PUSH1 0x1 PUSH1 0xA0 SHL SUB DUP7 AND SWAP1 DUP2 OR SWAP1 SWAP2 SSTORE SWAP1 MLOAD DUP4 SWAP3 SWAP1 PUSH32 0xDDF252AD1BE2C89B69C2B068FC378DAA952BA7F163C4A11628F55A4DF523B3EF SWAP1 DUP3 SWAP1 LOG4 POP POP JUMP JUMPDEST POP DUP1 SLOAD PUSH2 0x1504 SWAP1 PUSH2 0x197A JUMP JUMPDEST PUSH1 0x0 DUP3 SSTORE DUP1 PUSH1 0x1F LT PUSH2 0x1514 JUMPI POP POP JUMP JUMPDEST PUSH1 0x1F ADD PUSH1 0x20 SWAP1 DIV SWAP1 PUSH1 0x0 MSTORE PUSH1 0x20 PUSH1 0x0 KECCAK256 SWAP1 DUP2 ADD SWAP1 PUSH2 0x1532 SWAP2 SWAP1 PUSH2 0x15B9 JUMP JUMPDEST POP JUMP JUMPDEST DUP3 DUP1 SLOAD PUSH2 0x1541 SWAP1 PUSH2 0x197A JUMP JUMPDEST SWAP1 PUSH1 0x0 MSTORE PUSH1 0x20 PUSH1 0x0 KECCAK256 SWAP1 PUSH1 0x1F ADD PUSH1 0x20 SWAP1 DIV DUP2 ADD SWAP3 DUP3 PUSH2 0x1563 JUMPI PUSH1 0x0 DUP6 SSTORE PUSH2 0x15A9 JUMP JUMPDEST DUP3 PUSH1 0x1F LT PUSH2 0x157C JUMPI DUP1 MLOAD PUSH1 0xFF NOT AND DUP4 DUP1 ADD OR DUP6 SSTORE PUSH2 0x15A9 JUMP JUMPDEST DUP3 DUP1 ADD PUSH1 0x1 ADD DUP6 SSTORE DUP3 ISZERO PUSH2 0x15A9 JUMPI SWAP2 DUP3 ADD JUMPDEST DUP3 DUP2 GT ISZERO PUSH2 0x15A9 JUMPI DUP3 MLOAD DUP3 SSTORE SWAP2 PUSH1 0x20 ADD SWAP2 SWAP1 PUSH1 0x1 ADD SWAP1 PUSH2 0x158E JUMP JUMPDEST POP PUSH2 0x15B5 SWAP3 SWAP2 POP PUSH2 0x15B9 JUMP JUMPDEST POP SWAP1 JUMP JUMPDEST JUMPDEST DUP1 DUP3 GT ISZERO PUSH2 0x15B5 JUMPI PUSH1 0x0 DUP2 SSTORE PUSH1 0x1 ADD PUSH2 0x15BA JUMP JUMPDEST PUSH1 0x1 PUSH1 0x1 PUSH1 0xE0 SHL SUB NOT DUP2 AND DUP2 EQ PUSH2 0x1532 JUMPI PUSH1 0x0 DUP1 REVERT JUMPDEST PUSH1 0x0 PUSH1 0x20 DUP3 DUP5 SUB SLT ISZERO PUSH2 0x15F6 JUMPI PUSH1 0x0 DUP1 REVERT JUMPDEST DUP2 CALLDATALOAD PUSH2 0x94A DUP2 PUSH2 0x15CE JUMP JUMPDEST PUSH4 0x4E487B71 PUSH1 0xE0 SHL PUSH1 0x0 MSTORE PUSH1 0x41 PUSH1 0x4 MSTORE PUSH1 0x24 PUSH1 0x0 REVERT JUMPDEST PUSH1 0x0 PUSH8 0xFFFFFFFFFFFFFFFF DUP1 DUP5 GT ISZERO PUSH2 0x1632 JUMPI PUSH2 0x1632 PUSH2 0x1601 JUMP JUMPDEST PUSH1 0x40 MLOAD PUSH1 0x1F DUP6 ADD PUSH1 0x1F NOT SWAP1 DUP2 AND PUSH1 0x3F ADD AND DUP2 ADD SWAP1 DUP3 DUP3 GT DUP2 DUP4 LT OR ISZERO PUSH2 0x165A JUMPI PUSH2 0x165A PUSH2 0x1601 JUMP JUMPDEST DUP2 PUSH1 0x40 MSTORE DUP1 SWAP4 POP DUP6 DUP2 MSTORE DUP7 DUP7 DUP7 ADD GT ISZERO PUSH2 0x1673 JUMPI PUSH1 0x0 DUP1 REVERT JUMPDEST DUP6 DUP6 PUSH1 0x20 DUP4 ADD CALLDATACOPY PUSH1 0x0 PUSH1 0x20 DUP8 DUP4 ADD ADD MSTORE POP POP POP SWAP4 SWAP3 POP POP POP JUMP JUMPDEST DUP1 CALLDATALOAD PUSH1 0x1 PUSH1 0x1 PUSH1 0xA0 SHL SUB DUP2 AND DUP2 EQ PUSH2 0x16A4 JUMPI PUSH1 0x0 DUP1 REVERT JUMPDEST SWAP2 SWAP1 POP JUMP JUMPDEST PUSH1 0x0 DUP1 PUSH1 0x40 DUP4 DUP6 SUB SLT ISZERO PUSH2 0x16BC JUMPI PUSH1 0x0 DUP1 REVERT JUMPDEST DUP3 CALLDATALOAD PUSH8 0xFFFFFFFFFFFFFFFF DUP2 GT ISZERO PUSH2 0x16D3 JUMPI PUSH1 0x0 DUP1 REVERT JUMPDEST DUP4 ADD PUSH1 0x1F DUP2 ADD DUP6 SGT PUSH2 0x16E4 JUMPI PUSH1 0x0 DUP1 REVERT JUMPDEST PUSH2 0x16F3 DUP6 DUP3 CALLDATALOAD PUSH1 0x20 DUP5 ADD PUSH2 0x1617 JUMP JUMPDEST SWAP3 POP POP PUSH2 0x1702 PUSH1 0x20 DUP5 ADD PUSH2 0x168D JUMP JUMPDEST SWAP1 POP SWAP3 POP SWAP3 SWAP1 POP JUMP JUMPDEST PUSH1 0x0 JUMPDEST DUP4 DUP2 LT ISZERO PUSH2 0x1726 JUMPI DUP2 DUP2 ADD MLOAD DUP4 DUP3 ADD MSTORE PUSH1 0x20 ADD PUSH2 0x170E JUMP JUMPDEST DUP4 DUP2 GT ISZERO PUSH2 0xAB6 JUMPI POP POP PUSH1 0x0 SWAP2 ADD MSTORE JUMP JUMPDEST PUSH1 0x0 DUP2 MLOAD DUP1 DUP5 MSTORE PUSH2 0x174F DUP2 PUSH1 0x20 DUP7 ADD PUSH1 0x20 DUP7 ADD PUSH2 0x170B JUMP JUMPDEST PUSH1 0x1F ADD PUSH1 0x1F NOT AND SWAP3 SWAP1 SWAP3 ADD PUSH1 0x20 ADD SWAP3 SWAP2 POP POP JUMP JUMPDEST PUSH1 0x20 DUP2 MSTORE PUSH1 0x0 PUSH2 0x94A PUSH1 0x20 DUP4 ADD DUP5 PUSH2 0x1737 JUMP JUMPDEST PUSH1 0x0 PUSH1 0x20 DUP3 DUP5 SUB SLT ISZERO PUSH2 0x1788 JUMPI PUSH1 0x0 DUP1 REVERT JUMPDEST POP CALLDATALOAD SWAP2 SWAP1 POP JUMP JUMPDEST PUSH1 0x0 DUP1 PUSH1 0x40 DUP4 DUP6 SUB SLT ISZERO PUSH2 0x17A2 JUMPI PUSH1 0x0 DUP1 REVERT JUMPDEST PUSH2 0x17AB DUP4 PUSH2 0x168D JUMP JUMPDEST SWAP5 PUSH1 0x20 SWAP4 SWAP1 SWAP4 ADD CALLDATALOAD SWAP4 POP POP POP JUMP JUMPDEST PUSH1 0x0 DUP1 PUSH1 0x0 PUSH1 0x60 DUP5 DUP7 SUB SLT ISZERO PUSH2 0x17CE JUMPI PUSH1 0x0 DUP1 REVERT JUMPDEST POP POP DUP2 CALLDATALOAD SWAP4 PUSH1 0x20 DUP4 ADD CALLDATALOAD SWAP4 POP PUSH1 0x40 SWAP1 SWAP3 ADD CALLDATALOAD SWAP2 SWAP1 POP JUMP JUMPDEST PUSH1 0x0 DUP1 PUSH1 0x0 PUSH1 0x60 DUP5 DUP7 SUB SLT ISZERO PUSH2 0x17FA JUMPI PUSH1 0x0 DUP1 REVERT JUMPDEST PUSH2 0x1803 DUP5 PUSH2 0x168D JUMP JUMPDEST SWAP3 POP PUSH2 0x1811 PUSH1 0x20 DUP6 ADD PUSH2 0x168D JUMP JUMPDEST SWAP2 POP PUSH1 0x40 DUP5 ADD CALLDATALOAD SWAP1 POP SWAP3 POP SWAP3 POP SWAP3 JUMP JUMPDEST PUSH1 0x0 PUSH1 0x20 DUP3 DUP5 SUB SLT ISZERO PUSH2 0x1833 JUMPI PUSH1 0x0 DUP1 REVERT JUMPDEST PUSH2 0x94A DUP3 PUSH2 0x168D JUMP JUMPDEST PUSH1 0x0 DUP1 PUSH1 0x40 DUP4 DUP6 SUB SLT ISZERO PUSH2 0x184F JUMPI PUSH1 0x0 DUP1 REVERT JUMPDEST PUSH2 0x1858 DUP4 PUSH2 0x168D JUMP JUMPDEST SWAP2 POP PUSH1 0x20 DUP4 ADD CALLDATALOAD DUP1 ISZERO ISZERO DUP2 EQ PUSH2 0x186D JUMPI PUSH1 0x0 DUP1 REVERT JUMPDEST DUP1 SWAP2 POP POP SWAP3 POP SWAP3 SWAP1 POP JUMP JUMPDEST PUSH1 0x0 DUP1 PUSH1 0x0 DUP1 PUSH1 0x80 DUP6 DUP8 SUB SLT ISZERO PUSH2 0x188E JUMPI PUSH1 0x0 DUP1 REVERT JUMPDEST PUSH2 0x1897 DUP6 PUSH2 0x168D JUMP JUMPDEST SWAP4 POP PUSH2 0x18A5 PUSH1 0x20 DUP7 ADD PUSH2 0x168D JUMP JUMPDEST SWAP3 POP PUSH1 0x40 DUP6 ADD CALLDATALOAD SWAP2 POP PUSH1 0x60 DUP6 ADD CALLDATALOAD PUSH8 0xFFFFFFFFFFFFFFFF DUP2 GT ISZERO PUSH2 0x18C8 JUMPI PUSH1 0x0 DUP1 REVERT JUMPDEST DUP6 ADD PUSH1 0x1F DUP2 ADD DUP8 SGT PUSH2 0x18D9 JUMPI PUSH1 0x0 DUP1 REVERT JUMPDEST PUSH2 0x18E8 DUP8 DUP3 CALLDATALOAD PUSH1 0x20 DUP5 ADD PUSH2 0x1617 JUMP JUMPDEST SWAP2 POP POP SWAP3 SWAP6 SWAP2 SWAP5 POP SWAP3 POP JUMP JUMPDEST PUSH1 0x0 DUP1 PUSH1 0x40 DUP4 DUP6 SUB SLT ISZERO PUSH2 0x1907 JUMPI PUSH1 0x0 DUP1 REVERT JUMPDEST PUSH2 0x1910 DUP4 PUSH2 0x168D JUMP JUMPDEST SWAP2 POP PUSH2 0x1702 PUSH1 0x20 DUP5 ADD PUSH2 0x168D JUMP JUMPDEST PUSH1 0x20 DUP1 DUP3 MSTORE PUSH1 0x11 SWAP1 DUP3 ADD MSTORE PUSH17 0x14195C9B5A5CDCDA5BDB8819195B9A5959 PUSH1 0x7A SHL PUSH1 0x40 DUP3 ADD MSTORE PUSH1 0x60 ADD SWAP1 JUMP JUMPDEST PUSH4 0x4E487B71 PUSH1 0xE0 SHL PUSH1 0x0 MSTORE PUSH1 0x11 PUSH1 0x4 MSTORE PUSH1 0x24 PUSH1 0x0 REVERT JUMPDEST PUSH1 0x0 PUSH1 0x0 NOT DUP3 EQ ISZERO PUSH2 0x1973 JUMPI PUSH2 0x1973 PUSH2 0x1949 JUMP JUMPDEST POP PUSH1 0x1 ADD SWAP1 JUMP JUMPDEST PUSH1 0x1 DUP2 DUP2 SHR SWAP1 DUP3 AND DUP1 PUSH2 0x198E JUMPI PUSH1 0x7F DUP3 AND SWAP2 POP JUMPDEST PUSH1 0x20 DUP3 LT DUP2 EQ ISZERO PUSH2 0x8B7 JUMPI PUSH4 0x4E487B71 PUSH1 0xE0 SHL PUSH1 0x0 MSTORE PUSH1 0x22 PUSH1 0x4 MSTORE PUSH1 0x24 PUSH1 0x0 REVERT JUMPDEST PUSH1 0x20 DUP1 DUP3 MSTORE PUSH1 0x2E SWAP1 DUP3 ADD MSTORE PUSH32 0x45524337323155524953746F726167653A2055524920736574206F66206E6F6E PUSH1 0x40 DUP3 ADD MSTORE PUSH14 0x32BC34B9BA32B73A103A37B5B2B7 PUSH1 0x91 SHL PUSH1 0x60 DUP3 ADD MSTORE PUSH1 0x80 ADD SWAP1 JUMP JUMPDEST PUSH1 0x0 DUP2 PUSH1 0x0 NOT DIV DUP4 GT DUP3 ISZERO ISZERO AND ISZERO PUSH2 0x1A17 JUMPI PUSH2 0x1A17 PUSH2 0x1949 JUMP JUMPDEST POP MUL SWAP1 JUMP JUMPDEST PUSH4 0x4E487B71 PUSH1 0xE0 SHL PUSH1 0x0 MSTORE PUSH1 0x12 PUSH1 0x4 MSTORE PUSH1 0x24 PUSH1 0x0 REVERT JUMPDEST PUSH1 0x0 DUP3 PUSH2 0x1A41 JUMPI PUSH2 0x1A41 PUSH2 0x1A1C JUMP JUMPDEST POP DIV SWAP1 JUMP JUMPDEST PUSH1 0x20 DUP1 DUP3 MSTORE PUSH1 0x31 SWAP1 DUP3 ADD MSTORE PUSH32 0x4552433732313A207472616E736665722063616C6C6572206973206E6F74206F PUSH1 0x40 DUP3 ADD MSTORE PUSH17 0x1DDB995C881B9BDC88185C1C1C9BDD9959 PUSH1 0x7A SHL PUSH1 0x60 DUP3 ADD MSTORE PUSH1 0x80 ADD SWAP1 JUMP JUMPDEST PUSH1 0x0 DUP4 MLOAD PUSH2 0x1AA9 DUP2 DUP5 PUSH1 0x20 DUP9 ADD PUSH2 0x170B JUMP JUMPDEST DUP4 MLOAD SWAP1 DUP4 ADD SWAP1 PUSH2 0x1ABD DUP2 DUP4 PUSH1 0x20 DUP9 ADD PUSH2 0x170B JUMP JUMPDEST ADD SWAP5 SWAP4 POP POP POP POP JUMP JUMPDEST PUSH1 0x0 DUP3 DUP3 LT ISZERO PUSH2 0x1AD8 JUMPI PUSH2 0x1AD8 PUSH2 0x1949 JUMP JUMPDEST POP SUB SWAP1 JUMP JUMPDEST PUSH1 0x0 DUP3 NOT DUP3 GT ISZERO PUSH2 0x1AF0 JUMPI PUSH2 0x1AF0 PUSH2 0x1949 JUMP JUMPDEST POP ADD SWAP1 JUMP JUMPDEST PUSH1 0x20 DUP1 DUP3 MSTORE PUSH1 0x32 SWAP1 DUP3 ADD MSTORE PUSH32 0x4552433732313A207472616E7366657220746F206E6F6E204552433732315265 PUSH1 0x40 DUP3 ADD MSTORE PUSH18 0x31B2B4BB32B91034B6B83632B6B2B73A32B9 PUSH1 0x71 SHL PUSH1 0x60 DUP3 ADD MSTORE PUSH1 0x80 ADD SWAP1 JUMP JUMPDEST PUSH1 0x0 DUP3 PUSH2 0x1B56 JUMPI PUSH2 0x1B56 PUSH2 0x1A1C JUMP JUMPDEST POP MOD SWAP1 JUMP JUMPDEST PUSH4 0x4E487B71 PUSH1 0xE0 SHL PUSH1 0x0 MSTORE PUSH1 0x32 PUSH1 0x4 MSTORE PUSH1 0x24 PUSH1 0x0 REVERT JUMPDEST PUSH1 0x1 PUSH1 0x1 PUSH1 0xA0 SHL SUB DUP6 DUP2 AND DUP3 MSTORE DUP5 AND PUSH1 0x20 DUP3 ADD MSTORE PUSH1 0x40 DUP2 ADD DUP4 SWAP1 MSTORE PUSH1 0x80 PUSH1 0x60 DUP3 ADD DUP2 SWAP1 MSTORE PUSH1 0x0 SWAP1 PUSH2 0x1BA4 SWAP1 DUP4 ADD DUP5 PUSH2 0x1737 JUMP JUMPDEST SWAP7 SWAP6 POP POP POP POP POP POP JUMP JUMPDEST PUSH1 0x0 PUSH1 0x20 DUP3 DUP5 SUB SLT ISZERO PUSH2 0x1BC0 JUMPI PUSH1 0x0 DUP1 REVERT JUMPDEST DUP2 MLOAD PUSH2 0x94A DUP2 PUSH2 0x15CE JUMP INVALID LOG2 PUSH5 0x6970667358 0x22 SLT KECCAK256 PUSH16 0xA75F8C5D7D3A9E1C2155CE1DBC75A3AA JUMPI MOD ADDMOD 0xCF ISZERO PUSH10 0x588F5583EDA3D9654064 PUSH20 0x6F6C634300080B00330000000000000000000000 ",
  "sha1": "199507ef28b34841589c158cd583ce1d819f36b1",
  "source": "//SPDX-License-Identifier: UNLICENSED\n\npragma solidity ^0.8.0;\n\nimport \"@openzeppelin/contracts/token/ERC721/ERC721.sol\";\nimport \"@openzeppelin/contracts/utils/Counters.sol\";\n//import \"./Registry.sol\"; - Solidity memory limit\n\ncontract propNFT is ERC721 { //Registry\n    uint256 public tokenCounter;\n    address private Validator;\n\n    mapping (uint256 => bool) private tokenColleteralizaion;\n    mapping (uint256 => string) _tokenURIs;\n\n    event TokenCollateralized(uint256 tokenId, uint256 amount);\n    event priceCalculation(uint256 tokenId);\n\n    constructor () ERC721(\"propNFT\", \"NFT\") { \n        tokenCounter = 0;\n        Validator = msg.sender;\n    }\n\n    modifier existingToken(uint256 tokenId) {\n        require(_exists(tokenId), \"ERC721URIStorage: URI set of nonexistent token\");\n        _;\n    }\n\n    modifier validateSender {\n        require(msg.sender == Validator, \"Permission denied\");\n        _;\n    }\n\n    //URIs are generated through the python script create_URI.py\n    function _setTokenURI(uint256 tokenId, string memory _uri) internal validateSender existingToken(tokenId) {\n        // require(_isApprovedOrOwner(msg.sender, tokenId), \"ERC721 transfer caller is nor owner not approved\");\n        _tokenURIs[tokenId] = _uri;\n    }\n    \n    function isOwner(uint256 tokenId) public view existingToken(tokenId) returns(address){\n        return ERC721.ownerOf(tokenId);\n    }\n\n    // We (the company) mint the NFTs\n    function mintNFT(string memory _uri, address _owner) public validateSender returns(uint256){\n        uint256 newItemId = tokenCounter;\n        _safeMint(_owner, newItemId);\n        _setTokenURI(newItemId, _uri);\n        tokenCounter ++;\n\n        tokenColleteralizaion[newItemId] = false; //by default the token is not used as collateral\n        return newItemId;\n    }\n    \n    function gettokenURI(uint256 tokenId) public view existingToken(tokenId) returns(string memory) {\n        string memory _uri = _tokenURIs[tokenId];\n        return _uri;\n    }\n    \n    //when a customer uses its NFT as a collateral, WE should call this.\n    //the value is calculated through. theML model\n    function _collateralize (uint256 tokenId, uint256 collateralization_amount, uint256 value) public validateSender existingToken(tokenId) {\n\t    require(tokenColleteralizaion[tokenId] == false, \"Token already used as collateral\");        \n        require ((8*value)/10 > collateralization_amount, \"Token not worth enough\"); //set a threshold for the collateral amount\n        \n        emit TokenCollateralized(tokenId, collateralization_amount);\n        tokenColleteralizaion[tokenId] = true;\n     }\n\n\n    function _checkCollateralization (uint256 tokenId) public view existingToken(tokenId) returns(bool) {\n    \trequire(msg.sender == isOwner(tokenId), \"Ownable: caller is not the owner\");\n        return tokenColleteralizaion[tokenId];\n    }\n\n\n    //function called by the customer when he wants to use his NFT as collateral\n    //when the event priceCalculation(tokenId) is triggered, we assume that it\n    //connects to the predict_price.py which returns the predicted value of the NFT\n    //assume we have this function connected to the python code (price calculation ML model)\n    function _requireCollateralValue (uint256 tokenId) public existingToken(tokenId)  { // returns(uint256)\n            emit priceCalculation(tokenId); \n                    \n                    // value = get_nft_value()\n                    //when triggered, this event connects to the ML model\n                    //and calculates the value of the token that is returned here:\n            // return value; \n    }\n\n\n    function burnNFT(uint256 tokenId) public existingToken(tokenId) { //_burn already checks that msg.sender = owner\n        _burn(tokenId);\n        delete tokenColleteralizaion[tokenId];\n        delete _tokenURIs[tokenId];\n    }    \n    \n    \n}\n",
  "sourcePath": "contracts/NFT.sol",
  "type": "contract"
}