{
  "abi": [
    {
      "inputs": [],
      "stateMutability": "payable",
      "type": "constructor"
    },
    {
      "anonymous": false,
      "inputs": [
        {
          "indexed": false,
          "internalType": "address",
          "name": "owner_address",
          "type": "address"
        },
        {
          "indexed": false,
          "internalType": "uint256",
          "name": "id",
          "type": "uint256"
        },
        {
          "indexed": false,
          "internalType": "string",
          "name": "firstName",
          "type": "string"
        },
        {
          "indexed": false,
          "internalType": "string",
          "name": "lastName",
          "type": "string"
        },
        {
          "indexed": false,
          "internalType": "string",
          "name": "gender",
          "type": "string"
        },
        {
          "indexed": false,
          "internalType": "string",
          "name": "codiceFiscale",
          "type": "string"
        },
        {
          "indexed": false,
          "internalType": "string",
          "name": "docType",
          "type": "string"
        },
        {
          "indexed": false,
          "internalType": "string",
          "name": "docNumber",
          "type": "string"
        }
      ],
      "name": "NewOwnerCreated",
      "type": "event"
    },
    {
      "anonymous": false,
      "inputs": [
        {
          "indexed": false,
          "internalType": "uint256",
          "name": "id",
          "type": "uint256"
        },
        {
          "indexed": false,
          "internalType": "uint256",
          "name": "areaSqm",
          "type": "uint256"
        },
        {
          "indexed": false,
          "internalType": "uint256",
          "name": "floor",
          "type": "uint256"
        },
        {
          "indexed": false,
          "internalType": "uint256",
          "name": "zipCode",
          "type": "uint256"
        },
        {
          "indexed": false,
          "internalType": "string",
          "name": "country",
          "type": "string"
        },
        {
          "indexed": false,
          "internalType": "string",
          "name": "region",
          "type": "string"
        },
        {
          "indexed": false,
          "internalType": "string",
          "name": "city",
          "type": "string"
        },
        {
          "indexed": false,
          "internalType": "string",
          "name": "street",
          "type": "string"
        },
        {
          "indexed": false,
          "internalType": "string",
          "name": "streetNumber",
          "type": "string"
        },
        {
          "indexed": false,
          "internalType": "string",
          "name": "adressAdditional",
          "type": "string"
        },
        {
          "indexed": false,
          "internalType": "string",
          "name": "houseType",
          "type": "string"
        }
      ],
      "name": "NewPropertyRegistered",
      "type": "event"
    },
    {
      "anonymous": false,
      "inputs": [
        {
          "indexed": false,
          "internalType": "address",
          "name": "new_owner",
          "type": "address"
        },
        {
          "indexed": false,
          "internalType": "uint256",
          "name": "propert_id",
          "type": "uint256"
        }
      ],
      "name": "OwnershipTransferred",
      "type": "event"
    },
    {
      "inputs": [],
      "name": "Payment",
      "outputs": [],
      "stateMutability": "payable",
      "type": "function"
    },
    {
      "inputs": [
        {
          "internalType": "uint256",
          "name": "_property_id",
          "type": "uint256"
        },
        {
          "internalType": "address",
          "name": "_new_owner_address",
          "type": "address"
        }
      ],
      "name": "Transfer",
      "outputs": [],
      "stateMutability": "nonpayable",
      "type": "function"
    },
    {
      "inputs": [
        {
          "internalType": "uint256",
          "name": "_id",
          "type": "uint256"
        },
        {
          "internalType": "uint256",
          "name": "_areaSqm",
          "type": "uint256"
        },
        {
          "internalType": "uint256",
          "name": "_floor",
          "type": "uint256"
        },
        {
          "internalType": "uint256",
          "name": "_zipCode",
          "type": "uint256"
        },
        {
          "internalType": "string",
          "name": "_country",
          "type": "string"
        },
        {
          "internalType": "string",
          "name": "_region",
          "type": "string"
        },
        {
          "internalType": "string",
          "name": "_city",
          "type": "string"
        },
        {
          "internalType": "string",
          "name": "_street",
          "type": "string"
        },
        {
          "internalType": "string",
          "name": "_streetNumber",
          "type": "string"
        },
        {
          "internalType": "string",
          "name": "_addressAdditional",
          "type": "string"
        },
        {
          "internalType": "string",
          "name": "_houseType",
          "type": "string"
        }
      ],
      "name": "Update",
      "outputs": [],
      "stateMutability": "nonpayable",
      "type": "function"
    },
    {
      "inputs": [
        {
          "internalType": "address",
          "name": "",
          "type": "address"
        }
      ],
      "name": "address_to_owner",
      "outputs": [
        {
          "internalType": "uint256",
          "name": "",
          "type": "uint256"
        }
      ],
      "stateMutability": "view",
      "type": "function"
    },
    {
      "inputs": [
        {
          "internalType": "uint256",
          "name": "",
          "type": "uint256"
        }
      ],
      "name": "addresses_list",
      "outputs": [
        {
          "internalType": "address",
          "name": "",
          "type": "address"
        }
      ],
      "stateMutability": "view",
      "type": "function"
    },
    {
      "inputs": [
        {
          "internalType": "uint256",
          "name": "",
          "type": "uint256"
        }
      ],
      "name": "all_prop_id_to_personal_prop_id",
      "outputs": [
        {
          "internalType": "uint256",
          "name": "",
          "type": "uint256"
        }
      ],
      "stateMutability": "view",
      "type": "function"
    },
    {
      "inputs": [
        {
          "internalType": "uint256",
          "name": "_new_price_registration",
          "type": "uint256"
        }
      ],
      "name": "changePriceRegistration",
      "outputs": [],
      "stateMutability": "nonpayable",
      "type": "function"
    },
    {
      "inputs": [
        {
          "internalType": "uint256",
          "name": "_new_price_transfers",
          "type": "uint256"
        }
      ],
      "name": "changePriceTransfer",
      "outputs": [],
      "stateMutability": "nonpayable",
      "type": "function"
    },
    {
      "inputs": [
        {
          "internalType": "address",
          "name": "_owner",
          "type": "address"
        }
      ],
      "name": "countOwnerProperties",
      "outputs": [
        {
          "internalType": "uint256",
          "name": "",
          "type": "uint256"
        }
      ],
      "stateMutability": "view",
      "type": "function"
    },
    {
      "inputs": [
        {
          "internalType": "address",
          "name": "",
          "type": "address"
        }
      ],
      "name": "customerBalance",
      "outputs": [
        {
          "internalType": "uint256",
          "name": "",
          "type": "uint256"
        }
      ],
      "stateMutability": "view",
      "type": "function"
    },
    {
      "inputs": [
        {
          "internalType": "address",
          "name": "_owner",
          "type": "address"
        }
      ],
      "name": "findOwner",
      "outputs": [
        {
          "internalType": "string",
          "name": "",
          "type": "string"
        },
        {
          "internalType": "string",
          "name": "",
          "type": "string"
        }
      ],
      "stateMutability": "view",
      "type": "function"
    },
    {
      "inputs": [
        {
          "internalType": "uint256",
          "name": "_id",
          "type": "uint256"
        }
      ],
      "name": "findPropertyOwner",
      "outputs": [
        {
          "internalType": "string",
          "name": "",
          "type": "string"
        },
        {
          "internalType": "string",
          "name": "",
          "type": "string"
        },
        {
          "internalType": "address",
          "name": "",
          "type": "address"
        }
      ],
      "stateMutability": "view",
      "type": "function"
    },
    {
      "inputs": [
        {
          "internalType": "address",
          "name": "_owner",
          "type": "address"
        }
      ],
      "name": "find_properties",
      "outputs": [
        {
          "internalType": "uint256[]",
          "name": "",
          "type": "uint256[]"
        }
      ],
      "stateMutability": "view",
      "type": "function"
    },
    {
      "inputs": [
        {
          "internalType": "address",
          "name": "",
          "type": "address"
        }
      ],
      "name": "ownerPropertyCount",
      "outputs": [
        {
          "internalType": "uint256",
          "name": "",
          "type": "uint256"
        }
      ],
      "stateMutability": "view",
      "type": "function"
    },
    {
      "inputs": [
        {
          "internalType": "address",
          "name": "",
          "type": "address"
        },
        {
          "internalType": "uint256",
          "name": "",
          "type": "uint256"
        }
      ],
      "name": "owner_to_property",
      "outputs": [
        {
          "internalType": "uint256",
          "name": "",
          "type": "uint256"
        }
      ],
      "stateMutability": "view",
      "type": "function"
    },
    {
      "inputs": [
        {
          "internalType": "uint256",
          "name": "",
          "type": "uint256"
        }
      ],
      "name": "owners",
      "outputs": [
        {
          "internalType": "uint256",
          "name": "id",
          "type": "uint256"
        },
        {
          "internalType": "string",
          "name": "firstName",
          "type": "string"
        },
        {
          "internalType": "string",
          "name": "lastName",
          "type": "string"
        },
        {
          "internalType": "string",
          "name": "gender",
          "type": "string"
        },
        {
          "internalType": "string",
          "name": "codiceFisc",
          "type": "string"
        },
        {
          "internalType": "string",
          "name": "docType",
          "type": "string"
        },
        {
          "internalType": "string",
          "name": "docNumber",
          "type": "string"
        }
      ],
      "stateMutability": "view",
      "type": "function"
    },
    {
      "inputs": [
        {
          "internalType": "uint256",
          "name": "",
          "type": "uint256"
        }
      ],
      "name": "properties",
      "outputs": [
        {
          "internalType": "uint256",
          "name": "id",
          "type": "uint256"
        },
        {
          "internalType": "uint256",
          "name": "sqm",
          "type": "uint256"
        },
        {
          "internalType": "uint256",
          "name": "floor",
          "type": "uint256"
        },
        {
          "internalType": "uint256",
          "name": "zipCode",
          "type": "uint256"
        },
        {
          "internalType": "string",
          "name": "country",
          "type": "string"
        },
        {
          "internalType": "string",
          "name": "region",
          "type": "string"
        },
        {
          "internalType": "string",
          "name": "city",
          "type": "string"
        },
        {
          "internalType": "string",
          "name": "street",
          "type": "string"
        },
        {
          "internalType": "string",
          "name": "streetnum",
          "type": "string"
        },
        {
          "internalType": "string",
          "name": "addressAdditional",
          "type": "string"
        },
        {
          "internalType": "string",
          "name": "houseType",
          "type": "string"
        }
      ],
      "stateMutability": "view",
      "type": "function"
    },
    {
      "inputs": [
        {
          "internalType": "string",
          "name": "_firstName",
          "type": "string"
        },
        {
          "internalType": "string",
          "name": "_lastName",
          "type": "string"
        },
        {
          "internalType": "string",
          "name": "_gender",
          "type": "string"
        },
        {
          "internalType": "string",
          "name": "_codiceFiscale",
          "type": "string"
        },
        {
          "internalType": "string",
          "name": "_docType",
          "type": "string"
        },
        {
          "internalType": "string",
          "name": "_docNumber",
          "type": "string"
        }
      ],
      "name": "registerOwner",
      "outputs": [],
      "stateMutability": "nonpayable",
      "type": "function"
    },
    {
      "inputs": [
        {
          "internalType": "address",
          "name": "_Owner",
          "type": "address"
        },
        {
          "internalType": "uint256",
          "name": "_areaSqm",
          "type": "uint256"
        },
        {
          "internalType": "uint256",
          "name": "_floor",
          "type": "uint256"
        },
        {
          "internalType": "uint256",
          "name": "_zipCode",
          "type": "uint256"
        },
        {
          "internalType": "string",
          "name": "_country",
          "type": "string"
        },
        {
          "internalType": "string",
          "name": "_region",
          "type": "string"
        },
        {
          "internalType": "string",
          "name": "_city",
          "type": "string"
        },
        {
          "internalType": "string",
          "name": "_street",
          "type": "string"
        },
        {
          "internalType": "string",
          "name": "_streetNumber",
          "type": "string"
        },
        {
          "internalType": "string",
          "name": "_addressAdditional",
          "type": "string"
        },
        {
          "internalType": "string",
          "name": "_houseType",
          "type": "string"
        }
      ],
      "name": "registerProperty",
      "outputs": [],
      "stateMutability": "nonpayable",
      "type": "function"
    },
    {
      "inputs": [],
      "name": "revenue",
      "outputs": [
        {
          "internalType": "uint256",
          "name": "",
          "type": "uint256"
        }
      ],
      "stateMutability": "view",
      "type": "function"
    },
    {
      "inputs": [],
      "name": "showBalance",
      "outputs": [
        {
          "internalType": "uint256",
          "name": "",
          "type": "uint256"
        }
      ],
      "stateMutability": "view",
      "type": "function"
    },
    {
      "inputs": [
        {
          "internalType": "address",
          "name": "_owner",
          "type": "address"
        }
      ],
      "name": "showOwnerBalance",
      "outputs": [
        {
          "internalType": "uint256",
          "name": "",
          "type": "uint256"
        }
      ],
      "stateMutability": "view",
      "type": "function"
    },
    {
      "inputs": [],
      "name": "showOwnersCount",
      "outputs": [
        {
          "internalType": "uint256",
          "name": "",
          "type": "uint256"
        }
      ],
      "stateMutability": "view",
      "type": "function"
    },
    {
      "inputs": [],
      "name": "showPropertyCount",
      "outputs": [
        {
          "internalType": "uint256",
          "name": "",
          "type": "uint256"
        }
      ],
      "stateMutability": "view",
      "type": "function"
    },
    {
      "inputs": [],
      "name": "showRegistrationPrice",
      "outputs": [
        {
          "internalType": "uint256",
          "name": "",
          "type": "uint256"
        }
      ],
      "stateMutability": "view",
      "type": "function"
    },
    {
      "inputs": [],
      "name": "showTransferPrice",
      "outputs": [
        {
          "internalType": "uint256",
          "name": "",
          "type": "uint256"
        }
      ],
      "stateMutability": "view",
      "type": "function"
    },
    {
      "inputs": [],
      "name": "show_revenue",
      "outputs": [
        {
          "internalType": "uint256",
          "name": "",
          "type": "uint256"
        }
      ],
      "stateMutability": "view",
      "type": "function"
    },
    {
      "stateMutability": "payable",
      "type": "receive"
    }
  ],
  "bytecode": "60806040526001600681905560075560146008556005600955600b80546001600160a01b03191633179055612779806100396000396000f3fe6080604052600436106101a05760003560e01c80639bdb448f116100ec578063dd7bfcb81161008a578063eda943b511610064578063eda943b514610572578063f26ec4171461059f578063f7b10808146105bf578063f969c083146105f657600080fd5b8063dd7bfcb814610507578063e2d24b441461051c578063e3c16efe1461053c57600080fd5b8063aeb272e8116100c6578063aeb272e814610485578063b74404671461049a578063c088512a146104c7578063c38c1b35146104e757600080fd5b80639bdb448f1461043d578063a33b12601461045d578063abe1dcf91461046557600080fd5b8063421235d51161015957806360e38ae21161013357806360e38ae2146103b757806381b2d07b146103e657806389cb8f6d146103fb57806392fd14d01461042857600080fd5b8063421235d51461033a5780634fd1f68b146103675780635bcf45901461039557600080fd5b8063025e7c271461022a578063225898c9146102665780632e735c7d1461029e578063306acf02146102e257806337ebe47b146102f75780633e9491a21461032457600080fd5b3661022557336000908152602081905260409020546101ff5760405162461bcd60e51b8152602060048201526016602482015275165bdd48185c99481b9bdd081c9959da5cdd195c995960521b60448201526064015b60405180910390fd5b336000908152600360205260408120805434929061021e908490611f86565b9091555050005b600080fd5b34801561023657600080fd5b5061024a610245366004611f9e565b61060b565b60405161025d9796959493929190612004565b60405180910390f35b34801561027257600080fd5b50610286610281366004611f9e565b610989565b6040516001600160a01b03909116815260200161025d565b3480156102aa57600080fd5b506102d46102b93660046120a4565b6001600160a01b031660009081526003602052604090205490565b60405190815260200161025d565b3480156102ee57600080fd5b506008546102d4565b34801561030357600080fd5b506102d46103123660046120a4565b60036020526000908152604090205481565b34801561033057600080fd5b506102d4600a5481565b34801561034657600080fd5b506102d46103553660046120a4565b60006020819052908152604090205481565b34801561037357600080fd5b506103876103823660046120a4565b6109b3565b60405161025d9291906120c6565b3480156103a157600080fd5b506103b56103b0366004612197565b610b7b565b005b3480156103c357600080fd5b506103d76103d2366004611f9e565b610c6b565b60405161025d939291906122e7565b3480156103f257600080fd5b506102d4610e1d565b34801561040757600080fd5b506102d46104163660046120a4565b60016020526000908152604090205481565b34801561043457600080fd5b506009546102d4565b34801561044957600080fd5b506102d4610458366004612325565b610e4f565b6103b5610e80565b34801561047157600080fd5b506103b561048036600461234f565b610f73565b34801561049157600080fd5b50600d546102d4565b3480156104a657600080fd5b506104ba6104b53660046120a4565b6112f1565b60405161025d919061237b565b3480156104d357600080fd5b506103b56104e23660046123bf565b611389565b3480156104f357600080fd5b506103b56105023660046124b4565b6115f1565b34801561051357600080fd5b506102d4611a23565b34801561052857600080fd5b506103b5610537366004611f9e565b611a57565b34801561054857600080fd5b506102d46105573660046120a4565b6001600160a01b031660009081526001602052604090205490565b34801561057e57600080fd5b506102d461058d366004611f9e565b60056020526000908152604090205481565b3480156105ab57600080fd5b506103b56105ba366004611f9e565b611a86565b3480156105cb57600080fd5b506105df6105da366004611f9e565b611ab5565b60405161025d9b9a99989796959493929190612510565b34801561060257600080fd5b50600c546102d4565b600d818154811061061b57600080fd5b60009182526020909120600790910201805460018201805491935090610640906125c9565b80601f016020809104026020016040519081016040528092919081815260200182805461066c906125c9565b80156106b95780601f1061068e576101008083540402835291602001916106b9565b820191906000526020600020905b81548152906001019060200180831161069c57829003601f168201915b5050505050908060020180546106ce906125c9565b80601f01602080910402602001604051908101604052809291908181526020018280546106fa906125c9565b80156107475780601f1061071c57610100808354040283529160200191610747565b820191906000526020600020905b81548152906001019060200180831161072a57829003601f168201915b50505050509080600301805461075c906125c9565b80601f0160208091040260200160405190810160405280929190818152602001828054610788906125c9565b80156107d55780601f106107aa576101008083540402835291602001916107d5565b820191906000526020600020905b8154815290600101906020018083116107b857829003601f168201915b5050505050908060040180546107ea906125c9565b80601f0160208091040260200160405190810160405280929190818152602001828054610816906125c9565b80156108635780601f1061083857610100808354040283529160200191610863565b820191906000526020600020905b81548152906001019060200180831161084657829003601f168201915b505050505090806005018054610878906125c9565b80601f01602080910402602001604051908101604052809291908181526020018280546108a4906125c9565b80156108f15780601f106108c6576101008083540402835291602001916108f1565b820191906000526020600020905b8154815290600101906020018083116108d457829003601f168201915b505050505090806006018054610906906125c9565b80601f0160208091040260200160405190810160405280929190818152602001828054610932906125c9565b801561097f5780601f106109545761010080835404028352916020019161097f565b820191906000526020600020905b81548152906001019060200180831161096257829003601f168201915b5050505050905087565b600e818154811061099957600080fd5b6000918252602090912001546001600160a01b0316905081565b600b5460609081906001600160a01b031633146109e25760405162461bcd60e51b81526004016101f690612604565b6001600160a01b038316600090815260208190526040902054600d610a0860018361262f565b81548110610a1857610a18612646565b9060005260206000209060070201600101600d600183610a38919061262f565b81548110610a4857610a48612646565b9060005260206000209060070201600201818054610a65906125c9565b80601f0160208091040260200160405190810160405280929190818152602001828054610a91906125c9565b8015610ade5780601f10610ab357610100808354040283529160200191610ade565b820191906000526020600020905b815481529060010190602001808311610ac157829003601f168201915b50505050509150808054610af1906125c9565b80601f0160208091040260200160405190810160405280929190818152602001828054610b1d906125c9565b8015610b6a5780601f10610b3f57610100808354040283529160200191610b6a565b820191906000526020600020905b815481529060010190602001808311610b4d57829003601f168201915b505050505090509250925050915091565b6000600c610b8a60018e61262f565b81548110610b9a57610b9a612646565b60009182526020918290206001600b909202019081018d9055600281018c9055600381018b90558951909250610bd8916004840191908b0190611ed7565b508651610bee90600583019060208a0190611ed7565b508551610c049060068301906020890190611ed7565b508451610c1a9060078301906020880190611ed7565b508351610c309060088301906020870190611ed7565b508251610c469060098301906020860190611ed7565b508151610c5c90600a8301906020850190611ed7565b50505050505050505050505050565b6000818152600260209081526040808320546001600160a01b03168084529183905282205460609283929091600d610ca460018361262f565b81548110610cb457610cb4612646565b9060005260206000209060070201600101600d600183610cd4919061262f565b81548110610ce457610ce4612646565b906000526020600020906007020160020183828054610d02906125c9565b80601f0160208091040260200160405190810160405280929190818152602001828054610d2e906125c9565b8015610d7b5780601f10610d5057610100808354040283529160200191610d7b565b820191906000526020600020905b815481529060010190602001808311610d5e57829003601f168201915b50505050509250818054610d8e906125c9565b80601f0160208091040260200160405190810160405280929190818152602001828054610dba906125c9565b8015610e075780601f10610ddc57610100808354040283529160200191610e07565b820191906000526020600020905b815481529060010190602001808311610dea57829003601f168201915b5050505050915094509450945050509193909250565b600b546000906001600160a01b03163314610e4a5760405162461bcd60e51b81526004016101f690612604565b504790565b60046020528160005260406000208181548110610e6b57600080fd5b90600052602060002001600091509150505481565b600b546001600160a01b03163314610eaa5760405162461bcd60e51b81526004016101f690612604565b600b546001600160a01b0316600a4711610ec357600080fd5b6000600a8054610ed3919061262f565b600a80556040519091506000906001600160a01b0384169083908381818185875af1925050503d8060008114610f25576040519150601f19603f3d011682016040523d82523d6000602084013e610f2a565b606091505b5050905080610f6e5760405162461bcd60e51b815260206004820152601060248201526f2a3930b739b332b9103330b4b632b21760811b60448201526064016101f6565b505050565b6000828152600260205260409020546001600160a01b031633146110185760405162461bcd60e51b815260206004820152605060248201527f4f6e6c79204f776e6572732063616e207472616e736665722070726f7065727460448201527f792e20576520646f206e6f74206861766520796f75206173206f776e6572206f60648201526f33103a3434b990383937b832b93a3c9760811b608482015260a4016101f6565b6009546001600160a01b03821660009081526003602052604090205410156110a85760405162461bcd60e51b815260206004820152603760248201527f42616c616e6365206f662061206e6577206f776e657220697320746f6f206c6f60448201527f7720746f207472616e736665722070726f70657274792e00000000000000000060648201526084016101f6565b6001600160a01b03811660009081526020819052604090205461110d5760405162461bcd60e51b815260206004820152601b60248201527f4e6577206f776e6572206973206e6f742072656769737465726564000000000060448201526064016101f6565b600082815260026020908152604080832080546001600160a01b0319166001600160a01b03861617905533835260049091529020805461114f9060019061262f565b8154811061115f5761115f612646565b600091825260208083209091015433835260048252604080842060075485526005909352909220548154811061119757611197612646565b60009182526020808320909101929092553381526004909152604090208054806111c3576111c361265c565b6000828152602080822083016000199081018390559092019092556001600160a01b038316808352600482526040808420805460018181018355918652848620018790559184529152812080549161121a83612672565b90915550506001600160a01b03811660009081526001602081815260408084205460075485526005835281852055338452919052812080549161125c8361268d565b9091555050604080516001600160a01b0383168152602081018490527fbf0996050d830a4094913360f3aca6a3d35dc19fbda52e1f983f5e1e3c5f8f2d910160405180910390a16009546001600160a01b038216600090815260036020526040812080549091906112ce90849061262f565b9091555050600954600a80546000906112e8908490611f86565b90915550505050565b600b546060906001600160a01b0316331461131e5760405162461bcd60e51b81526004016101f690612604565b6001600160a01b0382166000908152600460209081526040918290208054835181840281018401909452808452909183018282801561137c57602002820191906000526020600020905b815481526020019060010190808311611368575b505050505090505b919050565b33600090815260208190526040902054156113e65760405162461bcd60e51b815260206004820152601e60248201527f4164647265737320697320616c726561647920726567697374657265642e000060448201526064016101f6565b6040805160e08101825260065481526020808201898152928201889052606082018790526080820186905260a0820185905260c08201849052600d8054600181018255600091909152825160079091027fd7b6990105719101dabeb77144f2a3385c8033acd3af97e9423a695e81ad1eb581019182559351805193949193611497937fd7b6990105719101dabeb77144f2a3385c8033acd3af97e9423a695e81ad1eb6909301929190910190611ed7565b50604082015180516114b3916002840191602090910190611ed7565b50606082015180516114cf916003840191602090910190611ed7565b50608082015180516114eb916004840191602090910190611ed7565b5060a08201518051611507916005840191602090910190611ed7565b5060c08201518051611523916006840191602090910190611ed7565b5050600e80546001810182556000919091527fbb7b4a454dc3493923482f07822329ed19e8244eff582cc204f8554c3620c3fd0180546001600160a01b031916339081179091556006546040517fa77dab45c413501c01e68e486ba7b3713c4fbb1d6140cd3f949cd709cee6f11393506115aa9291908a908a908a908a908a908a906126a4565b60405180910390a1600680543360009081526020819052604081208290559091906115d483612672565b909155505033600090815260036020526040812055505050505050565b600b546001600160a01b0316331461161b5760405162461bcd60e51b81526004016101f690612604565b6008546001600160a01b038c1660009081526003602052604090205410156116c35760405162461bcd60e51b815260206004820152604f60248201527f42616c616e636520746f6f206c6f7720746f2072656769737465722070726f7060448201527f657274792e20506c6561736520696e63726561736520796f75722062616c616e60648201526e31b29013103a393c9030b3b0b4b71760891b608482015260a4016101f6565b6040805161016081018252600754815260208082018d81529282018c8152606083018c8152608084018c815260a085018c905260c085018b905260e085018a9052610100850189905261012085018890526101408501879052600c80546001810182556000919091528551600b9091027fdf6966c971051c3d54ec59162606531493a51404a002842f56009d7e5cf4a8c7810191825596517fdf6966c971051c3d54ec59162606531493a51404a002842f56009d7e5cf4a8c888015592517fdf6966c971051c3d54ec59162606531493a51404a002842f56009d7e5cf4a8c987015590517fdf6966c971051c3d54ec59162606531493a51404a002842f56009d7e5cf4a8ca86015551805193949193611805937fdf6966c971051c3d54ec59162606531493a51404a002842f56009d7e5cf4a8cb909301929190910190611ed7565b5060a08201518051611821916005840191602090910190611ed7565b5060c0820151805161183d916006840191602090910190611ed7565b5060e08201518051611859916007840191602090910190611ed7565b506101008201518051611876916008840191602090910190611ed7565b506101208201518051611893916009840191602090910190611ed7565b5061014082015180516118b091600a840191602090910190611ed7565b5050507f7a320318f8ddfe7528cb7b0a1fdaf9466f7fd11a31f4d72ed4c96a07624589d96007548b8b8b8b8b8b8b8b8b8b6040516118f89b9a99989796959493929190612510565b60405180910390a18a60026000600754815260200190815260200160002060006101000a8154816001600160a01b0302191690836001600160a01b03160217905550600160008c6001600160a01b03166001600160a01b03168152602001908152602001600020600081548092919061197090612672565b90915550506001600160a01b038b166000818152600460209081526040808320600780548254600181810185559387528587200155948452825280832054845484526005909252822055815491906119c783612672565b90915550506008546001600160a01b038c16600090815260036020526040812080549091906119f790849061262f565b9091555050600854600a8054600090611a11908490611f86565b90915550505050505050505050505050565b600b546000906001600160a01b03163314611a505760405162461bcd60e51b81526004016101f690612604565b50600a5490565b600b546001600160a01b03163314611a815760405162461bcd60e51b81526004016101f690612604565b600855565b600b546001600160a01b03163314611ab05760405162461bcd60e51b81526004016101f690612604565b600955565b600c8181548110611ac557600080fd5b90600052602060002090600b0201600091509050806000015490806001015490806002015490806003015490806004018054611b00906125c9565b80601f0160208091040260200160405190810160405280929190818152602001828054611b2c906125c9565b8015611b795780601f10611b4e57610100808354040283529160200191611b79565b820191906000526020600020905b815481529060010190602001808311611b5c57829003601f168201915b505050505090806005018054611b8e906125c9565b80601f0160208091040260200160405190810160405280929190818152602001828054611bba906125c9565b8015611c075780601f10611bdc57610100808354040283529160200191611c07565b820191906000526020600020905b815481529060010190602001808311611bea57829003601f168201915b505050505090806006018054611c1c906125c9565b80601f0160208091040260200160405190810160405280929190818152602001828054611c48906125c9565b8015611c955780601f10611c6a57610100808354040283529160200191611c95565b820191906000526020600020905b815481529060010190602001808311611c7857829003601f168201915b505050505090806007018054611caa906125c9565b80601f0160208091040260200160405190810160405280929190818152602001828054611cd6906125c9565b8015611d235780601f10611cf857610100808354040283529160200191611d23565b820191906000526020600020905b815481529060010190602001808311611d0657829003601f168201915b505050505090806008018054611d38906125c9565b80601f0160208091040260200160405190810160405280929190818152602001828054611d64906125c9565b8015611db15780601f10611d8657610100808354040283529160200191611db1565b820191906000526020600020905b815481529060010190602001808311611d9457829003601f168201915b505050505090806009018054611dc6906125c9565b80601f0160208091040260200160405190810160405280929190818152602001828054611df2906125c9565b8015611e3f5780601f10611e1457610100808354040283529160200191611e3f565b820191906000526020600020905b815481529060010190602001808311611e2257829003601f168201915b50505050509080600a018054611e54906125c9565b80601f0160208091040260200160405190810160405280929190818152602001828054611e80906125c9565b8015611ecd5780601f10611ea257610100808354040283529160200191611ecd565b820191906000526020600020905b815481529060010190602001808311611eb057829003601f168201915b505050505090508b565b828054611ee3906125c9565b90600052602060002090601f016020900481019282611f055760008555611f4b565b82601f10611f1e57805160ff1916838001178555611f4b565b82800160010185558215611f4b579182015b82811115611f4b578251825591602001919060010190611f30565b50611f57929150611f5b565b5090565b5b80821115611f575760008155600101611f5c565b634e487b7160e01b600052601160045260246000fd5b60008219821115611f9957611f99611f70565b500190565b600060208284031215611fb057600080fd5b5035919050565b6000815180845260005b81811015611fdd57602081850181015186830182015201611fc1565b81811115611fef576000602083870101525b50601f01601f19169290920160200192915050565b87815260e06020820152600061201d60e0830189611fb7565b828103604084015261202f8189611fb7565b905082810360608401526120438188611fb7565b905082810360808401526120578187611fb7565b905082810360a084015261206b8186611fb7565b905082810360c084015261207f8185611fb7565b9a9950505050505050505050565b80356001600160a01b038116811461138457600080fd5b6000602082840312156120b657600080fd5b6120bf8261208d565b9392505050565b6040815260006120d96040830185611fb7565b82810360208401526120eb8185611fb7565b95945050505050565b634e487b7160e01b600052604160045260246000fd5b600082601f83011261211b57600080fd5b813567ffffffffffffffff80821115612136576121366120f4565b604051601f8301601f19908116603f0116810190828211818310171561215e5761215e6120f4565b8160405283815286602085880101111561217757600080fd5b836020870160208301376000602085830101528094505050505092915050565b60008060008060008060008060008060006101608c8e0312156121b957600080fd5b8b359a5060208c0135995060408c0135985060608c0135975067ffffffffffffffff8060808e013511156121ec57600080fd5b6121fc8e60808f01358f0161210a565b97508060a08e0135111561220f57600080fd5b61221f8e60a08f01358f0161210a565b96508060c08e0135111561223257600080fd5b6122428e60c08f01358f0161210a565b95508060e08e0135111561225557600080fd5b6122658e60e08f01358f0161210a565b9450806101008e0135111561227957600080fd5b61228a8e6101008f01358f0161210a565b9350806101208e0135111561229e57600080fd5b6122af8e6101208f01358f0161210a565b9250806101408e013511156122c357600080fd5b506122d58d6101408e01358e0161210a565b90509295989b509295989b9093969950565b6060815260006122fa6060830186611fb7565b828103602084015261230c8186611fb7565b91505060018060a01b0383166040830152949350505050565b6000806040838503121561233857600080fd5b6123418361208d565b946020939093013593505050565b6000806040838503121561236257600080fd5b823591506123726020840161208d565b90509250929050565b6020808252825182820181905260009190848201906040850190845b818110156123b357835183529284019291840191600101612397565b50909695505050505050565b60008060008060008060c087890312156123d857600080fd5b863567ffffffffffffffff808211156123f057600080fd5b6123fc8a838b0161210a565b9750602089013591508082111561241257600080fd5b61241e8a838b0161210a565b9650604089013591508082111561243457600080fd5b6124408a838b0161210a565b9550606089013591508082111561245657600080fd5b6124628a838b0161210a565b9450608089013591508082111561247857600080fd5b6124848a838b0161210a565b935060a089013591508082111561249a57600080fd5b506124a789828a0161210a565b9150509295509295509295565b60008060008060008060008060008060006101608c8e0312156124d657600080fd5b6124df8c61208d565b9a5060208c0135995060408c0135985060608c0135975067ffffffffffffffff8060808e013511156121ec57600080fd5b60006101608d83528c60208401528b60408401528a606084015280608084015261253c8184018b611fb7565b905082810360a0840152612550818a611fb7565b905082810360c08401526125648189611fb7565b905082810360e08401526125788188611fb7565b905082810361010084015261258d8187611fb7565b90508281036101208401526125a28186611fb7565b90508281036101408401526125b78185611fb7565b9e9d5050505050505050505050505050565b600181811c908216806125dd57607f821691505b602082108114156125fe57634e487b7160e01b600052602260045260246000fd5b50919050565b60208082526011908201527014195c9b5a5cdcda5bdb8819195b9a5959607a1b604082015260600190565b60008282101561264157612641611f70565b500390565b634e487b7160e01b600052603260045260246000fd5b634e487b7160e01b600052603160045260246000fd5b600060001982141561268657612686611f70565b5060010190565b60008161269c5761269c611f70565b506000190190565b6001600160a01b038916815260208101889052610100604082018190526000906126d08382018a611fb7565b905082810360608401526126e48189611fb7565b905082810360808401526126f88188611fb7565b905082810360a084015261270c8187611fb7565b905082810360c08401526127208186611fb7565b905082810360e08401526127348185611fb7565b9b9a505050505050505050505056fea2646970667358221220cc93684dfdf3c9b792f7aa10035e855a242c67033222957a6b689b203e37c3f664736f6c634300080b0033",
  "bytecodeSha1": "3bde942f23269c399ebef2c8acf0668ce02cc709",
  "compiler": {
    "evm_version": "istanbul",
    "optimizer": {
      "enabled": true,
      "runs": 200
    },
    "version": "0.8.11+commit.d7f03943"
  },
  "contractName": "Registry",
  "language": "Solidity",
  "natspec": {
    "kind": "dev",
    "methods": {},
    "version": 1
  },
  "opcodes": "PUSH1 0x80 PUSH1 0x40 MSTORE PUSH1 0x4 CALLDATASIZE LT PUSH2 0x1A0 JUMPI PUSH1 0x0 CALLDATALOAD PUSH1 0xE0 SHR DUP1 PUSH4 0x9BDB448F GT PUSH2 0xEC JUMPI DUP1 PUSH4 0xDD7BFCB8 GT PUSH2 0x8A JUMPI DUP1 PUSH4 0xEDA943B5 GT PUSH2 0x64 JUMPI DUP1 PUSH4 0xEDA943B5 EQ PUSH2 0x572 JUMPI DUP1 PUSH4 0xF26EC417 EQ PUSH2 0x59F JUMPI DUP1 PUSH4 0xF7B10808 EQ PUSH2 0x5BF JUMPI DUP1 PUSH4 0xF969C083 EQ PUSH2 0x5F6 JUMPI PUSH1 0x0 DUP1 REVERT JUMPDEST DUP1 PUSH4 0xDD7BFCB8 EQ PUSH2 0x507 JUMPI DUP1 PUSH4 0xE2D24B44 EQ PUSH2 0x51C JUMPI DUP1 PUSH4 0xE3C16EFE EQ PUSH2 0x53C JUMPI PUSH1 0x0 DUP1 REVERT JUMPDEST DUP1 PUSH4 0xAEB272E8 GT PUSH2 0xC6 JUMPI DUP1 PUSH4 0xAEB272E8 EQ PUSH2 0x485 JUMPI DUP1 PUSH4 0xB7440467 EQ PUSH2 0x49A JUMPI DUP1 PUSH4 0xC088512A EQ PUSH2 0x4C7 JUMPI DUP1 PUSH4 0xC38C1B35 EQ PUSH2 0x4E7 JUMPI PUSH1 0x0 DUP1 REVERT JUMPDEST DUP1 PUSH4 0x9BDB448F EQ PUSH2 0x43D JUMPI DUP1 PUSH4 0xA33B1260 EQ PUSH2 0x45D JUMPI DUP1 PUSH4 0xABE1DCF9 EQ PUSH2 0x465 JUMPI PUSH1 0x0 DUP1 REVERT JUMPDEST DUP1 PUSH4 0x421235D5 GT PUSH2 0x159 JUMPI DUP1 PUSH4 0x60E38AE2 GT PUSH2 0x133 JUMPI DUP1 PUSH4 0x60E38AE2 EQ PUSH2 0x3B7 JUMPI DUP1 PUSH4 0x81B2D07B EQ PUSH2 0x3E6 JUMPI DUP1 PUSH4 0x89CB8F6D EQ PUSH2 0x3FB JUMPI DUP1 PUSH4 0x92FD14D0 EQ PUSH2 0x428 JUMPI PUSH1 0x0 DUP1 REVERT JUMPDEST DUP1 PUSH4 0x421235D5 EQ PUSH2 0x33A JUMPI DUP1 PUSH4 0x4FD1F68B EQ PUSH2 0x367 JUMPI DUP1 PUSH4 0x5BCF4590 EQ PUSH2 0x395 JUMPI PUSH1 0x0 DUP1 REVERT JUMPDEST DUP1 PUSH4 0x25E7C27 EQ PUSH2 0x22A JUMPI DUP1 PUSH4 0x225898C9 EQ PUSH2 0x266 JUMPI DUP1 PUSH4 0x2E735C7D EQ PUSH2 0x29E JUMPI DUP1 PUSH4 0x306ACF02 EQ PUSH2 0x2E2 JUMPI DUP1 PUSH4 0x37EBE47B EQ PUSH2 0x2F7 JUMPI DUP1 PUSH4 0x3E9491A2 EQ PUSH2 0x324 JUMPI PUSH1 0x0 DUP1 REVERT JUMPDEST CALLDATASIZE PUSH2 0x225 JUMPI CALLER PUSH1 0x0 SWAP1 DUP2 MSTORE PUSH1 0x20 DUP2 SWAP1 MSTORE PUSH1 0x40 SWAP1 KECCAK256 SLOAD PUSH2 0x1FF JUMPI PUSH1 0x40 MLOAD PUSH3 0x461BCD PUSH1 0xE5 SHL DUP2 MSTORE PUSH1 0x20 PUSH1 0x4 DUP3 ADD MSTORE PUSH1 0x16 PUSH1 0x24 DUP3 ADD MSTORE PUSH22 0x165BDD48185C99481B9BDD081C9959DA5CDD195C9959 PUSH1 0x52 SHL PUSH1 0x44 DUP3 ADD MSTORE PUSH1 0x64 ADD JUMPDEST PUSH1 0x40 MLOAD DUP1 SWAP2 SUB SWAP1 REVERT JUMPDEST CALLER PUSH1 0x0 SWAP1 DUP2 MSTORE PUSH1 0x3 PUSH1 0x20 MSTORE PUSH1 0x40 DUP2 KECCAK256 DUP1 SLOAD CALLVALUE SWAP3 SWAP1 PUSH2 0x21E SWAP1 DUP5 SWAP1 PUSH2 0x1F86 JUMP JUMPDEST SWAP1 SWAP2 SSTORE POP POP STOP JUMPDEST PUSH1 0x0 DUP1 REVERT JUMPDEST CALLVALUE DUP1 ISZERO PUSH2 0x236 JUMPI PUSH1 0x0 DUP1 REVERT JUMPDEST POP PUSH2 0x24A PUSH2 0x245 CALLDATASIZE PUSH1 0x4 PUSH2 0x1F9E JUMP JUMPDEST PUSH2 0x60B JUMP JUMPDEST PUSH1 0x40 MLOAD PUSH2 0x25D SWAP8 SWAP7 SWAP6 SWAP5 SWAP4 SWAP3 SWAP2 SWAP1 PUSH2 0x2004 JUMP JUMPDEST PUSH1 0x40 MLOAD DUP1 SWAP2 SUB SWAP1 RETURN JUMPDEST CALLVALUE DUP1 ISZERO PUSH2 0x272 JUMPI PUSH1 0x0 DUP1 REVERT JUMPDEST POP PUSH2 0x286 PUSH2 0x281 CALLDATASIZE PUSH1 0x4 PUSH2 0x1F9E JUMP JUMPDEST PUSH2 0x989 JUMP JUMPDEST PUSH1 0x40 MLOAD PUSH1 0x1 PUSH1 0x1 PUSH1 0xA0 SHL SUB SWAP1 SWAP2 AND DUP2 MSTORE PUSH1 0x20 ADD PUSH2 0x25D JUMP JUMPDEST CALLVALUE DUP1 ISZERO PUSH2 0x2AA JUMPI PUSH1 0x0 DUP1 REVERT JUMPDEST POP PUSH2 0x2D4 PUSH2 0x2B9 CALLDATASIZE PUSH1 0x4 PUSH2 0x20A4 JUMP JUMPDEST PUSH1 0x1 PUSH1 0x1 PUSH1 0xA0 SHL SUB AND PUSH1 0x0 SWAP1 DUP2 MSTORE PUSH1 0x3 PUSH1 0x20 MSTORE PUSH1 0x40 SWAP1 KECCAK256 SLOAD SWAP1 JUMP JUMPDEST PUSH1 0x40 MLOAD SWAP1 DUP2 MSTORE PUSH1 0x20 ADD PUSH2 0x25D JUMP JUMPDEST CALLVALUE DUP1 ISZERO PUSH2 0x2EE JUMPI PUSH1 0x0 DUP1 REVERT JUMPDEST POP PUSH1 0x8 SLOAD PUSH2 0x2D4 JUMP JUMPDEST CALLVALUE DUP1 ISZERO PUSH2 0x303 JUMPI PUSH1 0x0 DUP1 REVERT JUMPDEST POP PUSH2 0x2D4 PUSH2 0x312 CALLDATASIZE PUSH1 0x4 PUSH2 0x20A4 JUMP JUMPDEST PUSH1 0x3 PUSH1 0x20 MSTORE PUSH1 0x0 SWAP1 DUP2 MSTORE PUSH1 0x40 SWAP1 KECCAK256 SLOAD DUP2 JUMP JUMPDEST CALLVALUE DUP1 ISZERO PUSH2 0x330 JUMPI PUSH1 0x0 DUP1 REVERT JUMPDEST POP PUSH2 0x2D4 PUSH1 0xA SLOAD DUP2 JUMP JUMPDEST CALLVALUE DUP1 ISZERO PUSH2 0x346 JUMPI PUSH1 0x0 DUP1 REVERT JUMPDEST POP PUSH2 0x2D4 PUSH2 0x355 CALLDATASIZE PUSH1 0x4 PUSH2 0x20A4 JUMP JUMPDEST PUSH1 0x0 PUSH1 0x20 DUP2 SWAP1 MSTORE SWAP1 DUP2 MSTORE PUSH1 0x40 SWAP1 KECCAK256 SLOAD DUP2 JUMP JUMPDEST CALLVALUE DUP1 ISZERO PUSH2 0x373 JUMPI PUSH1 0x0 DUP1 REVERT JUMPDEST POP PUSH2 0x387 PUSH2 0x382 CALLDATASIZE PUSH1 0x4 PUSH2 0x20A4 JUMP JUMPDEST PUSH2 0x9B3 JUMP JUMPDEST PUSH1 0x40 MLOAD PUSH2 0x25D SWAP3 SWAP2 SWAP1 PUSH2 0x20C6 JUMP JUMPDEST CALLVALUE DUP1 ISZERO PUSH2 0x3A1 JUMPI PUSH1 0x0 DUP1 REVERT JUMPDEST POP PUSH2 0x3B5 PUSH2 0x3B0 CALLDATASIZE PUSH1 0x4 PUSH2 0x2197 JUMP JUMPDEST PUSH2 0xB7B JUMP JUMPDEST STOP JUMPDEST CALLVALUE DUP1 ISZERO PUSH2 0x3C3 JUMPI PUSH1 0x0 DUP1 REVERT JUMPDEST POP PUSH2 0x3D7 PUSH2 0x3D2 CALLDATASIZE PUSH1 0x4 PUSH2 0x1F9E JUMP JUMPDEST PUSH2 0xC6B JUMP JUMPDEST PUSH1 0x40 MLOAD PUSH2 0x25D SWAP4 SWAP3 SWAP2 SWAP1 PUSH2 0x22E7 JUMP JUMPDEST CALLVALUE DUP1 ISZERO PUSH2 0x3F2 JUMPI PUSH1 0x0 DUP1 REVERT JUMPDEST POP PUSH2 0x2D4 PUSH2 0xE1D JUMP JUMPDEST CALLVALUE DUP1 ISZERO PUSH2 0x407 JUMPI PUSH1 0x0 DUP1 REVERT JUMPDEST POP PUSH2 0x2D4 PUSH2 0x416 CALLDATASIZE PUSH1 0x4 PUSH2 0x20A4 JUMP JUMPDEST PUSH1 0x1 PUSH1 0x20 MSTORE PUSH1 0x0 SWAP1 DUP2 MSTORE PUSH1 0x40 SWAP1 KECCAK256 SLOAD DUP2 JUMP JUMPDEST CALLVALUE DUP1 ISZERO PUSH2 0x434 JUMPI PUSH1 0x0 DUP1 REVERT JUMPDEST POP PUSH1 0x9 SLOAD PUSH2 0x2D4 JUMP JUMPDEST CALLVALUE DUP1 ISZERO PUSH2 0x449 JUMPI PUSH1 0x0 DUP1 REVERT JUMPDEST POP PUSH2 0x2D4 PUSH2 0x458 CALLDATASIZE PUSH1 0x4 PUSH2 0x2325 JUMP JUMPDEST PUSH2 0xE4F JUMP JUMPDEST PUSH2 0x3B5 PUSH2 0xE80 JUMP JUMPDEST CALLVALUE DUP1 ISZERO PUSH2 0x471 JUMPI PUSH1 0x0 DUP1 REVERT JUMPDEST POP PUSH2 0x3B5 PUSH2 0x480 CALLDATASIZE PUSH1 0x4 PUSH2 0x234F JUMP JUMPDEST PUSH2 0xF73 JUMP JUMPDEST CALLVALUE DUP1 ISZERO PUSH2 0x491 JUMPI PUSH1 0x0 DUP1 REVERT JUMPDEST POP PUSH1 0xD SLOAD PUSH2 0x2D4 JUMP JUMPDEST CALLVALUE DUP1 ISZERO PUSH2 0x4A6 JUMPI PUSH1 0x0 DUP1 REVERT JUMPDEST POP PUSH2 0x4BA PUSH2 0x4B5 CALLDATASIZE PUSH1 0x4 PUSH2 0x20A4 JUMP JUMPDEST PUSH2 0x12F1 JUMP JUMPDEST PUSH1 0x40 MLOAD PUSH2 0x25D SWAP2 SWAP1 PUSH2 0x237B JUMP JUMPDEST CALLVALUE DUP1 ISZERO PUSH2 0x4D3 JUMPI PUSH1 0x0 DUP1 REVERT JUMPDEST POP PUSH2 0x3B5 PUSH2 0x4E2 CALLDATASIZE PUSH1 0x4 PUSH2 0x23BF JUMP JUMPDEST PUSH2 0x1389 JUMP JUMPDEST CALLVALUE DUP1 ISZERO PUSH2 0x4F3 JUMPI PUSH1 0x0 DUP1 REVERT JUMPDEST POP PUSH2 0x3B5 PUSH2 0x502 CALLDATASIZE PUSH1 0x4 PUSH2 0x24B4 JUMP JUMPDEST PUSH2 0x15F1 JUMP JUMPDEST CALLVALUE DUP1 ISZERO PUSH2 0x513 JUMPI PUSH1 0x0 DUP1 REVERT JUMPDEST POP PUSH2 0x2D4 PUSH2 0x1A23 JUMP JUMPDEST CALLVALUE DUP1 ISZERO PUSH2 0x528 JUMPI PUSH1 0x0 DUP1 REVERT JUMPDEST POP PUSH2 0x3B5 PUSH2 0x537 CALLDATASIZE PUSH1 0x4 PUSH2 0x1F9E JUMP JUMPDEST PUSH2 0x1A57 JUMP JUMPDEST CALLVALUE DUP1 ISZERO PUSH2 0x548 JUMPI PUSH1 0x0 DUP1 REVERT JUMPDEST POP PUSH2 0x2D4 PUSH2 0x557 CALLDATASIZE PUSH1 0x4 PUSH2 0x20A4 JUMP JUMPDEST PUSH1 0x1 PUSH1 0x1 PUSH1 0xA0 SHL SUB AND PUSH1 0x0 SWAP1 DUP2 MSTORE PUSH1 0x1 PUSH1 0x20 MSTORE PUSH1 0x40 SWAP1 KECCAK256 SLOAD SWAP1 JUMP JUMPDEST CALLVALUE DUP1 ISZERO PUSH2 0x57E JUMPI PUSH1 0x0 DUP1 REVERT JUMPDEST POP PUSH2 0x2D4 PUSH2 0x58D CALLDATASIZE PUSH1 0x4 PUSH2 0x1F9E JUMP JUMPDEST PUSH1 0x5 PUSH1 0x20 MSTORE PUSH1 0x0 SWAP1 DUP2 MSTORE PUSH1 0x40 SWAP1 KECCAK256 SLOAD DUP2 JUMP JUMPDEST CALLVALUE DUP1 ISZERO PUSH2 0x5AB JUMPI PUSH1 0x0 DUP1 REVERT JUMPDEST POP PUSH2 0x3B5 PUSH2 0x5BA CALLDATASIZE PUSH1 0x4 PUSH2 0x1F9E JUMP JUMPDEST PUSH2 0x1A86 JUMP JUMPDEST CALLVALUE DUP1 ISZERO PUSH2 0x5CB JUMPI PUSH1 0x0 DUP1 REVERT JUMPDEST POP PUSH2 0x5DF PUSH2 0x5DA CALLDATASIZE PUSH1 0x4 PUSH2 0x1F9E JUMP JUMPDEST PUSH2 0x1AB5 JUMP JUMPDEST PUSH1 0x40 MLOAD PUSH2 0x25D SWAP12 SWAP11 SWAP10 SWAP9 SWAP8 SWAP7 SWAP6 SWAP5 SWAP4 SWAP3 SWAP2 SWAP1 PUSH2 0x2510 JUMP JUMPDEST CALLVALUE DUP1 ISZERO PUSH2 0x602 JUMPI PUSH1 0x0 DUP1 REVERT JUMPDEST POP PUSH1 0xC SLOAD PUSH2 0x2D4 JUMP JUMPDEST PUSH1 0xD DUP2 DUP2 SLOAD DUP2 LT PUSH2 0x61B JUMPI PUSH1 0x0 DUP1 REVERT JUMPDEST PUSH1 0x0 SWAP2 DUP3 MSTORE PUSH1 0x20 SWAP1 SWAP2 KECCAK256 PUSH1 0x7 SWAP1 SWAP2 MUL ADD DUP1 SLOAD PUSH1 0x1 DUP3 ADD DUP1 SLOAD SWAP2 SWAP4 POP SWAP1 PUSH2 0x640 SWAP1 PUSH2 0x25C9 JUMP JUMPDEST DUP1 PUSH1 0x1F ADD PUSH1 0x20 DUP1 SWAP2 DIV MUL PUSH1 0x20 ADD PUSH1 0x40 MLOAD SWAP1 DUP2 ADD PUSH1 0x40 MSTORE DUP1 SWAP3 SWAP2 SWAP1 DUP2 DUP2 MSTORE PUSH1 0x20 ADD DUP3 DUP1 SLOAD PUSH2 0x66C SWAP1 PUSH2 0x25C9 JUMP JUMPDEST DUP1 ISZERO PUSH2 0x6B9 JUMPI DUP1 PUSH1 0x1F LT PUSH2 0x68E JUMPI PUSH2 0x100 DUP1 DUP4 SLOAD DIV MUL DUP4 MSTORE SWAP2 PUSH1 0x20 ADD SWAP2 PUSH2 0x6B9 JUMP JUMPDEST DUP3 ADD SWAP2 SWAP1 PUSH1 0x0 MSTORE PUSH1 0x20 PUSH1 0x0 KECCAK256 SWAP1 JUMPDEST DUP2 SLOAD DUP2 MSTORE SWAP1 PUSH1 0x1 ADD SWAP1 PUSH1 0x20 ADD DUP1 DUP4 GT PUSH2 0x69C JUMPI DUP3 SWAP1 SUB PUSH1 0x1F AND DUP3 ADD SWAP2 JUMPDEST POP POP POP POP POP SWAP1 DUP1 PUSH1 0x2 ADD DUP1 SLOAD PUSH2 0x6CE SWAP1 PUSH2 0x25C9 JUMP JUMPDEST DUP1 PUSH1 0x1F ADD PUSH1 0x20 DUP1 SWAP2 DIV MUL PUSH1 0x20 ADD PUSH1 0x40 MLOAD SWAP1 DUP2 ADD PUSH1 0x40 MSTORE DUP1 SWAP3 SWAP2 SWAP1 DUP2 DUP2 MSTORE PUSH1 0x20 ADD DUP3 DUP1 SLOAD PUSH2 0x6FA SWAP1 PUSH2 0x25C9 JUMP JUMPDEST DUP1 ISZERO PUSH2 0x747 JUMPI DUP1 PUSH1 0x1F LT PUSH2 0x71C JUMPI PUSH2 0x100 DUP1 DUP4 SLOAD DIV MUL DUP4 MSTORE SWAP2 PUSH1 0x20 ADD SWAP2 PUSH2 0x747 JUMP JUMPDEST DUP3 ADD SWAP2 SWAP1 PUSH1 0x0 MSTORE PUSH1 0x20 PUSH1 0x0 KECCAK256 SWAP1 JUMPDEST DUP2 SLOAD DUP2 MSTORE SWAP1 PUSH1 0x1 ADD SWAP1 PUSH1 0x20 ADD DUP1 DUP4 GT PUSH2 0x72A JUMPI DUP3 SWAP1 SUB PUSH1 0x1F AND DUP3 ADD SWAP2 JUMPDEST POP POP POP POP POP SWAP1 DUP1 PUSH1 0x3 ADD DUP1 SLOAD PUSH2 0x75C SWAP1 PUSH2 0x25C9 JUMP JUMPDEST DUP1 PUSH1 0x1F ADD PUSH1 0x20 DUP1 SWAP2 DIV MUL PUSH1 0x20 ADD PUSH1 0x40 MLOAD SWAP1 DUP2 ADD PUSH1 0x40 MSTORE DUP1 SWAP3 SWAP2 SWAP1 DUP2 DUP2 MSTORE PUSH1 0x20 ADD DUP3 DUP1 SLOAD PUSH2 0x788 SWAP1 PUSH2 0x25C9 JUMP JUMPDEST DUP1 ISZERO PUSH2 0x7D5 JUMPI DUP1 PUSH1 0x1F LT PUSH2 0x7AA JUMPI PUSH2 0x100 DUP1 DUP4 SLOAD DIV MUL DUP4 MSTORE SWAP2 PUSH1 0x20 ADD SWAP2 PUSH2 0x7D5 JUMP JUMPDEST DUP3 ADD SWAP2 SWAP1 PUSH1 0x0 MSTORE PUSH1 0x20 PUSH1 0x0 KECCAK256 SWAP1 JUMPDEST DUP2 SLOAD DUP2 MSTORE SWAP1 PUSH1 0x1 ADD SWAP1 PUSH1 0x20 ADD DUP1 DUP4 GT PUSH2 0x7B8 JUMPI DUP3 SWAP1 SUB PUSH1 0x1F AND DUP3 ADD SWAP2 JUMPDEST POP POP POP POP POP SWAP1 DUP1 PUSH1 0x4 ADD DUP1 SLOAD PUSH2 0x7EA SWAP1 PUSH2 0x25C9 JUMP JUMPDEST DUP1 PUSH1 0x1F ADD PUSH1 0x20 DUP1 SWAP2 DIV MUL PUSH1 0x20 ADD PUSH1 0x40 MLOAD SWAP1 DUP2 ADD PUSH1 0x40 MSTORE DUP1 SWAP3 SWAP2 SWAP1 DUP2 DUP2 MSTORE PUSH1 0x20 ADD DUP3 DUP1 SLOAD PUSH2 0x816 SWAP1 PUSH2 0x25C9 JUMP JUMPDEST DUP1 ISZERO PUSH2 0x863 JUMPI DUP1 PUSH1 0x1F LT PUSH2 0x838 JUMPI PUSH2 0x100 DUP1 DUP4 SLOAD DIV MUL DUP4 MSTORE SWAP2 PUSH1 0x20 ADD SWAP2 PUSH2 0x863 JUMP JUMPDEST DUP3 ADD SWAP2 SWAP1 PUSH1 0x0 MSTORE PUSH1 0x20 PUSH1 0x0 KECCAK256 SWAP1 JUMPDEST DUP2 SLOAD DUP2 MSTORE SWAP1 PUSH1 0x1 ADD SWAP1 PUSH1 0x20 ADD DUP1 DUP4 GT PUSH2 0x846 JUMPI DUP3 SWAP1 SUB PUSH1 0x1F AND DUP3 ADD SWAP2 JUMPDEST POP POP POP POP POP SWAP1 DUP1 PUSH1 0x5 ADD DUP1 SLOAD PUSH2 0x878 SWAP1 PUSH2 0x25C9 JUMP JUMPDEST DUP1 PUSH1 0x1F ADD PUSH1 0x20 DUP1 SWAP2 DIV MUL PUSH1 0x20 ADD PUSH1 0x40 MLOAD SWAP1 DUP2 ADD PUSH1 0x40 MSTORE DUP1 SWAP3 SWAP2 SWAP1 DUP2 DUP2 MSTORE PUSH1 0x20 ADD DUP3 DUP1 SLOAD PUSH2 0x8A4 SWAP1 PUSH2 0x25C9 JUMP JUMPDEST DUP1 ISZERO PUSH2 0x8F1 JUMPI DUP1 PUSH1 0x1F LT PUSH2 0x8C6 JUMPI PUSH2 0x100 DUP1 DUP4 SLOAD DIV MUL DUP4 MSTORE SWAP2 PUSH1 0x20 ADD SWAP2 PUSH2 0x8F1 JUMP JUMPDEST DUP3 ADD SWAP2 SWAP1 PUSH1 0x0 MSTORE PUSH1 0x20 PUSH1 0x0 KECCAK256 SWAP1 JUMPDEST DUP2 SLOAD DUP2 MSTORE SWAP1 PUSH1 0x1 ADD SWAP1 PUSH1 0x20 ADD DUP1 DUP4 GT PUSH2 0x8D4 JUMPI DUP3 SWAP1 SUB PUSH1 0x1F AND DUP3 ADD SWAP2 JUMPDEST POP POP POP POP POP SWAP1 DUP1 PUSH1 0x6 ADD DUP1 SLOAD PUSH2 0x906 SWAP1 PUSH2 0x25C9 JUMP JUMPDEST DUP1 PUSH1 0x1F ADD PUSH1 0x20 DUP1 SWAP2 DIV MUL PUSH1 0x20 ADD PUSH1 0x40 MLOAD SWAP1 DUP2 ADD PUSH1 0x40 MSTORE DUP1 SWAP3 SWAP2 SWAP1 DUP2 DUP2 MSTORE PUSH1 0x20 ADD DUP3 DUP1 SLOAD PUSH2 0x932 SWAP1 PUSH2 0x25C9 JUMP JUMPDEST DUP1 ISZERO PUSH2 0x97F JUMPI DUP1 PUSH1 0x1F LT PUSH2 0x954 JUMPI PUSH2 0x100 DUP1 DUP4 SLOAD DIV MUL DUP4 MSTORE SWAP2 PUSH1 0x20 ADD SWAP2 PUSH2 0x97F JUMP JUMPDEST DUP3 ADD SWAP2 SWAP1 PUSH1 0x0 MSTORE PUSH1 0x20 PUSH1 0x0 KECCAK256 SWAP1 JUMPDEST DUP2 SLOAD DUP2 MSTORE SWAP1 PUSH1 0x1 ADD SWAP1 PUSH1 0x20 ADD DUP1 DUP4 GT PUSH2 0x962 JUMPI DUP3 SWAP1 SUB PUSH1 0x1F AND DUP3 ADD SWAP2 JUMPDEST POP POP POP POP POP SWAP1 POP DUP8 JUMP JUMPDEST PUSH1 0xE DUP2 DUP2 SLOAD DUP2 LT PUSH2 0x999 JUMPI PUSH1 0x0 DUP1 REVERT JUMPDEST PUSH1 0x0 SWAP2 DUP3 MSTORE PUSH1 0x20 SWAP1 SWAP2 KECCAK256 ADD SLOAD PUSH1 0x1 PUSH1 0x1 PUSH1 0xA0 SHL SUB AND SWAP1 POP DUP2 JUMP JUMPDEST PUSH1 0xB SLOAD PUSH1 0x60 SWAP1 DUP2 SWAP1 PUSH1 0x1 PUSH1 0x1 PUSH1 0xA0 SHL SUB AND CALLER EQ PUSH2 0x9E2 JUMPI PUSH1 0x40 MLOAD PUSH3 0x461BCD PUSH1 0xE5 SHL DUP2 MSTORE PUSH1 0x4 ADD PUSH2 0x1F6 SWAP1 PUSH2 0x2604 JUMP JUMPDEST PUSH1 0x1 PUSH1 0x1 PUSH1 0xA0 SHL SUB DUP4 AND PUSH1 0x0 SWAP1 DUP2 MSTORE PUSH1 0x20 DUP2 SWAP1 MSTORE PUSH1 0x40 SWAP1 KECCAK256 SLOAD PUSH1 0xD PUSH2 0xA08 PUSH1 0x1 DUP4 PUSH2 0x262F JUMP JUMPDEST DUP2 SLOAD DUP2 LT PUSH2 0xA18 JUMPI PUSH2 0xA18 PUSH2 0x2646 JUMP JUMPDEST SWAP1 PUSH1 0x0 MSTORE PUSH1 0x20 PUSH1 0x0 KECCAK256 SWAP1 PUSH1 0x7 MUL ADD PUSH1 0x1 ADD PUSH1 0xD PUSH1 0x1 DUP4 PUSH2 0xA38 SWAP2 SWAP1 PUSH2 0x262F JUMP JUMPDEST DUP2 SLOAD DUP2 LT PUSH2 0xA48 JUMPI PUSH2 0xA48 PUSH2 0x2646 JUMP JUMPDEST SWAP1 PUSH1 0x0 MSTORE PUSH1 0x20 PUSH1 0x0 KECCAK256 SWAP1 PUSH1 0x7 MUL ADD PUSH1 0x2 ADD DUP2 DUP1 SLOAD PUSH2 0xA65 SWAP1 PUSH2 0x25C9 JUMP JUMPDEST DUP1 PUSH1 0x1F ADD PUSH1 0x20 DUP1 SWAP2 DIV MUL PUSH1 0x20 ADD PUSH1 0x40 MLOAD SWAP1 DUP2 ADD PUSH1 0x40 MSTORE DUP1 SWAP3 SWAP2 SWAP1 DUP2 DUP2 MSTORE PUSH1 0x20 ADD DUP3 DUP1 SLOAD PUSH2 0xA91 SWAP1 PUSH2 0x25C9 JUMP JUMPDEST DUP1 ISZERO PUSH2 0xADE JUMPI DUP1 PUSH1 0x1F LT PUSH2 0xAB3 JUMPI PUSH2 0x100 DUP1 DUP4 SLOAD DIV MUL DUP4 MSTORE SWAP2 PUSH1 0x20 ADD SWAP2 PUSH2 0xADE JUMP JUMPDEST DUP3 ADD SWAP2 SWAP1 PUSH1 0x0 MSTORE PUSH1 0x20 PUSH1 0x0 KECCAK256 SWAP1 JUMPDEST DUP2 SLOAD DUP2 MSTORE SWAP1 PUSH1 0x1 ADD SWAP1 PUSH1 0x20 ADD DUP1 DUP4 GT PUSH2 0xAC1 JUMPI DUP3 SWAP1 SUB PUSH1 0x1F AND DUP3 ADD SWAP2 JUMPDEST POP POP POP POP POP SWAP2 POP DUP1 DUP1 SLOAD PUSH2 0xAF1 SWAP1 PUSH2 0x25C9 JUMP JUMPDEST DUP1 PUSH1 0x1F ADD PUSH1 0x20 DUP1 SWAP2 DIV MUL PUSH1 0x20 ADD PUSH1 0x40 MLOAD SWAP1 DUP2 ADD PUSH1 0x40 MSTORE DUP1 SWAP3 SWAP2 SWAP1 DUP2 DUP2 MSTORE PUSH1 0x20 ADD DUP3 DUP1 SLOAD PUSH2 0xB1D SWAP1 PUSH2 0x25C9 JUMP JUMPDEST DUP1 ISZERO PUSH2 0xB6A JUMPI DUP1 PUSH1 0x1F LT PUSH2 0xB3F JUMPI PUSH2 0x100 DUP1 DUP4 SLOAD DIV MUL DUP4 MSTORE SWAP2 PUSH1 0x20 ADD SWAP2 PUSH2 0xB6A JUMP JUMPDEST DUP3 ADD SWAP2 SWAP1 PUSH1 0x0 MSTORE PUSH1 0x20 PUSH1 0x0 KECCAK256 SWAP1 JUMPDEST DUP2 SLOAD DUP2 MSTORE SWAP1 PUSH1 0x1 ADD SWAP1 PUSH1 0x20 ADD DUP1 DUP4 GT PUSH2 0xB4D JUMPI DUP3 SWAP1 SUB PUSH1 0x1F AND DUP3 ADD SWAP2 JUMPDEST POP POP POP POP POP SWAP1 POP SWAP3 POP SWAP3 POP POP SWAP2 POP SWAP2 JUMP JUMPDEST PUSH1 0x0 PUSH1 0xC PUSH2 0xB8A PUSH1 0x1 DUP15 PUSH2 0x262F JUMP JUMPDEST DUP2 SLOAD DUP2 LT PUSH2 0xB9A JUMPI PUSH2 0xB9A PUSH2 0x2646 JUMP JUMPDEST PUSH1 0x0 SWAP2 DUP3 MSTORE PUSH1 0x20 SWAP2 DUP3 SWAP1 KECCAK256 PUSH1 0x1 PUSH1 0xB SWAP1 SWAP3 MUL ADD SWAP1 DUP2 ADD DUP14 SWAP1 SSTORE PUSH1 0x2 DUP2 ADD DUP13 SWAP1 SSTORE PUSH1 0x3 DUP2 ADD DUP12 SWAP1 SSTORE DUP10 MLOAD SWAP1 SWAP3 POP PUSH2 0xBD8 SWAP2 PUSH1 0x4 DUP5 ADD SWAP2 SWAP1 DUP12 ADD SWAP1 PUSH2 0x1ED7 JUMP JUMPDEST POP DUP7 MLOAD PUSH2 0xBEE SWAP1 PUSH1 0x5 DUP4 ADD SWAP1 PUSH1 0x20 DUP11 ADD SWAP1 PUSH2 0x1ED7 JUMP JUMPDEST POP DUP6 MLOAD PUSH2 0xC04 SWAP1 PUSH1 0x6 DUP4 ADD SWAP1 PUSH1 0x20 DUP10 ADD SWAP1 PUSH2 0x1ED7 JUMP JUMPDEST POP DUP5 MLOAD PUSH2 0xC1A SWAP1 PUSH1 0x7 DUP4 ADD SWAP1 PUSH1 0x20 DUP9 ADD SWAP1 PUSH2 0x1ED7 JUMP JUMPDEST POP DUP4 MLOAD PUSH2 0xC30 SWAP1 PUSH1 0x8 DUP4 ADD SWAP1 PUSH1 0x20 DUP8 ADD SWAP1 PUSH2 0x1ED7 JUMP JUMPDEST POP DUP3 MLOAD PUSH2 0xC46 SWAP1 PUSH1 0x9 DUP4 ADD SWAP1 PUSH1 0x20 DUP7 ADD SWAP1 PUSH2 0x1ED7 JUMP JUMPDEST POP DUP2 MLOAD PUSH2 0xC5C SWAP1 PUSH1 0xA DUP4 ADD SWAP1 PUSH1 0x20 DUP6 ADD SWAP1 PUSH2 0x1ED7 JUMP JUMPDEST POP POP POP POP POP POP POP POP POP POP POP POP POP JUMP JUMPDEST PUSH1 0x0 DUP2 DUP2 MSTORE PUSH1 0x2 PUSH1 0x20 SWAP1 DUP2 MSTORE PUSH1 0x40 DUP1 DUP4 KECCAK256 SLOAD PUSH1 0x1 PUSH1 0x1 PUSH1 0xA0 SHL SUB AND DUP1 DUP5 MSTORE SWAP2 DUP4 SWAP1 MSTORE DUP3 KECCAK256 SLOAD PUSH1 0x60 SWAP3 DUP4 SWAP3 SWAP1 SWAP2 PUSH1 0xD PUSH2 0xCA4 PUSH1 0x1 DUP4 PUSH2 0x262F JUMP JUMPDEST DUP2 SLOAD DUP2 LT PUSH2 0xCB4 JUMPI PUSH2 0xCB4 PUSH2 0x2646 JUMP JUMPDEST SWAP1 PUSH1 0x0 MSTORE PUSH1 0x20 PUSH1 0x0 KECCAK256 SWAP1 PUSH1 0x7 MUL ADD PUSH1 0x1 ADD PUSH1 0xD PUSH1 0x1 DUP4 PUSH2 0xCD4 SWAP2 SWAP1 PUSH2 0x262F JUMP JUMPDEST DUP2 SLOAD DUP2 LT PUSH2 0xCE4 JUMPI PUSH2 0xCE4 PUSH2 0x2646 JUMP JUMPDEST SWAP1 PUSH1 0x0 MSTORE PUSH1 0x20 PUSH1 0x0 KECCAK256 SWAP1 PUSH1 0x7 MUL ADD PUSH1 0x2 ADD DUP4 DUP3 DUP1 SLOAD PUSH2 0xD02 SWAP1 PUSH2 0x25C9 JUMP JUMPDEST DUP1 PUSH1 0x1F ADD PUSH1 0x20 DUP1 SWAP2 DIV MUL PUSH1 0x20 ADD PUSH1 0x40 MLOAD SWAP1 DUP2 ADD PUSH1 0x40 MSTORE DUP1 SWAP3 SWAP2 SWAP1 DUP2 DUP2 MSTORE PUSH1 0x20 ADD DUP3 DUP1 SLOAD PUSH2 0xD2E SWAP1 PUSH2 0x25C9 JUMP JUMPDEST DUP1 ISZERO PUSH2 0xD7B JUMPI DUP1 PUSH1 0x1F LT PUSH2 0xD50 JUMPI PUSH2 0x100 DUP1 DUP4 SLOAD DIV MUL DUP4 MSTORE SWAP2 PUSH1 0x20 ADD SWAP2 PUSH2 0xD7B JUMP JUMPDEST DUP3 ADD SWAP2 SWAP1 PUSH1 0x0 MSTORE PUSH1 0x20 PUSH1 0x0 KECCAK256 SWAP1 JUMPDEST DUP2 SLOAD DUP2 MSTORE SWAP1 PUSH1 0x1 ADD SWAP1 PUSH1 0x20 ADD DUP1 DUP4 GT PUSH2 0xD5E JUMPI DUP3 SWAP1 SUB PUSH1 0x1F AND DUP3 ADD SWAP2 JUMPDEST POP POP POP POP POP SWAP3 POP DUP2 DUP1 SLOAD PUSH2 0xD8E SWAP1 PUSH2 0x25C9 JUMP JUMPDEST DUP1 PUSH1 0x1F ADD PUSH1 0x20 DUP1 SWAP2 DIV MUL PUSH1 0x20 ADD PUSH1 0x40 MLOAD SWAP1 DUP2 ADD PUSH1 0x40 MSTORE DUP1 SWAP3 SWAP2 SWAP1 DUP2 DUP2 MSTORE PUSH1 0x20 ADD DUP3 DUP1 SLOAD PUSH2 0xDBA SWAP1 PUSH2 0x25C9 JUMP JUMPDEST DUP1 ISZERO PUSH2 0xE07 JUMPI DUP1 PUSH1 0x1F LT PUSH2 0xDDC JUMPI PUSH2 0x100 DUP1 DUP4 SLOAD DIV MUL DUP4 MSTORE SWAP2 PUSH1 0x20 ADD SWAP2 PUSH2 0xE07 JUMP JUMPDEST DUP3 ADD SWAP2 SWAP1 PUSH1 0x0 MSTORE PUSH1 0x20 PUSH1 0x0 KECCAK256 SWAP1 JUMPDEST DUP2 SLOAD DUP2 MSTORE SWAP1 PUSH1 0x1 ADD SWAP1 PUSH1 0x20 ADD DUP1 DUP4 GT PUSH2 0xDEA JUMPI DUP3 SWAP1 SUB PUSH1 0x1F AND DUP3 ADD SWAP2 JUMPDEST POP POP POP POP POP SWAP2 POP SWAP5 POP SWAP5 POP SWAP5 POP POP POP SWAP2 SWAP4 SWAP1 SWAP3 POP JUMP JUMPDEST PUSH1 0xB SLOAD PUSH1 0x0 SWAP1 PUSH1 0x1 PUSH1 0x1 PUSH1 0xA0 SHL SUB AND CALLER EQ PUSH2 0xE4A JUMPI PUSH1 0x40 MLOAD PUSH3 0x461BCD PUSH1 0xE5 SHL DUP2 MSTORE PUSH1 0x4 ADD PUSH2 0x1F6 SWAP1 PUSH2 0x2604 JUMP JUMPDEST POP SELFBALANCE SWAP1 JUMP JUMPDEST PUSH1 0x4 PUSH1 0x20 MSTORE DUP2 PUSH1 0x0 MSTORE PUSH1 0x40 PUSH1 0x0 KECCAK256 DUP2 DUP2 SLOAD DUP2 LT PUSH2 0xE6B JUMPI PUSH1 0x0 DUP1 REVERT JUMPDEST SWAP1 PUSH1 0x0 MSTORE PUSH1 0x20 PUSH1 0x0 KECCAK256 ADD PUSH1 0x0 SWAP2 POP SWAP2 POP POP SLOAD DUP2 JUMP JUMPDEST PUSH1 0xB SLOAD PUSH1 0x1 PUSH1 0x1 PUSH1 0xA0 SHL SUB AND CALLER EQ PUSH2 0xEAA JUMPI PUSH1 0x40 MLOAD PUSH3 0x461BCD PUSH1 0xE5 SHL DUP2 MSTORE PUSH1 0x4 ADD PUSH2 0x1F6 SWAP1 PUSH2 0x2604 JUMP JUMPDEST PUSH1 0xB SLOAD PUSH1 0x1 PUSH1 0x1 PUSH1 0xA0 SHL SUB AND PUSH1 0xA SELFBALANCE GT PUSH2 0xEC3 JUMPI PUSH1 0x0 DUP1 REVERT JUMPDEST PUSH1 0x0 PUSH1 0xA DUP1 SLOAD PUSH2 0xED3 SWAP2 SWAP1 PUSH2 0x262F JUMP JUMPDEST PUSH1 0xA DUP1 SSTORE PUSH1 0x40 MLOAD SWAP1 SWAP2 POP PUSH1 0x0 SWAP1 PUSH1 0x1 PUSH1 0x1 PUSH1 0xA0 SHL SUB DUP5 AND SWAP1 DUP4 SWAP1 DUP4 DUP2 DUP2 DUP2 DUP6 DUP8 GAS CALL SWAP3 POP POP POP RETURNDATASIZE DUP1 PUSH1 0x0 DUP2 EQ PUSH2 0xF25 JUMPI PUSH1 0x40 MLOAD SWAP2 POP PUSH1 0x1F NOT PUSH1 0x3F RETURNDATASIZE ADD AND DUP3 ADD PUSH1 0x40 MSTORE RETURNDATASIZE DUP3 MSTORE RETURNDATASIZE PUSH1 0x0 PUSH1 0x20 DUP5 ADD RETURNDATACOPY PUSH2 0xF2A JUMP JUMPDEST PUSH1 0x60 SWAP2 POP JUMPDEST POP POP SWAP1 POP DUP1 PUSH2 0xF6E JUMPI PUSH1 0x40 MLOAD PUSH3 0x461BCD PUSH1 0xE5 SHL DUP2 MSTORE PUSH1 0x20 PUSH1 0x4 DUP3 ADD MSTORE PUSH1 0x10 PUSH1 0x24 DUP3 ADD MSTORE PUSH16 0x2A3930B739B332B9103330B4B632B217 PUSH1 0x81 SHL PUSH1 0x44 DUP3 ADD MSTORE PUSH1 0x64 ADD PUSH2 0x1F6 JUMP JUMPDEST POP POP POP JUMP JUMPDEST PUSH1 0x0 DUP3 DUP2 MSTORE PUSH1 0x2 PUSH1 0x20 MSTORE PUSH1 0x40 SWAP1 KECCAK256 SLOAD PUSH1 0x1 PUSH1 0x1 PUSH1 0xA0 SHL SUB AND CALLER EQ PUSH2 0x1018 JUMPI PUSH1 0x40 MLOAD PUSH3 0x461BCD PUSH1 0xE5 SHL DUP2 MSTORE PUSH1 0x20 PUSH1 0x4 DUP3 ADD MSTORE PUSH1 0x50 PUSH1 0x24 DUP3 ADD MSTORE PUSH32 0x4F6E6C79204F776E6572732063616E207472616E736665722070726F70657274 PUSH1 0x44 DUP3 ADD MSTORE PUSH32 0x792E20576520646F206E6F74206861766520796F75206173206F776E6572206F PUSH1 0x64 DUP3 ADD MSTORE PUSH16 0x33103A3434B990383937B832B93A3C97 PUSH1 0x81 SHL PUSH1 0x84 DUP3 ADD MSTORE PUSH1 0xA4 ADD PUSH2 0x1F6 JUMP JUMPDEST PUSH1 0x9 SLOAD PUSH1 0x1 PUSH1 0x1 PUSH1 0xA0 SHL SUB DUP3 AND PUSH1 0x0 SWAP1 DUP2 MSTORE PUSH1 0x3 PUSH1 0x20 MSTORE PUSH1 0x40 SWAP1 KECCAK256 SLOAD LT ISZERO PUSH2 0x10A8 JUMPI PUSH1 0x40 MLOAD PUSH3 0x461BCD PUSH1 0xE5 SHL DUP2 MSTORE PUSH1 0x20 PUSH1 0x4 DUP3 ADD MSTORE PUSH1 0x37 PUSH1 0x24 DUP3 ADD MSTORE PUSH32 0x42616C616E6365206F662061206E6577206F776E657220697320746F6F206C6F PUSH1 0x44 DUP3 ADD MSTORE PUSH32 0x7720746F207472616E736665722070726F70657274792E000000000000000000 PUSH1 0x64 DUP3 ADD MSTORE PUSH1 0x84 ADD PUSH2 0x1F6 JUMP JUMPDEST PUSH1 0x1 PUSH1 0x1 PUSH1 0xA0 SHL SUB DUP2 AND PUSH1 0x0 SWAP1 DUP2 MSTORE PUSH1 0x20 DUP2 SWAP1 MSTORE PUSH1 0x40 SWAP1 KECCAK256 SLOAD PUSH2 0x110D JUMPI PUSH1 0x40 MLOAD PUSH3 0x461BCD PUSH1 0xE5 SHL DUP2 MSTORE PUSH1 0x20 PUSH1 0x4 DUP3 ADD MSTORE PUSH1 0x1B PUSH1 0x24 DUP3 ADD MSTORE PUSH32 0x4E6577206F776E6572206973206E6F7420726567697374657265640000000000 PUSH1 0x44 DUP3 ADD MSTORE PUSH1 0x64 ADD PUSH2 0x1F6 JUMP JUMPDEST PUSH1 0x0 DUP3 DUP2 MSTORE PUSH1 0x2 PUSH1 0x20 SWAP1 DUP2 MSTORE PUSH1 0x40 DUP1 DUP4 KECCAK256 DUP1 SLOAD PUSH1 0x1 PUSH1 0x1 PUSH1 0xA0 SHL SUB NOT AND PUSH1 0x1 PUSH1 0x1 PUSH1 0xA0 SHL SUB DUP7 AND OR SWAP1 SSTORE CALLER DUP4 MSTORE PUSH1 0x4 SWAP1 SWAP2 MSTORE SWAP1 KECCAK256 DUP1 SLOAD PUSH2 0x114F SWAP1 PUSH1 0x1 SWAP1 PUSH2 0x262F JUMP JUMPDEST DUP2 SLOAD DUP2 LT PUSH2 0x115F JUMPI PUSH2 0x115F PUSH2 0x2646 JUMP JUMPDEST PUSH1 0x0 SWAP2 DUP3 MSTORE PUSH1 0x20 DUP1 DUP4 KECCAK256 SWAP1 SWAP2 ADD SLOAD CALLER DUP4 MSTORE PUSH1 0x4 DUP3 MSTORE PUSH1 0x40 DUP1 DUP5 KECCAK256 PUSH1 0x7 SLOAD DUP6 MSTORE PUSH1 0x5 SWAP1 SWAP4 MSTORE SWAP1 SWAP3 KECCAK256 SLOAD DUP2 SLOAD DUP2 LT PUSH2 0x1197 JUMPI PUSH2 0x1197 PUSH2 0x2646 JUMP JUMPDEST PUSH1 0x0 SWAP2 DUP3 MSTORE PUSH1 0x20 DUP1 DUP4 KECCAK256 SWAP1 SWAP2 ADD SWAP3 SWAP1 SWAP3 SSTORE CALLER DUP2 MSTORE PUSH1 0x4 SWAP1 SWAP2 MSTORE PUSH1 0x40 SWAP1 KECCAK256 DUP1 SLOAD DUP1 PUSH2 0x11C3 JUMPI PUSH2 0x11C3 PUSH2 0x265C JUMP JUMPDEST PUSH1 0x0 DUP3 DUP2 MSTORE PUSH1 0x20 DUP1 DUP3 KECCAK256 DUP4 ADD PUSH1 0x0 NOT SWAP1 DUP2 ADD DUP4 SWAP1 SSTORE SWAP1 SWAP3 ADD SWAP1 SWAP3 SSTORE PUSH1 0x1 PUSH1 0x1 PUSH1 0xA0 SHL SUB DUP4 AND DUP1 DUP4 MSTORE PUSH1 0x4 DUP3 MSTORE PUSH1 0x40 DUP1 DUP5 KECCAK256 DUP1 SLOAD PUSH1 0x1 DUP2 DUP2 ADD DUP4 SSTORE SWAP2 DUP7 MSTORE DUP5 DUP7 KECCAK256 ADD DUP8 SWAP1 SSTORE SWAP2 DUP5 MSTORE SWAP2 MSTORE DUP2 KECCAK256 DUP1 SLOAD SWAP2 PUSH2 0x121A DUP4 PUSH2 0x2672 JUMP JUMPDEST SWAP1 SWAP2 SSTORE POP POP PUSH1 0x1 PUSH1 0x1 PUSH1 0xA0 SHL SUB DUP2 AND PUSH1 0x0 SWAP1 DUP2 MSTORE PUSH1 0x1 PUSH1 0x20 DUP2 DUP2 MSTORE PUSH1 0x40 DUP1 DUP5 KECCAK256 SLOAD PUSH1 0x7 SLOAD DUP6 MSTORE PUSH1 0x5 DUP4 MSTORE DUP2 DUP6 KECCAK256 SSTORE CALLER DUP5 MSTORE SWAP2 SWAP1 MSTORE DUP2 KECCAK256 DUP1 SLOAD SWAP2 PUSH2 0x125C DUP4 PUSH2 0x268D JUMP JUMPDEST SWAP1 SWAP2 SSTORE POP POP PUSH1 0x40 DUP1 MLOAD PUSH1 0x1 PUSH1 0x1 PUSH1 0xA0 SHL SUB DUP4 AND DUP2 MSTORE PUSH1 0x20 DUP2 ADD DUP5 SWAP1 MSTORE PUSH32 0xBF0996050D830A4094913360F3ACA6A3D35DC19FBDA52E1F983F5E1E3C5F8F2D SWAP2 ADD PUSH1 0x40 MLOAD DUP1 SWAP2 SUB SWAP1 LOG1 PUSH1 0x9 SLOAD PUSH1 0x1 PUSH1 0x1 PUSH1 0xA0 SHL SUB DUP3 AND PUSH1 0x0 SWAP1 DUP2 MSTORE PUSH1 0x3 PUSH1 0x20 MSTORE PUSH1 0x40 DUP2 KECCAK256 DUP1 SLOAD SWAP1 SWAP2 SWAP1 PUSH2 0x12CE SWAP1 DUP5 SWAP1 PUSH2 0x262F JUMP JUMPDEST SWAP1 SWAP2 SSTORE POP POP PUSH1 0x9 SLOAD PUSH1 0xA DUP1 SLOAD PUSH1 0x0 SWAP1 PUSH2 0x12E8 SWAP1 DUP5 SWAP1 PUSH2 0x1F86 JUMP JUMPDEST SWAP1 SWAP2 SSTORE POP POP POP POP JUMP JUMPDEST PUSH1 0xB SLOAD PUSH1 0x60 SWAP1 PUSH1 0x1 PUSH1 0x1 PUSH1 0xA0 SHL SUB AND CALLER EQ PUSH2 0x131E JUMPI PUSH1 0x40 MLOAD PUSH3 0x461BCD PUSH1 0xE5 SHL DUP2 MSTORE PUSH1 0x4 ADD PUSH2 0x1F6 SWAP1 PUSH2 0x2604 JUMP JUMPDEST PUSH1 0x1 PUSH1 0x1 PUSH1 0xA0 SHL SUB DUP3 AND PUSH1 0x0 SWAP1 DUP2 MSTORE PUSH1 0x4 PUSH1 0x20 SWAP1 DUP2 MSTORE PUSH1 0x40 SWAP2 DUP3 SWAP1 KECCAK256 DUP1 SLOAD DUP4 MLOAD DUP2 DUP5 MUL DUP2 ADD DUP5 ADD SWAP1 SWAP5 MSTORE DUP1 DUP5 MSTORE SWAP1 SWAP2 DUP4 ADD DUP3 DUP3 DUP1 ISZERO PUSH2 0x137C JUMPI PUSH1 0x20 MUL DUP3 ADD SWAP2 SWAP1 PUSH1 0x0 MSTORE PUSH1 0x20 PUSH1 0x0 KECCAK256 SWAP1 JUMPDEST DUP2 SLOAD DUP2 MSTORE PUSH1 0x20 ADD SWAP1 PUSH1 0x1 ADD SWAP1 DUP1 DUP4 GT PUSH2 0x1368 JUMPI JUMPDEST POP POP POP POP POP SWAP1 POP JUMPDEST SWAP2 SWAP1 POP JUMP JUMPDEST CALLER PUSH1 0x0 SWAP1 DUP2 MSTORE PUSH1 0x20 DUP2 SWAP1 MSTORE PUSH1 0x40 SWAP1 KECCAK256 SLOAD ISZERO PUSH2 0x13E6 JUMPI PUSH1 0x40 MLOAD PUSH3 0x461BCD PUSH1 0xE5 SHL DUP2 MSTORE PUSH1 0x20 PUSH1 0x4 DUP3 ADD MSTORE PUSH1 0x1E PUSH1 0x24 DUP3 ADD MSTORE PUSH32 0x4164647265737320697320616C726561647920726567697374657265642E0000 PUSH1 0x44 DUP3 ADD MSTORE PUSH1 0x64 ADD PUSH2 0x1F6 JUMP JUMPDEST PUSH1 0x40 DUP1 MLOAD PUSH1 0xE0 DUP2 ADD DUP3 MSTORE PUSH1 0x6 SLOAD DUP2 MSTORE PUSH1 0x20 DUP1 DUP3 ADD DUP10 DUP2 MSTORE SWAP3 DUP3 ADD DUP9 SWAP1 MSTORE PUSH1 0x60 DUP3 ADD DUP8 SWAP1 MSTORE PUSH1 0x80 DUP3 ADD DUP7 SWAP1 MSTORE PUSH1 0xA0 DUP3 ADD DUP6 SWAP1 MSTORE PUSH1 0xC0 DUP3 ADD DUP5 SWAP1 MSTORE PUSH1 0xD DUP1 SLOAD PUSH1 0x1 DUP2 ADD DUP3 SSTORE PUSH1 0x0 SWAP2 SWAP1 SWAP2 MSTORE DUP3 MLOAD PUSH1 0x7 SWAP1 SWAP2 MUL PUSH32 0xD7B6990105719101DABEB77144F2A3385C8033ACD3AF97E9423A695E81AD1EB5 DUP2 ADD SWAP2 DUP3 SSTORE SWAP4 MLOAD DUP1 MLOAD SWAP4 SWAP5 SWAP2 SWAP4 PUSH2 0x1497 SWAP4 PUSH32 0xD7B6990105719101DABEB77144F2A3385C8033ACD3AF97E9423A695E81AD1EB6 SWAP1 SWAP4 ADD SWAP3 SWAP2 SWAP1 SWAP2 ADD SWAP1 PUSH2 0x1ED7 JUMP JUMPDEST POP PUSH1 0x40 DUP3 ADD MLOAD DUP1 MLOAD PUSH2 0x14B3 SWAP2 PUSH1 0x2 DUP5 ADD SWAP2 PUSH1 0x20 SWAP1 SWAP2 ADD SWAP1 PUSH2 0x1ED7 JUMP JUMPDEST POP PUSH1 0x60 DUP3 ADD MLOAD DUP1 MLOAD PUSH2 0x14CF SWAP2 PUSH1 0x3 DUP5 ADD SWAP2 PUSH1 0x20 SWAP1 SWAP2 ADD SWAP1 PUSH2 0x1ED7 JUMP JUMPDEST POP PUSH1 0x80 DUP3 ADD MLOAD DUP1 MLOAD PUSH2 0x14EB SWAP2 PUSH1 0x4 DUP5 ADD SWAP2 PUSH1 0x20 SWAP1 SWAP2 ADD SWAP1 PUSH2 0x1ED7 JUMP JUMPDEST POP PUSH1 0xA0 DUP3 ADD MLOAD DUP1 MLOAD PUSH2 0x1507 SWAP2 PUSH1 0x5 DUP5 ADD SWAP2 PUSH1 0x20 SWAP1 SWAP2 ADD SWAP1 PUSH2 0x1ED7 JUMP JUMPDEST POP PUSH1 0xC0 DUP3 ADD MLOAD DUP1 MLOAD PUSH2 0x1523 SWAP2 PUSH1 0x6 DUP5 ADD SWAP2 PUSH1 0x20 SWAP1 SWAP2 ADD SWAP1 PUSH2 0x1ED7 JUMP JUMPDEST POP POP PUSH1 0xE DUP1 SLOAD PUSH1 0x1 DUP2 ADD DUP3 SSTORE PUSH1 0x0 SWAP2 SWAP1 SWAP2 MSTORE PUSH32 0xBB7B4A454DC3493923482F07822329ED19E8244EFF582CC204F8554C3620C3FD ADD DUP1 SLOAD PUSH1 0x1 PUSH1 0x1 PUSH1 0xA0 SHL SUB NOT AND CALLER SWAP1 DUP2 OR SWAP1 SWAP2 SSTORE PUSH1 0x6 SLOAD PUSH1 0x40 MLOAD PUSH32 0xA77DAB45C413501C01E68E486BA7B3713C4FBB1D6140CD3F949CD709CEE6F113 SWAP4 POP PUSH2 0x15AA SWAP3 SWAP2 SWAP1 DUP11 SWAP1 DUP11 SWAP1 DUP11 SWAP1 DUP11 SWAP1 DUP11 SWAP1 DUP11 SWAP1 PUSH2 0x26A4 JUMP JUMPDEST PUSH1 0x40 MLOAD DUP1 SWAP2 SUB SWAP1 LOG1 PUSH1 0x6 DUP1 SLOAD CALLER PUSH1 0x0 SWAP1 DUP2 MSTORE PUSH1 0x20 DUP2 SWAP1 MSTORE PUSH1 0x40 DUP2 KECCAK256 DUP3 SWAP1 SSTORE SWAP1 SWAP2 SWAP1 PUSH2 0x15D4 DUP4 PUSH2 0x2672 JUMP JUMPDEST SWAP1 SWAP2 SSTORE POP POP CALLER PUSH1 0x0 SWAP1 DUP2 MSTORE PUSH1 0x3 PUSH1 0x20 MSTORE PUSH1 0x40 DUP2 KECCAK256 SSTORE POP POP POP POP POP POP JUMP JUMPDEST PUSH1 0xB SLOAD PUSH1 0x1 PUSH1 0x1 PUSH1 0xA0 SHL SUB AND CALLER EQ PUSH2 0x161B JUMPI PUSH1 0x40 MLOAD PUSH3 0x461BCD PUSH1 0xE5 SHL DUP2 MSTORE PUSH1 0x4 ADD PUSH2 0x1F6 SWAP1 PUSH2 0x2604 JUMP JUMPDEST PUSH1 0x8 SLOAD PUSH1 0x1 PUSH1 0x1 PUSH1 0xA0 SHL SUB DUP13 AND PUSH1 0x0 SWAP1 DUP2 MSTORE PUSH1 0x3 PUSH1 0x20 MSTORE PUSH1 0x40 SWAP1 KECCAK256 SLOAD LT ISZERO PUSH2 0x16C3 JUMPI PUSH1 0x40 MLOAD PUSH3 0x461BCD PUSH1 0xE5 SHL DUP2 MSTORE PUSH1 0x20 PUSH1 0x4 DUP3 ADD MSTORE PUSH1 0x4F PUSH1 0x24 DUP3 ADD MSTORE PUSH32 0x42616C616E636520746F6F206C6F7720746F2072656769737465722070726F70 PUSH1 0x44 DUP3 ADD MSTORE PUSH32 0x657274792E20506C6561736520696E63726561736520796F75722062616C616E PUSH1 0x64 DUP3 ADD MSTORE PUSH15 0x31B29013103A393C9030B3B0B4B717 PUSH1 0x89 SHL PUSH1 0x84 DUP3 ADD MSTORE PUSH1 0xA4 ADD PUSH2 0x1F6 JUMP JUMPDEST PUSH1 0x40 DUP1 MLOAD PUSH2 0x160 DUP2 ADD DUP3 MSTORE PUSH1 0x7 SLOAD DUP2 MSTORE PUSH1 0x20 DUP1 DUP3 ADD DUP14 DUP2 MSTORE SWAP3 DUP3 ADD DUP13 DUP2 MSTORE PUSH1 0x60 DUP4 ADD DUP13 DUP2 MSTORE PUSH1 0x80 DUP5 ADD DUP13 DUP2 MSTORE PUSH1 0xA0 DUP6 ADD DUP13 SWAP1 MSTORE PUSH1 0xC0 DUP6 ADD DUP12 SWAP1 MSTORE PUSH1 0xE0 DUP6 ADD DUP11 SWAP1 MSTORE PUSH2 0x100 DUP6 ADD DUP10 SWAP1 MSTORE PUSH2 0x120 DUP6 ADD DUP9 SWAP1 MSTORE PUSH2 0x140 DUP6 ADD DUP8 SWAP1 MSTORE PUSH1 0xC DUP1 SLOAD PUSH1 0x1 DUP2 ADD DUP3 SSTORE PUSH1 0x0 SWAP2 SWAP1 SWAP2 MSTORE DUP6 MLOAD PUSH1 0xB SWAP1 SWAP2 MUL PUSH32 0xDF6966C971051C3D54EC59162606531493A51404A002842F56009D7E5CF4A8C7 DUP2 ADD SWAP2 DUP3 SSTORE SWAP7 MLOAD PUSH32 0xDF6966C971051C3D54EC59162606531493A51404A002842F56009D7E5CF4A8C8 DUP9 ADD SSTORE SWAP3 MLOAD PUSH32 0xDF6966C971051C3D54EC59162606531493A51404A002842F56009D7E5CF4A8C9 DUP8 ADD SSTORE SWAP1 MLOAD PUSH32 0xDF6966C971051C3D54EC59162606531493A51404A002842F56009D7E5CF4A8CA DUP7 ADD SSTORE MLOAD DUP1 MLOAD SWAP4 SWAP5 SWAP2 SWAP4 PUSH2 0x1805 SWAP4 PUSH32 0xDF6966C971051C3D54EC59162606531493A51404A002842F56009D7E5CF4A8CB SWAP1 SWAP4 ADD SWAP3 SWAP2 SWAP1 SWAP2 ADD SWAP1 PUSH2 0x1ED7 JUMP JUMPDEST POP PUSH1 0xA0 DUP3 ADD MLOAD DUP1 MLOAD PUSH2 0x1821 SWAP2 PUSH1 0x5 DUP5 ADD SWAP2 PUSH1 0x20 SWAP1 SWAP2 ADD SWAP1 PUSH2 0x1ED7 JUMP JUMPDEST POP PUSH1 0xC0 DUP3 ADD MLOAD DUP1 MLOAD PUSH2 0x183D SWAP2 PUSH1 0x6 DUP5 ADD SWAP2 PUSH1 0x20 SWAP1 SWAP2 ADD SWAP1 PUSH2 0x1ED7 JUMP JUMPDEST POP PUSH1 0xE0 DUP3 ADD MLOAD DUP1 MLOAD PUSH2 0x1859 SWAP2 PUSH1 0x7 DUP5 ADD SWAP2 PUSH1 0x20 SWAP1 SWAP2 ADD SWAP1 PUSH2 0x1ED7 JUMP JUMPDEST POP PUSH2 0x100 DUP3 ADD MLOAD DUP1 MLOAD PUSH2 0x1876 SWAP2 PUSH1 0x8 DUP5 ADD SWAP2 PUSH1 0x20 SWAP1 SWAP2 ADD SWAP1 PUSH2 0x1ED7 JUMP JUMPDEST POP PUSH2 0x120 DUP3 ADD MLOAD DUP1 MLOAD PUSH2 0x1893 SWAP2 PUSH1 0x9 DUP5 ADD SWAP2 PUSH1 0x20 SWAP1 SWAP2 ADD SWAP1 PUSH2 0x1ED7 JUMP JUMPDEST POP PUSH2 0x140 DUP3 ADD MLOAD DUP1 MLOAD PUSH2 0x18B0 SWAP2 PUSH1 0xA DUP5 ADD SWAP2 PUSH1 0x20 SWAP1 SWAP2 ADD SWAP1 PUSH2 0x1ED7 JUMP JUMPDEST POP POP POP PUSH32 0x7A320318F8DDFE7528CB7B0A1FDAF9466F7FD11A31F4D72ED4C96A07624589D9 PUSH1 0x7 SLOAD DUP12 DUP12 DUP12 DUP12 DUP12 DUP12 DUP12 DUP12 DUP12 DUP12 PUSH1 0x40 MLOAD PUSH2 0x18F8 SWAP12 SWAP11 SWAP10 SWAP9 SWAP8 SWAP7 SWAP6 SWAP5 SWAP4 SWAP3 SWAP2 SWAP1 PUSH2 0x2510 JUMP JUMPDEST PUSH1 0x40 MLOAD DUP1 SWAP2 SUB SWAP1 LOG1 DUP11 PUSH1 0x2 PUSH1 0x0 PUSH1 0x7 SLOAD DUP2 MSTORE PUSH1 0x20 ADD SWAP1 DUP2 MSTORE PUSH1 0x20 ADD PUSH1 0x0 KECCAK256 PUSH1 0x0 PUSH2 0x100 EXP DUP2 SLOAD DUP2 PUSH1 0x1 PUSH1 0x1 PUSH1 0xA0 SHL SUB MUL NOT AND SWAP1 DUP4 PUSH1 0x1 PUSH1 0x1 PUSH1 0xA0 SHL SUB AND MUL OR SWAP1 SSTORE POP PUSH1 0x1 PUSH1 0x0 DUP13 PUSH1 0x1 PUSH1 0x1 PUSH1 0xA0 SHL SUB AND PUSH1 0x1 PUSH1 0x1 PUSH1 0xA0 SHL SUB AND DUP2 MSTORE PUSH1 0x20 ADD SWAP1 DUP2 MSTORE PUSH1 0x20 ADD PUSH1 0x0 KECCAK256 PUSH1 0x0 DUP2 SLOAD DUP1 SWAP3 SWAP2 SWAP1 PUSH2 0x1970 SWAP1 PUSH2 0x2672 JUMP JUMPDEST SWAP1 SWAP2 SSTORE POP POP PUSH1 0x1 PUSH1 0x1 PUSH1 0xA0 SHL SUB DUP12 AND PUSH1 0x0 DUP2 DUP2 MSTORE PUSH1 0x4 PUSH1 0x20 SWAP1 DUP2 MSTORE PUSH1 0x40 DUP1 DUP4 KECCAK256 PUSH1 0x7 DUP1 SLOAD DUP3 SLOAD PUSH1 0x1 DUP2 DUP2 ADD DUP6 SSTORE SWAP4 DUP8 MSTORE DUP6 DUP8 KECCAK256 ADD SSTORE SWAP5 DUP5 MSTORE DUP3 MSTORE DUP1 DUP4 KECCAK256 SLOAD DUP5 SLOAD DUP5 MSTORE PUSH1 0x5 SWAP1 SWAP3 MSTORE DUP3 KECCAK256 SSTORE DUP2 SLOAD SWAP2 SWAP1 PUSH2 0x19C7 DUP4 PUSH2 0x2672 JUMP JUMPDEST SWAP1 SWAP2 SSTORE POP POP PUSH1 0x8 SLOAD PUSH1 0x1 PUSH1 0x1 PUSH1 0xA0 SHL SUB DUP13 AND PUSH1 0x0 SWAP1 DUP2 MSTORE PUSH1 0x3 PUSH1 0x20 MSTORE PUSH1 0x40 DUP2 KECCAK256 DUP1 SLOAD SWAP1 SWAP2 SWAP1 PUSH2 0x19F7 SWAP1 DUP5 SWAP1 PUSH2 0x262F JUMP JUMPDEST SWAP1 SWAP2 SSTORE POP POP PUSH1 0x8 SLOAD PUSH1 0xA DUP1 SLOAD PUSH1 0x0 SWAP1 PUSH2 0x1A11 SWAP1 DUP5 SWAP1 PUSH2 0x1F86 JUMP JUMPDEST SWAP1 SWAP2 SSTORE POP POP POP POP POP POP POP POP POP POP POP POP POP JUMP JUMPDEST PUSH1 0xB SLOAD PUSH1 0x0 SWAP1 PUSH1 0x1 PUSH1 0x1 PUSH1 0xA0 SHL SUB AND CALLER EQ PUSH2 0x1A50 JUMPI PUSH1 0x40 MLOAD PUSH3 0x461BCD PUSH1 0xE5 SHL DUP2 MSTORE PUSH1 0x4 ADD PUSH2 0x1F6 SWAP1 PUSH2 0x2604 JUMP JUMPDEST POP PUSH1 0xA SLOAD SWAP1 JUMP JUMPDEST PUSH1 0xB SLOAD PUSH1 0x1 PUSH1 0x1 PUSH1 0xA0 SHL SUB AND CALLER EQ PUSH2 0x1A81 JUMPI PUSH1 0x40 MLOAD PUSH3 0x461BCD PUSH1 0xE5 SHL DUP2 MSTORE PUSH1 0x4 ADD PUSH2 0x1F6 SWAP1 PUSH2 0x2604 JUMP JUMPDEST PUSH1 0x8 SSTORE JUMP JUMPDEST PUSH1 0xB SLOAD PUSH1 0x1 PUSH1 0x1 PUSH1 0xA0 SHL SUB AND CALLER EQ PUSH2 0x1AB0 JUMPI PUSH1 0x40 MLOAD PUSH3 0x461BCD PUSH1 0xE5 SHL DUP2 MSTORE PUSH1 0x4 ADD PUSH2 0x1F6 SWAP1 PUSH2 0x2604 JUMP JUMPDEST PUSH1 0x9 SSTORE JUMP JUMPDEST PUSH1 0xC DUP2 DUP2 SLOAD DUP2 LT PUSH2 0x1AC5 JUMPI PUSH1 0x0 DUP1 REVERT JUMPDEST SWAP1 PUSH1 0x0 MSTORE PUSH1 0x20 PUSH1 0x0 KECCAK256 SWAP1 PUSH1 0xB MUL ADD PUSH1 0x0 SWAP2 POP SWAP1 POP DUP1 PUSH1 0x0 ADD SLOAD SWAP1 DUP1 PUSH1 0x1 ADD SLOAD SWAP1 DUP1 PUSH1 0x2 ADD SLOAD SWAP1 DUP1 PUSH1 0x3 ADD SLOAD SWAP1 DUP1 PUSH1 0x4 ADD DUP1 SLOAD PUSH2 0x1B00 SWAP1 PUSH2 0x25C9 JUMP JUMPDEST DUP1 PUSH1 0x1F ADD PUSH1 0x20 DUP1 SWAP2 DIV MUL PUSH1 0x20 ADD PUSH1 0x40 MLOAD SWAP1 DUP2 ADD PUSH1 0x40 MSTORE DUP1 SWAP3 SWAP2 SWAP1 DUP2 DUP2 MSTORE PUSH1 0x20 ADD DUP3 DUP1 SLOAD PUSH2 0x1B2C SWAP1 PUSH2 0x25C9 JUMP JUMPDEST DUP1 ISZERO PUSH2 0x1B79 JUMPI DUP1 PUSH1 0x1F LT PUSH2 0x1B4E JUMPI PUSH2 0x100 DUP1 DUP4 SLOAD DIV MUL DUP4 MSTORE SWAP2 PUSH1 0x20 ADD SWAP2 PUSH2 0x1B79 JUMP JUMPDEST DUP3 ADD SWAP2 SWAP1 PUSH1 0x0 MSTORE PUSH1 0x20 PUSH1 0x0 KECCAK256 SWAP1 JUMPDEST DUP2 SLOAD DUP2 MSTORE SWAP1 PUSH1 0x1 ADD SWAP1 PUSH1 0x20 ADD DUP1 DUP4 GT PUSH2 0x1B5C JUMPI DUP3 SWAP1 SUB PUSH1 0x1F AND DUP3 ADD SWAP2 JUMPDEST POP POP POP POP POP SWAP1 DUP1 PUSH1 0x5 ADD DUP1 SLOAD PUSH2 0x1B8E SWAP1 PUSH2 0x25C9 JUMP JUMPDEST DUP1 PUSH1 0x1F ADD PUSH1 0x20 DUP1 SWAP2 DIV MUL PUSH1 0x20 ADD PUSH1 0x40 MLOAD SWAP1 DUP2 ADD PUSH1 0x40 MSTORE DUP1 SWAP3 SWAP2 SWAP1 DUP2 DUP2 MSTORE PUSH1 0x20 ADD DUP3 DUP1 SLOAD PUSH2 0x1BBA SWAP1 PUSH2 0x25C9 JUMP JUMPDEST DUP1 ISZERO PUSH2 0x1C07 JUMPI DUP1 PUSH1 0x1F LT PUSH2 0x1BDC JUMPI PUSH2 0x100 DUP1 DUP4 SLOAD DIV MUL DUP4 MSTORE SWAP2 PUSH1 0x20 ADD SWAP2 PUSH2 0x1C07 JUMP JUMPDEST DUP3 ADD SWAP2 SWAP1 PUSH1 0x0 MSTORE PUSH1 0x20 PUSH1 0x0 KECCAK256 SWAP1 JUMPDEST DUP2 SLOAD DUP2 MSTORE SWAP1 PUSH1 0x1 ADD SWAP1 PUSH1 0x20 ADD DUP1 DUP4 GT PUSH2 0x1BEA JUMPI DUP3 SWAP1 SUB PUSH1 0x1F AND DUP3 ADD SWAP2 JUMPDEST POP POP POP POP POP SWAP1 DUP1 PUSH1 0x6 ADD DUP1 SLOAD PUSH2 0x1C1C SWAP1 PUSH2 0x25C9 JUMP JUMPDEST DUP1 PUSH1 0x1F ADD PUSH1 0x20 DUP1 SWAP2 DIV MUL PUSH1 0x20 ADD PUSH1 0x40 MLOAD SWAP1 DUP2 ADD PUSH1 0x40 MSTORE DUP1 SWAP3 SWAP2 SWAP1 DUP2 DUP2 MSTORE PUSH1 0x20 ADD DUP3 DUP1 SLOAD PUSH2 0x1C48 SWAP1 PUSH2 0x25C9 JUMP JUMPDEST DUP1 ISZERO PUSH2 0x1C95 JUMPI DUP1 PUSH1 0x1F LT PUSH2 0x1C6A JUMPI PUSH2 0x100 DUP1 DUP4 SLOAD DIV MUL DUP4 MSTORE SWAP2 PUSH1 0x20 ADD SWAP2 PUSH2 0x1C95 JUMP JUMPDEST DUP3 ADD SWAP2 SWAP1 PUSH1 0x0 MSTORE PUSH1 0x20 PUSH1 0x0 KECCAK256 SWAP1 JUMPDEST DUP2 SLOAD DUP2 MSTORE SWAP1 PUSH1 0x1 ADD SWAP1 PUSH1 0x20 ADD DUP1 DUP4 GT PUSH2 0x1C78 JUMPI DUP3 SWAP1 SUB PUSH1 0x1F AND DUP3 ADD SWAP2 JUMPDEST POP POP POP POP POP SWAP1 DUP1 PUSH1 0x7 ADD DUP1 SLOAD PUSH2 0x1CAA SWAP1 PUSH2 0x25C9 JUMP JUMPDEST DUP1 PUSH1 0x1F ADD PUSH1 0x20 DUP1 SWAP2 DIV MUL PUSH1 0x20 ADD PUSH1 0x40 MLOAD SWAP1 DUP2 ADD PUSH1 0x40 MSTORE DUP1 SWAP3 SWAP2 SWAP1 DUP2 DUP2 MSTORE PUSH1 0x20 ADD DUP3 DUP1 SLOAD PUSH2 0x1CD6 SWAP1 PUSH2 0x25C9 JUMP JUMPDEST DUP1 ISZERO PUSH2 0x1D23 JUMPI DUP1 PUSH1 0x1F LT PUSH2 0x1CF8 JUMPI PUSH2 0x100 DUP1 DUP4 SLOAD DIV MUL DUP4 MSTORE SWAP2 PUSH1 0x20 ADD SWAP2 PUSH2 0x1D23 JUMP JUMPDEST DUP3 ADD SWAP2 SWAP1 PUSH1 0x0 MSTORE PUSH1 0x20 PUSH1 0x0 KECCAK256 SWAP1 JUMPDEST DUP2 SLOAD DUP2 MSTORE SWAP1 PUSH1 0x1 ADD SWAP1 PUSH1 0x20 ADD DUP1 DUP4 GT PUSH2 0x1D06 JUMPI DUP3 SWAP1 SUB PUSH1 0x1F AND DUP3 ADD SWAP2 JUMPDEST POP POP POP POP POP SWAP1 DUP1 PUSH1 0x8 ADD DUP1 SLOAD PUSH2 0x1D38 SWAP1 PUSH2 0x25C9 JUMP JUMPDEST DUP1 PUSH1 0x1F ADD PUSH1 0x20 DUP1 SWAP2 DIV MUL PUSH1 0x20 ADD PUSH1 0x40 MLOAD SWAP1 DUP2 ADD PUSH1 0x40 MSTORE DUP1 SWAP3 SWAP2 SWAP1 DUP2 DUP2 MSTORE PUSH1 0x20 ADD DUP3 DUP1 SLOAD PUSH2 0x1D64 SWAP1 PUSH2 0x25C9 JUMP JUMPDEST DUP1 ISZERO PUSH2 0x1DB1 JUMPI DUP1 PUSH1 0x1F LT PUSH2 0x1D86 JUMPI PUSH2 0x100 DUP1 DUP4 SLOAD DIV MUL DUP4 MSTORE SWAP2 PUSH1 0x20 ADD SWAP2 PUSH2 0x1DB1 JUMP JUMPDEST DUP3 ADD SWAP2 SWAP1 PUSH1 0x0 MSTORE PUSH1 0x20 PUSH1 0x0 KECCAK256 SWAP1 JUMPDEST DUP2 SLOAD DUP2 MSTORE SWAP1 PUSH1 0x1 ADD SWAP1 PUSH1 0x20 ADD DUP1 DUP4 GT PUSH2 0x1D94 JUMPI DUP3 SWAP1 SUB PUSH1 0x1F AND DUP3 ADD SWAP2 JUMPDEST POP POP POP POP POP SWAP1 DUP1 PUSH1 0x9 ADD DUP1 SLOAD PUSH2 0x1DC6 SWAP1 PUSH2 0x25C9 JUMP JUMPDEST DUP1 PUSH1 0x1F ADD PUSH1 0x20 DUP1 SWAP2 DIV MUL PUSH1 0x20 ADD PUSH1 0x40 MLOAD SWAP1 DUP2 ADD PUSH1 0x40 MSTORE DUP1 SWAP3 SWAP2 SWAP1 DUP2 DUP2 MSTORE PUSH1 0x20 ADD DUP3 DUP1 SLOAD PUSH2 0x1DF2 SWAP1 PUSH2 0x25C9 JUMP JUMPDEST DUP1 ISZERO PUSH2 0x1E3F JUMPI DUP1 PUSH1 0x1F LT PUSH2 0x1E14 JUMPI PUSH2 0x100 DUP1 DUP4 SLOAD DIV MUL DUP4 MSTORE SWAP2 PUSH1 0x20 ADD SWAP2 PUSH2 0x1E3F JUMP JUMPDEST DUP3 ADD SWAP2 SWAP1 PUSH1 0x0 MSTORE PUSH1 0x20 PUSH1 0x0 KECCAK256 SWAP1 JUMPDEST DUP2 SLOAD DUP2 MSTORE SWAP1 PUSH1 0x1 ADD SWAP1 PUSH1 0x20 ADD DUP1 DUP4 GT PUSH2 0x1E22 JUMPI DUP3 SWAP1 SUB PUSH1 0x1F AND DUP3 ADD SWAP2 JUMPDEST POP POP POP POP POP SWAP1 DUP1 PUSH1 0xA ADD DUP1 SLOAD PUSH2 0x1E54 SWAP1 PUSH2 0x25C9 JUMP JUMPDEST DUP1 PUSH1 0x1F ADD PUSH1 0x20 DUP1 SWAP2 DIV MUL PUSH1 0x20 ADD PUSH1 0x40 MLOAD SWAP1 DUP2 ADD PUSH1 0x40 MSTORE DUP1 SWAP3 SWAP2 SWAP1 DUP2 DUP2 MSTORE PUSH1 0x20 ADD DUP3 DUP1 SLOAD PUSH2 0x1E80 SWAP1 PUSH2 0x25C9 JUMP JUMPDEST DUP1 ISZERO PUSH2 0x1ECD JUMPI DUP1 PUSH1 0x1F LT PUSH2 0x1EA2 JUMPI PUSH2 0x100 DUP1 DUP4 SLOAD DIV MUL DUP4 MSTORE SWAP2 PUSH1 0x20 ADD SWAP2 PUSH2 0x1ECD JUMP JUMPDEST DUP3 ADD SWAP2 SWAP1 PUSH1 0x0 MSTORE PUSH1 0x20 PUSH1 0x0 KECCAK256 SWAP1 JUMPDEST DUP2 SLOAD DUP2 MSTORE SWAP1 PUSH1 0x1 ADD SWAP1 PUSH1 0x20 ADD DUP1 DUP4 GT PUSH2 0x1EB0 JUMPI DUP3 SWAP1 SUB PUSH1 0x1F AND DUP3 ADD SWAP2 JUMPDEST POP POP POP POP POP SWAP1 POP DUP12 JUMP JUMPDEST DUP3 DUP1 SLOAD PUSH2 0x1EE3 SWAP1 PUSH2 0x25C9 JUMP JUMPDEST SWAP1 PUSH1 0x0 MSTORE PUSH1 0x20 PUSH1 0x0 KECCAK256 SWAP1 PUSH1 0x1F ADD PUSH1 0x20 SWAP1 DIV DUP2 ADD SWAP3 DUP3 PUSH2 0x1F05 JUMPI PUSH1 0x0 DUP6 SSTORE PUSH2 0x1F4B JUMP JUMPDEST DUP3 PUSH1 0x1F LT PUSH2 0x1F1E JUMPI DUP1 MLOAD PUSH1 0xFF NOT AND DUP4 DUP1 ADD OR DUP6 SSTORE PUSH2 0x1F4B JUMP JUMPDEST DUP3 DUP1 ADD PUSH1 0x1 ADD DUP6 SSTORE DUP3 ISZERO PUSH2 0x1F4B JUMPI SWAP2 DUP3 ADD JUMPDEST DUP3 DUP2 GT ISZERO PUSH2 0x1F4B JUMPI DUP3 MLOAD DUP3 SSTORE SWAP2 PUSH1 0x20 ADD SWAP2 SWAP1 PUSH1 0x1 ADD SWAP1 PUSH2 0x1F30 JUMP JUMPDEST POP PUSH2 0x1F57 SWAP3 SWAP2 POP PUSH2 0x1F5B JUMP JUMPDEST POP SWAP1 JUMP JUMPDEST JUMPDEST DUP1 DUP3 GT ISZERO PUSH2 0x1F57 JUMPI PUSH1 0x0 DUP2 SSTORE PUSH1 0x1 ADD PUSH2 0x1F5C JUMP JUMPDEST PUSH4 0x4E487B71 PUSH1 0xE0 SHL PUSH1 0x0 MSTORE PUSH1 0x11 PUSH1 0x4 MSTORE PUSH1 0x24 PUSH1 0x0 REVERT JUMPDEST PUSH1 0x0 DUP3 NOT DUP3 GT ISZERO PUSH2 0x1F99 JUMPI PUSH2 0x1F99 PUSH2 0x1F70 JUMP JUMPDEST POP ADD SWAP1 JUMP JUMPDEST PUSH1 0x0 PUSH1 0x20 DUP3 DUP5 SUB SLT ISZERO PUSH2 0x1FB0 JUMPI PUSH1 0x0 DUP1 REVERT JUMPDEST POP CALLDATALOAD SWAP2 SWAP1 POP JUMP JUMPDEST PUSH1 0x0 DUP2 MLOAD DUP1 DUP5 MSTORE PUSH1 0x0 JUMPDEST DUP2 DUP2 LT ISZERO PUSH2 0x1FDD JUMPI PUSH1 0x20 DUP2 DUP6 ADD DUP2 ADD MLOAD DUP7 DUP4 ADD DUP3 ADD MSTORE ADD PUSH2 0x1FC1 JUMP JUMPDEST DUP2 DUP2 GT ISZERO PUSH2 0x1FEF JUMPI PUSH1 0x0 PUSH1 0x20 DUP4 DUP8 ADD ADD MSTORE JUMPDEST POP PUSH1 0x1F ADD PUSH1 0x1F NOT AND SWAP3 SWAP1 SWAP3 ADD PUSH1 0x20 ADD SWAP3 SWAP2 POP POP JUMP JUMPDEST DUP8 DUP2 MSTORE PUSH1 0xE0 PUSH1 0x20 DUP3 ADD MSTORE PUSH1 0x0 PUSH2 0x201D PUSH1 0xE0 DUP4 ADD DUP10 PUSH2 0x1FB7 JUMP JUMPDEST DUP3 DUP2 SUB PUSH1 0x40 DUP5 ADD MSTORE PUSH2 0x202F DUP2 DUP10 PUSH2 0x1FB7 JUMP JUMPDEST SWAP1 POP DUP3 DUP2 SUB PUSH1 0x60 DUP5 ADD MSTORE PUSH2 0x2043 DUP2 DUP9 PUSH2 0x1FB7 JUMP JUMPDEST SWAP1 POP DUP3 DUP2 SUB PUSH1 0x80 DUP5 ADD MSTORE PUSH2 0x2057 DUP2 DUP8 PUSH2 0x1FB7 JUMP JUMPDEST SWAP1 POP DUP3 DUP2 SUB PUSH1 0xA0 DUP5 ADD MSTORE PUSH2 0x206B DUP2 DUP7 PUSH2 0x1FB7 JUMP JUMPDEST SWAP1 POP DUP3 DUP2 SUB PUSH1 0xC0 DUP5 ADD MSTORE PUSH2 0x207F DUP2 DUP6 PUSH2 0x1FB7 JUMP JUMPDEST SWAP11 SWAP10 POP POP POP POP POP POP POP POP POP POP JUMP JUMPDEST DUP1 CALLDATALOAD PUSH1 0x1 PUSH1 0x1 PUSH1 0xA0 SHL SUB DUP2 AND DUP2 EQ PUSH2 0x1384 JUMPI PUSH1 0x0 DUP1 REVERT JUMPDEST PUSH1 0x0 PUSH1 0x20 DUP3 DUP5 SUB SLT ISZERO PUSH2 0x20B6 JUMPI PUSH1 0x0 DUP1 REVERT JUMPDEST PUSH2 0x20BF DUP3 PUSH2 0x208D JUMP JUMPDEST SWAP4 SWAP3 POP POP POP JUMP JUMPDEST PUSH1 0x40 DUP2 MSTORE PUSH1 0x0 PUSH2 0x20D9 PUSH1 0x40 DUP4 ADD DUP6 PUSH2 0x1FB7 JUMP JUMPDEST DUP3 DUP2 SUB PUSH1 0x20 DUP5 ADD MSTORE PUSH2 0x20EB DUP2 DUP6 PUSH2 0x1FB7 JUMP JUMPDEST SWAP6 SWAP5 POP POP POP POP POP JUMP JUMPDEST PUSH4 0x4E487B71 PUSH1 0xE0 SHL PUSH1 0x0 MSTORE PUSH1 0x41 PUSH1 0x4 MSTORE PUSH1 0x24 PUSH1 0x0 REVERT JUMPDEST PUSH1 0x0 DUP3 PUSH1 0x1F DUP4 ADD SLT PUSH2 0x211B JUMPI PUSH1 0x0 DUP1 REVERT JUMPDEST DUP2 CALLDATALOAD PUSH8 0xFFFFFFFFFFFFFFFF DUP1 DUP3 GT ISZERO PUSH2 0x2136 JUMPI PUSH2 0x2136 PUSH2 0x20F4 JUMP JUMPDEST PUSH1 0x40 MLOAD PUSH1 0x1F DUP4 ADD PUSH1 0x1F NOT SWAP1 DUP2 AND PUSH1 0x3F ADD AND DUP2 ADD SWAP1 DUP3 DUP3 GT DUP2 DUP4 LT OR ISZERO PUSH2 0x215E JUMPI PUSH2 0x215E PUSH2 0x20F4 JUMP JUMPDEST DUP2 PUSH1 0x40 MSTORE DUP4 DUP2 MSTORE DUP7 PUSH1 0x20 DUP6 DUP9 ADD ADD GT ISZERO PUSH2 0x2177 JUMPI PUSH1 0x0 DUP1 REVERT JUMPDEST DUP4 PUSH1 0x20 DUP8 ADD PUSH1 0x20 DUP4 ADD CALLDATACOPY PUSH1 0x0 PUSH1 0x20 DUP6 DUP4 ADD ADD MSTORE DUP1 SWAP5 POP POP POP POP POP SWAP3 SWAP2 POP POP JUMP JUMPDEST PUSH1 0x0 DUP1 PUSH1 0x0 DUP1 PUSH1 0x0 DUP1 PUSH1 0x0 DUP1 PUSH1 0x0 DUP1 PUSH1 0x0 PUSH2 0x160 DUP13 DUP15 SUB SLT ISZERO PUSH2 0x21B9 JUMPI PUSH1 0x0 DUP1 REVERT JUMPDEST DUP12 CALLDATALOAD SWAP11 POP PUSH1 0x20 DUP13 ADD CALLDATALOAD SWAP10 POP PUSH1 0x40 DUP13 ADD CALLDATALOAD SWAP9 POP PUSH1 0x60 DUP13 ADD CALLDATALOAD SWAP8 POP PUSH8 0xFFFFFFFFFFFFFFFF DUP1 PUSH1 0x80 DUP15 ADD CALLDATALOAD GT ISZERO PUSH2 0x21EC JUMPI PUSH1 0x0 DUP1 REVERT JUMPDEST PUSH2 0x21FC DUP15 PUSH1 0x80 DUP16 ADD CALLDATALOAD DUP16 ADD PUSH2 0x210A JUMP JUMPDEST SWAP8 POP DUP1 PUSH1 0xA0 DUP15 ADD CALLDATALOAD GT ISZERO PUSH2 0x220F JUMPI PUSH1 0x0 DUP1 REVERT JUMPDEST PUSH2 0x221F DUP15 PUSH1 0xA0 DUP16 ADD CALLDATALOAD DUP16 ADD PUSH2 0x210A JUMP JUMPDEST SWAP7 POP DUP1 PUSH1 0xC0 DUP15 ADD CALLDATALOAD GT ISZERO PUSH2 0x2232 JUMPI PUSH1 0x0 DUP1 REVERT JUMPDEST PUSH2 0x2242 DUP15 PUSH1 0xC0 DUP16 ADD CALLDATALOAD DUP16 ADD PUSH2 0x210A JUMP JUMPDEST SWAP6 POP DUP1 PUSH1 0xE0 DUP15 ADD CALLDATALOAD GT ISZERO PUSH2 0x2255 JUMPI PUSH1 0x0 DUP1 REVERT JUMPDEST PUSH2 0x2265 DUP15 PUSH1 0xE0 DUP16 ADD CALLDATALOAD DUP16 ADD PUSH2 0x210A JUMP JUMPDEST SWAP5 POP DUP1 PUSH2 0x100 DUP15 ADD CALLDATALOAD GT ISZERO PUSH2 0x2279 JUMPI PUSH1 0x0 DUP1 REVERT JUMPDEST PUSH2 0x228A DUP15 PUSH2 0x100 DUP16 ADD CALLDATALOAD DUP16 ADD PUSH2 0x210A JUMP JUMPDEST SWAP4 POP DUP1 PUSH2 0x120 DUP15 ADD CALLDATALOAD GT ISZERO PUSH2 0x229E JUMPI PUSH1 0x0 DUP1 REVERT JUMPDEST PUSH2 0x22AF DUP15 PUSH2 0x120 DUP16 ADD CALLDATALOAD DUP16 ADD PUSH2 0x210A JUMP JUMPDEST SWAP3 POP DUP1 PUSH2 0x140 DUP15 ADD CALLDATALOAD GT ISZERO PUSH2 0x22C3 JUMPI PUSH1 0x0 DUP1 REVERT JUMPDEST POP PUSH2 0x22D5 DUP14 PUSH2 0x140 DUP15 ADD CALLDATALOAD DUP15 ADD PUSH2 0x210A JUMP JUMPDEST SWAP1 POP SWAP3 SWAP6 SWAP9 SWAP12 POP SWAP3 SWAP6 SWAP9 SWAP12 SWAP1 SWAP4 SWAP7 SWAP10 POP JUMP JUMPDEST PUSH1 0x60 DUP2 MSTORE PUSH1 0x0 PUSH2 0x22FA PUSH1 0x60 DUP4 ADD DUP7 PUSH2 0x1FB7 JUMP JUMPDEST DUP3 DUP2 SUB PUSH1 0x20 DUP5 ADD MSTORE PUSH2 0x230C DUP2 DUP7 PUSH2 0x1FB7 JUMP JUMPDEST SWAP2 POP POP PUSH1 0x1 DUP1 PUSH1 0xA0 SHL SUB DUP4 AND PUSH1 0x40 DUP4 ADD MSTORE SWAP5 SWAP4 POP POP POP POP JUMP JUMPDEST PUSH1 0x0 DUP1 PUSH1 0x40 DUP4 DUP6 SUB SLT ISZERO PUSH2 0x2338 JUMPI PUSH1 0x0 DUP1 REVERT JUMPDEST PUSH2 0x2341 DUP4 PUSH2 0x208D JUMP JUMPDEST SWAP5 PUSH1 0x20 SWAP4 SWAP1 SWAP4 ADD CALLDATALOAD SWAP4 POP POP POP JUMP JUMPDEST PUSH1 0x0 DUP1 PUSH1 0x40 DUP4 DUP6 SUB SLT ISZERO PUSH2 0x2362 JUMPI PUSH1 0x0 DUP1 REVERT JUMPDEST DUP3 CALLDATALOAD SWAP2 POP PUSH2 0x2372 PUSH1 0x20 DUP5 ADD PUSH2 0x208D JUMP JUMPDEST SWAP1 POP SWAP3 POP SWAP3 SWAP1 POP JUMP JUMPDEST PUSH1 0x20 DUP1 DUP3 MSTORE DUP3 MLOAD DUP3 DUP3 ADD DUP2 SWAP1 MSTORE PUSH1 0x0 SWAP2 SWAP1 DUP5 DUP3 ADD SWAP1 PUSH1 0x40 DUP6 ADD SWAP1 DUP5 JUMPDEST DUP2 DUP2 LT ISZERO PUSH2 0x23B3 JUMPI DUP4 MLOAD DUP4 MSTORE SWAP3 DUP5 ADD SWAP3 SWAP2 DUP5 ADD SWAP2 PUSH1 0x1 ADD PUSH2 0x2397 JUMP JUMPDEST POP SWAP1 SWAP7 SWAP6 POP POP POP POP POP POP JUMP JUMPDEST PUSH1 0x0 DUP1 PUSH1 0x0 DUP1 PUSH1 0x0 DUP1 PUSH1 0xC0 DUP8 DUP10 SUB SLT ISZERO PUSH2 0x23D8 JUMPI PUSH1 0x0 DUP1 REVERT JUMPDEST DUP7 CALLDATALOAD PUSH8 0xFFFFFFFFFFFFFFFF DUP1 DUP3 GT ISZERO PUSH2 0x23F0 JUMPI PUSH1 0x0 DUP1 REVERT JUMPDEST PUSH2 0x23FC DUP11 DUP4 DUP12 ADD PUSH2 0x210A JUMP JUMPDEST SWAP8 POP PUSH1 0x20 DUP10 ADD CALLDATALOAD SWAP2 POP DUP1 DUP3 GT ISZERO PUSH2 0x2412 JUMPI PUSH1 0x0 DUP1 REVERT JUMPDEST PUSH2 0x241E DUP11 DUP4 DUP12 ADD PUSH2 0x210A JUMP JUMPDEST SWAP7 POP PUSH1 0x40 DUP10 ADD CALLDATALOAD SWAP2 POP DUP1 DUP3 GT ISZERO PUSH2 0x2434 JUMPI PUSH1 0x0 DUP1 REVERT JUMPDEST PUSH2 0x2440 DUP11 DUP4 DUP12 ADD PUSH2 0x210A JUMP JUMPDEST SWAP6 POP PUSH1 0x60 DUP10 ADD CALLDATALOAD SWAP2 POP DUP1 DUP3 GT ISZERO PUSH2 0x2456 JUMPI PUSH1 0x0 DUP1 REVERT JUMPDEST PUSH2 0x2462 DUP11 DUP4 DUP12 ADD PUSH2 0x210A JUMP JUMPDEST SWAP5 POP PUSH1 0x80 DUP10 ADD CALLDATALOAD SWAP2 POP DUP1 DUP3 GT ISZERO PUSH2 0x2478 JUMPI PUSH1 0x0 DUP1 REVERT JUMPDEST PUSH2 0x2484 DUP11 DUP4 DUP12 ADD PUSH2 0x210A JUMP JUMPDEST SWAP4 POP PUSH1 0xA0 DUP10 ADD CALLDATALOAD SWAP2 POP DUP1 DUP3 GT ISZERO PUSH2 0x249A JUMPI PUSH1 0x0 DUP1 REVERT JUMPDEST POP PUSH2 0x24A7 DUP10 DUP3 DUP11 ADD PUSH2 0x210A JUMP JUMPDEST SWAP2 POP POP SWAP3 SWAP6 POP SWAP3 SWAP6 POP SWAP3 SWAP6 JUMP JUMPDEST PUSH1 0x0 DUP1 PUSH1 0x0 DUP1 PUSH1 0x0 DUP1 PUSH1 0x0 DUP1 PUSH1 0x0 DUP1 PUSH1 0x0 PUSH2 0x160 DUP13 DUP15 SUB SLT ISZERO PUSH2 0x24D6 JUMPI PUSH1 0x0 DUP1 REVERT JUMPDEST PUSH2 0x24DF DUP13 PUSH2 0x208D JUMP JUMPDEST SWAP11 POP PUSH1 0x20 DUP13 ADD CALLDATALOAD SWAP10 POP PUSH1 0x40 DUP13 ADD CALLDATALOAD SWAP9 POP PUSH1 0x60 DUP13 ADD CALLDATALOAD SWAP8 POP PUSH8 0xFFFFFFFFFFFFFFFF DUP1 PUSH1 0x80 DUP15 ADD CALLDATALOAD GT ISZERO PUSH2 0x21EC JUMPI PUSH1 0x0 DUP1 REVERT JUMPDEST PUSH1 0x0 PUSH2 0x160 DUP14 DUP4 MSTORE DUP13 PUSH1 0x20 DUP5 ADD MSTORE DUP12 PUSH1 0x40 DUP5 ADD MSTORE DUP11 PUSH1 0x60 DUP5 ADD MSTORE DUP1 PUSH1 0x80 DUP5 ADD MSTORE PUSH2 0x253C DUP2 DUP5 ADD DUP12 PUSH2 0x1FB7 JUMP JUMPDEST SWAP1 POP DUP3 DUP2 SUB PUSH1 0xA0 DUP5 ADD MSTORE PUSH2 0x2550 DUP2 DUP11 PUSH2 0x1FB7 JUMP JUMPDEST SWAP1 POP DUP3 DUP2 SUB PUSH1 0xC0 DUP5 ADD MSTORE PUSH2 0x2564 DUP2 DUP10 PUSH2 0x1FB7 JUMP JUMPDEST SWAP1 POP DUP3 DUP2 SUB PUSH1 0xE0 DUP5 ADD MSTORE PUSH2 0x2578 DUP2 DUP9 PUSH2 0x1FB7 JUMP JUMPDEST SWAP1 POP DUP3 DUP2 SUB PUSH2 0x100 DUP5 ADD MSTORE PUSH2 0x258D DUP2 DUP8 PUSH2 0x1FB7 JUMP JUMPDEST SWAP1 POP DUP3 DUP2 SUB PUSH2 0x120 DUP5 ADD MSTORE PUSH2 0x25A2 DUP2 DUP7 PUSH2 0x1FB7 JUMP JUMPDEST SWAP1 POP DUP3 DUP2 SUB PUSH2 0x140 DUP5 ADD MSTORE PUSH2 0x25B7 DUP2 DUP6 PUSH2 0x1FB7 JUMP JUMPDEST SWAP15 SWAP14 POP POP POP POP POP POP POP POP POP POP POP POP POP POP JUMP JUMPDEST PUSH1 0x1 DUP2 DUP2 SHR SWAP1 DUP3 AND DUP1 PUSH2 0x25DD JUMPI PUSH1 0x7F DUP3 AND SWAP2 POP JUMPDEST PUSH1 0x20 DUP3 LT DUP2 EQ ISZERO PUSH2 0x25FE JUMPI PUSH4 0x4E487B71 PUSH1 0xE0 SHL PUSH1 0x0 MSTORE PUSH1 0x22 PUSH1 0x4 MSTORE PUSH1 0x24 PUSH1 0x0 REVERT JUMPDEST POP SWAP2 SWAP1 POP JUMP JUMPDEST PUSH1 0x20 DUP1 DUP3 MSTORE PUSH1 0x11 SWAP1 DUP3 ADD MSTORE PUSH17 0x14195C9B5A5CDCDA5BDB8819195B9A5959 PUSH1 0x7A SHL PUSH1 0x40 DUP3 ADD MSTORE PUSH1 0x60 ADD SWAP1 JUMP JUMPDEST PUSH1 0x0 DUP3 DUP3 LT ISZERO PUSH2 0x2641 JUMPI PUSH2 0x2641 PUSH2 0x1F70 JUMP JUMPDEST POP SUB SWAP1 JUMP JUMPDEST PUSH4 0x4E487B71 PUSH1 0xE0 SHL PUSH1 0x0 MSTORE PUSH1 0x32 PUSH1 0x4 MSTORE PUSH1 0x24 PUSH1 0x0 REVERT JUMPDEST PUSH4 0x4E487B71 PUSH1 0xE0 SHL PUSH1 0x0 MSTORE PUSH1 0x31 PUSH1 0x4 MSTORE PUSH1 0x24 PUSH1 0x0 REVERT JUMPDEST PUSH1 0x0 PUSH1 0x0 NOT DUP3 EQ ISZERO PUSH2 0x2686 JUMPI PUSH2 0x2686 PUSH2 0x1F70 JUMP JUMPDEST POP PUSH1 0x1 ADD SWAP1 JUMP JUMPDEST PUSH1 0x0 DUP2 PUSH2 0x269C JUMPI PUSH2 0x269C PUSH2 0x1F70 JUMP JUMPDEST POP PUSH1 0x0 NOT ADD SWAP1 JUMP JUMPDEST PUSH1 0x1 PUSH1 0x1 PUSH1 0xA0 SHL SUB DUP10 AND DUP2 MSTORE PUSH1 0x20 DUP2 ADD DUP9 SWAP1 MSTORE PUSH2 0x100 PUSH1 0x40 DUP3 ADD DUP2 SWAP1 MSTORE PUSH1 0x0 SWAP1 PUSH2 0x26D0 DUP4 DUP3 ADD DUP11 PUSH2 0x1FB7 JUMP JUMPDEST SWAP1 POP DUP3 DUP2 SUB PUSH1 0x60 DUP5 ADD MSTORE PUSH2 0x26E4 DUP2 DUP10 PUSH2 0x1FB7 JUMP JUMPDEST SWAP1 POP DUP3 DUP2 SUB PUSH1 0x80 DUP5 ADD MSTORE PUSH2 0x26F8 DUP2 DUP9 PUSH2 0x1FB7 JUMP JUMPDEST SWAP1 POP DUP3 DUP2 SUB PUSH1 0xA0 DUP5 ADD MSTORE PUSH2 0x270C DUP2 DUP8 PUSH2 0x1FB7 JUMP JUMPDEST SWAP1 POP DUP3 DUP2 SUB PUSH1 0xC0 DUP5 ADD MSTORE PUSH2 0x2720 DUP2 DUP7 PUSH2 0x1FB7 JUMP JUMPDEST SWAP1 POP DUP3 DUP2 SUB PUSH1 0xE0 DUP5 ADD MSTORE PUSH2 0x2734 DUP2 DUP6 PUSH2 0x1FB7 JUMP JUMPDEST SWAP12 SWAP11 POP POP POP POP POP POP POP POP POP POP POP JUMP INVALID LOG2 PUSH5 0x6970667358 0x22 SLT KECCAK256 0xCC SWAP4 PUSH9 0x4DFDF3C9B792F7AA10 SUB 0x5E DUP6 GAS 0x24 0x2C PUSH8 0x33222957A6B689B KECCAK256 RETURNDATACOPY CALLDATACOPY 0xC3 0xF6 PUSH5 0x736F6C6343 STOP ADDMOD SIGNEXTEND STOP CALLER ",
  "sha1": "81cb4e85ed2dd07c5c405dee7bf8ba02d378ad2e",
  "source": "//Main Land Registry Contract\n//SPDX-License-Identifier: UNLICENSED\n\npragma solidity  ^0.8.0;\n\n//import \"./ownable.sol\"; //this is a standard file from OpenZapplin used for transferring or used for validating \n                        //also used as function modiers so that only an owner of a contract can call a function and make changes\n                        //need to integerate it with our land registry contract especially the Transfer function\n\n//import \"https://github.com/OpenZeppelin/openzeppelin-contracts/blob/master/contracts/utils/math/SafeMath.sol\";\n//In Solidity 0.8+ you don't need to use SafeMath anymore, because the integer underflow/overflow check is performed on a lower level.\n\ncontract  Registry { //registry contract inheriting from the ownable contract\n\n    struct Property {\n        uint id; //id generated inside the function First Registration\n        uint sqm;\n        uint floor;\n        uint zipCode;\n        string country;\n        string region;\n        string city;\n        string street;\n        string streetnum;\n        string addressAdditional;\n        string houseType;\n\n    }\n\n    struct Owner {\n        //address owner_addr; //id generated inside the function OwnerInformation\n        uint id;        \n        string firstName;\n        string lastName;\n        string gender;  //We accomodate more than 2 genders, so do not use a bool here\n        string codiceFisc;\n        string docType;\n        string docNumber;\n    }\n\n    mapping (address => uint) public address_to_owner;\n    mapping (address => uint) public ownerPropertyCount; //in case owner has more than 1 property\n    mapping (uint => address) private propertyToOwner;\n    mapping (address => uint) public customerBalance;\n\tmapping (address => uint []) public owner_to_property;\n    mapping (uint => uint) public all_prop_id_to_personal_prop_id;\n    modifier validateSender {\n        require(msg.sender == Validator, \"Permission denied\");\n        _;\n    }\n\t\n    modifier isRegistered {\n        require(address_to_owner[msg.sender] != 0, \"You are not registered\");\n        _;\n    }\n\n\tconstructor()  payable {\n        Validator = msg.sender;\n    }\n\n    //using SafeMath for uint;\n\n\n    uint owner_id = 1; // 0 means owner is not registered\n    uint property_id = 1;\n    uint registration_price = 20; //at current market value ~$37 \n    uint transfer_price = 5; //at current market value ~$37\n\tuint public revenue; // our revenue that can be withdrawn as services have been performed\n    address private Validator;\n    //keccak256(abi.encodePacked(_str)) -> this creates a unique hash based on arguments passed, might be required if we want a unique identifier for a property/owner\n    \n    // Creating events of new property and owner\n    event NewPropertyRegistered (uint id, uint areaSqm, uint floor, uint zipCode, string country, \n                                string region, string city, string street, string streetNumber, \n                                string adressAdditional, string houseType);\n    event NewOwnerCreated (address owner_address, uint id,  string firstName, string lastName, \n                            string gender, string codiceFiscale, string docType, string docNumber);\n    event OwnershipTransferred (address new_owner, uint propert_id);\n\n    //declaring arrays of the two structs created above\n    Property[] public properties; // Do we use these at all?\n    Owner[] public owners;\n    address[] public addresses_list;\n\n    function registerOwner(string memory _firstName, string memory _lastName, \n                            string memory _gender, string memory _codiceFiscale, \n                                string memory _docType, string memory _docNumber) public {\n        require (address_to_owner[msg.sender] == 0, \"Address is already registered.\"); // checking if owner is already registered or not\n        owners.push(Owner(owner_id,_firstName, _lastName, _gender, \n                            _codiceFiscale, _docType, _docNumber));\n        addresses_list.push(msg.sender);\n        emit NewOwnerCreated(msg.sender, owner_id, _firstName, _lastName, _gender, \n                                _codiceFiscale, _docType, _docNumber);\n        address_to_owner[msg.sender] = owner_id;\n        owner_id ++;\n        customerBalance[msg.sender] = 0;\n    }\n\n    //ownership is verified before construction is called\n    function registerProperty(address _Owner, uint _areaSqm, uint _floor, uint _zipCode, \n                                string memory _country, string memory _region, string memory _city, \n                                string memory _street, string memory _streetNumber, string memory _addressAdditional, \n                                string memory _houseType) validateSender public { // Add property to \n        require(customerBalance[_Owner] >= registration_price, \"Balance too low to register property. Please increase your balance & try again.\");\n        properties.push(Property(property_id,_areaSqm, _floor, _zipCode, _country, _region, _city, \n                                _street, _streetNumber, _addressAdditional, _houseType));\n        // Check for Customer Properties on \n        emit NewPropertyRegistered(property_id, _areaSqm, _floor, _zipCode, _country, _region, _city, \n                                    _street, _streetNumber, _addressAdditional, _houseType);\n        propertyToOwner[property_id] = _Owner;   //using the mapping\n        ownerPropertyCount[_Owner]++;   //using the mapping   \n        owner_to_property[_Owner].push(property_id);\n        all_prop_id_to_personal_prop_id[property_id] = ownerPropertyCount[_Owner];\n        property_id ++;\n        customerBalance[_Owner] -= registration_price; // after successful listing, deduct the fee from customers account balance\n        revenue += registration_price;\n    }\n\n\n    receive () external payable isRegistered {\n        customerBalance[msg.sender] += msg.value; // increase the owners balance\n    }\n\n\n    function Transfer (uint _property_id, address _new_owner_address) public { //Change in ownership  - DO WE NEED A VALIDATION IN HERE?\n        require(msg.sender == propertyToOwner[_property_id], \"Only Owners can transfer property. We do not have you as owner of this property.\");  //First we check if the person transferring the property actually owns it or not\n        require(customerBalance[_new_owner_address] >= transfer_price, \"Balance of a new owner is too low to transfer property.\");\n        require(address_to_owner[_new_owner_address] != 0, \"New owner is not registered\");\n        propertyToOwner[_property_id] = _new_owner_address;\n        owner_to_property[msg.sender][all_prop_id_to_personal_prop_id[property_id]] = owner_to_property[msg.sender][owner_to_property[msg.sender].length -1];\n        owner_to_property[msg.sender].pop();\n        owner_to_property[_new_owner_address].push(_property_id);\n        ownerPropertyCount[_new_owner_address]++; // incresing new owner's property count\n        all_prop_id_to_personal_prop_id[property_id] = ownerPropertyCount[_new_owner_address];\n        ownerPropertyCount[msg.sender]--; // decreasing old owner's property count\n        emit OwnershipTransferred (_new_owner_address, _property_id);\n        //the old address would still be pointing to the property which has been transferred\n        //so we can fill it with a value which the property id -> 'counter' is unlikely to reach\n        //we can do this for any address which has relinquished control of a property\n        // address_to_owner[msg.sender] = 2**256 - 1; // we do not need it since the customer's still in db\n        customerBalance[_new_owner_address] -= transfer_price; // after successful transfer, deduct the fee from customers account balance\n        revenue += transfer_price;\n        \n    // ensure that no NFT is open against the property\n\n    }\n\n    // should we update all attributes within one function?\n    function Update (uint _id, uint _areaSqm, uint _floor, uint _zipCode, string memory _country, \n                        string memory _region, string memory _city, string memory _street, \n                        string memory _streetNumber, string memory _addressAdditional, \n                        string memory _houseType) public {  //Change in one of the Property variables - Shaurya - maybe infeasible. Work around could be to simply add another property for the difference in floorspace (assumed to be positive), and treat as 2 separate properties\n        Property storage prop = properties[_id-1];\n        prop.sqm = _areaSqm;\n        prop.floor = _floor;\n        prop.zipCode = _zipCode;\n        prop.country = _country;\n        prop.region = _region;\n        prop.city = _city;\n        prop.street = _street;\n        prop.streetnum = _streetNumber;\n        prop.addressAdditional = _addressAdditional;\n        prop.houseType = _houseType;\n    }\n\n    function changePriceRegistration(uint _new_price_registration) public validateSender {\n        registration_price = _new_price_registration;\n    }\n\n    function changePriceTransfer(uint _new_price_transfers) public validateSender {\n        transfer_price = _new_price_transfers;\n    }\n\n    function showOwnerBalance (address _owner) public view returns (uint) {\n        return customerBalance[_owner];\n    }\n\n    function show_revenue () public view validateSender returns (uint) { //Function to show realized revenue from sign up & subscription\n        return revenue;\n    }\n\n    function Payment () validateSender public payable { \n        address payable deposit = payable(Validator);\n        require(address(this).balance > 10);\n        uint payout = revenue - 10;\n        revenue = 10;\n        (bool success, ) = deposit.call{value : payout}(\"\");\n        require(success, \"Transfer failed.\");\n        // if (address(this).balance < 1000000000000000) {  // == 0.01 ETH\n        //     revenue -= 100000000000000; // to prevent running out of money (for gas) in the contract, we save 0.0001 ETH if our balance is below 0.01 ether\n        // }\n        // deposit.transfer(payout); // we pay out the generated revenues to our address\n    }\n\n\n\n    function showBalance () public view validateSender returns (uint) {\n        return address(this).balance;\n    }\n\n\n    function showRegistrationPrice () public view returns (uint) {\n        return registration_price;\n    }\n\n    function showTransferPrice () public view returns (uint) {\n        return transfer_price;\n    }\n\n    function showOwnersCount () public view returns (uint) {\n        return owners.length;\n    }\n\n    function showPropertyCount () public view returns (uint) {\n        return properties.length;\n    }  \n\n    function findOwner(address _owner) public view validateSender returns (string memory,\n                                                                           string memory) {\n        uint ownerId = address_to_owner[_owner];\n        return (owners[ownerId - 1].firstName, owners[ownerId - 1].lastName);\n    }\n\n    function countOwnerProperties(address _owner) public view returns (uint) {\n        return ownerPropertyCount[_owner];\n    }\n\n    function findPropertyOwner(uint _id) public view returns (string memory, \n                                                              string memory, \n                                                              address) {\n        address owner_address = propertyToOwner[_id];\n        uint ownerId = address_to_owner[owner_address];\n        return (owners[ownerId - 1].firstName, owners[ownerId - 1].lastName, owner_address);\n    }\n\n    function find_properties(address _owner) public view validateSender returns (uint[] memory) {\n        return owner_to_property[_owner];\n    } \n\n}\n\n\n\n",
  "sourcePath": "contracts/Registry.sol",
  "type": "contract"
}