{
  "abi": [
    {
      "inputs": [],
      "stateMutability": "nonpayable",
      "type": "constructor"
    },
    {
      "anonymous": false,
      "inputs": [
        {
          "indexed": false,
          "internalType": "address",
          "name": "owner_address",
          "type": "address"
        },
        {
          "indexed": false,
          "internalType": "uint256",
          "name": "id",
          "type": "uint256"
        },
        {
          "indexed": false,
          "internalType": "string",
          "name": "firstName",
          "type": "string"
        },
        {
          "indexed": false,
          "internalType": "string",
          "name": "lastName",
          "type": "string"
        },
        {
          "indexed": false,
          "internalType": "string",
          "name": "codiceFiscale",
          "type": "string"
        },
        {
          "indexed": false,
          "internalType": "string",
          "name": "docType",
          "type": "string"
        },
        {
          "indexed": false,
          "internalType": "string",
          "name": "docNumber",
          "type": "string"
        }
      ],
      "name": "NewOwnerCreated",
      "type": "event"
    },
    {
      "anonymous": false,
      "inputs": [
        {
          "indexed": false,
          "internalType": "uint256",
          "name": "id",
          "type": "uint256"
        },
        {
          "indexed": false,
          "internalType": "uint256",
          "name": "areaSqm",
          "type": "uint256"
        },
        {
          "indexed": false,
          "internalType": "uint256",
          "name": "floor",
          "type": "uint256"
        },
        {
          "indexed": false,
          "internalType": "uint256",
          "name": "zipCode",
          "type": "uint256"
        },
        {
          "indexed": false,
          "internalType": "string",
          "name": "country",
          "type": "string"
        },
        {
          "indexed": false,
          "internalType": "string",
          "name": "region",
          "type": "string"
        },
        {
          "indexed": false,
          "internalType": "string",
          "name": "city",
          "type": "string"
        },
        {
          "indexed": false,
          "internalType": "string",
          "name": "street",
          "type": "string"
        },
        {
          "indexed": false,
          "internalType": "string",
          "name": "streetNumber",
          "type": "string"
        },
        {
          "indexed": false,
          "internalType": "string",
          "name": "adressAdditional",
          "type": "string"
        },
        {
          "indexed": false,
          "internalType": "string",
          "name": "houseType",
          "type": "string"
        }
      ],
      "name": "NewPropertyRegistered",
      "type": "event"
    },
    {
      "anonymous": false,
      "inputs": [
        {
          "indexed": false,
          "internalType": "address",
          "name": "owner_address",
          "type": "address"
        },
        {
          "indexed": false,
          "internalType": "string",
          "name": "message",
          "type": "string"
        }
      ],
      "name": "OwnerSubExpired",
      "type": "event"
    },
    {
      "anonymous": false,
      "inputs": [
        {
          "indexed": false,
          "internalType": "address",
          "name": "owner_address",
          "type": "address"
        }
      ],
      "name": "OwnerSubscribed",
      "type": "event"
    },
    {
      "anonymous": false,
      "inputs": [
        {
          "indexed": false,
          "internalType": "address",
          "name": "owner_address",
          "type": "address"
        }
      ],
      "name": "OwnerUnubscribed",
      "type": "event"
    },
    {
      "anonymous": false,
      "inputs": [
        {
          "indexed": false,
          "internalType": "address",
          "name": "new_owner",
          "type": "address"
        },
        {
          "indexed": false,
          "internalType": "uint256",
          "name": "propert_id",
          "type": "uint256"
        }
      ],
      "name": "OwnershipTransferred",
      "type": "event"
    },
    {
      "anonymous": false,
      "inputs": [
        {
          "indexed": false,
          "internalType": "string",
          "name": "first_name",
          "type": "string"
        },
        {
          "indexed": false,
          "internalType": "string",
          "name": "last_name",
          "type": "string"
        }
      ],
      "name": "lowBalance",
      "type": "event"
    },
    {
      "inputs": [],
      "name": "Payment",
      "outputs": [],
      "stateMutability": "payable",
      "type": "function"
    },
    {
      "inputs": [
        {
          "internalType": "uint256",
          "name": "_property_id",
          "type": "uint256"
        },
        {
          "internalType": "address",
          "name": "_new_owner_address",
          "type": "address"
        }
      ],
      "name": "Transfer",
      "outputs": [],
      "stateMutability": "nonpayable",
      "type": "function"
    },
    {
      "inputs": [
        {
          "internalType": "uint256",
          "name": "_id",
          "type": "uint256"
        },
        {
          "internalType": "uint256",
          "name": "_areaSqm",
          "type": "uint256"
        },
        {
          "internalType": "uint256",
          "name": "_floor",
          "type": "uint256"
        },
        {
          "internalType": "uint256",
          "name": "_zipCode",
          "type": "uint256"
        },
        {
          "internalType": "string",
          "name": "_country",
          "type": "string"
        },
        {
          "internalType": "string",
          "name": "_region",
          "type": "string"
        },
        {
          "internalType": "string",
          "name": "_city",
          "type": "string"
        },
        {
          "internalType": "string",
          "name": "_street",
          "type": "string"
        },
        {
          "internalType": "string",
          "name": "_streetNumber",
          "type": "string"
        },
        {
          "internalType": "string",
          "name": "_addressAdditional",
          "type": "string"
        },
        {
          "internalType": "string",
          "name": "_houseType",
          "type": "string"
        }
      ],
      "name": "Update",
      "outputs": [],
      "stateMutability": "nonpayable",
      "type": "function"
    },
    {
      "inputs": [
        {
          "internalType": "address",
          "name": "",
          "type": "address"
        }
      ],
      "name": "address_to_owner",
      "outputs": [
        {
          "internalType": "uint256",
          "name": "",
          "type": "uint256"
        }
      ],
      "stateMutability": "view",
      "type": "function"
    },
    {
      "inputs": [
        {
          "internalType": "uint256",
          "name": "",
          "type": "uint256"
        }
      ],
      "name": "addresses_list",
      "outputs": [
        {
          "internalType": "address",
          "name": "",
          "type": "address"
        }
      ],
      "stateMutability": "view",
      "type": "function"
    },
    {
      "inputs": [
        {
          "internalType": "uint256",
          "name": "",
          "type": "uint256"
        }
      ],
      "name": "all_prop_id_to_personal_prop_id",
      "outputs": [
        {
          "internalType": "uint256",
          "name": "",
          "type": "uint256"
        }
      ],
      "stateMutability": "view",
      "type": "function"
    },
    {
      "inputs": [
        {
          "internalType": "uint256",
          "name": "_new_price_registration",
          "type": "uint256"
        }
      ],
      "name": "changePriceRegistration",
      "outputs": [],
      "stateMutability": "nonpayable",
      "type": "function"
    },
    {
      "inputs": [
        {
          "internalType": "uint256",
          "name": "_new_price_subscription",
          "type": "uint256"
        }
      ],
      "name": "changePriceSubscription",
      "outputs": [],
      "stateMutability": "nonpayable",
      "type": "function"
    },
    {
      "inputs": [
        {
          "internalType": "uint256",
          "name": "_new_price_transfers",
          "type": "uint256"
        }
      ],
      "name": "changePriceTransfer",
      "outputs": [],
      "stateMutability": "nonpayable",
      "type": "function"
    },
    {
      "inputs": [
        {
          "internalType": "address",
          "name": "_owner",
          "type": "address"
        }
      ],
      "name": "countOwnerProperties",
      "outputs": [
        {
          "internalType": "uint256",
          "name": "",
          "type": "uint256"
        }
      ],
      "stateMutability": "view",
      "type": "function"
    },
    {
      "inputs": [
        {
          "internalType": "address",
          "name": "",
          "type": "address"
        }
      ],
      "name": "customerBalance",
      "outputs": [
        {
          "internalType": "uint256",
          "name": "",
          "type": "uint256"
        }
      ],
      "stateMutability": "view",
      "type": "function"
    },
    {
      "inputs": [
        {
          "internalType": "address",
          "name": "_owner",
          "type": "address"
        }
      ],
      "name": "findOwner",
      "outputs": [
        {
          "internalType": "string",
          "name": "",
          "type": "string"
        },
        {
          "internalType": "string",
          "name": "",
          "type": "string"
        }
      ],
      "stateMutability": "view",
      "type": "function"
    },
    {
      "inputs": [
        {
          "internalType": "uint256",
          "name": "_id",
          "type": "uint256"
        }
      ],
      "name": "findPropertyOwner",
      "outputs": [
        {
          "internalType": "string",
          "name": "",
          "type": "string"
        },
        {
          "internalType": "string",
          "name": "",
          "type": "string"
        },
        {
          "internalType": "address",
          "name": "",
          "type": "address"
        }
      ],
      "stateMutability": "view",
      "type": "function"
    },
    {
      "inputs": [
        {
          "internalType": "address",
          "name": "_owner",
          "type": "address"
        }
      ],
      "name": "find_properties",
      "outputs": [
        {
          "internalType": "uint256[]",
          "name": "",
          "type": "uint256[]"
        }
      ],
      "stateMutability": "view",
      "type": "function"
    },
    {
      "inputs": [
        {
          "internalType": "address",
          "name": "",
          "type": "address"
        }
      ],
      "name": "ownerPropertyCount",
      "outputs": [
        {
          "internalType": "uint256",
          "name": "",
          "type": "uint256"
        }
      ],
      "stateMutability": "view",
      "type": "function"
    },
    {
      "inputs": [
        {
          "internalType": "address",
          "name": "",
          "type": "address"
        },
        {
          "internalType": "uint256",
          "name": "",
          "type": "uint256"
        }
      ],
      "name": "owner_to_property",
      "outputs": [
        {
          "internalType": "uint256",
          "name": "",
          "type": "uint256"
        }
      ],
      "stateMutability": "view",
      "type": "function"
    },
    {
      "inputs": [
        {
          "internalType": "uint256",
          "name": "",
          "type": "uint256"
        }
      ],
      "name": "owners",
      "outputs": [
        {
          "internalType": "uint256",
          "name": "id",
          "type": "uint256"
        },
        {
          "internalType": "string",
          "name": "firstName",
          "type": "string"
        },
        {
          "internalType": "string",
          "name": "lastName",
          "type": "string"
        },
        {
          "internalType": "string",
          "name": "codiceFisc",
          "type": "string"
        },
        {
          "internalType": "string",
          "name": "docType",
          "type": "string"
        },
        {
          "internalType": "string",
          "name": "docNumber",
          "type": "string"
        }
      ],
      "stateMutability": "view",
      "type": "function"
    },
    {
      "inputs": [
        {
          "internalType": "uint256",
          "name": "",
          "type": "uint256"
        }
      ],
      "name": "properties",
      "outputs": [
        {
          "internalType": "uint256",
          "name": "id",
          "type": "uint256"
        },
        {
          "internalType": "uint256",
          "name": "sqm",
          "type": "uint256"
        },
        {
          "internalType": "uint256",
          "name": "floor",
          "type": "uint256"
        },
        {
          "internalType": "uint256",
          "name": "zipCode",
          "type": "uint256"
        },
        {
          "internalType": "string",
          "name": "country",
          "type": "string"
        },
        {
          "internalType": "string",
          "name": "region",
          "type": "string"
        },
        {
          "internalType": "string",
          "name": "city",
          "type": "string"
        },
        {
          "internalType": "string",
          "name": "street",
          "type": "string"
        },
        {
          "internalType": "string",
          "name": "streetnum",
          "type": "string"
        },
        {
          "internalType": "string",
          "name": "addressAdditional",
          "type": "string"
        },
        {
          "internalType": "string",
          "name": "houseType",
          "type": "string"
        }
      ],
      "stateMutability": "view",
      "type": "function"
    },
    {
      "inputs": [
        {
          "internalType": "string",
          "name": "_firstName",
          "type": "string"
        },
        {
          "internalType": "string",
          "name": "_lastName",
          "type": "string"
        },
        {
          "internalType": "address",
          "name": "_address",
          "type": "address"
        },
        {
          "internalType": "string",
          "name": "_codiceFiscale",
          "type": "string"
        },
        {
          "internalType": "string",
          "name": "_docType",
          "type": "string"
        },
        {
          "internalType": "string",
          "name": "_docNumber",
          "type": "string"
        }
      ],
      "name": "registerOwner",
      "outputs": [],
      "stateMutability": "nonpayable",
      "type": "function"
    },
    {
      "inputs": [
        {
          "internalType": "address",
          "name": "_Owner",
          "type": "address"
        },
        {
          "internalType": "uint256",
          "name": "_areaSqm",
          "type": "uint256"
        },
        {
          "internalType": "uint256",
          "name": "_floor",
          "type": "uint256"
        },
        {
          "internalType": "uint256",
          "name": "_zipCode",
          "type": "uint256"
        },
        {
          "internalType": "string",
          "name": "_country",
          "type": "string"
        },
        {
          "internalType": "string",
          "name": "_region",
          "type": "string"
        },
        {
          "internalType": "string",
          "name": "_city",
          "type": "string"
        },
        {
          "internalType": "string",
          "name": "_street",
          "type": "string"
        },
        {
          "internalType": "string",
          "name": "_streetNumber",
          "type": "string"
        },
        {
          "internalType": "string",
          "name": "_addressAdditional",
          "type": "string"
        },
        {
          "internalType": "string",
          "name": "_houseType",
          "type": "string"
        }
      ],
      "name": "registerProperty",
      "outputs": [],
      "stateMutability": "nonpayable",
      "type": "function"
    },
    {
      "inputs": [],
      "name": "revenue",
      "outputs": [
        {
          "internalType": "uint256",
          "name": "",
          "type": "uint256"
        }
      ],
      "stateMutability": "view",
      "type": "function"
    },
    {
      "inputs": [],
      "name": "showBalance",
      "outputs": [
        {
          "internalType": "uint256",
          "name": "",
          "type": "uint256"
        }
      ],
      "stateMutability": "view",
      "type": "function"
    },
    {
      "inputs": [
        {
          "internalType": "address",
          "name": "_owner",
          "type": "address"
        }
      ],
      "name": "showOwnerBalance",
      "outputs": [
        {
          "internalType": "uint256",
          "name": "",
          "type": "uint256"
        }
      ],
      "stateMutability": "view",
      "type": "function"
    },
    {
      "inputs": [],
      "name": "showOwnersCount",
      "outputs": [
        {
          "internalType": "uint256",
          "name": "",
          "type": "uint256"
        }
      ],
      "stateMutability": "view",
      "type": "function"
    },
    {
      "inputs": [],
      "name": "showPropertyCount",
      "outputs": [
        {
          "internalType": "uint256",
          "name": "",
          "type": "uint256"
        }
      ],
      "stateMutability": "view",
      "type": "function"
    },
    {
      "inputs": [],
      "name": "showRegistrationPrice",
      "outputs": [
        {
          "internalType": "uint256",
          "name": "",
          "type": "uint256"
        }
      ],
      "stateMutability": "view",
      "type": "function"
    },
    {
      "inputs": [],
      "name": "showSubsriptionPrice",
      "outputs": [
        {
          "internalType": "uint256",
          "name": "",
          "type": "uint256"
        }
      ],
      "stateMutability": "view",
      "type": "function"
    },
    {
      "inputs": [],
      "name": "showTransferPrice",
      "outputs": [
        {
          "internalType": "uint256",
          "name": "",
          "type": "uint256"
        }
      ],
      "stateMutability": "view",
      "type": "function"
    },
    {
      "inputs": [],
      "name": "show_revenue",
      "outputs": [
        {
          "internalType": "uint256",
          "name": "",
          "type": "uint256"
        }
      ],
      "stateMutability": "view",
      "type": "function"
    },
    {
      "inputs": [],
      "name": "show_sub_count",
      "outputs": [
        {
          "internalType": "uint256",
          "name": "",
          "type": "uint256"
        }
      ],
      "stateMutability": "view",
      "type": "function"
    },
    {
      "inputs": [
        {
          "internalType": "address",
          "name": "to_unsub",
          "type": "address"
        }
      ],
      "name": "sub_expired",
      "outputs": [],
      "stateMutability": "nonpayable",
      "type": "function"
    },
    {
      "inputs": [],
      "name": "subscribe",
      "outputs": [],
      "stateMutability": "nonpayable",
      "type": "function"
    },
    {
      "inputs": [
        {
          "internalType": "uint256",
          "name": "",
          "type": "uint256"
        }
      ],
      "name": "subscribersList",
      "outputs": [
        {
          "internalType": "address",
          "name": "",
          "type": "address"
        }
      ],
      "stateMutability": "view",
      "type": "function"
    },
    {
      "inputs": [],
      "name": "subscription_payments",
      "outputs": [],
      "stateMutability": "nonpayable",
      "type": "function"
    },
    {
      "inputs": [],
      "name": "unsubscribe",
      "outputs": [],
      "stateMutability": "nonpayable",
      "type": "function"
    },
    {
      "stateMutability": "payable",
      "type": "receive"
    }
  ],
  "bytecode": "60806040526001600655600160075560146008556005600955600a60125534801561002957600080fd5b50600b80546001600160a01b0319163317905560016011556130b7806100506000396000f3fe6080604052600436106102085760003560e01c80638d5d391111610118578063c38c1b35116100a0578063eda943b51161006f578063eda943b514610664578063f26ec41714610691578063f7b10808146106b1578063f969c083146106e8578063fcae4484146106fd57600080fd5b8063c38c1b35146105d9578063dd7bfcb8146105f9578063e2d24b441461060e578063e3c16efe1461062e57600080fd5b80639bdb448f116100e75780639bdb448f1461054f578063a33b12601461056f578063abe1dcf914610577578063aeb272e814610597578063b7440467146105ac57600080fd5b80638d5d3911146104f05780638f449a051461051057806392fd14d0146105255780639aa8ae9e1461053a57600080fd5b80633e9491a21161019b5780635bcf45901161016a5780635bcf45901461043f57806360e38ae21461045f5780637399a7191461048e57806381b2d07b146104ae57806389cb8f6d146104c357600080fd5b80633e9491a2146103b9578063421235d5146103cf5780634fd1f68b146103fc57806351d9f2491461042a57600080fd5b80632e735c7d116101d75780632e735c7d14610321578063306acf0214610357578063311cadb31461036c57806337ebe47b1461038c57600080fd5b8063025e7c271461026d5780630c12f4d2146102a8578063225898c9146102c75780632a32d1a6146102ff57600080fd5b3661026857336000908152602081905260409020546102425760405162461bcd60e51b8152600401610239906127df565b60405180910390fd5b3360009081526003602052604081208054349290610261908490612825565b9091555050005b600080fd5b34801561027957600080fd5b5061028d61028836600461283d565b610712565b60405161029f969594939291906128a3565b60405180910390f35b3480156102b457600080fd5b506012545b60405190815260200161029f565b3480156102d357600080fd5b506102e76102e236600461283d565b610a02565b6040516001600160a01b03909116815260200161029f565b34801561030b57600080fd5b5061031f61031a36600461292e565b610a2c565b005b34801561032d57600080fd5b506102b961033c36600461292e565b6001600160a01b031660009081526003602052604090205490565b34801561036357600080fd5b506008546102b9565b34801561037857600080fd5b5061031f61038736600461283d565b610c17565b34801561039857600080fd5b506102b96103a736600461292e565b60036020526000908152604090205481565b3480156103c557600080fd5b506102b9600a5481565b3480156103db57600080fd5b506102b96103ea36600461292e565b60006020819052908152604090205481565b34801561040857600080fd5b5061041c61041736600461292e565b610c46565b60405161029f929190612950565b34801561043657600080fd5b5061031f610e0e565b34801561044b57600080fd5b5061031f61045a366004612a21565b6110d0565b34801561046b57600080fd5b5061047f61047a36600461283d565b6111c0565b60405161029f93929190612b71565b34801561049a57600080fd5b506102e76104a936600461283d565b611372565b3480156104ba57600080fd5b506102b9611382565b3480156104cf57600080fd5b506102b96104de36600461292e565b60016020526000908152604090205481565b3480156104fc57600080fd5b5061031f61050b366004612baf565b6113b4565b34801561051c57600080fd5b5061031f61163f565b34801561053157600080fd5b506009546102b9565b34801561054657600080fd5b506102b9611786565b34801561055b57600080fd5b506102b961056a366004612c90565b61179c565b61031f6117cd565b34801561058357600080fd5b5061031f610592366004612cba565b6118c0565b3480156105a357600080fd5b50600d546102b9565b3480156105b857600080fd5b506105cc6105c736600461292e565b611c3e565b60405161029f9190612ce6565b3480156105e557600080fd5b5061031f6105f4366004612d2a565b611cd6565b34801561060557600080fd5b506102b9612108565b34801561061a57600080fd5b5061031f61062936600461283d565b61213c565b34801561063a57600080fd5b506102b961064936600461292e565b6001600160a01b031660009081526001602052604090205490565b34801561067057600080fd5b506102b961067f36600461283d565b60056020526000908152604090205481565b34801561069d57600080fd5b5061031f6106ac36600461283d565b61216b565b3480156106bd57600080fd5b506106d16106cc36600461283d565b61219a565b60405161029f9b9a99989796959493929190612d86565b3480156106f457600080fd5b50600c546102b9565b34801561070957600080fd5b5061031f6125bc565b600d818154811061072257600080fd5b6000918252602090912060069091020180546001820180549193509061074790612e3f565b80601f016020809104026020016040519081016040528092919081815260200182805461077390612e3f565b80156107c05780601f10610795576101008083540402835291602001916107c0565b820191906000526020600020905b8154815290600101906020018083116107a357829003601f168201915b5050505050908060020180546107d590612e3f565b80601f016020809104026020016040519081016040528092919081815260200182805461080190612e3f565b801561084e5780601f106108235761010080835404028352916020019161084e565b820191906000526020600020905b81548152906001019060200180831161083157829003601f168201915b50505050509080600301805461086390612e3f565b80601f016020809104026020016040519081016040528092919081815260200182805461088f90612e3f565b80156108dc5780601f106108b1576101008083540402835291602001916108dc565b820191906000526020600020905b8154815290600101906020018083116108bf57829003601f168201915b5050505050908060040180546108f190612e3f565b80601f016020809104026020016040519081016040528092919081815260200182805461091d90612e3f565b801561096a5780601f1061093f5761010080835404028352916020019161096a565b820191906000526020600020905b81548152906001019060200180831161094d57829003601f168201915b50505050509080600501805461097f90612e3f565b80601f01602080910402602001604051908101604052809291908181526020018280546109ab90612e3f565b80156109f85780601f106109cd576101008083540402835291602001916109f8565b820191906000526020600020905b8154815290600101906020018083116109db57829003601f168201915b5050505050905086565b600e8181548110610a1257600080fd5b6000918252602090912001546001600160a01b0316905081565b600b546001600160a01b03163314610a565760405162461bcd60e51b815260040161023990612e7a565b6001600160a01b0381166000908152601060208190526040822054600f80549193849392909190610a8990600190612ea5565b81548110610a9957610a99612ebc565b60009182526020808320909101546001600160a01b03168352820192909252604001902055600f8054610ace90600190612ea5565b81548110610ade57610ade612ebc565b6000918252602090912001546001600160a01b0316600f610b00600184612ea5565b81548110610b1057610b10612ebc565b9060005260206000200160006101000a8154816001600160a01b0302191690836001600160a01b03160217905550600f805480610b4f57610b4f612ed2565b600082815260208120820160001990810180546001600160a01b03191690559091019091556011805491610b8283612ee8565b9091555050604080516001600160a01b0384168152602081018290526034818301527f537562736372697074696f6e207761732063616e63656c6c65642064756520746060820152736f20696e73756666696369656e742066756e647360601b608082015290517f3820b84434df6b8f4a780dd9b9b085656177396049560008538ace1982b6a9a89181900360a00190a15050565b600b546001600160a01b03163314610c415760405162461bcd60e51b815260040161023990612e7a565b601255565b600b5460609081906001600160a01b03163314610c755760405162461bcd60e51b815260040161023990612e7a565b6001600160a01b038316600090815260208190526040902054600d610c9b600183612ea5565b81548110610cab57610cab612ebc565b9060005260206000209060060201600101600d600183610ccb9190612ea5565b81548110610cdb57610cdb612ebc565b9060005260206000209060060201600201818054610cf890612e3f565b80601f0160208091040260200160405190810160405280929190818152602001828054610d2490612e3f565b8015610d715780601f10610d4657610100808354040283529160200191610d71565b820191906000526020600020905b815481529060010190602001808311610d5457829003601f168201915b50505050509150808054610d8490612e3f565b80601f0160208091040260200160405190810160405280929190818152602001828054610db090612e3f565b8015610dfd5780601f10610dd257610100808354040283529160200191610dfd565b820191906000526020600020905b815481529060010190602001808311610de057829003601f168201915b505050505090509250925050915091565b600b546001600160a01b03163314610e385760405162461bcd60e51b815260040161023990612e7a565b60005b600f548110156110cd5760125460036000600f8481548110610e5f57610e5f612ebc565b60009182526020808320909101546001600160a01b031683528201929092526040019020541015610ebf57610eba600f8281548110610ea057610ea0612ebc565b6000918252602090912001546001600160a01b0316610a2c565b6110bb565b601254610ecd906002612eff565b60036000600f8481548110610ee457610ee4612ebc565b60009182526020808320909101546001600160a01b03168352820192909252604001902054101561104d5760006001600080600f8581548110610f2957610f29612ebc565b60009182526020808320909101546001600160a01b03168352820192909252604001902054610f589190612ea5565b90507f65b02c2fe6d7199c80cadf78baf63e66bcb939ba143d259cc28881a8f05ac92a600d8281548110610f8e57610f8e612ebc565b9060005260206000209060060201600101600d8381548110610fb257610fb2612ebc565b9060005260206000209060060201600201604051610fd1929190612fbe565b60405180910390a160125460036000600f8581548110610ff357610ff3612ebc565b60009182526020808320909101546001600160a01b0316835282019290925260400181208054909190611027908490612ea5565b9091555050601254600a8054600090611041908490612825565b909155506110bb915050565b60125460036000600f848154811061106757611067612ebc565b60009182526020808320909101546001600160a01b031683528201929092526040018120805490919061109b908490612ea5565b9091555050601254600a80546000906110b5908490612825565b90915550505b806110c581612fe3565b915050610e3b565b50565b6000600c6110df60018e612ea5565b815481106110ef576110ef612ebc565b60009182526020918290206001600b909202019081018d9055600281018c9055600381018b9055895190925061112d916004840191908b0190612746565b50865161114390600583019060208a0190612746565b5085516111599060068301906020890190612746565b50845161116f9060078301906020880190612746565b5083516111859060088301906020870190612746565b50825161119b9060098301906020860190612746565b5081516111b190600a8301906020850190612746565b50505050505050505050505050565b6000818152600260209081526040808320546001600160a01b03168084529183905282205460609283929091600d6111f9600183612ea5565b8154811061120957611209612ebc565b9060005260206000209060060201600101600d6001836112299190612ea5565b8154811061123957611239612ebc565b90600052602060002090600602016002018382805461125790612e3f565b80601f016020809104026020016040519081016040528092919081815260200182805461128390612e3f565b80156112d05780601f106112a5576101008083540402835291602001916112d0565b820191906000526020600020905b8154815290600101906020018083116112b357829003601f168201915b505050505092508180546112e390612e3f565b80601f016020809104026020016040519081016040528092919081815260200182805461130f90612e3f565b801561135c5780601f106113315761010080835404028352916020019161135c565b820191906000526020600020905b81548152906001019060200180831161133f57829003601f168201915b5050505050915094509450945050509193909250565b600f8181548110610a1257600080fd5b600b546000906001600160a01b031633146113af5760405162461bcd60e51b815260040161023990612e7a565b504790565b600b546001600160a01b031633146113de5760405162461bcd60e51b815260040161023990612e7a565b6001600160a01b038416600090815260208190526040902054156114445760405162461bcd60e51b815260206004820152601e60248201527f4164647265737320697320616c726561647920726567697374657265642e00006044820152606401610239565b6040805160c08101825260068054825260208083018a8152938301899052606083018790526080830186905260a08301859052600d8054600181018255600091909152835192027fd7b6990105719101dabeb77144f2a3385c8033acd3af97e9423a695e81ad1eb5810192835593518051939492936114ea937fd7b6990105719101dabeb77144f2a3385c8033acd3af97e9423a695e81ad1eb601929190910190612746565b5060408201518051611506916002840191602090910190612746565b5060608201518051611522916003840191602090910190612746565b506080820151805161153e916004840191602090910190612746565b5060a0820151805161155a916005840191602090910190612746565b5050600e80546001810182556000919091527fbb7b4a454dc3493923482f07822329ed19e8244eff582cc204f8554c3620c3fd0180546001600160a01b0319166001600160a01b038716179055506006546040517fe6d2b367293bc1ae37f7c0ecd6e2fb1df341a2c0194e8d70775c415495b8ace5916115e6918791908a908a90899089908990612ffe565b60405180910390a1600680546001600160a01b038616600090815260208190526040812082905590919061161983612fe3565b9091555050506001600160a01b0390921660009081526003602052604081205550505050565b3360009081526020819052604090205461166b5760405162461bcd60e51b8152600401610239906127df565b336000908152600160205260409020546116ed5760405162461bcd60e51b815260206004820152603e60248201527f506c6561736520726567697374657220612070726f7065727479206265666f7260448201527f65207375627363726962696e6720746f207468697320736572766963652e00006064820152608401610239565b600f8054600181019091557f8d1108e10bcb7c27dddfc02ed9d693a074039d026cf4ea4240b40f7d581ac8020180546001600160a01b031916339081179091556011805460009283526010602052604083208190559161174c83612fe3565b90915550506040513381527fe43e86faaac76243cb61b453af8c2c147217afb896a2b336dd6eca7e0203e2479060200160405180910390a1565b600060016011546117979190612ea5565b905090565b600460205281600052604060002081815481106117b857600080fd5b90600052602060002001600091509150505481565b600b546001600160a01b031633146117f75760405162461bcd60e51b815260040161023990612e7a565b600b546001600160a01b0316600a471161181057600080fd5b6000600a80546118209190612ea5565b600a80556040519091506000906001600160a01b0384169083908381818185875af1925050503d8060008114611872576040519150601f19603f3d011682016040523d82523d6000602084013e611877565b606091505b50509050806118bb5760405162461bcd60e51b815260206004820152601060248201526f2a3930b739b332b9103330b4b632b21760811b6044820152606401610239565b505050565b6000828152600260205260409020546001600160a01b031633146119655760405162461bcd60e51b815260206004820152605060248201527f4f6e6c79204f776e6572732063616e207472616e736665722070726f7065727460448201527f792e20576520646f206e6f74206861766520796f75206173206f776e6572206f60648201526f33103a3434b990383937b832b93a3c9760811b608482015260a401610239565b6009546001600160a01b03821660009081526003602052604090205410156119f55760405162461bcd60e51b815260206004820152603760248201527f42616c616e6365206f662061206e6577206f776e657220697320746f6f206c6f60448201527f7720746f207472616e736665722070726f70657274792e0000000000000000006064820152608401610239565b6001600160a01b038116600090815260208190526040902054611a5a5760405162461bcd60e51b815260206004820152601b60248201527f4e6577206f776e6572206973206e6f74207265676973746572656400000000006044820152606401610239565b600082815260026020908152604080832080546001600160a01b0319166001600160a01b038616179055338352600490915290208054611a9c90600190612ea5565b81548110611aac57611aac612ebc565b6000918252602080832090910154338352600482526040808420600754855260059093529092205481548110611ae457611ae4612ebc565b6000918252602080832090910192909255338152600490915260409020805480611b1057611b10612ed2565b6000828152602080822083016000199081018390559092019092556001600160a01b0383168083526004825260408084208054600181810183559186528486200187905591845291528120805491611b6783612fe3565b90915550506001600160a01b038116600090815260016020818152604080842054600754855260058352818520553384529190528120805491611ba983612ee8565b9091555050604080516001600160a01b0383168152602081018490527fbf0996050d830a4094913360f3aca6a3d35dc19fbda52e1f983f5e1e3c5f8f2d910160405180910390a16009546001600160a01b03821660009081526003602052604081208054909190611c1b908490612ea5565b9091555050600954600a8054600090611c35908490612825565b90915550505050565b600b546060906001600160a01b03163314611c6b5760405162461bcd60e51b815260040161023990612e7a565b6001600160a01b03821660009081526004602090815260409182902080548351818402810184019094528084529091830182828015611cc957602002820191906000526020600020905b815481526020019060010190808311611cb5575b505050505090505b919050565b600b546001600160a01b03163314611d005760405162461bcd60e51b815260040161023990612e7a565b6008546001600160a01b038c166000908152600360205260409020541015611da85760405162461bcd60e51b815260206004820152604f60248201527f42616c616e636520746f6f206c6f7720746f2072656769737465722070726f7060448201527f657274792e20506c6561736520696e63726561736520796f75722062616c616e60648201526e31b29013103a393c9030b3b0b4b71760891b608482015260a401610239565b6040805161016081018252600754815260208082018d81529282018c8152606083018c8152608084018c815260a085018c905260c085018b905260e085018a9052610100850189905261012085018890526101408501879052600c80546001810182556000919091528551600b9091027fdf6966c971051c3d54ec59162606531493a51404a002842f56009d7e5cf4a8c7810191825596517fdf6966c971051c3d54ec59162606531493a51404a002842f56009d7e5cf4a8c888015592517fdf6966c971051c3d54ec59162606531493a51404a002842f56009d7e5cf4a8c987015590517fdf6966c971051c3d54ec59162606531493a51404a002842f56009d7e5cf4a8ca86015551805193949193611eea937fdf6966c971051c3d54ec59162606531493a51404a002842f56009d7e5cf4a8cb909301929190910190612746565b5060a08201518051611f06916005840191602090910190612746565b5060c08201518051611f22916006840191602090910190612746565b5060e08201518051611f3e916007840191602090910190612746565b506101008201518051611f5b916008840191602090910190612746565b506101208201518051611f78916009840191602090910190612746565b506101408201518051611f9591600a840191602090910190612746565b5050507f7a320318f8ddfe7528cb7b0a1fdaf9466f7fd11a31f4d72ed4c96a07624589d96007548b8b8b8b8b8b8b8b8b8b604051611fdd9b9a99989796959493929190612d86565b60405180910390a18a60026000600754815260200190815260200160002060006101000a8154816001600160a01b0302191690836001600160a01b03160217905550600160008c6001600160a01b03166001600160a01b03168152602001908152602001600020600081548092919061205590612fe3565b90915550506001600160a01b038b166000818152600460209081526040808320600780548254600181810185559387528587200155948452825280832054845484526005909252822055815491906120ac83612fe3565b90915550506008546001600160a01b038c16600090815260036020526040812080549091906120dc908490612ea5565b9091555050600854600a80546000906120f6908490612825565b90915550505050505050505050505050565b600b546000906001600160a01b031633146121355760405162461bcd60e51b815260040161023990612e7a565b50600a5490565b600b546001600160a01b031633146121665760405162461bcd60e51b815260040161023990612e7a565b600855565b600b546001600160a01b031633146121955760405162461bcd60e51b815260040161023990612e7a565b600955565b600c81815481106121aa57600080fd5b90600052602060002090600b02016000915090508060000154908060010154908060020154908060030154908060040180546121e590612e3f565b80601f016020809104026020016040519081016040528092919081815260200182805461221190612e3f565b801561225e5780601f106122335761010080835404028352916020019161225e565b820191906000526020600020905b81548152906001019060200180831161224157829003601f168201915b50505050509080600501805461227390612e3f565b80601f016020809104026020016040519081016040528092919081815260200182805461229f90612e3f565b80156122ec5780601f106122c1576101008083540402835291602001916122ec565b820191906000526020600020905b8154815290600101906020018083116122cf57829003601f168201915b50505050509080600601805461230190612e3f565b80601f016020809104026020016040519081016040528092919081815260200182805461232d90612e3f565b801561237a5780601f1061234f5761010080835404028352916020019161237a565b820191906000526020600020905b81548152906001019060200180831161235d57829003601f168201915b50505050509080600701805461238f90612e3f565b80601f01602080910402602001604051908101604052809291908181526020018280546123bb90612e3f565b80156124085780601f106123dd57610100808354040283529160200191612408565b820191906000526020600020905b8154815290600101906020018083116123eb57829003601f168201915b50505050509080600801805461241d90612e3f565b80601f016020809104026020016040519081016040528092919081815260200182805461244990612e3f565b80156124965780601f1061246b57610100808354040283529160200191612496565b820191906000526020600020905b81548152906001019060200180831161247957829003601f168201915b5050505050908060090180546124ab90612e3f565b80601f01602080910402602001604051908101604052809291908181526020018280546124d790612e3f565b80156125245780601f106124f957610100808354040283529160200191612524565b820191906000526020600020905b81548152906001019060200180831161250757829003601f168201915b50505050509080600a01805461253990612e3f565b80601f016020809104026020016040519081016040528092919081815260200182805461256590612e3f565b80156125b25780601f10612587576101008083540402835291602001916125b2565b820191906000526020600020905b81548152906001019060200180831161259557829003601f168201915b505050505090508b565b336000908152602081905260409020546125e85760405162461bcd60e51b8152600401610239906127df565b336000908152601060208190526040822054600f8054919384939290919061261290600190612ea5565b8154811061262257612622612ebc565b60009182526020808320909101546001600160a01b03168352820192909252604001902055600f805461265790600190612ea5565b8154811061266757612667612ebc565b6000918252602090912001546001600160a01b0316600f612689600184612ea5565b8154811061269957612699612ebc565b9060005260206000200160006101000a8154816001600160a01b0302191690836001600160a01b03160217905550600f8054806126d8576126d8612ed2565b600082815260208120820160001990810180546001600160a01b0319169055909101909155601180549161270b83612ee8565b90915550506040513381527f8014b222f8096605728ba3f51b1cefd8c3a9af47f7b9626833532ac2ac9cdb369060200160405180910390a150565b82805461275290612e3f565b90600052602060002090601f01602090048101928261277457600085556127ba565b82601f1061278d57805160ff19168380011785556127ba565b828001600101855582156127ba579182015b828111156127ba57825182559160200191906001019061279f565b506127c69291506127ca565b5090565b5b808211156127c657600081556001016127cb565b602080825260169082015275165bdd48185c99481b9bdd081c9959da5cdd195c995960521b604082015260600190565b634e487b7160e01b600052601160045260246000fd5b600082198211156128385761283861280f565b500190565b60006020828403121561284f57600080fd5b5035919050565b6000815180845260005b8181101561287c57602081850181015186830182015201612860565b8181111561288e576000602083870101525b50601f01601f19169290920160200192915050565b86815260c0602082015260006128bc60c0830188612856565b82810360408401526128ce8188612856565b905082810360608401526128e28187612856565b905082810360808401526128f68186612856565b905082810360a084015261290a8185612856565b9998505050505050505050565b80356001600160a01b0381168114611cd157600080fd5b60006020828403121561294057600080fd5b61294982612917565b9392505050565b6040815260006129636040830185612856565b82810360208401526129758185612856565b95945050505050565b634e487b7160e01b600052604160045260246000fd5b600082601f8301126129a557600080fd5b813567ffffffffffffffff808211156129c0576129c061297e565b604051601f8301601f19908116603f011681019082821181831017156129e8576129e861297e565b81604052838152866020858801011115612a0157600080fd5b836020870160208301376000602085830101528094505050505092915050565b60008060008060008060008060008060006101608c8e031215612a4357600080fd5b8b359a5060208c0135995060408c0135985060608c0135975067ffffffffffffffff8060808e01351115612a7657600080fd5b612a868e60808f01358f01612994565b97508060a08e01351115612a9957600080fd5b612aa98e60a08f01358f01612994565b96508060c08e01351115612abc57600080fd5b612acc8e60c08f01358f01612994565b95508060e08e01351115612adf57600080fd5b612aef8e60e08f01358f01612994565b9450806101008e01351115612b0357600080fd5b612b148e6101008f01358f01612994565b9350806101208e01351115612b2857600080fd5b612b398e6101208f01358f01612994565b9250806101408e01351115612b4d57600080fd5b50612b5f8d6101408e01358e01612994565b90509295989b509295989b9093969950565b606081526000612b846060830186612856565b8281036020840152612b968186612856565b91505060018060a01b0383166040830152949350505050565b60008060008060008060c08789031215612bc857600080fd5b863567ffffffffffffffff80821115612be057600080fd5b612bec8a838b01612994565b97506020890135915080821115612c0257600080fd5b612c0e8a838b01612994565b9650612c1c60408a01612917565b95506060890135915080821115612c3257600080fd5b612c3e8a838b01612994565b94506080890135915080821115612c5457600080fd5b612c608a838b01612994565b935060a0890135915080821115612c7657600080fd5b50612c8389828a01612994565b9150509295509295509295565b60008060408385031215612ca357600080fd5b612cac83612917565b946020939093013593505050565b60008060408385031215612ccd57600080fd5b82359150612cdd60208401612917565b90509250929050565b6020808252825182820181905260009190848201906040850190845b81811015612d1e57835183529284019291840191600101612d02565b50909695505050505050565b60008060008060008060008060008060006101608c8e031215612d4c57600080fd5b612d558c612917565b9a5060208c0135995060408c0135985060608c0135975067ffffffffffffffff8060808e01351115612a7657600080fd5b60006101608d83528c60208401528b60408401528a6060840152806080840152612db28184018b612856565b905082810360a0840152612dc6818a612856565b905082810360c0840152612dda8189612856565b905082810360e0840152612dee8188612856565b9050828103610100840152612e038187612856565b9050828103610120840152612e188186612856565b9050828103610140840152612e2d8185612856565b9e9d5050505050505050505050505050565b600181811c90821680612e5357607f821691505b60208210811415612e7457634e487b7160e01b600052602260045260246000fd5b50919050565b60208082526011908201527014195c9b5a5cdcda5bdb8819195b9a5959607a1b604082015260600190565b600082821015612eb757612eb761280f565b500390565b634e487b7160e01b600052603260045260246000fd5b634e487b7160e01b600052603160045260246000fd5b600081612ef757612ef761280f565b506000190190565b6000816000190483118215151615612f1957612f1961280f565b500290565b8054600090600181811c9080831680612f3857607f831692505b6020808410821415612f5a57634e487b7160e01b600052602260045260246000fd5b83885260208801828015612f755760018114612f8657612fb1565b60ff19871682528282019750612fb1565b60008981526020902060005b87811015612fab57815484820152908601908401612f92565b83019850505b5050505050505092915050565b604081526000612fd16040830185612f1e565b82810360208401526129758185612f1e565b6000600019821415612ff757612ff761280f565b5060010190565b60018060a01b038816815286602082015260e06040820152600061302560e0830188612856565b82810360608401526130378188612856565b9050828103608084015261304b8187612856565b905082810360a084015261305f8186612856565b905082810360c08401526130738185612856565b9a995050505050505050505056fea26469706673582212204844a435f299fde6dae5b6b13810ecf3637da9fb526332e4827db21e2f2428c664736f6c634300080b0033",
  "bytecodeSha1": "f410374a960e8187bd0e2b44d3062d429a4073ca",
  "compiler": {
    "evm_version": "istanbul",
    "optimizer": {
      "enabled": true,
      "runs": 200
    },
    "version": "0.8.11+commit.d7f03943"
  },
  "contractName": "Subscription",
  "language": "Solidity",
  "natspec": {
    "kind": "dev",
    "methods": {},
    "version": 1
  },
  "opcodes": "PUSH1 0x80 PUSH1 0x40 MSTORE PUSH1 0x4 CALLDATASIZE LT PUSH2 0x208 JUMPI PUSH1 0x0 CALLDATALOAD PUSH1 0xE0 SHR DUP1 PUSH4 0x8D5D3911 GT PUSH2 0x118 JUMPI DUP1 PUSH4 0xC38C1B35 GT PUSH2 0xA0 JUMPI DUP1 PUSH4 0xEDA943B5 GT PUSH2 0x6F JUMPI DUP1 PUSH4 0xEDA943B5 EQ PUSH2 0x664 JUMPI DUP1 PUSH4 0xF26EC417 EQ PUSH2 0x691 JUMPI DUP1 PUSH4 0xF7B10808 EQ PUSH2 0x6B1 JUMPI DUP1 PUSH4 0xF969C083 EQ PUSH2 0x6E8 JUMPI DUP1 PUSH4 0xFCAE4484 EQ PUSH2 0x6FD JUMPI PUSH1 0x0 DUP1 REVERT JUMPDEST DUP1 PUSH4 0xC38C1B35 EQ PUSH2 0x5D9 JUMPI DUP1 PUSH4 0xDD7BFCB8 EQ PUSH2 0x5F9 JUMPI DUP1 PUSH4 0xE2D24B44 EQ PUSH2 0x60E JUMPI DUP1 PUSH4 0xE3C16EFE EQ PUSH2 0x62E JUMPI PUSH1 0x0 DUP1 REVERT JUMPDEST DUP1 PUSH4 0x9BDB448F GT PUSH2 0xE7 JUMPI DUP1 PUSH4 0x9BDB448F EQ PUSH2 0x54F JUMPI DUP1 PUSH4 0xA33B1260 EQ PUSH2 0x56F JUMPI DUP1 PUSH4 0xABE1DCF9 EQ PUSH2 0x577 JUMPI DUP1 PUSH4 0xAEB272E8 EQ PUSH2 0x597 JUMPI DUP1 PUSH4 0xB7440467 EQ PUSH2 0x5AC JUMPI PUSH1 0x0 DUP1 REVERT JUMPDEST DUP1 PUSH4 0x8D5D3911 EQ PUSH2 0x4F0 JUMPI DUP1 PUSH4 0x8F449A05 EQ PUSH2 0x510 JUMPI DUP1 PUSH4 0x92FD14D0 EQ PUSH2 0x525 JUMPI DUP1 PUSH4 0x9AA8AE9E EQ PUSH2 0x53A JUMPI PUSH1 0x0 DUP1 REVERT JUMPDEST DUP1 PUSH4 0x3E9491A2 GT PUSH2 0x19B JUMPI DUP1 PUSH4 0x5BCF4590 GT PUSH2 0x16A JUMPI DUP1 PUSH4 0x5BCF4590 EQ PUSH2 0x43F JUMPI DUP1 PUSH4 0x60E38AE2 EQ PUSH2 0x45F JUMPI DUP1 PUSH4 0x7399A719 EQ PUSH2 0x48E JUMPI DUP1 PUSH4 0x81B2D07B EQ PUSH2 0x4AE JUMPI DUP1 PUSH4 0x89CB8F6D EQ PUSH2 0x4C3 JUMPI PUSH1 0x0 DUP1 REVERT JUMPDEST DUP1 PUSH4 0x3E9491A2 EQ PUSH2 0x3B9 JUMPI DUP1 PUSH4 0x421235D5 EQ PUSH2 0x3CF JUMPI DUP1 PUSH4 0x4FD1F68B EQ PUSH2 0x3FC JUMPI DUP1 PUSH4 0x51D9F249 EQ PUSH2 0x42A JUMPI PUSH1 0x0 DUP1 REVERT JUMPDEST DUP1 PUSH4 0x2E735C7D GT PUSH2 0x1D7 JUMPI DUP1 PUSH4 0x2E735C7D EQ PUSH2 0x321 JUMPI DUP1 PUSH4 0x306ACF02 EQ PUSH2 0x357 JUMPI DUP1 PUSH4 0x311CADB3 EQ PUSH2 0x36C JUMPI DUP1 PUSH4 0x37EBE47B EQ PUSH2 0x38C JUMPI PUSH1 0x0 DUP1 REVERT JUMPDEST DUP1 PUSH4 0x25E7C27 EQ PUSH2 0x26D JUMPI DUP1 PUSH4 0xC12F4D2 EQ PUSH2 0x2A8 JUMPI DUP1 PUSH4 0x225898C9 EQ PUSH2 0x2C7 JUMPI DUP1 PUSH4 0x2A32D1A6 EQ PUSH2 0x2FF JUMPI PUSH1 0x0 DUP1 REVERT JUMPDEST CALLDATASIZE PUSH2 0x268 JUMPI CALLER PUSH1 0x0 SWAP1 DUP2 MSTORE PUSH1 0x20 DUP2 SWAP1 MSTORE PUSH1 0x40 SWAP1 KECCAK256 SLOAD PUSH2 0x242 JUMPI PUSH1 0x40 MLOAD PUSH3 0x461BCD PUSH1 0xE5 SHL DUP2 MSTORE PUSH1 0x4 ADD PUSH2 0x239 SWAP1 PUSH2 0x27DF JUMP JUMPDEST PUSH1 0x40 MLOAD DUP1 SWAP2 SUB SWAP1 REVERT JUMPDEST CALLER PUSH1 0x0 SWAP1 DUP2 MSTORE PUSH1 0x3 PUSH1 0x20 MSTORE PUSH1 0x40 DUP2 KECCAK256 DUP1 SLOAD CALLVALUE SWAP3 SWAP1 PUSH2 0x261 SWAP1 DUP5 SWAP1 PUSH2 0x2825 JUMP JUMPDEST SWAP1 SWAP2 SSTORE POP POP STOP JUMPDEST PUSH1 0x0 DUP1 REVERT JUMPDEST CALLVALUE DUP1 ISZERO PUSH2 0x279 JUMPI PUSH1 0x0 DUP1 REVERT JUMPDEST POP PUSH2 0x28D PUSH2 0x288 CALLDATASIZE PUSH1 0x4 PUSH2 0x283D JUMP JUMPDEST PUSH2 0x712 JUMP JUMPDEST PUSH1 0x40 MLOAD PUSH2 0x29F SWAP7 SWAP6 SWAP5 SWAP4 SWAP3 SWAP2 SWAP1 PUSH2 0x28A3 JUMP JUMPDEST PUSH1 0x40 MLOAD DUP1 SWAP2 SUB SWAP1 RETURN JUMPDEST CALLVALUE DUP1 ISZERO PUSH2 0x2B4 JUMPI PUSH1 0x0 DUP1 REVERT JUMPDEST POP PUSH1 0x12 SLOAD JUMPDEST PUSH1 0x40 MLOAD SWAP1 DUP2 MSTORE PUSH1 0x20 ADD PUSH2 0x29F JUMP JUMPDEST CALLVALUE DUP1 ISZERO PUSH2 0x2D3 JUMPI PUSH1 0x0 DUP1 REVERT JUMPDEST POP PUSH2 0x2E7 PUSH2 0x2E2 CALLDATASIZE PUSH1 0x4 PUSH2 0x283D JUMP JUMPDEST PUSH2 0xA02 JUMP JUMPDEST PUSH1 0x40 MLOAD PUSH1 0x1 PUSH1 0x1 PUSH1 0xA0 SHL SUB SWAP1 SWAP2 AND DUP2 MSTORE PUSH1 0x20 ADD PUSH2 0x29F JUMP JUMPDEST CALLVALUE DUP1 ISZERO PUSH2 0x30B JUMPI PUSH1 0x0 DUP1 REVERT JUMPDEST POP PUSH2 0x31F PUSH2 0x31A CALLDATASIZE PUSH1 0x4 PUSH2 0x292E JUMP JUMPDEST PUSH2 0xA2C JUMP JUMPDEST STOP JUMPDEST CALLVALUE DUP1 ISZERO PUSH2 0x32D JUMPI PUSH1 0x0 DUP1 REVERT JUMPDEST POP PUSH2 0x2B9 PUSH2 0x33C CALLDATASIZE PUSH1 0x4 PUSH2 0x292E JUMP JUMPDEST PUSH1 0x1 PUSH1 0x1 PUSH1 0xA0 SHL SUB AND PUSH1 0x0 SWAP1 DUP2 MSTORE PUSH1 0x3 PUSH1 0x20 MSTORE PUSH1 0x40 SWAP1 KECCAK256 SLOAD SWAP1 JUMP JUMPDEST CALLVALUE DUP1 ISZERO PUSH2 0x363 JUMPI PUSH1 0x0 DUP1 REVERT JUMPDEST POP PUSH1 0x8 SLOAD PUSH2 0x2B9 JUMP JUMPDEST CALLVALUE DUP1 ISZERO PUSH2 0x378 JUMPI PUSH1 0x0 DUP1 REVERT JUMPDEST POP PUSH2 0x31F PUSH2 0x387 CALLDATASIZE PUSH1 0x4 PUSH2 0x283D JUMP JUMPDEST PUSH2 0xC17 JUMP JUMPDEST CALLVALUE DUP1 ISZERO PUSH2 0x398 JUMPI PUSH1 0x0 DUP1 REVERT JUMPDEST POP PUSH2 0x2B9 PUSH2 0x3A7 CALLDATASIZE PUSH1 0x4 PUSH2 0x292E JUMP JUMPDEST PUSH1 0x3 PUSH1 0x20 MSTORE PUSH1 0x0 SWAP1 DUP2 MSTORE PUSH1 0x40 SWAP1 KECCAK256 SLOAD DUP2 JUMP JUMPDEST CALLVALUE DUP1 ISZERO PUSH2 0x3C5 JUMPI PUSH1 0x0 DUP1 REVERT JUMPDEST POP PUSH2 0x2B9 PUSH1 0xA SLOAD DUP2 JUMP JUMPDEST CALLVALUE DUP1 ISZERO PUSH2 0x3DB JUMPI PUSH1 0x0 DUP1 REVERT JUMPDEST POP PUSH2 0x2B9 PUSH2 0x3EA CALLDATASIZE PUSH1 0x4 PUSH2 0x292E JUMP JUMPDEST PUSH1 0x0 PUSH1 0x20 DUP2 SWAP1 MSTORE SWAP1 DUP2 MSTORE PUSH1 0x40 SWAP1 KECCAK256 SLOAD DUP2 JUMP JUMPDEST CALLVALUE DUP1 ISZERO PUSH2 0x408 JUMPI PUSH1 0x0 DUP1 REVERT JUMPDEST POP PUSH2 0x41C PUSH2 0x417 CALLDATASIZE PUSH1 0x4 PUSH2 0x292E JUMP JUMPDEST PUSH2 0xC46 JUMP JUMPDEST PUSH1 0x40 MLOAD PUSH2 0x29F SWAP3 SWAP2 SWAP1 PUSH2 0x2950 JUMP JUMPDEST CALLVALUE DUP1 ISZERO PUSH2 0x436 JUMPI PUSH1 0x0 DUP1 REVERT JUMPDEST POP PUSH2 0x31F PUSH2 0xE0E JUMP JUMPDEST CALLVALUE DUP1 ISZERO PUSH2 0x44B JUMPI PUSH1 0x0 DUP1 REVERT JUMPDEST POP PUSH2 0x31F PUSH2 0x45A CALLDATASIZE PUSH1 0x4 PUSH2 0x2A21 JUMP JUMPDEST PUSH2 0x10D0 JUMP JUMPDEST CALLVALUE DUP1 ISZERO PUSH2 0x46B JUMPI PUSH1 0x0 DUP1 REVERT JUMPDEST POP PUSH2 0x47F PUSH2 0x47A CALLDATASIZE PUSH1 0x4 PUSH2 0x283D JUMP JUMPDEST PUSH2 0x11C0 JUMP JUMPDEST PUSH1 0x40 MLOAD PUSH2 0x29F SWAP4 SWAP3 SWAP2 SWAP1 PUSH2 0x2B71 JUMP JUMPDEST CALLVALUE DUP1 ISZERO PUSH2 0x49A JUMPI PUSH1 0x0 DUP1 REVERT JUMPDEST POP PUSH2 0x2E7 PUSH2 0x4A9 CALLDATASIZE PUSH1 0x4 PUSH2 0x283D JUMP JUMPDEST PUSH2 0x1372 JUMP JUMPDEST CALLVALUE DUP1 ISZERO PUSH2 0x4BA JUMPI PUSH1 0x0 DUP1 REVERT JUMPDEST POP PUSH2 0x2B9 PUSH2 0x1382 JUMP JUMPDEST CALLVALUE DUP1 ISZERO PUSH2 0x4CF JUMPI PUSH1 0x0 DUP1 REVERT JUMPDEST POP PUSH2 0x2B9 PUSH2 0x4DE CALLDATASIZE PUSH1 0x4 PUSH2 0x292E JUMP JUMPDEST PUSH1 0x1 PUSH1 0x20 MSTORE PUSH1 0x0 SWAP1 DUP2 MSTORE PUSH1 0x40 SWAP1 KECCAK256 SLOAD DUP2 JUMP JUMPDEST CALLVALUE DUP1 ISZERO PUSH2 0x4FC JUMPI PUSH1 0x0 DUP1 REVERT JUMPDEST POP PUSH2 0x31F PUSH2 0x50B CALLDATASIZE PUSH1 0x4 PUSH2 0x2BAF JUMP JUMPDEST PUSH2 0x13B4 JUMP JUMPDEST CALLVALUE DUP1 ISZERO PUSH2 0x51C JUMPI PUSH1 0x0 DUP1 REVERT JUMPDEST POP PUSH2 0x31F PUSH2 0x163F JUMP JUMPDEST CALLVALUE DUP1 ISZERO PUSH2 0x531 JUMPI PUSH1 0x0 DUP1 REVERT JUMPDEST POP PUSH1 0x9 SLOAD PUSH2 0x2B9 JUMP JUMPDEST CALLVALUE DUP1 ISZERO PUSH2 0x546 JUMPI PUSH1 0x0 DUP1 REVERT JUMPDEST POP PUSH2 0x2B9 PUSH2 0x1786 JUMP JUMPDEST CALLVALUE DUP1 ISZERO PUSH2 0x55B JUMPI PUSH1 0x0 DUP1 REVERT JUMPDEST POP PUSH2 0x2B9 PUSH2 0x56A CALLDATASIZE PUSH1 0x4 PUSH2 0x2C90 JUMP JUMPDEST PUSH2 0x179C JUMP JUMPDEST PUSH2 0x31F PUSH2 0x17CD JUMP JUMPDEST CALLVALUE DUP1 ISZERO PUSH2 0x583 JUMPI PUSH1 0x0 DUP1 REVERT JUMPDEST POP PUSH2 0x31F PUSH2 0x592 CALLDATASIZE PUSH1 0x4 PUSH2 0x2CBA JUMP JUMPDEST PUSH2 0x18C0 JUMP JUMPDEST CALLVALUE DUP1 ISZERO PUSH2 0x5A3 JUMPI PUSH1 0x0 DUP1 REVERT JUMPDEST POP PUSH1 0xD SLOAD PUSH2 0x2B9 JUMP JUMPDEST CALLVALUE DUP1 ISZERO PUSH2 0x5B8 JUMPI PUSH1 0x0 DUP1 REVERT JUMPDEST POP PUSH2 0x5CC PUSH2 0x5C7 CALLDATASIZE PUSH1 0x4 PUSH2 0x292E JUMP JUMPDEST PUSH2 0x1C3E JUMP JUMPDEST PUSH1 0x40 MLOAD PUSH2 0x29F SWAP2 SWAP1 PUSH2 0x2CE6 JUMP JUMPDEST CALLVALUE DUP1 ISZERO PUSH2 0x5E5 JUMPI PUSH1 0x0 DUP1 REVERT JUMPDEST POP PUSH2 0x31F PUSH2 0x5F4 CALLDATASIZE PUSH1 0x4 PUSH2 0x2D2A JUMP JUMPDEST PUSH2 0x1CD6 JUMP JUMPDEST CALLVALUE DUP1 ISZERO PUSH2 0x605 JUMPI PUSH1 0x0 DUP1 REVERT JUMPDEST POP PUSH2 0x2B9 PUSH2 0x2108 JUMP JUMPDEST CALLVALUE DUP1 ISZERO PUSH2 0x61A JUMPI PUSH1 0x0 DUP1 REVERT JUMPDEST POP PUSH2 0x31F PUSH2 0x629 CALLDATASIZE PUSH1 0x4 PUSH2 0x283D JUMP JUMPDEST PUSH2 0x213C JUMP JUMPDEST CALLVALUE DUP1 ISZERO PUSH2 0x63A JUMPI PUSH1 0x0 DUP1 REVERT JUMPDEST POP PUSH2 0x2B9 PUSH2 0x649 CALLDATASIZE PUSH1 0x4 PUSH2 0x292E JUMP JUMPDEST PUSH1 0x1 PUSH1 0x1 PUSH1 0xA0 SHL SUB AND PUSH1 0x0 SWAP1 DUP2 MSTORE PUSH1 0x1 PUSH1 0x20 MSTORE PUSH1 0x40 SWAP1 KECCAK256 SLOAD SWAP1 JUMP JUMPDEST CALLVALUE DUP1 ISZERO PUSH2 0x670 JUMPI PUSH1 0x0 DUP1 REVERT JUMPDEST POP PUSH2 0x2B9 PUSH2 0x67F CALLDATASIZE PUSH1 0x4 PUSH2 0x283D JUMP JUMPDEST PUSH1 0x5 PUSH1 0x20 MSTORE PUSH1 0x0 SWAP1 DUP2 MSTORE PUSH1 0x40 SWAP1 KECCAK256 SLOAD DUP2 JUMP JUMPDEST CALLVALUE DUP1 ISZERO PUSH2 0x69D JUMPI PUSH1 0x0 DUP1 REVERT JUMPDEST POP PUSH2 0x31F PUSH2 0x6AC CALLDATASIZE PUSH1 0x4 PUSH2 0x283D JUMP JUMPDEST PUSH2 0x216B JUMP JUMPDEST CALLVALUE DUP1 ISZERO PUSH2 0x6BD JUMPI PUSH1 0x0 DUP1 REVERT JUMPDEST POP PUSH2 0x6D1 PUSH2 0x6CC CALLDATASIZE PUSH1 0x4 PUSH2 0x283D JUMP JUMPDEST PUSH2 0x219A JUMP JUMPDEST PUSH1 0x40 MLOAD PUSH2 0x29F SWAP12 SWAP11 SWAP10 SWAP9 SWAP8 SWAP7 SWAP6 SWAP5 SWAP4 SWAP3 SWAP2 SWAP1 PUSH2 0x2D86 JUMP JUMPDEST CALLVALUE DUP1 ISZERO PUSH2 0x6F4 JUMPI PUSH1 0x0 DUP1 REVERT JUMPDEST POP PUSH1 0xC SLOAD PUSH2 0x2B9 JUMP JUMPDEST CALLVALUE DUP1 ISZERO PUSH2 0x709 JUMPI PUSH1 0x0 DUP1 REVERT JUMPDEST POP PUSH2 0x31F PUSH2 0x25BC JUMP JUMPDEST PUSH1 0xD DUP2 DUP2 SLOAD DUP2 LT PUSH2 0x722 JUMPI PUSH1 0x0 DUP1 REVERT JUMPDEST PUSH1 0x0 SWAP2 DUP3 MSTORE PUSH1 0x20 SWAP1 SWAP2 KECCAK256 PUSH1 0x6 SWAP1 SWAP2 MUL ADD DUP1 SLOAD PUSH1 0x1 DUP3 ADD DUP1 SLOAD SWAP2 SWAP4 POP SWAP1 PUSH2 0x747 SWAP1 PUSH2 0x2E3F JUMP JUMPDEST DUP1 PUSH1 0x1F ADD PUSH1 0x20 DUP1 SWAP2 DIV MUL PUSH1 0x20 ADD PUSH1 0x40 MLOAD SWAP1 DUP2 ADD PUSH1 0x40 MSTORE DUP1 SWAP3 SWAP2 SWAP1 DUP2 DUP2 MSTORE PUSH1 0x20 ADD DUP3 DUP1 SLOAD PUSH2 0x773 SWAP1 PUSH2 0x2E3F JUMP JUMPDEST DUP1 ISZERO PUSH2 0x7C0 JUMPI DUP1 PUSH1 0x1F LT PUSH2 0x795 JUMPI PUSH2 0x100 DUP1 DUP4 SLOAD DIV MUL DUP4 MSTORE SWAP2 PUSH1 0x20 ADD SWAP2 PUSH2 0x7C0 JUMP JUMPDEST DUP3 ADD SWAP2 SWAP1 PUSH1 0x0 MSTORE PUSH1 0x20 PUSH1 0x0 KECCAK256 SWAP1 JUMPDEST DUP2 SLOAD DUP2 MSTORE SWAP1 PUSH1 0x1 ADD SWAP1 PUSH1 0x20 ADD DUP1 DUP4 GT PUSH2 0x7A3 JUMPI DUP3 SWAP1 SUB PUSH1 0x1F AND DUP3 ADD SWAP2 JUMPDEST POP POP POP POP POP SWAP1 DUP1 PUSH1 0x2 ADD DUP1 SLOAD PUSH2 0x7D5 SWAP1 PUSH2 0x2E3F JUMP JUMPDEST DUP1 PUSH1 0x1F ADD PUSH1 0x20 DUP1 SWAP2 DIV MUL PUSH1 0x20 ADD PUSH1 0x40 MLOAD SWAP1 DUP2 ADD PUSH1 0x40 MSTORE DUP1 SWAP3 SWAP2 SWAP1 DUP2 DUP2 MSTORE PUSH1 0x20 ADD DUP3 DUP1 SLOAD PUSH2 0x801 SWAP1 PUSH2 0x2E3F JUMP JUMPDEST DUP1 ISZERO PUSH2 0x84E JUMPI DUP1 PUSH1 0x1F LT PUSH2 0x823 JUMPI PUSH2 0x100 DUP1 DUP4 SLOAD DIV MUL DUP4 MSTORE SWAP2 PUSH1 0x20 ADD SWAP2 PUSH2 0x84E JUMP JUMPDEST DUP3 ADD SWAP2 SWAP1 PUSH1 0x0 MSTORE PUSH1 0x20 PUSH1 0x0 KECCAK256 SWAP1 JUMPDEST DUP2 SLOAD DUP2 MSTORE SWAP1 PUSH1 0x1 ADD SWAP1 PUSH1 0x20 ADD DUP1 DUP4 GT PUSH2 0x831 JUMPI DUP3 SWAP1 SUB PUSH1 0x1F AND DUP3 ADD SWAP2 JUMPDEST POP POP POP POP POP SWAP1 DUP1 PUSH1 0x3 ADD DUP1 SLOAD PUSH2 0x863 SWAP1 PUSH2 0x2E3F JUMP JUMPDEST DUP1 PUSH1 0x1F ADD PUSH1 0x20 DUP1 SWAP2 DIV MUL PUSH1 0x20 ADD PUSH1 0x40 MLOAD SWAP1 DUP2 ADD PUSH1 0x40 MSTORE DUP1 SWAP3 SWAP2 SWAP1 DUP2 DUP2 MSTORE PUSH1 0x20 ADD DUP3 DUP1 SLOAD PUSH2 0x88F SWAP1 PUSH2 0x2E3F JUMP JUMPDEST DUP1 ISZERO PUSH2 0x8DC JUMPI DUP1 PUSH1 0x1F LT PUSH2 0x8B1 JUMPI PUSH2 0x100 DUP1 DUP4 SLOAD DIV MUL DUP4 MSTORE SWAP2 PUSH1 0x20 ADD SWAP2 PUSH2 0x8DC JUMP JUMPDEST DUP3 ADD SWAP2 SWAP1 PUSH1 0x0 MSTORE PUSH1 0x20 PUSH1 0x0 KECCAK256 SWAP1 JUMPDEST DUP2 SLOAD DUP2 MSTORE SWAP1 PUSH1 0x1 ADD SWAP1 PUSH1 0x20 ADD DUP1 DUP4 GT PUSH2 0x8BF JUMPI DUP3 SWAP1 SUB PUSH1 0x1F AND DUP3 ADD SWAP2 JUMPDEST POP POP POP POP POP SWAP1 DUP1 PUSH1 0x4 ADD DUP1 SLOAD PUSH2 0x8F1 SWAP1 PUSH2 0x2E3F JUMP JUMPDEST DUP1 PUSH1 0x1F ADD PUSH1 0x20 DUP1 SWAP2 DIV MUL PUSH1 0x20 ADD PUSH1 0x40 MLOAD SWAP1 DUP2 ADD PUSH1 0x40 MSTORE DUP1 SWAP3 SWAP2 SWAP1 DUP2 DUP2 MSTORE PUSH1 0x20 ADD DUP3 DUP1 SLOAD PUSH2 0x91D SWAP1 PUSH2 0x2E3F JUMP JUMPDEST DUP1 ISZERO PUSH2 0x96A JUMPI DUP1 PUSH1 0x1F LT PUSH2 0x93F JUMPI PUSH2 0x100 DUP1 DUP4 SLOAD DIV MUL DUP4 MSTORE SWAP2 PUSH1 0x20 ADD SWAP2 PUSH2 0x96A JUMP JUMPDEST DUP3 ADD SWAP2 SWAP1 PUSH1 0x0 MSTORE PUSH1 0x20 PUSH1 0x0 KECCAK256 SWAP1 JUMPDEST DUP2 SLOAD DUP2 MSTORE SWAP1 PUSH1 0x1 ADD SWAP1 PUSH1 0x20 ADD DUP1 DUP4 GT PUSH2 0x94D JUMPI DUP3 SWAP1 SUB PUSH1 0x1F AND DUP3 ADD SWAP2 JUMPDEST POP POP POP POP POP SWAP1 DUP1 PUSH1 0x5 ADD DUP1 SLOAD PUSH2 0x97F SWAP1 PUSH2 0x2E3F JUMP JUMPDEST DUP1 PUSH1 0x1F ADD PUSH1 0x20 DUP1 SWAP2 DIV MUL PUSH1 0x20 ADD PUSH1 0x40 MLOAD SWAP1 DUP2 ADD PUSH1 0x40 MSTORE DUP1 SWAP3 SWAP2 SWAP1 DUP2 DUP2 MSTORE PUSH1 0x20 ADD DUP3 DUP1 SLOAD PUSH2 0x9AB SWAP1 PUSH2 0x2E3F JUMP JUMPDEST DUP1 ISZERO PUSH2 0x9F8 JUMPI DUP1 PUSH1 0x1F LT PUSH2 0x9CD JUMPI PUSH2 0x100 DUP1 DUP4 SLOAD DIV MUL DUP4 MSTORE SWAP2 PUSH1 0x20 ADD SWAP2 PUSH2 0x9F8 JUMP JUMPDEST DUP3 ADD SWAP2 SWAP1 PUSH1 0x0 MSTORE PUSH1 0x20 PUSH1 0x0 KECCAK256 SWAP1 JUMPDEST DUP2 SLOAD DUP2 MSTORE SWAP1 PUSH1 0x1 ADD SWAP1 PUSH1 0x20 ADD DUP1 DUP4 GT PUSH2 0x9DB JUMPI DUP3 SWAP1 SUB PUSH1 0x1F AND DUP3 ADD SWAP2 JUMPDEST POP POP POP POP POP SWAP1 POP DUP7 JUMP JUMPDEST PUSH1 0xE DUP2 DUP2 SLOAD DUP2 LT PUSH2 0xA12 JUMPI PUSH1 0x0 DUP1 REVERT JUMPDEST PUSH1 0x0 SWAP2 DUP3 MSTORE PUSH1 0x20 SWAP1 SWAP2 KECCAK256 ADD SLOAD PUSH1 0x1 PUSH1 0x1 PUSH1 0xA0 SHL SUB AND SWAP1 POP DUP2 JUMP JUMPDEST PUSH1 0xB SLOAD PUSH1 0x1 PUSH1 0x1 PUSH1 0xA0 SHL SUB AND CALLER EQ PUSH2 0xA56 JUMPI PUSH1 0x40 MLOAD PUSH3 0x461BCD PUSH1 0xE5 SHL DUP2 MSTORE PUSH1 0x4 ADD PUSH2 0x239 SWAP1 PUSH2 0x2E7A JUMP JUMPDEST PUSH1 0x1 PUSH1 0x1 PUSH1 0xA0 SHL SUB DUP2 AND PUSH1 0x0 SWAP1 DUP2 MSTORE PUSH1 0x10 PUSH1 0x20 DUP2 SWAP1 MSTORE PUSH1 0x40 DUP3 KECCAK256 SLOAD PUSH1 0xF DUP1 SLOAD SWAP2 SWAP4 DUP5 SWAP4 SWAP3 SWAP1 SWAP2 SWAP1 PUSH2 0xA89 SWAP1 PUSH1 0x1 SWAP1 PUSH2 0x2EA5 JUMP JUMPDEST DUP2 SLOAD DUP2 LT PUSH2 0xA99 JUMPI PUSH2 0xA99 PUSH2 0x2EBC JUMP JUMPDEST PUSH1 0x0 SWAP2 DUP3 MSTORE PUSH1 0x20 DUP1 DUP4 KECCAK256 SWAP1 SWAP2 ADD SLOAD PUSH1 0x1 PUSH1 0x1 PUSH1 0xA0 SHL SUB AND DUP4 MSTORE DUP3 ADD SWAP3 SWAP1 SWAP3 MSTORE PUSH1 0x40 ADD SWAP1 KECCAK256 SSTORE PUSH1 0xF DUP1 SLOAD PUSH2 0xACE SWAP1 PUSH1 0x1 SWAP1 PUSH2 0x2EA5 JUMP JUMPDEST DUP2 SLOAD DUP2 LT PUSH2 0xADE JUMPI PUSH2 0xADE PUSH2 0x2EBC JUMP JUMPDEST PUSH1 0x0 SWAP2 DUP3 MSTORE PUSH1 0x20 SWAP1 SWAP2 KECCAK256 ADD SLOAD PUSH1 0x1 PUSH1 0x1 PUSH1 0xA0 SHL SUB AND PUSH1 0xF PUSH2 0xB00 PUSH1 0x1 DUP5 PUSH2 0x2EA5 JUMP JUMPDEST DUP2 SLOAD DUP2 LT PUSH2 0xB10 JUMPI PUSH2 0xB10 PUSH2 0x2EBC JUMP JUMPDEST SWAP1 PUSH1 0x0 MSTORE PUSH1 0x20 PUSH1 0x0 KECCAK256 ADD PUSH1 0x0 PUSH2 0x100 EXP DUP2 SLOAD DUP2 PUSH1 0x1 PUSH1 0x1 PUSH1 0xA0 SHL SUB MUL NOT AND SWAP1 DUP4 PUSH1 0x1 PUSH1 0x1 PUSH1 0xA0 SHL SUB AND MUL OR SWAP1 SSTORE POP PUSH1 0xF DUP1 SLOAD DUP1 PUSH2 0xB4F JUMPI PUSH2 0xB4F PUSH2 0x2ED2 JUMP JUMPDEST PUSH1 0x0 DUP3 DUP2 MSTORE PUSH1 0x20 DUP2 KECCAK256 DUP3 ADD PUSH1 0x0 NOT SWAP1 DUP2 ADD DUP1 SLOAD PUSH1 0x1 PUSH1 0x1 PUSH1 0xA0 SHL SUB NOT AND SWAP1 SSTORE SWAP1 SWAP2 ADD SWAP1 SWAP2 SSTORE PUSH1 0x11 DUP1 SLOAD SWAP2 PUSH2 0xB82 DUP4 PUSH2 0x2EE8 JUMP JUMPDEST SWAP1 SWAP2 SSTORE POP POP PUSH1 0x40 DUP1 MLOAD PUSH1 0x1 PUSH1 0x1 PUSH1 0xA0 SHL SUB DUP5 AND DUP2 MSTORE PUSH1 0x20 DUP2 ADD DUP3 SWAP1 MSTORE PUSH1 0x34 DUP2 DUP4 ADD MSTORE PUSH32 0x537562736372697074696F6E207761732063616E63656C6C6564206475652074 PUSH1 0x60 DUP3 ADD MSTORE PUSH20 0x6F20696E73756666696369656E742066756E6473 PUSH1 0x60 SHL PUSH1 0x80 DUP3 ADD MSTORE SWAP1 MLOAD PUSH32 0x3820B84434DF6B8F4A780DD9B9B085656177396049560008538ACE1982B6A9A8 SWAP2 DUP2 SWAP1 SUB PUSH1 0xA0 ADD SWAP1 LOG1 POP POP JUMP JUMPDEST PUSH1 0xB SLOAD PUSH1 0x1 PUSH1 0x1 PUSH1 0xA0 SHL SUB AND CALLER EQ PUSH2 0xC41 JUMPI PUSH1 0x40 MLOAD PUSH3 0x461BCD PUSH1 0xE5 SHL DUP2 MSTORE PUSH1 0x4 ADD PUSH2 0x239 SWAP1 PUSH2 0x2E7A JUMP JUMPDEST PUSH1 0x12 SSTORE JUMP JUMPDEST PUSH1 0xB SLOAD PUSH1 0x60 SWAP1 DUP2 SWAP1 PUSH1 0x1 PUSH1 0x1 PUSH1 0xA0 SHL SUB AND CALLER EQ PUSH2 0xC75 JUMPI PUSH1 0x40 MLOAD PUSH3 0x461BCD PUSH1 0xE5 SHL DUP2 MSTORE PUSH1 0x4 ADD PUSH2 0x239 SWAP1 PUSH2 0x2E7A JUMP JUMPDEST PUSH1 0x1 PUSH1 0x1 PUSH1 0xA0 SHL SUB DUP4 AND PUSH1 0x0 SWAP1 DUP2 MSTORE PUSH1 0x20 DUP2 SWAP1 MSTORE PUSH1 0x40 SWAP1 KECCAK256 SLOAD PUSH1 0xD PUSH2 0xC9B PUSH1 0x1 DUP4 PUSH2 0x2EA5 JUMP JUMPDEST DUP2 SLOAD DUP2 LT PUSH2 0xCAB JUMPI PUSH2 0xCAB PUSH2 0x2EBC JUMP JUMPDEST SWAP1 PUSH1 0x0 MSTORE PUSH1 0x20 PUSH1 0x0 KECCAK256 SWAP1 PUSH1 0x6 MUL ADD PUSH1 0x1 ADD PUSH1 0xD PUSH1 0x1 DUP4 PUSH2 0xCCB SWAP2 SWAP1 PUSH2 0x2EA5 JUMP JUMPDEST DUP2 SLOAD DUP2 LT PUSH2 0xCDB JUMPI PUSH2 0xCDB PUSH2 0x2EBC JUMP JUMPDEST SWAP1 PUSH1 0x0 MSTORE PUSH1 0x20 PUSH1 0x0 KECCAK256 SWAP1 PUSH1 0x6 MUL ADD PUSH1 0x2 ADD DUP2 DUP1 SLOAD PUSH2 0xCF8 SWAP1 PUSH2 0x2E3F JUMP JUMPDEST DUP1 PUSH1 0x1F ADD PUSH1 0x20 DUP1 SWAP2 DIV MUL PUSH1 0x20 ADD PUSH1 0x40 MLOAD SWAP1 DUP2 ADD PUSH1 0x40 MSTORE DUP1 SWAP3 SWAP2 SWAP1 DUP2 DUP2 MSTORE PUSH1 0x20 ADD DUP3 DUP1 SLOAD PUSH2 0xD24 SWAP1 PUSH2 0x2E3F JUMP JUMPDEST DUP1 ISZERO PUSH2 0xD71 JUMPI DUP1 PUSH1 0x1F LT PUSH2 0xD46 JUMPI PUSH2 0x100 DUP1 DUP4 SLOAD DIV MUL DUP4 MSTORE SWAP2 PUSH1 0x20 ADD SWAP2 PUSH2 0xD71 JUMP JUMPDEST DUP3 ADD SWAP2 SWAP1 PUSH1 0x0 MSTORE PUSH1 0x20 PUSH1 0x0 KECCAK256 SWAP1 JUMPDEST DUP2 SLOAD DUP2 MSTORE SWAP1 PUSH1 0x1 ADD SWAP1 PUSH1 0x20 ADD DUP1 DUP4 GT PUSH2 0xD54 JUMPI DUP3 SWAP1 SUB PUSH1 0x1F AND DUP3 ADD SWAP2 JUMPDEST POP POP POP POP POP SWAP2 POP DUP1 DUP1 SLOAD PUSH2 0xD84 SWAP1 PUSH2 0x2E3F JUMP JUMPDEST DUP1 PUSH1 0x1F ADD PUSH1 0x20 DUP1 SWAP2 DIV MUL PUSH1 0x20 ADD PUSH1 0x40 MLOAD SWAP1 DUP2 ADD PUSH1 0x40 MSTORE DUP1 SWAP3 SWAP2 SWAP1 DUP2 DUP2 MSTORE PUSH1 0x20 ADD DUP3 DUP1 SLOAD PUSH2 0xDB0 SWAP1 PUSH2 0x2E3F JUMP JUMPDEST DUP1 ISZERO PUSH2 0xDFD JUMPI DUP1 PUSH1 0x1F LT PUSH2 0xDD2 JUMPI PUSH2 0x100 DUP1 DUP4 SLOAD DIV MUL DUP4 MSTORE SWAP2 PUSH1 0x20 ADD SWAP2 PUSH2 0xDFD JUMP JUMPDEST DUP3 ADD SWAP2 SWAP1 PUSH1 0x0 MSTORE PUSH1 0x20 PUSH1 0x0 KECCAK256 SWAP1 JUMPDEST DUP2 SLOAD DUP2 MSTORE SWAP1 PUSH1 0x1 ADD SWAP1 PUSH1 0x20 ADD DUP1 DUP4 GT PUSH2 0xDE0 JUMPI DUP3 SWAP1 SUB PUSH1 0x1F AND DUP3 ADD SWAP2 JUMPDEST POP POP POP POP POP SWAP1 POP SWAP3 POP SWAP3 POP POP SWAP2 POP SWAP2 JUMP JUMPDEST PUSH1 0xB SLOAD PUSH1 0x1 PUSH1 0x1 PUSH1 0xA0 SHL SUB AND CALLER EQ PUSH2 0xE38 JUMPI PUSH1 0x40 MLOAD PUSH3 0x461BCD PUSH1 0xE5 SHL DUP2 MSTORE PUSH1 0x4 ADD PUSH2 0x239 SWAP1 PUSH2 0x2E7A JUMP JUMPDEST PUSH1 0x0 JUMPDEST PUSH1 0xF SLOAD DUP2 LT ISZERO PUSH2 0x10CD JUMPI PUSH1 0x12 SLOAD PUSH1 0x3 PUSH1 0x0 PUSH1 0xF DUP5 DUP2 SLOAD DUP2 LT PUSH2 0xE5F JUMPI PUSH2 0xE5F PUSH2 0x2EBC JUMP JUMPDEST PUSH1 0x0 SWAP2 DUP3 MSTORE PUSH1 0x20 DUP1 DUP4 KECCAK256 SWAP1 SWAP2 ADD SLOAD PUSH1 0x1 PUSH1 0x1 PUSH1 0xA0 SHL SUB AND DUP4 MSTORE DUP3 ADD SWAP3 SWAP1 SWAP3 MSTORE PUSH1 0x40 ADD SWAP1 KECCAK256 SLOAD LT ISZERO PUSH2 0xEBF JUMPI PUSH2 0xEBA PUSH1 0xF DUP3 DUP2 SLOAD DUP2 LT PUSH2 0xEA0 JUMPI PUSH2 0xEA0 PUSH2 0x2EBC JUMP JUMPDEST PUSH1 0x0 SWAP2 DUP3 MSTORE PUSH1 0x20 SWAP1 SWAP2 KECCAK256 ADD SLOAD PUSH1 0x1 PUSH1 0x1 PUSH1 0xA0 SHL SUB AND PUSH2 0xA2C JUMP JUMPDEST PUSH2 0x10BB JUMP JUMPDEST PUSH1 0x12 SLOAD PUSH2 0xECD SWAP1 PUSH1 0x2 PUSH2 0x2EFF JUMP JUMPDEST PUSH1 0x3 PUSH1 0x0 PUSH1 0xF DUP5 DUP2 SLOAD DUP2 LT PUSH2 0xEE4 JUMPI PUSH2 0xEE4 PUSH2 0x2EBC JUMP JUMPDEST PUSH1 0x0 SWAP2 DUP3 MSTORE PUSH1 0x20 DUP1 DUP4 KECCAK256 SWAP1 SWAP2 ADD SLOAD PUSH1 0x1 PUSH1 0x1 PUSH1 0xA0 SHL SUB AND DUP4 MSTORE DUP3 ADD SWAP3 SWAP1 SWAP3 MSTORE PUSH1 0x40 ADD SWAP1 KECCAK256 SLOAD LT ISZERO PUSH2 0x104D JUMPI PUSH1 0x0 PUSH1 0x1 PUSH1 0x0 DUP1 PUSH1 0xF DUP6 DUP2 SLOAD DUP2 LT PUSH2 0xF29 JUMPI PUSH2 0xF29 PUSH2 0x2EBC JUMP JUMPDEST PUSH1 0x0 SWAP2 DUP3 MSTORE PUSH1 0x20 DUP1 DUP4 KECCAK256 SWAP1 SWAP2 ADD SLOAD PUSH1 0x1 PUSH1 0x1 PUSH1 0xA0 SHL SUB AND DUP4 MSTORE DUP3 ADD SWAP3 SWAP1 SWAP3 MSTORE PUSH1 0x40 ADD SWAP1 KECCAK256 SLOAD PUSH2 0xF58 SWAP2 SWAP1 PUSH2 0x2EA5 JUMP JUMPDEST SWAP1 POP PUSH32 0x65B02C2FE6D7199C80CADF78BAF63E66BCB939BA143D259CC28881A8F05AC92A PUSH1 0xD DUP3 DUP2 SLOAD DUP2 LT PUSH2 0xF8E JUMPI PUSH2 0xF8E PUSH2 0x2EBC JUMP JUMPDEST SWAP1 PUSH1 0x0 MSTORE PUSH1 0x20 PUSH1 0x0 KECCAK256 SWAP1 PUSH1 0x6 MUL ADD PUSH1 0x1 ADD PUSH1 0xD DUP4 DUP2 SLOAD DUP2 LT PUSH2 0xFB2 JUMPI PUSH2 0xFB2 PUSH2 0x2EBC JUMP JUMPDEST SWAP1 PUSH1 0x0 MSTORE PUSH1 0x20 PUSH1 0x0 KECCAK256 SWAP1 PUSH1 0x6 MUL ADD PUSH1 0x2 ADD PUSH1 0x40 MLOAD PUSH2 0xFD1 SWAP3 SWAP2 SWAP1 PUSH2 0x2FBE JUMP JUMPDEST PUSH1 0x40 MLOAD DUP1 SWAP2 SUB SWAP1 LOG1 PUSH1 0x12 SLOAD PUSH1 0x3 PUSH1 0x0 PUSH1 0xF DUP6 DUP2 SLOAD DUP2 LT PUSH2 0xFF3 JUMPI PUSH2 0xFF3 PUSH2 0x2EBC JUMP JUMPDEST PUSH1 0x0 SWAP2 DUP3 MSTORE PUSH1 0x20 DUP1 DUP4 KECCAK256 SWAP1 SWAP2 ADD SLOAD PUSH1 0x1 PUSH1 0x1 PUSH1 0xA0 SHL SUB AND DUP4 MSTORE DUP3 ADD SWAP3 SWAP1 SWAP3 MSTORE PUSH1 0x40 ADD DUP2 KECCAK256 DUP1 SLOAD SWAP1 SWAP2 SWAP1 PUSH2 0x1027 SWAP1 DUP5 SWAP1 PUSH2 0x2EA5 JUMP JUMPDEST SWAP1 SWAP2 SSTORE POP POP PUSH1 0x12 SLOAD PUSH1 0xA DUP1 SLOAD PUSH1 0x0 SWAP1 PUSH2 0x1041 SWAP1 DUP5 SWAP1 PUSH2 0x2825 JUMP JUMPDEST SWAP1 SWAP2 SSTORE POP PUSH2 0x10BB SWAP2 POP POP JUMP JUMPDEST PUSH1 0x12 SLOAD PUSH1 0x3 PUSH1 0x0 PUSH1 0xF DUP5 DUP2 SLOAD DUP2 LT PUSH2 0x1067 JUMPI PUSH2 0x1067 PUSH2 0x2EBC JUMP JUMPDEST PUSH1 0x0 SWAP2 DUP3 MSTORE PUSH1 0x20 DUP1 DUP4 KECCAK256 SWAP1 SWAP2 ADD SLOAD PUSH1 0x1 PUSH1 0x1 PUSH1 0xA0 SHL SUB AND DUP4 MSTORE DUP3 ADD SWAP3 SWAP1 SWAP3 MSTORE PUSH1 0x40 ADD DUP2 KECCAK256 DUP1 SLOAD SWAP1 SWAP2 SWAP1 PUSH2 0x109B SWAP1 DUP5 SWAP1 PUSH2 0x2EA5 JUMP JUMPDEST SWAP1 SWAP2 SSTORE POP POP PUSH1 0x12 SLOAD PUSH1 0xA DUP1 SLOAD PUSH1 0x0 SWAP1 PUSH2 0x10B5 SWAP1 DUP5 SWAP1 PUSH2 0x2825 JUMP JUMPDEST SWAP1 SWAP2 SSTORE POP POP JUMPDEST DUP1 PUSH2 0x10C5 DUP2 PUSH2 0x2FE3 JUMP JUMPDEST SWAP2 POP POP PUSH2 0xE3B JUMP JUMPDEST POP JUMP JUMPDEST PUSH1 0x0 PUSH1 0xC PUSH2 0x10DF PUSH1 0x1 DUP15 PUSH2 0x2EA5 JUMP JUMPDEST DUP2 SLOAD DUP2 LT PUSH2 0x10EF JUMPI PUSH2 0x10EF PUSH2 0x2EBC JUMP JUMPDEST PUSH1 0x0 SWAP2 DUP3 MSTORE PUSH1 0x20 SWAP2 DUP3 SWAP1 KECCAK256 PUSH1 0x1 PUSH1 0xB SWAP1 SWAP3 MUL ADD SWAP1 DUP2 ADD DUP14 SWAP1 SSTORE PUSH1 0x2 DUP2 ADD DUP13 SWAP1 SSTORE PUSH1 0x3 DUP2 ADD DUP12 SWAP1 SSTORE DUP10 MLOAD SWAP1 SWAP3 POP PUSH2 0x112D SWAP2 PUSH1 0x4 DUP5 ADD SWAP2 SWAP1 DUP12 ADD SWAP1 PUSH2 0x2746 JUMP JUMPDEST POP DUP7 MLOAD PUSH2 0x1143 SWAP1 PUSH1 0x5 DUP4 ADD SWAP1 PUSH1 0x20 DUP11 ADD SWAP1 PUSH2 0x2746 JUMP JUMPDEST POP DUP6 MLOAD PUSH2 0x1159 SWAP1 PUSH1 0x6 DUP4 ADD SWAP1 PUSH1 0x20 DUP10 ADD SWAP1 PUSH2 0x2746 JUMP JUMPDEST POP DUP5 MLOAD PUSH2 0x116F SWAP1 PUSH1 0x7 DUP4 ADD SWAP1 PUSH1 0x20 DUP9 ADD SWAP1 PUSH2 0x2746 JUMP JUMPDEST POP DUP4 MLOAD PUSH2 0x1185 SWAP1 PUSH1 0x8 DUP4 ADD SWAP1 PUSH1 0x20 DUP8 ADD SWAP1 PUSH2 0x2746 JUMP JUMPDEST POP DUP3 MLOAD PUSH2 0x119B SWAP1 PUSH1 0x9 DUP4 ADD SWAP1 PUSH1 0x20 DUP7 ADD SWAP1 PUSH2 0x2746 JUMP JUMPDEST POP DUP2 MLOAD PUSH2 0x11B1 SWAP1 PUSH1 0xA DUP4 ADD SWAP1 PUSH1 0x20 DUP6 ADD SWAP1 PUSH2 0x2746 JUMP JUMPDEST POP POP POP POP POP POP POP POP POP POP POP POP POP JUMP JUMPDEST PUSH1 0x0 DUP2 DUP2 MSTORE PUSH1 0x2 PUSH1 0x20 SWAP1 DUP2 MSTORE PUSH1 0x40 DUP1 DUP4 KECCAK256 SLOAD PUSH1 0x1 PUSH1 0x1 PUSH1 0xA0 SHL SUB AND DUP1 DUP5 MSTORE SWAP2 DUP4 SWAP1 MSTORE DUP3 KECCAK256 SLOAD PUSH1 0x60 SWAP3 DUP4 SWAP3 SWAP1 SWAP2 PUSH1 0xD PUSH2 0x11F9 PUSH1 0x1 DUP4 PUSH2 0x2EA5 JUMP JUMPDEST DUP2 SLOAD DUP2 LT PUSH2 0x1209 JUMPI PUSH2 0x1209 PUSH2 0x2EBC JUMP JUMPDEST SWAP1 PUSH1 0x0 MSTORE PUSH1 0x20 PUSH1 0x0 KECCAK256 SWAP1 PUSH1 0x6 MUL ADD PUSH1 0x1 ADD PUSH1 0xD PUSH1 0x1 DUP4 PUSH2 0x1229 SWAP2 SWAP1 PUSH2 0x2EA5 JUMP JUMPDEST DUP2 SLOAD DUP2 LT PUSH2 0x1239 JUMPI PUSH2 0x1239 PUSH2 0x2EBC JUMP JUMPDEST SWAP1 PUSH1 0x0 MSTORE PUSH1 0x20 PUSH1 0x0 KECCAK256 SWAP1 PUSH1 0x6 MUL ADD PUSH1 0x2 ADD DUP4 DUP3 DUP1 SLOAD PUSH2 0x1257 SWAP1 PUSH2 0x2E3F JUMP JUMPDEST DUP1 PUSH1 0x1F ADD PUSH1 0x20 DUP1 SWAP2 DIV MUL PUSH1 0x20 ADD PUSH1 0x40 MLOAD SWAP1 DUP2 ADD PUSH1 0x40 MSTORE DUP1 SWAP3 SWAP2 SWAP1 DUP2 DUP2 MSTORE PUSH1 0x20 ADD DUP3 DUP1 SLOAD PUSH2 0x1283 SWAP1 PUSH2 0x2E3F JUMP JUMPDEST DUP1 ISZERO PUSH2 0x12D0 JUMPI DUP1 PUSH1 0x1F LT PUSH2 0x12A5 JUMPI PUSH2 0x100 DUP1 DUP4 SLOAD DIV MUL DUP4 MSTORE SWAP2 PUSH1 0x20 ADD SWAP2 PUSH2 0x12D0 JUMP JUMPDEST DUP3 ADD SWAP2 SWAP1 PUSH1 0x0 MSTORE PUSH1 0x20 PUSH1 0x0 KECCAK256 SWAP1 JUMPDEST DUP2 SLOAD DUP2 MSTORE SWAP1 PUSH1 0x1 ADD SWAP1 PUSH1 0x20 ADD DUP1 DUP4 GT PUSH2 0x12B3 JUMPI DUP3 SWAP1 SUB PUSH1 0x1F AND DUP3 ADD SWAP2 JUMPDEST POP POP POP POP POP SWAP3 POP DUP2 DUP1 SLOAD PUSH2 0x12E3 SWAP1 PUSH2 0x2E3F JUMP JUMPDEST DUP1 PUSH1 0x1F ADD PUSH1 0x20 DUP1 SWAP2 DIV MUL PUSH1 0x20 ADD PUSH1 0x40 MLOAD SWAP1 DUP2 ADD PUSH1 0x40 MSTORE DUP1 SWAP3 SWAP2 SWAP1 DUP2 DUP2 MSTORE PUSH1 0x20 ADD DUP3 DUP1 SLOAD PUSH2 0x130F SWAP1 PUSH2 0x2E3F JUMP JUMPDEST DUP1 ISZERO PUSH2 0x135C JUMPI DUP1 PUSH1 0x1F LT PUSH2 0x1331 JUMPI PUSH2 0x100 DUP1 DUP4 SLOAD DIV MUL DUP4 MSTORE SWAP2 PUSH1 0x20 ADD SWAP2 PUSH2 0x135C JUMP JUMPDEST DUP3 ADD SWAP2 SWAP1 PUSH1 0x0 MSTORE PUSH1 0x20 PUSH1 0x0 KECCAK256 SWAP1 JUMPDEST DUP2 SLOAD DUP2 MSTORE SWAP1 PUSH1 0x1 ADD SWAP1 PUSH1 0x20 ADD DUP1 DUP4 GT PUSH2 0x133F JUMPI DUP3 SWAP1 SUB PUSH1 0x1F AND DUP3 ADD SWAP2 JUMPDEST POP POP POP POP POP SWAP2 POP SWAP5 POP SWAP5 POP SWAP5 POP POP POP SWAP2 SWAP4 SWAP1 SWAP3 POP JUMP JUMPDEST PUSH1 0xF DUP2 DUP2 SLOAD DUP2 LT PUSH2 0xA12 JUMPI PUSH1 0x0 DUP1 REVERT JUMPDEST PUSH1 0xB SLOAD PUSH1 0x0 SWAP1 PUSH1 0x1 PUSH1 0x1 PUSH1 0xA0 SHL SUB AND CALLER EQ PUSH2 0x13AF JUMPI PUSH1 0x40 MLOAD PUSH3 0x461BCD PUSH1 0xE5 SHL DUP2 MSTORE PUSH1 0x4 ADD PUSH2 0x239 SWAP1 PUSH2 0x2E7A JUMP JUMPDEST POP SELFBALANCE SWAP1 JUMP JUMPDEST PUSH1 0xB SLOAD PUSH1 0x1 PUSH1 0x1 PUSH1 0xA0 SHL SUB AND CALLER EQ PUSH2 0x13DE JUMPI PUSH1 0x40 MLOAD PUSH3 0x461BCD PUSH1 0xE5 SHL DUP2 MSTORE PUSH1 0x4 ADD PUSH2 0x239 SWAP1 PUSH2 0x2E7A JUMP JUMPDEST PUSH1 0x1 PUSH1 0x1 PUSH1 0xA0 SHL SUB DUP5 AND PUSH1 0x0 SWAP1 DUP2 MSTORE PUSH1 0x20 DUP2 SWAP1 MSTORE PUSH1 0x40 SWAP1 KECCAK256 SLOAD ISZERO PUSH2 0x1444 JUMPI PUSH1 0x40 MLOAD PUSH3 0x461BCD PUSH1 0xE5 SHL DUP2 MSTORE PUSH1 0x20 PUSH1 0x4 DUP3 ADD MSTORE PUSH1 0x1E PUSH1 0x24 DUP3 ADD MSTORE PUSH32 0x4164647265737320697320616C726561647920726567697374657265642E0000 PUSH1 0x44 DUP3 ADD MSTORE PUSH1 0x64 ADD PUSH2 0x239 JUMP JUMPDEST PUSH1 0x40 DUP1 MLOAD PUSH1 0xC0 DUP2 ADD DUP3 MSTORE PUSH1 0x6 DUP1 SLOAD DUP3 MSTORE PUSH1 0x20 DUP1 DUP4 ADD DUP11 DUP2 MSTORE SWAP4 DUP4 ADD DUP10 SWAP1 MSTORE PUSH1 0x60 DUP4 ADD DUP8 SWAP1 MSTORE PUSH1 0x80 DUP4 ADD DUP7 SWAP1 MSTORE PUSH1 0xA0 DUP4 ADD DUP6 SWAP1 MSTORE PUSH1 0xD DUP1 SLOAD PUSH1 0x1 DUP2 ADD DUP3 SSTORE PUSH1 0x0 SWAP2 SWAP1 SWAP2 MSTORE DUP4 MLOAD SWAP3 MUL PUSH32 0xD7B6990105719101DABEB77144F2A3385C8033ACD3AF97E9423A695E81AD1EB5 DUP2 ADD SWAP3 DUP4 SSTORE SWAP4 MLOAD DUP1 MLOAD SWAP4 SWAP5 SWAP3 SWAP4 PUSH2 0x14EA SWAP4 PUSH32 0xD7B6990105719101DABEB77144F2A3385C8033ACD3AF97E9423A695E81AD1EB6 ADD SWAP3 SWAP2 SWAP1 SWAP2 ADD SWAP1 PUSH2 0x2746 JUMP JUMPDEST POP PUSH1 0x40 DUP3 ADD MLOAD DUP1 MLOAD PUSH2 0x1506 SWAP2 PUSH1 0x2 DUP5 ADD SWAP2 PUSH1 0x20 SWAP1 SWAP2 ADD SWAP1 PUSH2 0x2746 JUMP JUMPDEST POP PUSH1 0x60 DUP3 ADD MLOAD DUP1 MLOAD PUSH2 0x1522 SWAP2 PUSH1 0x3 DUP5 ADD SWAP2 PUSH1 0x20 SWAP1 SWAP2 ADD SWAP1 PUSH2 0x2746 JUMP JUMPDEST POP PUSH1 0x80 DUP3 ADD MLOAD DUP1 MLOAD PUSH2 0x153E SWAP2 PUSH1 0x4 DUP5 ADD SWAP2 PUSH1 0x20 SWAP1 SWAP2 ADD SWAP1 PUSH2 0x2746 JUMP JUMPDEST POP PUSH1 0xA0 DUP3 ADD MLOAD DUP1 MLOAD PUSH2 0x155A SWAP2 PUSH1 0x5 DUP5 ADD SWAP2 PUSH1 0x20 SWAP1 SWAP2 ADD SWAP1 PUSH2 0x2746 JUMP JUMPDEST POP POP PUSH1 0xE DUP1 SLOAD PUSH1 0x1 DUP2 ADD DUP3 SSTORE PUSH1 0x0 SWAP2 SWAP1 SWAP2 MSTORE PUSH32 0xBB7B4A454DC3493923482F07822329ED19E8244EFF582CC204F8554C3620C3FD ADD DUP1 SLOAD PUSH1 0x1 PUSH1 0x1 PUSH1 0xA0 SHL SUB NOT AND PUSH1 0x1 PUSH1 0x1 PUSH1 0xA0 SHL SUB DUP8 AND OR SWAP1 SSTORE POP PUSH1 0x6 SLOAD PUSH1 0x40 MLOAD PUSH32 0xE6D2B367293BC1AE37F7C0ECD6E2FB1DF341A2C0194E8D70775C415495B8ACE5 SWAP2 PUSH2 0x15E6 SWAP2 DUP8 SWAP2 SWAP1 DUP11 SWAP1 DUP11 SWAP1 DUP10 SWAP1 DUP10 SWAP1 DUP10 SWAP1 PUSH2 0x2FFE JUMP JUMPDEST PUSH1 0x40 MLOAD DUP1 SWAP2 SUB SWAP1 LOG1 PUSH1 0x6 DUP1 SLOAD PUSH1 0x1 PUSH1 0x1 PUSH1 0xA0 SHL SUB DUP7 AND PUSH1 0x0 SWAP1 DUP2 MSTORE PUSH1 0x20 DUP2 SWAP1 MSTORE PUSH1 0x40 DUP2 KECCAK256 DUP3 SWAP1 SSTORE SWAP1 SWAP2 SWAP1 PUSH2 0x1619 DUP4 PUSH2 0x2FE3 JUMP JUMPDEST SWAP1 SWAP2 SSTORE POP POP POP PUSH1 0x1 PUSH1 0x1 PUSH1 0xA0 SHL SUB SWAP1 SWAP3 AND PUSH1 0x0 SWAP1 DUP2 MSTORE PUSH1 0x3 PUSH1 0x20 MSTORE PUSH1 0x40 DUP2 KECCAK256 SSTORE POP POP POP POP JUMP JUMPDEST CALLER PUSH1 0x0 SWAP1 DUP2 MSTORE PUSH1 0x20 DUP2 SWAP1 MSTORE PUSH1 0x40 SWAP1 KECCAK256 SLOAD PUSH2 0x166B JUMPI PUSH1 0x40 MLOAD PUSH3 0x461BCD PUSH1 0xE5 SHL DUP2 MSTORE PUSH1 0x4 ADD PUSH2 0x239 SWAP1 PUSH2 0x27DF JUMP JUMPDEST CALLER PUSH1 0x0 SWAP1 DUP2 MSTORE PUSH1 0x1 PUSH1 0x20 MSTORE PUSH1 0x40 SWAP1 KECCAK256 SLOAD PUSH2 0x16ED JUMPI PUSH1 0x40 MLOAD PUSH3 0x461BCD PUSH1 0xE5 SHL DUP2 MSTORE PUSH1 0x20 PUSH1 0x4 DUP3 ADD MSTORE PUSH1 0x3E PUSH1 0x24 DUP3 ADD MSTORE PUSH32 0x506C6561736520726567697374657220612070726F7065727479206265666F72 PUSH1 0x44 DUP3 ADD MSTORE PUSH32 0x65207375627363726962696E6720746F207468697320736572766963652E0000 PUSH1 0x64 DUP3 ADD MSTORE PUSH1 0x84 ADD PUSH2 0x239 JUMP JUMPDEST PUSH1 0xF DUP1 SLOAD PUSH1 0x1 DUP2 ADD SWAP1 SWAP2 SSTORE PUSH32 0x8D1108E10BCB7C27DDDFC02ED9D693A074039D026CF4EA4240B40F7D581AC802 ADD DUP1 SLOAD PUSH1 0x1 PUSH1 0x1 PUSH1 0xA0 SHL SUB NOT AND CALLER SWAP1 DUP2 OR SWAP1 SWAP2 SSTORE PUSH1 0x11 DUP1 SLOAD PUSH1 0x0 SWAP3 DUP4 MSTORE PUSH1 0x10 PUSH1 0x20 MSTORE PUSH1 0x40 DUP4 KECCAK256 DUP2 SWAP1 SSTORE SWAP2 PUSH2 0x174C DUP4 PUSH2 0x2FE3 JUMP JUMPDEST SWAP1 SWAP2 SSTORE POP POP PUSH1 0x40 MLOAD CALLER DUP2 MSTORE PUSH32 0xE43E86FAAAC76243CB61B453AF8C2C147217AFB896A2B336DD6ECA7E0203E247 SWAP1 PUSH1 0x20 ADD PUSH1 0x40 MLOAD DUP1 SWAP2 SUB SWAP1 LOG1 JUMP JUMPDEST PUSH1 0x0 PUSH1 0x1 PUSH1 0x11 SLOAD PUSH2 0x1797 SWAP2 SWAP1 PUSH2 0x2EA5 JUMP JUMPDEST SWAP1 POP SWAP1 JUMP JUMPDEST PUSH1 0x4 PUSH1 0x20 MSTORE DUP2 PUSH1 0x0 MSTORE PUSH1 0x40 PUSH1 0x0 KECCAK256 DUP2 DUP2 SLOAD DUP2 LT PUSH2 0x17B8 JUMPI PUSH1 0x0 DUP1 REVERT JUMPDEST SWAP1 PUSH1 0x0 MSTORE PUSH1 0x20 PUSH1 0x0 KECCAK256 ADD PUSH1 0x0 SWAP2 POP SWAP2 POP POP SLOAD DUP2 JUMP JUMPDEST PUSH1 0xB SLOAD PUSH1 0x1 PUSH1 0x1 PUSH1 0xA0 SHL SUB AND CALLER EQ PUSH2 0x17F7 JUMPI PUSH1 0x40 MLOAD PUSH3 0x461BCD PUSH1 0xE5 SHL DUP2 MSTORE PUSH1 0x4 ADD PUSH2 0x239 SWAP1 PUSH2 0x2E7A JUMP JUMPDEST PUSH1 0xB SLOAD PUSH1 0x1 PUSH1 0x1 PUSH1 0xA0 SHL SUB AND PUSH1 0xA SELFBALANCE GT PUSH2 0x1810 JUMPI PUSH1 0x0 DUP1 REVERT JUMPDEST PUSH1 0x0 PUSH1 0xA DUP1 SLOAD PUSH2 0x1820 SWAP2 SWAP1 PUSH2 0x2EA5 JUMP JUMPDEST PUSH1 0xA DUP1 SSTORE PUSH1 0x40 MLOAD SWAP1 SWAP2 POP PUSH1 0x0 SWAP1 PUSH1 0x1 PUSH1 0x1 PUSH1 0xA0 SHL SUB DUP5 AND SWAP1 DUP4 SWAP1 DUP4 DUP2 DUP2 DUP2 DUP6 DUP8 GAS CALL SWAP3 POP POP POP RETURNDATASIZE DUP1 PUSH1 0x0 DUP2 EQ PUSH2 0x1872 JUMPI PUSH1 0x40 MLOAD SWAP2 POP PUSH1 0x1F NOT PUSH1 0x3F RETURNDATASIZE ADD AND DUP3 ADD PUSH1 0x40 MSTORE RETURNDATASIZE DUP3 MSTORE RETURNDATASIZE PUSH1 0x0 PUSH1 0x20 DUP5 ADD RETURNDATACOPY PUSH2 0x1877 JUMP JUMPDEST PUSH1 0x60 SWAP2 POP JUMPDEST POP POP SWAP1 POP DUP1 PUSH2 0x18BB JUMPI PUSH1 0x40 MLOAD PUSH3 0x461BCD PUSH1 0xE5 SHL DUP2 MSTORE PUSH1 0x20 PUSH1 0x4 DUP3 ADD MSTORE PUSH1 0x10 PUSH1 0x24 DUP3 ADD MSTORE PUSH16 0x2A3930B739B332B9103330B4B632B217 PUSH1 0x81 SHL PUSH1 0x44 DUP3 ADD MSTORE PUSH1 0x64 ADD PUSH2 0x239 JUMP JUMPDEST POP POP POP JUMP JUMPDEST PUSH1 0x0 DUP3 DUP2 MSTORE PUSH1 0x2 PUSH1 0x20 MSTORE PUSH1 0x40 SWAP1 KECCAK256 SLOAD PUSH1 0x1 PUSH1 0x1 PUSH1 0xA0 SHL SUB AND CALLER EQ PUSH2 0x1965 JUMPI PUSH1 0x40 MLOAD PUSH3 0x461BCD PUSH1 0xE5 SHL DUP2 MSTORE PUSH1 0x20 PUSH1 0x4 DUP3 ADD MSTORE PUSH1 0x50 PUSH1 0x24 DUP3 ADD MSTORE PUSH32 0x4F6E6C79204F776E6572732063616E207472616E736665722070726F70657274 PUSH1 0x44 DUP3 ADD MSTORE PUSH32 0x792E20576520646F206E6F74206861766520796F75206173206F776E6572206F PUSH1 0x64 DUP3 ADD MSTORE PUSH16 0x33103A3434B990383937B832B93A3C97 PUSH1 0x81 SHL PUSH1 0x84 DUP3 ADD MSTORE PUSH1 0xA4 ADD PUSH2 0x239 JUMP JUMPDEST PUSH1 0x9 SLOAD PUSH1 0x1 PUSH1 0x1 PUSH1 0xA0 SHL SUB DUP3 AND PUSH1 0x0 SWAP1 DUP2 MSTORE PUSH1 0x3 PUSH1 0x20 MSTORE PUSH1 0x40 SWAP1 KECCAK256 SLOAD LT ISZERO PUSH2 0x19F5 JUMPI PUSH1 0x40 MLOAD PUSH3 0x461BCD PUSH1 0xE5 SHL DUP2 MSTORE PUSH1 0x20 PUSH1 0x4 DUP3 ADD MSTORE PUSH1 0x37 PUSH1 0x24 DUP3 ADD MSTORE PUSH32 0x42616C616E6365206F662061206E6577206F776E657220697320746F6F206C6F PUSH1 0x44 DUP3 ADD MSTORE PUSH32 0x7720746F207472616E736665722070726F70657274792E000000000000000000 PUSH1 0x64 DUP3 ADD MSTORE PUSH1 0x84 ADD PUSH2 0x239 JUMP JUMPDEST PUSH1 0x1 PUSH1 0x1 PUSH1 0xA0 SHL SUB DUP2 AND PUSH1 0x0 SWAP1 DUP2 MSTORE PUSH1 0x20 DUP2 SWAP1 MSTORE PUSH1 0x40 SWAP1 KECCAK256 SLOAD PUSH2 0x1A5A JUMPI PUSH1 0x40 MLOAD PUSH3 0x461BCD PUSH1 0xE5 SHL DUP2 MSTORE PUSH1 0x20 PUSH1 0x4 DUP3 ADD MSTORE PUSH1 0x1B PUSH1 0x24 DUP3 ADD MSTORE PUSH32 0x4E6577206F776E6572206973206E6F7420726567697374657265640000000000 PUSH1 0x44 DUP3 ADD MSTORE PUSH1 0x64 ADD PUSH2 0x239 JUMP JUMPDEST PUSH1 0x0 DUP3 DUP2 MSTORE PUSH1 0x2 PUSH1 0x20 SWAP1 DUP2 MSTORE PUSH1 0x40 DUP1 DUP4 KECCAK256 DUP1 SLOAD PUSH1 0x1 PUSH1 0x1 PUSH1 0xA0 SHL SUB NOT AND PUSH1 0x1 PUSH1 0x1 PUSH1 0xA0 SHL SUB DUP7 AND OR SWAP1 SSTORE CALLER DUP4 MSTORE PUSH1 0x4 SWAP1 SWAP2 MSTORE SWAP1 KECCAK256 DUP1 SLOAD PUSH2 0x1A9C SWAP1 PUSH1 0x1 SWAP1 PUSH2 0x2EA5 JUMP JUMPDEST DUP2 SLOAD DUP2 LT PUSH2 0x1AAC JUMPI PUSH2 0x1AAC PUSH2 0x2EBC JUMP JUMPDEST PUSH1 0x0 SWAP2 DUP3 MSTORE PUSH1 0x20 DUP1 DUP4 KECCAK256 SWAP1 SWAP2 ADD SLOAD CALLER DUP4 MSTORE PUSH1 0x4 DUP3 MSTORE PUSH1 0x40 DUP1 DUP5 KECCAK256 PUSH1 0x7 SLOAD DUP6 MSTORE PUSH1 0x5 SWAP1 SWAP4 MSTORE SWAP1 SWAP3 KECCAK256 SLOAD DUP2 SLOAD DUP2 LT PUSH2 0x1AE4 JUMPI PUSH2 0x1AE4 PUSH2 0x2EBC JUMP JUMPDEST PUSH1 0x0 SWAP2 DUP3 MSTORE PUSH1 0x20 DUP1 DUP4 KECCAK256 SWAP1 SWAP2 ADD SWAP3 SWAP1 SWAP3 SSTORE CALLER DUP2 MSTORE PUSH1 0x4 SWAP1 SWAP2 MSTORE PUSH1 0x40 SWAP1 KECCAK256 DUP1 SLOAD DUP1 PUSH2 0x1B10 JUMPI PUSH2 0x1B10 PUSH2 0x2ED2 JUMP JUMPDEST PUSH1 0x0 DUP3 DUP2 MSTORE PUSH1 0x20 DUP1 DUP3 KECCAK256 DUP4 ADD PUSH1 0x0 NOT SWAP1 DUP2 ADD DUP4 SWAP1 SSTORE SWAP1 SWAP3 ADD SWAP1 SWAP3 SSTORE PUSH1 0x1 PUSH1 0x1 PUSH1 0xA0 SHL SUB DUP4 AND DUP1 DUP4 MSTORE PUSH1 0x4 DUP3 MSTORE PUSH1 0x40 DUP1 DUP5 KECCAK256 DUP1 SLOAD PUSH1 0x1 DUP2 DUP2 ADD DUP4 SSTORE SWAP2 DUP7 MSTORE DUP5 DUP7 KECCAK256 ADD DUP8 SWAP1 SSTORE SWAP2 DUP5 MSTORE SWAP2 MSTORE DUP2 KECCAK256 DUP1 SLOAD SWAP2 PUSH2 0x1B67 DUP4 PUSH2 0x2FE3 JUMP JUMPDEST SWAP1 SWAP2 SSTORE POP POP PUSH1 0x1 PUSH1 0x1 PUSH1 0xA0 SHL SUB DUP2 AND PUSH1 0x0 SWAP1 DUP2 MSTORE PUSH1 0x1 PUSH1 0x20 DUP2 DUP2 MSTORE PUSH1 0x40 DUP1 DUP5 KECCAK256 SLOAD PUSH1 0x7 SLOAD DUP6 MSTORE PUSH1 0x5 DUP4 MSTORE DUP2 DUP6 KECCAK256 SSTORE CALLER DUP5 MSTORE SWAP2 SWAP1 MSTORE DUP2 KECCAK256 DUP1 SLOAD SWAP2 PUSH2 0x1BA9 DUP4 PUSH2 0x2EE8 JUMP JUMPDEST SWAP1 SWAP2 SSTORE POP POP PUSH1 0x40 DUP1 MLOAD PUSH1 0x1 PUSH1 0x1 PUSH1 0xA0 SHL SUB DUP4 AND DUP2 MSTORE PUSH1 0x20 DUP2 ADD DUP5 SWAP1 MSTORE PUSH32 0xBF0996050D830A4094913360F3ACA6A3D35DC19FBDA52E1F983F5E1E3C5F8F2D SWAP2 ADD PUSH1 0x40 MLOAD DUP1 SWAP2 SUB SWAP1 LOG1 PUSH1 0x9 SLOAD PUSH1 0x1 PUSH1 0x1 PUSH1 0xA0 SHL SUB DUP3 AND PUSH1 0x0 SWAP1 DUP2 MSTORE PUSH1 0x3 PUSH1 0x20 MSTORE PUSH1 0x40 DUP2 KECCAK256 DUP1 SLOAD SWAP1 SWAP2 SWAP1 PUSH2 0x1C1B SWAP1 DUP5 SWAP1 PUSH2 0x2EA5 JUMP JUMPDEST SWAP1 SWAP2 SSTORE POP POP PUSH1 0x9 SLOAD PUSH1 0xA DUP1 SLOAD PUSH1 0x0 SWAP1 PUSH2 0x1C35 SWAP1 DUP5 SWAP1 PUSH2 0x2825 JUMP JUMPDEST SWAP1 SWAP2 SSTORE POP POP POP POP JUMP JUMPDEST PUSH1 0xB SLOAD PUSH1 0x60 SWAP1 PUSH1 0x1 PUSH1 0x1 PUSH1 0xA0 SHL SUB AND CALLER EQ PUSH2 0x1C6B JUMPI PUSH1 0x40 MLOAD PUSH3 0x461BCD PUSH1 0xE5 SHL DUP2 MSTORE PUSH1 0x4 ADD PUSH2 0x239 SWAP1 PUSH2 0x2E7A JUMP JUMPDEST PUSH1 0x1 PUSH1 0x1 PUSH1 0xA0 SHL SUB DUP3 AND PUSH1 0x0 SWAP1 DUP2 MSTORE PUSH1 0x4 PUSH1 0x20 SWAP1 DUP2 MSTORE PUSH1 0x40 SWAP2 DUP3 SWAP1 KECCAK256 DUP1 SLOAD DUP4 MLOAD DUP2 DUP5 MUL DUP2 ADD DUP5 ADD SWAP1 SWAP5 MSTORE DUP1 DUP5 MSTORE SWAP1 SWAP2 DUP4 ADD DUP3 DUP3 DUP1 ISZERO PUSH2 0x1CC9 JUMPI PUSH1 0x20 MUL DUP3 ADD SWAP2 SWAP1 PUSH1 0x0 MSTORE PUSH1 0x20 PUSH1 0x0 KECCAK256 SWAP1 JUMPDEST DUP2 SLOAD DUP2 MSTORE PUSH1 0x20 ADD SWAP1 PUSH1 0x1 ADD SWAP1 DUP1 DUP4 GT PUSH2 0x1CB5 JUMPI JUMPDEST POP POP POP POP POP SWAP1 POP JUMPDEST SWAP2 SWAP1 POP JUMP JUMPDEST PUSH1 0xB SLOAD PUSH1 0x1 PUSH1 0x1 PUSH1 0xA0 SHL SUB AND CALLER EQ PUSH2 0x1D00 JUMPI PUSH1 0x40 MLOAD PUSH3 0x461BCD PUSH1 0xE5 SHL DUP2 MSTORE PUSH1 0x4 ADD PUSH2 0x239 SWAP1 PUSH2 0x2E7A JUMP JUMPDEST PUSH1 0x8 SLOAD PUSH1 0x1 PUSH1 0x1 PUSH1 0xA0 SHL SUB DUP13 AND PUSH1 0x0 SWAP1 DUP2 MSTORE PUSH1 0x3 PUSH1 0x20 MSTORE PUSH1 0x40 SWAP1 KECCAK256 SLOAD LT ISZERO PUSH2 0x1DA8 JUMPI PUSH1 0x40 MLOAD PUSH3 0x461BCD PUSH1 0xE5 SHL DUP2 MSTORE PUSH1 0x20 PUSH1 0x4 DUP3 ADD MSTORE PUSH1 0x4F PUSH1 0x24 DUP3 ADD MSTORE PUSH32 0x42616C616E636520746F6F206C6F7720746F2072656769737465722070726F70 PUSH1 0x44 DUP3 ADD MSTORE PUSH32 0x657274792E20506C6561736520696E63726561736520796F75722062616C616E PUSH1 0x64 DUP3 ADD MSTORE PUSH15 0x31B29013103A393C9030B3B0B4B717 PUSH1 0x89 SHL PUSH1 0x84 DUP3 ADD MSTORE PUSH1 0xA4 ADD PUSH2 0x239 JUMP JUMPDEST PUSH1 0x40 DUP1 MLOAD PUSH2 0x160 DUP2 ADD DUP3 MSTORE PUSH1 0x7 SLOAD DUP2 MSTORE PUSH1 0x20 DUP1 DUP3 ADD DUP14 DUP2 MSTORE SWAP3 DUP3 ADD DUP13 DUP2 MSTORE PUSH1 0x60 DUP4 ADD DUP13 DUP2 MSTORE PUSH1 0x80 DUP5 ADD DUP13 DUP2 MSTORE PUSH1 0xA0 DUP6 ADD DUP13 SWAP1 MSTORE PUSH1 0xC0 DUP6 ADD DUP12 SWAP1 MSTORE PUSH1 0xE0 DUP6 ADD DUP11 SWAP1 MSTORE PUSH2 0x100 DUP6 ADD DUP10 SWAP1 MSTORE PUSH2 0x120 DUP6 ADD DUP9 SWAP1 MSTORE PUSH2 0x140 DUP6 ADD DUP8 SWAP1 MSTORE PUSH1 0xC DUP1 SLOAD PUSH1 0x1 DUP2 ADD DUP3 SSTORE PUSH1 0x0 SWAP2 SWAP1 SWAP2 MSTORE DUP6 MLOAD PUSH1 0xB SWAP1 SWAP2 MUL PUSH32 0xDF6966C971051C3D54EC59162606531493A51404A002842F56009D7E5CF4A8C7 DUP2 ADD SWAP2 DUP3 SSTORE SWAP7 MLOAD PUSH32 0xDF6966C971051C3D54EC59162606531493A51404A002842F56009D7E5CF4A8C8 DUP9 ADD SSTORE SWAP3 MLOAD PUSH32 0xDF6966C971051C3D54EC59162606531493A51404A002842F56009D7E5CF4A8C9 DUP8 ADD SSTORE SWAP1 MLOAD PUSH32 0xDF6966C971051C3D54EC59162606531493A51404A002842F56009D7E5CF4A8CA DUP7 ADD SSTORE MLOAD DUP1 MLOAD SWAP4 SWAP5 SWAP2 SWAP4 PUSH2 0x1EEA SWAP4 PUSH32 0xDF6966C971051C3D54EC59162606531493A51404A002842F56009D7E5CF4A8CB SWAP1 SWAP4 ADD SWAP3 SWAP2 SWAP1 SWAP2 ADD SWAP1 PUSH2 0x2746 JUMP JUMPDEST POP PUSH1 0xA0 DUP3 ADD MLOAD DUP1 MLOAD PUSH2 0x1F06 SWAP2 PUSH1 0x5 DUP5 ADD SWAP2 PUSH1 0x20 SWAP1 SWAP2 ADD SWAP1 PUSH2 0x2746 JUMP JUMPDEST POP PUSH1 0xC0 DUP3 ADD MLOAD DUP1 MLOAD PUSH2 0x1F22 SWAP2 PUSH1 0x6 DUP5 ADD SWAP2 PUSH1 0x20 SWAP1 SWAP2 ADD SWAP1 PUSH2 0x2746 JUMP JUMPDEST POP PUSH1 0xE0 DUP3 ADD MLOAD DUP1 MLOAD PUSH2 0x1F3E SWAP2 PUSH1 0x7 DUP5 ADD SWAP2 PUSH1 0x20 SWAP1 SWAP2 ADD SWAP1 PUSH2 0x2746 JUMP JUMPDEST POP PUSH2 0x100 DUP3 ADD MLOAD DUP1 MLOAD PUSH2 0x1F5B SWAP2 PUSH1 0x8 DUP5 ADD SWAP2 PUSH1 0x20 SWAP1 SWAP2 ADD SWAP1 PUSH2 0x2746 JUMP JUMPDEST POP PUSH2 0x120 DUP3 ADD MLOAD DUP1 MLOAD PUSH2 0x1F78 SWAP2 PUSH1 0x9 DUP5 ADD SWAP2 PUSH1 0x20 SWAP1 SWAP2 ADD SWAP1 PUSH2 0x2746 JUMP JUMPDEST POP PUSH2 0x140 DUP3 ADD MLOAD DUP1 MLOAD PUSH2 0x1F95 SWAP2 PUSH1 0xA DUP5 ADD SWAP2 PUSH1 0x20 SWAP1 SWAP2 ADD SWAP1 PUSH2 0x2746 JUMP JUMPDEST POP POP POP PUSH32 0x7A320318F8DDFE7528CB7B0A1FDAF9466F7FD11A31F4D72ED4C96A07624589D9 PUSH1 0x7 SLOAD DUP12 DUP12 DUP12 DUP12 DUP12 DUP12 DUP12 DUP12 DUP12 DUP12 PUSH1 0x40 MLOAD PUSH2 0x1FDD SWAP12 SWAP11 SWAP10 SWAP9 SWAP8 SWAP7 SWAP6 SWAP5 SWAP4 SWAP3 SWAP2 SWAP1 PUSH2 0x2D86 JUMP JUMPDEST PUSH1 0x40 MLOAD DUP1 SWAP2 SUB SWAP1 LOG1 DUP11 PUSH1 0x2 PUSH1 0x0 PUSH1 0x7 SLOAD DUP2 MSTORE PUSH1 0x20 ADD SWAP1 DUP2 MSTORE PUSH1 0x20 ADD PUSH1 0x0 KECCAK256 PUSH1 0x0 PUSH2 0x100 EXP DUP2 SLOAD DUP2 PUSH1 0x1 PUSH1 0x1 PUSH1 0xA0 SHL SUB MUL NOT AND SWAP1 DUP4 PUSH1 0x1 PUSH1 0x1 PUSH1 0xA0 SHL SUB AND MUL OR SWAP1 SSTORE POP PUSH1 0x1 PUSH1 0x0 DUP13 PUSH1 0x1 PUSH1 0x1 PUSH1 0xA0 SHL SUB AND PUSH1 0x1 PUSH1 0x1 PUSH1 0xA0 SHL SUB AND DUP2 MSTORE PUSH1 0x20 ADD SWAP1 DUP2 MSTORE PUSH1 0x20 ADD PUSH1 0x0 KECCAK256 PUSH1 0x0 DUP2 SLOAD DUP1 SWAP3 SWAP2 SWAP1 PUSH2 0x2055 SWAP1 PUSH2 0x2FE3 JUMP JUMPDEST SWAP1 SWAP2 SSTORE POP POP PUSH1 0x1 PUSH1 0x1 PUSH1 0xA0 SHL SUB DUP12 AND PUSH1 0x0 DUP2 DUP2 MSTORE PUSH1 0x4 PUSH1 0x20 SWAP1 DUP2 MSTORE PUSH1 0x40 DUP1 DUP4 KECCAK256 PUSH1 0x7 DUP1 SLOAD DUP3 SLOAD PUSH1 0x1 DUP2 DUP2 ADD DUP6 SSTORE SWAP4 DUP8 MSTORE DUP6 DUP8 KECCAK256 ADD SSTORE SWAP5 DUP5 MSTORE DUP3 MSTORE DUP1 DUP4 KECCAK256 SLOAD DUP5 SLOAD DUP5 MSTORE PUSH1 0x5 SWAP1 SWAP3 MSTORE DUP3 KECCAK256 SSTORE DUP2 SLOAD SWAP2 SWAP1 PUSH2 0x20AC DUP4 PUSH2 0x2FE3 JUMP JUMPDEST SWAP1 SWAP2 SSTORE POP POP PUSH1 0x8 SLOAD PUSH1 0x1 PUSH1 0x1 PUSH1 0xA0 SHL SUB DUP13 AND PUSH1 0x0 SWAP1 DUP2 MSTORE PUSH1 0x3 PUSH1 0x20 MSTORE PUSH1 0x40 DUP2 KECCAK256 DUP1 SLOAD SWAP1 SWAP2 SWAP1 PUSH2 0x20DC SWAP1 DUP5 SWAP1 PUSH2 0x2EA5 JUMP JUMPDEST SWAP1 SWAP2 SSTORE POP POP PUSH1 0x8 SLOAD PUSH1 0xA DUP1 SLOAD PUSH1 0x0 SWAP1 PUSH2 0x20F6 SWAP1 DUP5 SWAP1 PUSH2 0x2825 JUMP JUMPDEST SWAP1 SWAP2 SSTORE POP POP POP POP POP POP POP POP POP POP POP POP POP JUMP JUMPDEST PUSH1 0xB SLOAD PUSH1 0x0 SWAP1 PUSH1 0x1 PUSH1 0x1 PUSH1 0xA0 SHL SUB AND CALLER EQ PUSH2 0x2135 JUMPI PUSH1 0x40 MLOAD PUSH3 0x461BCD PUSH1 0xE5 SHL DUP2 MSTORE PUSH1 0x4 ADD PUSH2 0x239 SWAP1 PUSH2 0x2E7A JUMP JUMPDEST POP PUSH1 0xA SLOAD SWAP1 JUMP JUMPDEST PUSH1 0xB SLOAD PUSH1 0x1 PUSH1 0x1 PUSH1 0xA0 SHL SUB AND CALLER EQ PUSH2 0x2166 JUMPI PUSH1 0x40 MLOAD PUSH3 0x461BCD PUSH1 0xE5 SHL DUP2 MSTORE PUSH1 0x4 ADD PUSH2 0x239 SWAP1 PUSH2 0x2E7A JUMP JUMPDEST PUSH1 0x8 SSTORE JUMP JUMPDEST PUSH1 0xB SLOAD PUSH1 0x1 PUSH1 0x1 PUSH1 0xA0 SHL SUB AND CALLER EQ PUSH2 0x2195 JUMPI PUSH1 0x40 MLOAD PUSH3 0x461BCD PUSH1 0xE5 SHL DUP2 MSTORE PUSH1 0x4 ADD PUSH2 0x239 SWAP1 PUSH2 0x2E7A JUMP JUMPDEST PUSH1 0x9 SSTORE JUMP JUMPDEST PUSH1 0xC DUP2 DUP2 SLOAD DUP2 LT PUSH2 0x21AA JUMPI PUSH1 0x0 DUP1 REVERT JUMPDEST SWAP1 PUSH1 0x0 MSTORE PUSH1 0x20 PUSH1 0x0 KECCAK256 SWAP1 PUSH1 0xB MUL ADD PUSH1 0x0 SWAP2 POP SWAP1 POP DUP1 PUSH1 0x0 ADD SLOAD SWAP1 DUP1 PUSH1 0x1 ADD SLOAD SWAP1 DUP1 PUSH1 0x2 ADD SLOAD SWAP1 DUP1 PUSH1 0x3 ADD SLOAD SWAP1 DUP1 PUSH1 0x4 ADD DUP1 SLOAD PUSH2 0x21E5 SWAP1 PUSH2 0x2E3F JUMP JUMPDEST DUP1 PUSH1 0x1F ADD PUSH1 0x20 DUP1 SWAP2 DIV MUL PUSH1 0x20 ADD PUSH1 0x40 MLOAD SWAP1 DUP2 ADD PUSH1 0x40 MSTORE DUP1 SWAP3 SWAP2 SWAP1 DUP2 DUP2 MSTORE PUSH1 0x20 ADD DUP3 DUP1 SLOAD PUSH2 0x2211 SWAP1 PUSH2 0x2E3F JUMP JUMPDEST DUP1 ISZERO PUSH2 0x225E JUMPI DUP1 PUSH1 0x1F LT PUSH2 0x2233 JUMPI PUSH2 0x100 DUP1 DUP4 SLOAD DIV MUL DUP4 MSTORE SWAP2 PUSH1 0x20 ADD SWAP2 PUSH2 0x225E JUMP JUMPDEST DUP3 ADD SWAP2 SWAP1 PUSH1 0x0 MSTORE PUSH1 0x20 PUSH1 0x0 KECCAK256 SWAP1 JUMPDEST DUP2 SLOAD DUP2 MSTORE SWAP1 PUSH1 0x1 ADD SWAP1 PUSH1 0x20 ADD DUP1 DUP4 GT PUSH2 0x2241 JUMPI DUP3 SWAP1 SUB PUSH1 0x1F AND DUP3 ADD SWAP2 JUMPDEST POP POP POP POP POP SWAP1 DUP1 PUSH1 0x5 ADD DUP1 SLOAD PUSH2 0x2273 SWAP1 PUSH2 0x2E3F JUMP JUMPDEST DUP1 PUSH1 0x1F ADD PUSH1 0x20 DUP1 SWAP2 DIV MUL PUSH1 0x20 ADD PUSH1 0x40 MLOAD SWAP1 DUP2 ADD PUSH1 0x40 MSTORE DUP1 SWAP3 SWAP2 SWAP1 DUP2 DUP2 MSTORE PUSH1 0x20 ADD DUP3 DUP1 SLOAD PUSH2 0x229F SWAP1 PUSH2 0x2E3F JUMP JUMPDEST DUP1 ISZERO PUSH2 0x22EC JUMPI DUP1 PUSH1 0x1F LT PUSH2 0x22C1 JUMPI PUSH2 0x100 DUP1 DUP4 SLOAD DIV MUL DUP4 MSTORE SWAP2 PUSH1 0x20 ADD SWAP2 PUSH2 0x22EC JUMP JUMPDEST DUP3 ADD SWAP2 SWAP1 PUSH1 0x0 MSTORE PUSH1 0x20 PUSH1 0x0 KECCAK256 SWAP1 JUMPDEST DUP2 SLOAD DUP2 MSTORE SWAP1 PUSH1 0x1 ADD SWAP1 PUSH1 0x20 ADD DUP1 DUP4 GT PUSH2 0x22CF JUMPI DUP3 SWAP1 SUB PUSH1 0x1F AND DUP3 ADD SWAP2 JUMPDEST POP POP POP POP POP SWAP1 DUP1 PUSH1 0x6 ADD DUP1 SLOAD PUSH2 0x2301 SWAP1 PUSH2 0x2E3F JUMP JUMPDEST DUP1 PUSH1 0x1F ADD PUSH1 0x20 DUP1 SWAP2 DIV MUL PUSH1 0x20 ADD PUSH1 0x40 MLOAD SWAP1 DUP2 ADD PUSH1 0x40 MSTORE DUP1 SWAP3 SWAP2 SWAP1 DUP2 DUP2 MSTORE PUSH1 0x20 ADD DUP3 DUP1 SLOAD PUSH2 0x232D SWAP1 PUSH2 0x2E3F JUMP JUMPDEST DUP1 ISZERO PUSH2 0x237A JUMPI DUP1 PUSH1 0x1F LT PUSH2 0x234F JUMPI PUSH2 0x100 DUP1 DUP4 SLOAD DIV MUL DUP4 MSTORE SWAP2 PUSH1 0x20 ADD SWAP2 PUSH2 0x237A JUMP JUMPDEST DUP3 ADD SWAP2 SWAP1 PUSH1 0x0 MSTORE PUSH1 0x20 PUSH1 0x0 KECCAK256 SWAP1 JUMPDEST DUP2 SLOAD DUP2 MSTORE SWAP1 PUSH1 0x1 ADD SWAP1 PUSH1 0x20 ADD DUP1 DUP4 GT PUSH2 0x235D JUMPI DUP3 SWAP1 SUB PUSH1 0x1F AND DUP3 ADD SWAP2 JUMPDEST POP POP POP POP POP SWAP1 DUP1 PUSH1 0x7 ADD DUP1 SLOAD PUSH2 0x238F SWAP1 PUSH2 0x2E3F JUMP JUMPDEST DUP1 PUSH1 0x1F ADD PUSH1 0x20 DUP1 SWAP2 DIV MUL PUSH1 0x20 ADD PUSH1 0x40 MLOAD SWAP1 DUP2 ADD PUSH1 0x40 MSTORE DUP1 SWAP3 SWAP2 SWAP1 DUP2 DUP2 MSTORE PUSH1 0x20 ADD DUP3 DUP1 SLOAD PUSH2 0x23BB SWAP1 PUSH2 0x2E3F JUMP JUMPDEST DUP1 ISZERO PUSH2 0x2408 JUMPI DUP1 PUSH1 0x1F LT PUSH2 0x23DD JUMPI PUSH2 0x100 DUP1 DUP4 SLOAD DIV MUL DUP4 MSTORE SWAP2 PUSH1 0x20 ADD SWAP2 PUSH2 0x2408 JUMP JUMPDEST DUP3 ADD SWAP2 SWAP1 PUSH1 0x0 MSTORE PUSH1 0x20 PUSH1 0x0 KECCAK256 SWAP1 JUMPDEST DUP2 SLOAD DUP2 MSTORE SWAP1 PUSH1 0x1 ADD SWAP1 PUSH1 0x20 ADD DUP1 DUP4 GT PUSH2 0x23EB JUMPI DUP3 SWAP1 SUB PUSH1 0x1F AND DUP3 ADD SWAP2 JUMPDEST POP POP POP POP POP SWAP1 DUP1 PUSH1 0x8 ADD DUP1 SLOAD PUSH2 0x241D SWAP1 PUSH2 0x2E3F JUMP JUMPDEST DUP1 PUSH1 0x1F ADD PUSH1 0x20 DUP1 SWAP2 DIV MUL PUSH1 0x20 ADD PUSH1 0x40 MLOAD SWAP1 DUP2 ADD PUSH1 0x40 MSTORE DUP1 SWAP3 SWAP2 SWAP1 DUP2 DUP2 MSTORE PUSH1 0x20 ADD DUP3 DUP1 SLOAD PUSH2 0x2449 SWAP1 PUSH2 0x2E3F JUMP JUMPDEST DUP1 ISZERO PUSH2 0x2496 JUMPI DUP1 PUSH1 0x1F LT PUSH2 0x246B JUMPI PUSH2 0x100 DUP1 DUP4 SLOAD DIV MUL DUP4 MSTORE SWAP2 PUSH1 0x20 ADD SWAP2 PUSH2 0x2496 JUMP JUMPDEST DUP3 ADD SWAP2 SWAP1 PUSH1 0x0 MSTORE PUSH1 0x20 PUSH1 0x0 KECCAK256 SWAP1 JUMPDEST DUP2 SLOAD DUP2 MSTORE SWAP1 PUSH1 0x1 ADD SWAP1 PUSH1 0x20 ADD DUP1 DUP4 GT PUSH2 0x2479 JUMPI DUP3 SWAP1 SUB PUSH1 0x1F AND DUP3 ADD SWAP2 JUMPDEST POP POP POP POP POP SWAP1 DUP1 PUSH1 0x9 ADD DUP1 SLOAD PUSH2 0x24AB SWAP1 PUSH2 0x2E3F JUMP JUMPDEST DUP1 PUSH1 0x1F ADD PUSH1 0x20 DUP1 SWAP2 DIV MUL PUSH1 0x20 ADD PUSH1 0x40 MLOAD SWAP1 DUP2 ADD PUSH1 0x40 MSTORE DUP1 SWAP3 SWAP2 SWAP1 DUP2 DUP2 MSTORE PUSH1 0x20 ADD DUP3 DUP1 SLOAD PUSH2 0x24D7 SWAP1 PUSH2 0x2E3F JUMP JUMPDEST DUP1 ISZERO PUSH2 0x2524 JUMPI DUP1 PUSH1 0x1F LT PUSH2 0x24F9 JUMPI PUSH2 0x100 DUP1 DUP4 SLOAD DIV MUL DUP4 MSTORE SWAP2 PUSH1 0x20 ADD SWAP2 PUSH2 0x2524 JUMP JUMPDEST DUP3 ADD SWAP2 SWAP1 PUSH1 0x0 MSTORE PUSH1 0x20 PUSH1 0x0 KECCAK256 SWAP1 JUMPDEST DUP2 SLOAD DUP2 MSTORE SWAP1 PUSH1 0x1 ADD SWAP1 PUSH1 0x20 ADD DUP1 DUP4 GT PUSH2 0x2507 JUMPI DUP3 SWAP1 SUB PUSH1 0x1F AND DUP3 ADD SWAP2 JUMPDEST POP POP POP POP POP SWAP1 DUP1 PUSH1 0xA ADD DUP1 SLOAD PUSH2 0x2539 SWAP1 PUSH2 0x2E3F JUMP JUMPDEST DUP1 PUSH1 0x1F ADD PUSH1 0x20 DUP1 SWAP2 DIV MUL PUSH1 0x20 ADD PUSH1 0x40 MLOAD SWAP1 DUP2 ADD PUSH1 0x40 MSTORE DUP1 SWAP3 SWAP2 SWAP1 DUP2 DUP2 MSTORE PUSH1 0x20 ADD DUP3 DUP1 SLOAD PUSH2 0x2565 SWAP1 PUSH2 0x2E3F JUMP JUMPDEST DUP1 ISZERO PUSH2 0x25B2 JUMPI DUP1 PUSH1 0x1F LT PUSH2 0x2587 JUMPI PUSH2 0x100 DUP1 DUP4 SLOAD DIV MUL DUP4 MSTORE SWAP2 PUSH1 0x20 ADD SWAP2 PUSH2 0x25B2 JUMP JUMPDEST DUP3 ADD SWAP2 SWAP1 PUSH1 0x0 MSTORE PUSH1 0x20 PUSH1 0x0 KECCAK256 SWAP1 JUMPDEST DUP2 SLOAD DUP2 MSTORE SWAP1 PUSH1 0x1 ADD SWAP1 PUSH1 0x20 ADD DUP1 DUP4 GT PUSH2 0x2595 JUMPI DUP3 SWAP1 SUB PUSH1 0x1F AND DUP3 ADD SWAP2 JUMPDEST POP POP POP POP POP SWAP1 POP DUP12 JUMP JUMPDEST CALLER PUSH1 0x0 SWAP1 DUP2 MSTORE PUSH1 0x20 DUP2 SWAP1 MSTORE PUSH1 0x40 SWAP1 KECCAK256 SLOAD PUSH2 0x25E8 JUMPI PUSH1 0x40 MLOAD PUSH3 0x461BCD PUSH1 0xE5 SHL DUP2 MSTORE PUSH1 0x4 ADD PUSH2 0x239 SWAP1 PUSH2 0x27DF JUMP JUMPDEST CALLER PUSH1 0x0 SWAP1 DUP2 MSTORE PUSH1 0x10 PUSH1 0x20 DUP2 SWAP1 MSTORE PUSH1 0x40 DUP3 KECCAK256 SLOAD PUSH1 0xF DUP1 SLOAD SWAP2 SWAP4 DUP5 SWAP4 SWAP3 SWAP1 SWAP2 SWAP1 PUSH2 0x2612 SWAP1 PUSH1 0x1 SWAP1 PUSH2 0x2EA5 JUMP JUMPDEST DUP2 SLOAD DUP2 LT PUSH2 0x2622 JUMPI PUSH2 0x2622 PUSH2 0x2EBC JUMP JUMPDEST PUSH1 0x0 SWAP2 DUP3 MSTORE PUSH1 0x20 DUP1 DUP4 KECCAK256 SWAP1 SWAP2 ADD SLOAD PUSH1 0x1 PUSH1 0x1 PUSH1 0xA0 SHL SUB AND DUP4 MSTORE DUP3 ADD SWAP3 SWAP1 SWAP3 MSTORE PUSH1 0x40 ADD SWAP1 KECCAK256 SSTORE PUSH1 0xF DUP1 SLOAD PUSH2 0x2657 SWAP1 PUSH1 0x1 SWAP1 PUSH2 0x2EA5 JUMP JUMPDEST DUP2 SLOAD DUP2 LT PUSH2 0x2667 JUMPI PUSH2 0x2667 PUSH2 0x2EBC JUMP JUMPDEST PUSH1 0x0 SWAP2 DUP3 MSTORE PUSH1 0x20 SWAP1 SWAP2 KECCAK256 ADD SLOAD PUSH1 0x1 PUSH1 0x1 PUSH1 0xA0 SHL SUB AND PUSH1 0xF PUSH2 0x2689 PUSH1 0x1 DUP5 PUSH2 0x2EA5 JUMP JUMPDEST DUP2 SLOAD DUP2 LT PUSH2 0x2699 JUMPI PUSH2 0x2699 PUSH2 0x2EBC JUMP JUMPDEST SWAP1 PUSH1 0x0 MSTORE PUSH1 0x20 PUSH1 0x0 KECCAK256 ADD PUSH1 0x0 PUSH2 0x100 EXP DUP2 SLOAD DUP2 PUSH1 0x1 PUSH1 0x1 PUSH1 0xA0 SHL SUB MUL NOT AND SWAP1 DUP4 PUSH1 0x1 PUSH1 0x1 PUSH1 0xA0 SHL SUB AND MUL OR SWAP1 SSTORE POP PUSH1 0xF DUP1 SLOAD DUP1 PUSH2 0x26D8 JUMPI PUSH2 0x26D8 PUSH2 0x2ED2 JUMP JUMPDEST PUSH1 0x0 DUP3 DUP2 MSTORE PUSH1 0x20 DUP2 KECCAK256 DUP3 ADD PUSH1 0x0 NOT SWAP1 DUP2 ADD DUP1 SLOAD PUSH1 0x1 PUSH1 0x1 PUSH1 0xA0 SHL SUB NOT AND SWAP1 SSTORE SWAP1 SWAP2 ADD SWAP1 SWAP2 SSTORE PUSH1 0x11 DUP1 SLOAD SWAP2 PUSH2 0x270B DUP4 PUSH2 0x2EE8 JUMP JUMPDEST SWAP1 SWAP2 SSTORE POP POP PUSH1 0x40 MLOAD CALLER DUP2 MSTORE PUSH32 0x8014B222F8096605728BA3F51B1CEFD8C3A9AF47F7B9626833532AC2AC9CDB36 SWAP1 PUSH1 0x20 ADD PUSH1 0x40 MLOAD DUP1 SWAP2 SUB SWAP1 LOG1 POP JUMP JUMPDEST DUP3 DUP1 SLOAD PUSH2 0x2752 SWAP1 PUSH2 0x2E3F JUMP JUMPDEST SWAP1 PUSH1 0x0 MSTORE PUSH1 0x20 PUSH1 0x0 KECCAK256 SWAP1 PUSH1 0x1F ADD PUSH1 0x20 SWAP1 DIV DUP2 ADD SWAP3 DUP3 PUSH2 0x2774 JUMPI PUSH1 0x0 DUP6 SSTORE PUSH2 0x27BA JUMP JUMPDEST DUP3 PUSH1 0x1F LT PUSH2 0x278D JUMPI DUP1 MLOAD PUSH1 0xFF NOT AND DUP4 DUP1 ADD OR DUP6 SSTORE PUSH2 0x27BA JUMP JUMPDEST DUP3 DUP1 ADD PUSH1 0x1 ADD DUP6 SSTORE DUP3 ISZERO PUSH2 0x27BA JUMPI SWAP2 DUP3 ADD JUMPDEST DUP3 DUP2 GT ISZERO PUSH2 0x27BA JUMPI DUP3 MLOAD DUP3 SSTORE SWAP2 PUSH1 0x20 ADD SWAP2 SWAP1 PUSH1 0x1 ADD SWAP1 PUSH2 0x279F JUMP JUMPDEST POP PUSH2 0x27C6 SWAP3 SWAP2 POP PUSH2 0x27CA JUMP JUMPDEST POP SWAP1 JUMP JUMPDEST JUMPDEST DUP1 DUP3 GT ISZERO PUSH2 0x27C6 JUMPI PUSH1 0x0 DUP2 SSTORE PUSH1 0x1 ADD PUSH2 0x27CB JUMP JUMPDEST PUSH1 0x20 DUP1 DUP3 MSTORE PUSH1 0x16 SWAP1 DUP3 ADD MSTORE PUSH22 0x165BDD48185C99481B9BDD081C9959DA5CDD195C9959 PUSH1 0x52 SHL PUSH1 0x40 DUP3 ADD MSTORE PUSH1 0x60 ADD SWAP1 JUMP JUMPDEST PUSH4 0x4E487B71 PUSH1 0xE0 SHL PUSH1 0x0 MSTORE PUSH1 0x11 PUSH1 0x4 MSTORE PUSH1 0x24 PUSH1 0x0 REVERT JUMPDEST PUSH1 0x0 DUP3 NOT DUP3 GT ISZERO PUSH2 0x2838 JUMPI PUSH2 0x2838 PUSH2 0x280F JUMP JUMPDEST POP ADD SWAP1 JUMP JUMPDEST PUSH1 0x0 PUSH1 0x20 DUP3 DUP5 SUB SLT ISZERO PUSH2 0x284F JUMPI PUSH1 0x0 DUP1 REVERT JUMPDEST POP CALLDATALOAD SWAP2 SWAP1 POP JUMP JUMPDEST PUSH1 0x0 DUP2 MLOAD DUP1 DUP5 MSTORE PUSH1 0x0 JUMPDEST DUP2 DUP2 LT ISZERO PUSH2 0x287C JUMPI PUSH1 0x20 DUP2 DUP6 ADD DUP2 ADD MLOAD DUP7 DUP4 ADD DUP3 ADD MSTORE ADD PUSH2 0x2860 JUMP JUMPDEST DUP2 DUP2 GT ISZERO PUSH2 0x288E JUMPI PUSH1 0x0 PUSH1 0x20 DUP4 DUP8 ADD ADD MSTORE JUMPDEST POP PUSH1 0x1F ADD PUSH1 0x1F NOT AND SWAP3 SWAP1 SWAP3 ADD PUSH1 0x20 ADD SWAP3 SWAP2 POP POP JUMP JUMPDEST DUP7 DUP2 MSTORE PUSH1 0xC0 PUSH1 0x20 DUP3 ADD MSTORE PUSH1 0x0 PUSH2 0x28BC PUSH1 0xC0 DUP4 ADD DUP9 PUSH2 0x2856 JUMP JUMPDEST DUP3 DUP2 SUB PUSH1 0x40 DUP5 ADD MSTORE PUSH2 0x28CE DUP2 DUP9 PUSH2 0x2856 JUMP JUMPDEST SWAP1 POP DUP3 DUP2 SUB PUSH1 0x60 DUP5 ADD MSTORE PUSH2 0x28E2 DUP2 DUP8 PUSH2 0x2856 JUMP JUMPDEST SWAP1 POP DUP3 DUP2 SUB PUSH1 0x80 DUP5 ADD MSTORE PUSH2 0x28F6 DUP2 DUP7 PUSH2 0x2856 JUMP JUMPDEST SWAP1 POP DUP3 DUP2 SUB PUSH1 0xA0 DUP5 ADD MSTORE PUSH2 0x290A DUP2 DUP6 PUSH2 0x2856 JUMP JUMPDEST SWAP10 SWAP9 POP POP POP POP POP POP POP POP POP JUMP JUMPDEST DUP1 CALLDATALOAD PUSH1 0x1 PUSH1 0x1 PUSH1 0xA0 SHL SUB DUP2 AND DUP2 EQ PUSH2 0x1CD1 JUMPI PUSH1 0x0 DUP1 REVERT JUMPDEST PUSH1 0x0 PUSH1 0x20 DUP3 DUP5 SUB SLT ISZERO PUSH2 0x2940 JUMPI PUSH1 0x0 DUP1 REVERT JUMPDEST PUSH2 0x2949 DUP3 PUSH2 0x2917 JUMP JUMPDEST SWAP4 SWAP3 POP POP POP JUMP JUMPDEST PUSH1 0x40 DUP2 MSTORE PUSH1 0x0 PUSH2 0x2963 PUSH1 0x40 DUP4 ADD DUP6 PUSH2 0x2856 JUMP JUMPDEST DUP3 DUP2 SUB PUSH1 0x20 DUP5 ADD MSTORE PUSH2 0x2975 DUP2 DUP6 PUSH2 0x2856 JUMP JUMPDEST SWAP6 SWAP5 POP POP POP POP POP JUMP JUMPDEST PUSH4 0x4E487B71 PUSH1 0xE0 SHL PUSH1 0x0 MSTORE PUSH1 0x41 PUSH1 0x4 MSTORE PUSH1 0x24 PUSH1 0x0 REVERT JUMPDEST PUSH1 0x0 DUP3 PUSH1 0x1F DUP4 ADD SLT PUSH2 0x29A5 JUMPI PUSH1 0x0 DUP1 REVERT JUMPDEST DUP2 CALLDATALOAD PUSH8 0xFFFFFFFFFFFFFFFF DUP1 DUP3 GT ISZERO PUSH2 0x29C0 JUMPI PUSH2 0x29C0 PUSH2 0x297E JUMP JUMPDEST PUSH1 0x40 MLOAD PUSH1 0x1F DUP4 ADD PUSH1 0x1F NOT SWAP1 DUP2 AND PUSH1 0x3F ADD AND DUP2 ADD SWAP1 DUP3 DUP3 GT DUP2 DUP4 LT OR ISZERO PUSH2 0x29E8 JUMPI PUSH2 0x29E8 PUSH2 0x297E JUMP JUMPDEST DUP2 PUSH1 0x40 MSTORE DUP4 DUP2 MSTORE DUP7 PUSH1 0x20 DUP6 DUP9 ADD ADD GT ISZERO PUSH2 0x2A01 JUMPI PUSH1 0x0 DUP1 REVERT JUMPDEST DUP4 PUSH1 0x20 DUP8 ADD PUSH1 0x20 DUP4 ADD CALLDATACOPY PUSH1 0x0 PUSH1 0x20 DUP6 DUP4 ADD ADD MSTORE DUP1 SWAP5 POP POP POP POP POP SWAP3 SWAP2 POP POP JUMP JUMPDEST PUSH1 0x0 DUP1 PUSH1 0x0 DUP1 PUSH1 0x0 DUP1 PUSH1 0x0 DUP1 PUSH1 0x0 DUP1 PUSH1 0x0 PUSH2 0x160 DUP13 DUP15 SUB SLT ISZERO PUSH2 0x2A43 JUMPI PUSH1 0x0 DUP1 REVERT JUMPDEST DUP12 CALLDATALOAD SWAP11 POP PUSH1 0x20 DUP13 ADD CALLDATALOAD SWAP10 POP PUSH1 0x40 DUP13 ADD CALLDATALOAD SWAP9 POP PUSH1 0x60 DUP13 ADD CALLDATALOAD SWAP8 POP PUSH8 0xFFFFFFFFFFFFFFFF DUP1 PUSH1 0x80 DUP15 ADD CALLDATALOAD GT ISZERO PUSH2 0x2A76 JUMPI PUSH1 0x0 DUP1 REVERT JUMPDEST PUSH2 0x2A86 DUP15 PUSH1 0x80 DUP16 ADD CALLDATALOAD DUP16 ADD PUSH2 0x2994 JUMP JUMPDEST SWAP8 POP DUP1 PUSH1 0xA0 DUP15 ADD CALLDATALOAD GT ISZERO PUSH2 0x2A99 JUMPI PUSH1 0x0 DUP1 REVERT JUMPDEST PUSH2 0x2AA9 DUP15 PUSH1 0xA0 DUP16 ADD CALLDATALOAD DUP16 ADD PUSH2 0x2994 JUMP JUMPDEST SWAP7 POP DUP1 PUSH1 0xC0 DUP15 ADD CALLDATALOAD GT ISZERO PUSH2 0x2ABC JUMPI PUSH1 0x0 DUP1 REVERT JUMPDEST PUSH2 0x2ACC DUP15 PUSH1 0xC0 DUP16 ADD CALLDATALOAD DUP16 ADD PUSH2 0x2994 JUMP JUMPDEST SWAP6 POP DUP1 PUSH1 0xE0 DUP15 ADD CALLDATALOAD GT ISZERO PUSH2 0x2ADF JUMPI PUSH1 0x0 DUP1 REVERT JUMPDEST PUSH2 0x2AEF DUP15 PUSH1 0xE0 DUP16 ADD CALLDATALOAD DUP16 ADD PUSH2 0x2994 JUMP JUMPDEST SWAP5 POP DUP1 PUSH2 0x100 DUP15 ADD CALLDATALOAD GT ISZERO PUSH2 0x2B03 JUMPI PUSH1 0x0 DUP1 REVERT JUMPDEST PUSH2 0x2B14 DUP15 PUSH2 0x100 DUP16 ADD CALLDATALOAD DUP16 ADD PUSH2 0x2994 JUMP JUMPDEST SWAP4 POP DUP1 PUSH2 0x120 DUP15 ADD CALLDATALOAD GT ISZERO PUSH2 0x2B28 JUMPI PUSH1 0x0 DUP1 REVERT JUMPDEST PUSH2 0x2B39 DUP15 PUSH2 0x120 DUP16 ADD CALLDATALOAD DUP16 ADD PUSH2 0x2994 JUMP JUMPDEST SWAP3 POP DUP1 PUSH2 0x140 DUP15 ADD CALLDATALOAD GT ISZERO PUSH2 0x2B4D JUMPI PUSH1 0x0 DUP1 REVERT JUMPDEST POP PUSH2 0x2B5F DUP14 PUSH2 0x140 DUP15 ADD CALLDATALOAD DUP15 ADD PUSH2 0x2994 JUMP JUMPDEST SWAP1 POP SWAP3 SWAP6 SWAP9 SWAP12 POP SWAP3 SWAP6 SWAP9 SWAP12 SWAP1 SWAP4 SWAP7 SWAP10 POP JUMP JUMPDEST PUSH1 0x60 DUP2 MSTORE PUSH1 0x0 PUSH2 0x2B84 PUSH1 0x60 DUP4 ADD DUP7 PUSH2 0x2856 JUMP JUMPDEST DUP3 DUP2 SUB PUSH1 0x20 DUP5 ADD MSTORE PUSH2 0x2B96 DUP2 DUP7 PUSH2 0x2856 JUMP JUMPDEST SWAP2 POP POP PUSH1 0x1 DUP1 PUSH1 0xA0 SHL SUB DUP4 AND PUSH1 0x40 DUP4 ADD MSTORE SWAP5 SWAP4 POP POP POP POP JUMP JUMPDEST PUSH1 0x0 DUP1 PUSH1 0x0 DUP1 PUSH1 0x0 DUP1 PUSH1 0xC0 DUP8 DUP10 SUB SLT ISZERO PUSH2 0x2BC8 JUMPI PUSH1 0x0 DUP1 REVERT JUMPDEST DUP7 CALLDATALOAD PUSH8 0xFFFFFFFFFFFFFFFF DUP1 DUP3 GT ISZERO PUSH2 0x2BE0 JUMPI PUSH1 0x0 DUP1 REVERT JUMPDEST PUSH2 0x2BEC DUP11 DUP4 DUP12 ADD PUSH2 0x2994 JUMP JUMPDEST SWAP8 POP PUSH1 0x20 DUP10 ADD CALLDATALOAD SWAP2 POP DUP1 DUP3 GT ISZERO PUSH2 0x2C02 JUMPI PUSH1 0x0 DUP1 REVERT JUMPDEST PUSH2 0x2C0E DUP11 DUP4 DUP12 ADD PUSH2 0x2994 JUMP JUMPDEST SWAP7 POP PUSH2 0x2C1C PUSH1 0x40 DUP11 ADD PUSH2 0x2917 JUMP JUMPDEST SWAP6 POP PUSH1 0x60 DUP10 ADD CALLDATALOAD SWAP2 POP DUP1 DUP3 GT ISZERO PUSH2 0x2C32 JUMPI PUSH1 0x0 DUP1 REVERT JUMPDEST PUSH2 0x2C3E DUP11 DUP4 DUP12 ADD PUSH2 0x2994 JUMP JUMPDEST SWAP5 POP PUSH1 0x80 DUP10 ADD CALLDATALOAD SWAP2 POP DUP1 DUP3 GT ISZERO PUSH2 0x2C54 JUMPI PUSH1 0x0 DUP1 REVERT JUMPDEST PUSH2 0x2C60 DUP11 DUP4 DUP12 ADD PUSH2 0x2994 JUMP JUMPDEST SWAP4 POP PUSH1 0xA0 DUP10 ADD CALLDATALOAD SWAP2 POP DUP1 DUP3 GT ISZERO PUSH2 0x2C76 JUMPI PUSH1 0x0 DUP1 REVERT JUMPDEST POP PUSH2 0x2C83 DUP10 DUP3 DUP11 ADD PUSH2 0x2994 JUMP JUMPDEST SWAP2 POP POP SWAP3 SWAP6 POP SWAP3 SWAP6 POP SWAP3 SWAP6 JUMP JUMPDEST PUSH1 0x0 DUP1 PUSH1 0x40 DUP4 DUP6 SUB SLT ISZERO PUSH2 0x2CA3 JUMPI PUSH1 0x0 DUP1 REVERT JUMPDEST PUSH2 0x2CAC DUP4 PUSH2 0x2917 JUMP JUMPDEST SWAP5 PUSH1 0x20 SWAP4 SWAP1 SWAP4 ADD CALLDATALOAD SWAP4 POP POP POP JUMP JUMPDEST PUSH1 0x0 DUP1 PUSH1 0x40 DUP4 DUP6 SUB SLT ISZERO PUSH2 0x2CCD JUMPI PUSH1 0x0 DUP1 REVERT JUMPDEST DUP3 CALLDATALOAD SWAP2 POP PUSH2 0x2CDD PUSH1 0x20 DUP5 ADD PUSH2 0x2917 JUMP JUMPDEST SWAP1 POP SWAP3 POP SWAP3 SWAP1 POP JUMP JUMPDEST PUSH1 0x20 DUP1 DUP3 MSTORE DUP3 MLOAD DUP3 DUP3 ADD DUP2 SWAP1 MSTORE PUSH1 0x0 SWAP2 SWAP1 DUP5 DUP3 ADD SWAP1 PUSH1 0x40 DUP6 ADD SWAP1 DUP5 JUMPDEST DUP2 DUP2 LT ISZERO PUSH2 0x2D1E JUMPI DUP4 MLOAD DUP4 MSTORE SWAP3 DUP5 ADD SWAP3 SWAP2 DUP5 ADD SWAP2 PUSH1 0x1 ADD PUSH2 0x2D02 JUMP JUMPDEST POP SWAP1 SWAP7 SWAP6 POP POP POP POP POP POP JUMP JUMPDEST PUSH1 0x0 DUP1 PUSH1 0x0 DUP1 PUSH1 0x0 DUP1 PUSH1 0x0 DUP1 PUSH1 0x0 DUP1 PUSH1 0x0 PUSH2 0x160 DUP13 DUP15 SUB SLT ISZERO PUSH2 0x2D4C JUMPI PUSH1 0x0 DUP1 REVERT JUMPDEST PUSH2 0x2D55 DUP13 PUSH2 0x2917 JUMP JUMPDEST SWAP11 POP PUSH1 0x20 DUP13 ADD CALLDATALOAD SWAP10 POP PUSH1 0x40 DUP13 ADD CALLDATALOAD SWAP9 POP PUSH1 0x60 DUP13 ADD CALLDATALOAD SWAP8 POP PUSH8 0xFFFFFFFFFFFFFFFF DUP1 PUSH1 0x80 DUP15 ADD CALLDATALOAD GT ISZERO PUSH2 0x2A76 JUMPI PUSH1 0x0 DUP1 REVERT JUMPDEST PUSH1 0x0 PUSH2 0x160 DUP14 DUP4 MSTORE DUP13 PUSH1 0x20 DUP5 ADD MSTORE DUP12 PUSH1 0x40 DUP5 ADD MSTORE DUP11 PUSH1 0x60 DUP5 ADD MSTORE DUP1 PUSH1 0x80 DUP5 ADD MSTORE PUSH2 0x2DB2 DUP2 DUP5 ADD DUP12 PUSH2 0x2856 JUMP JUMPDEST SWAP1 POP DUP3 DUP2 SUB PUSH1 0xA0 DUP5 ADD MSTORE PUSH2 0x2DC6 DUP2 DUP11 PUSH2 0x2856 JUMP JUMPDEST SWAP1 POP DUP3 DUP2 SUB PUSH1 0xC0 DUP5 ADD MSTORE PUSH2 0x2DDA DUP2 DUP10 PUSH2 0x2856 JUMP JUMPDEST SWAP1 POP DUP3 DUP2 SUB PUSH1 0xE0 DUP5 ADD MSTORE PUSH2 0x2DEE DUP2 DUP9 PUSH2 0x2856 JUMP JUMPDEST SWAP1 POP DUP3 DUP2 SUB PUSH2 0x100 DUP5 ADD MSTORE PUSH2 0x2E03 DUP2 DUP8 PUSH2 0x2856 JUMP JUMPDEST SWAP1 POP DUP3 DUP2 SUB PUSH2 0x120 DUP5 ADD MSTORE PUSH2 0x2E18 DUP2 DUP7 PUSH2 0x2856 JUMP JUMPDEST SWAP1 POP DUP3 DUP2 SUB PUSH2 0x140 DUP5 ADD MSTORE PUSH2 0x2E2D DUP2 DUP6 PUSH2 0x2856 JUMP JUMPDEST SWAP15 SWAP14 POP POP POP POP POP POP POP POP POP POP POP POP POP POP JUMP JUMPDEST PUSH1 0x1 DUP2 DUP2 SHR SWAP1 DUP3 AND DUP1 PUSH2 0x2E53 JUMPI PUSH1 0x7F DUP3 AND SWAP2 POP JUMPDEST PUSH1 0x20 DUP3 LT DUP2 EQ ISZERO PUSH2 0x2E74 JUMPI PUSH4 0x4E487B71 PUSH1 0xE0 SHL PUSH1 0x0 MSTORE PUSH1 0x22 PUSH1 0x4 MSTORE PUSH1 0x24 PUSH1 0x0 REVERT JUMPDEST POP SWAP2 SWAP1 POP JUMP JUMPDEST PUSH1 0x20 DUP1 DUP3 MSTORE PUSH1 0x11 SWAP1 DUP3 ADD MSTORE PUSH17 0x14195C9B5A5CDCDA5BDB8819195B9A5959 PUSH1 0x7A SHL PUSH1 0x40 DUP3 ADD MSTORE PUSH1 0x60 ADD SWAP1 JUMP JUMPDEST PUSH1 0x0 DUP3 DUP3 LT ISZERO PUSH2 0x2EB7 JUMPI PUSH2 0x2EB7 PUSH2 0x280F JUMP JUMPDEST POP SUB SWAP1 JUMP JUMPDEST PUSH4 0x4E487B71 PUSH1 0xE0 SHL PUSH1 0x0 MSTORE PUSH1 0x32 PUSH1 0x4 MSTORE PUSH1 0x24 PUSH1 0x0 REVERT JUMPDEST PUSH4 0x4E487B71 PUSH1 0xE0 SHL PUSH1 0x0 MSTORE PUSH1 0x31 PUSH1 0x4 MSTORE PUSH1 0x24 PUSH1 0x0 REVERT JUMPDEST PUSH1 0x0 DUP2 PUSH2 0x2EF7 JUMPI PUSH2 0x2EF7 PUSH2 0x280F JUMP JUMPDEST POP PUSH1 0x0 NOT ADD SWAP1 JUMP JUMPDEST PUSH1 0x0 DUP2 PUSH1 0x0 NOT DIV DUP4 GT DUP3 ISZERO ISZERO AND ISZERO PUSH2 0x2F19 JUMPI PUSH2 0x2F19 PUSH2 0x280F JUMP JUMPDEST POP MUL SWAP1 JUMP JUMPDEST DUP1 SLOAD PUSH1 0x0 SWAP1 PUSH1 0x1 DUP2 DUP2 SHR SWAP1 DUP1 DUP4 AND DUP1 PUSH2 0x2F38 JUMPI PUSH1 0x7F DUP4 AND SWAP3 POP JUMPDEST PUSH1 0x20 DUP1 DUP5 LT DUP3 EQ ISZERO PUSH2 0x2F5A JUMPI PUSH4 0x4E487B71 PUSH1 0xE0 SHL PUSH1 0x0 MSTORE PUSH1 0x22 PUSH1 0x4 MSTORE PUSH1 0x24 PUSH1 0x0 REVERT JUMPDEST DUP4 DUP9 MSTORE PUSH1 0x20 DUP9 ADD DUP3 DUP1 ISZERO PUSH2 0x2F75 JUMPI PUSH1 0x1 DUP2 EQ PUSH2 0x2F86 JUMPI PUSH2 0x2FB1 JUMP JUMPDEST PUSH1 0xFF NOT DUP8 AND DUP3 MSTORE DUP3 DUP3 ADD SWAP8 POP PUSH2 0x2FB1 JUMP JUMPDEST PUSH1 0x0 DUP10 DUP2 MSTORE PUSH1 0x20 SWAP1 KECCAK256 PUSH1 0x0 JUMPDEST DUP8 DUP2 LT ISZERO PUSH2 0x2FAB JUMPI DUP2 SLOAD DUP5 DUP3 ADD MSTORE SWAP1 DUP7 ADD SWAP1 DUP5 ADD PUSH2 0x2F92 JUMP JUMPDEST DUP4 ADD SWAP9 POP POP JUMPDEST POP POP POP POP POP POP POP SWAP3 SWAP2 POP POP JUMP JUMPDEST PUSH1 0x40 DUP2 MSTORE PUSH1 0x0 PUSH2 0x2FD1 PUSH1 0x40 DUP4 ADD DUP6 PUSH2 0x2F1E JUMP JUMPDEST DUP3 DUP2 SUB PUSH1 0x20 DUP5 ADD MSTORE PUSH2 0x2975 DUP2 DUP6 PUSH2 0x2F1E JUMP JUMPDEST PUSH1 0x0 PUSH1 0x0 NOT DUP3 EQ ISZERO PUSH2 0x2FF7 JUMPI PUSH2 0x2FF7 PUSH2 0x280F JUMP JUMPDEST POP PUSH1 0x1 ADD SWAP1 JUMP JUMPDEST PUSH1 0x1 DUP1 PUSH1 0xA0 SHL SUB DUP9 AND DUP2 MSTORE DUP7 PUSH1 0x20 DUP3 ADD MSTORE PUSH1 0xE0 PUSH1 0x40 DUP3 ADD MSTORE PUSH1 0x0 PUSH2 0x3025 PUSH1 0xE0 DUP4 ADD DUP9 PUSH2 0x2856 JUMP JUMPDEST DUP3 DUP2 SUB PUSH1 0x60 DUP5 ADD MSTORE PUSH2 0x3037 DUP2 DUP9 PUSH2 0x2856 JUMP JUMPDEST SWAP1 POP DUP3 DUP2 SUB PUSH1 0x80 DUP5 ADD MSTORE PUSH2 0x304B DUP2 DUP8 PUSH2 0x2856 JUMP JUMPDEST SWAP1 POP DUP3 DUP2 SUB PUSH1 0xA0 DUP5 ADD MSTORE PUSH2 0x305F DUP2 DUP7 PUSH2 0x2856 JUMP JUMPDEST SWAP1 POP DUP3 DUP2 SUB PUSH1 0xC0 DUP5 ADD MSTORE PUSH2 0x3073 DUP2 DUP6 PUSH2 0x2856 JUMP JUMPDEST SWAP11 SWAP10 POP POP POP POP POP POP POP POP POP POP JUMP INVALID LOG2 PUSH5 0x6970667358 0x22 SLT KECCAK256 BASEFEE DIFFICULTY LOG4 CALLDATALOAD CALLCODE SWAP10 REVERT 0xE6 0xDA 0xE5 0xB6 0xB1 CODESIZE LT 0xEC RETURN PUSH4 0x7DA9FB52 PUSH4 0x32E4827D 0xB2 0x1E 0x2F 0x24 0x28 0xC6 PUSH5 0x736F6C6343 STOP ADDMOD SIGNEXTEND STOP CALLER ",
  "sha1": "59d6c27f4dc07e72466eabcab0ba911b0026508f",
  "source": "//Main Land Registry Contract\n//SPDX-License-Identifier: UNLICENSED\n\npragma solidity  ^0.8.0;\n\n//import \"./ownable.sol\"; //this is a standard file from OpenZeppelin used for transferring or used for validating \n                        //also used as function modiers so that only an owner of a contract can call a function and make changes\n                        //need to integerate it with our land registry contract especially the Transfer function\n\nimport \"./Registry.sol\";\ncontract Subscription is Registry { \n\n    address [] public subscribersList;\n    mapping (address => uint) subscribersID;\n    uint subscribers_count;\n\n\n    constructor() {\n        subscribers_count = 1;\n    } \n\n    uint subscription_price = 10; //at current market value ~$3.7 \n\n    event OwnerSubscribed(address owner_address);\n    event OwnerUnubscribed(address owner_address);\n    event OwnerSubExpired(address owner_address, string message);\n    event lowBalance(string first_name, string last_name);\n    \n    function subscribe() public isRegistered {\n        require(ownerPropertyCount[msg.sender] > 0, \"Please register a property before subscribing to this service.\");\n        subscribersList.push(msg.sender);\n        subscribersID[msg.sender] = subscribers_count;\n        subscribers_count ++;\n        emit OwnerSubscribed(msg.sender);       \n    }\n\n\n    function unsubscribe() public isRegistered {\n        uint sub_id = subscribersID[msg.sender];\n        subscribersID[subscribersList[subscribersList.length -1]] = sub_id;\n        subscribersList[sub_id -1 ] = subscribersList[subscribersList.length -1];\n        subscribersList.pop();\n        subscribers_count --;\n        emit OwnerUnubscribed(msg.sender);\n    }   \n\n    function sub_expired(address to_unsub) public validateSender{\n        uint sub_id = subscribersID[to_unsub];\n        subscribersID[subscribersList[subscribersList.length -1]] = sub_id;\n        subscribersList[sub_id - 1] = subscribersList[subscribersList.length -1];\n        subscribersList.pop();\n        subscribers_count --;\n        emit OwnerSubExpired(to_unsub,\"Subscription was cancelled due to insufficient funds\");\n\n    }\n\n    function subscription_payments () public validateSender { //Function to call once monthly to receive subscription payments\n        for (uint i=0; i < subscribersList.length; i++) {\n            if(customerBalance[subscribersList[i]] < subscription_price) {  \n                    sub_expired(subscribersList[i]);\n                } else if(customerBalance[subscribersList[i]] < subscription_price * 2){\n                    uint owner_id = address_to_owner[subscribersList[i]]-1;\n                    emit lowBalance(owners[owner_id].firstName,owners[owner_id].lastName);\n                    customerBalance[subscribersList[i]] -= subscription_price;\n                    revenue += subscription_price;\n                } else {\n                    customerBalance[subscribersList[i]] -= subscription_price;\n                    revenue += subscription_price;\n                }\n        }\n    }\n\n    function changePriceSubscription(uint _new_price_subscription) public validateSender {\n        subscription_price = _new_price_subscription;\n    }\n\n    function showSubsriptionPrice () public view returns (uint) {\n        return subscription_price;\n    }\n\n    function show_sub_count () public view returns (uint) {\n        return subscribers_count - 1;\n    }\n}\n\n\n\n",
  "sourcePath": "contracts/Subscription.sol",
  "type": "contract"
}