{
  "abi": [
    {
      "inputs": [],
      "stateMutability": "nonpayable",
      "type": "constructor"
    },
    {
      "anonymous": false,
      "inputs": [
        {
          "indexed": false,
          "internalType": "address",
          "name": "owner_address",
          "type": "address"
        },
        {
          "indexed": false,
          "internalType": "uint256",
          "name": "id",
          "type": "uint256"
        },
        {
          "indexed": false,
          "internalType": "string",
          "name": "firstName",
          "type": "string"
        },
        {
          "indexed": false,
          "internalType": "string",
          "name": "lastName",
          "type": "string"
        },
        {
          "indexed": false,
          "internalType": "string",
          "name": "gender",
          "type": "string"
        },
        {
          "indexed": false,
          "internalType": "string",
          "name": "codiceFiscale",
          "type": "string"
        },
        {
          "indexed": false,
          "internalType": "string",
          "name": "docType",
          "type": "string"
        },
        {
          "indexed": false,
          "internalType": "string",
          "name": "docNumber",
          "type": "string"
        }
      ],
      "name": "NewOwnerCreated",
      "type": "event"
    },
    {
      "anonymous": false,
      "inputs": [
        {
          "indexed": false,
          "internalType": "uint256",
          "name": "id",
          "type": "uint256"
        },
        {
          "indexed": false,
          "internalType": "uint256",
          "name": "areaSqm",
          "type": "uint256"
        },
        {
          "indexed": false,
          "internalType": "uint256",
          "name": "floor",
          "type": "uint256"
        },
        {
          "indexed": false,
          "internalType": "uint256",
          "name": "zipCode",
          "type": "uint256"
        },
        {
          "indexed": false,
          "internalType": "string",
          "name": "country",
          "type": "string"
        },
        {
          "indexed": false,
          "internalType": "string",
          "name": "region",
          "type": "string"
        },
        {
          "indexed": false,
          "internalType": "string",
          "name": "city",
          "type": "string"
        },
        {
          "indexed": false,
          "internalType": "string",
          "name": "street",
          "type": "string"
        },
        {
          "indexed": false,
          "internalType": "string",
          "name": "streetNumber",
          "type": "string"
        },
        {
          "indexed": false,
          "internalType": "string",
          "name": "adressAdditional",
          "type": "string"
        },
        {
          "indexed": false,
          "internalType": "string",
          "name": "houseType",
          "type": "string"
        }
      ],
      "name": "NewPropertyRegistered",
      "type": "event"
    },
    {
      "anonymous": false,
      "inputs": [
        {
          "indexed": false,
          "internalType": "address",
          "name": "owner_address",
          "type": "address"
        },
        {
          "indexed": false,
          "internalType": "string",
          "name": "message",
          "type": "string"
        }
      ],
      "name": "OwnerSubExpired",
      "type": "event"
    },
    {
      "anonymous": false,
      "inputs": [
        {
          "indexed": false,
          "internalType": "address",
          "name": "owner_address",
          "type": "address"
        }
      ],
      "name": "OwnerSubscribed",
      "type": "event"
    },
    {
      "anonymous": false,
      "inputs": [
        {
          "indexed": false,
          "internalType": "address",
          "name": "owner_address",
          "type": "address"
        }
      ],
      "name": "OwnerUnubscribed",
      "type": "event"
    },
    {
      "anonymous": false,
      "inputs": [
        {
          "indexed": false,
          "internalType": "address",
          "name": "new_owner",
          "type": "address"
        },
        {
          "indexed": false,
          "internalType": "uint256",
          "name": "propert_id",
          "type": "uint256"
        }
      ],
      "name": "OwnershipTransferred",
      "type": "event"
    },
    {
      "anonymous": false,
      "inputs": [
        {
          "indexed": false,
          "internalType": "string",
          "name": "first_name",
          "type": "string"
        },
        {
          "indexed": false,
          "internalType": "string",
          "name": "last_name",
          "type": "string"
        }
      ],
      "name": "lowBalance",
      "type": "event"
    },
    {
      "inputs": [],
      "name": "Payment",
      "outputs": [],
      "stateMutability": "payable",
      "type": "function"
    },
    {
      "inputs": [
        {
          "internalType": "uint256",
          "name": "_property_id",
          "type": "uint256"
        },
        {
          "internalType": "address",
          "name": "_new_owner_address",
          "type": "address"
        }
      ],
      "name": "Transfer",
      "outputs": [],
      "stateMutability": "nonpayable",
      "type": "function"
    },
    {
      "inputs": [
        {
          "internalType": "uint256",
          "name": "_id",
          "type": "uint256"
        },
        {
          "internalType": "uint256",
          "name": "_areaSqm",
          "type": "uint256"
        },
        {
          "internalType": "uint256",
          "name": "_floor",
          "type": "uint256"
        },
        {
          "internalType": "uint256",
          "name": "_zipCode",
          "type": "uint256"
        },
        {
          "internalType": "string",
          "name": "_country",
          "type": "string"
        },
        {
          "internalType": "string",
          "name": "_region",
          "type": "string"
        },
        {
          "internalType": "string",
          "name": "_city",
          "type": "string"
        },
        {
          "internalType": "string",
          "name": "_street",
          "type": "string"
        },
        {
          "internalType": "string",
          "name": "_streetNumber",
          "type": "string"
        },
        {
          "internalType": "string",
          "name": "_addressAdditional",
          "type": "string"
        },
        {
          "internalType": "string",
          "name": "_houseType",
          "type": "string"
        }
      ],
      "name": "Update",
      "outputs": [],
      "stateMutability": "nonpayable",
      "type": "function"
    },
    {
      "inputs": [
        {
          "internalType": "address",
          "name": "",
          "type": "address"
        }
      ],
      "name": "address_to_owner",
      "outputs": [
        {
          "internalType": "uint256",
          "name": "",
          "type": "uint256"
        }
      ],
      "stateMutability": "view",
      "type": "function"
    },
    {
      "inputs": [
        {
          "internalType": "uint256",
          "name": "",
          "type": "uint256"
        }
      ],
      "name": "addresses_list",
      "outputs": [
        {
          "internalType": "address",
          "name": "",
          "type": "address"
        }
      ],
      "stateMutability": "view",
      "type": "function"
    },
    {
      "inputs": [
        {
          "internalType": "uint256",
          "name": "",
          "type": "uint256"
        }
      ],
      "name": "all_prop_id_to_personal_prop_id",
      "outputs": [
        {
          "internalType": "uint256",
          "name": "",
          "type": "uint256"
        }
      ],
      "stateMutability": "view",
      "type": "function"
    },
    {
      "inputs": [
        {
          "internalType": "uint256",
          "name": "_new_price_registration",
          "type": "uint256"
        }
      ],
      "name": "changePriceRegistration",
      "outputs": [],
      "stateMutability": "nonpayable",
      "type": "function"
    },
    {
      "inputs": [
        {
          "internalType": "uint256",
          "name": "_new_price_subscription",
          "type": "uint256"
        }
      ],
      "name": "changePriceSubscription",
      "outputs": [],
      "stateMutability": "nonpayable",
      "type": "function"
    },
    {
      "inputs": [
        {
          "internalType": "uint256",
          "name": "_new_price_transfers",
          "type": "uint256"
        }
      ],
      "name": "changePriceTransfer",
      "outputs": [],
      "stateMutability": "nonpayable",
      "type": "function"
    },
    {
      "inputs": [
        {
          "internalType": "address",
          "name": "_owner",
          "type": "address"
        }
      ],
      "name": "countOwnerProperties",
      "outputs": [
        {
          "internalType": "uint256",
          "name": "",
          "type": "uint256"
        }
      ],
      "stateMutability": "view",
      "type": "function"
    },
    {
      "inputs": [
        {
          "internalType": "address",
          "name": "",
          "type": "address"
        }
      ],
      "name": "customerBalance",
      "outputs": [
        {
          "internalType": "uint256",
          "name": "",
          "type": "uint256"
        }
      ],
      "stateMutability": "view",
      "type": "function"
    },
    {
      "inputs": [
        {
          "internalType": "address",
          "name": "_owner",
          "type": "address"
        }
      ],
      "name": "findOwner",
      "outputs": [
        {
          "internalType": "string",
          "name": "",
          "type": "string"
        },
        {
          "internalType": "string",
          "name": "",
          "type": "string"
        }
      ],
      "stateMutability": "view",
      "type": "function"
    },
    {
      "inputs": [
        {
          "internalType": "uint256",
          "name": "_id",
          "type": "uint256"
        }
      ],
      "name": "findPropertyOwner",
      "outputs": [
        {
          "internalType": "string",
          "name": "",
          "type": "string"
        },
        {
          "internalType": "string",
          "name": "",
          "type": "string"
        },
        {
          "internalType": "address",
          "name": "",
          "type": "address"
        }
      ],
      "stateMutability": "view",
      "type": "function"
    },
    {
      "inputs": [
        {
          "internalType": "address",
          "name": "_owner",
          "type": "address"
        }
      ],
      "name": "find_properties",
      "outputs": [
        {
          "internalType": "uint256[]",
          "name": "",
          "type": "uint256[]"
        }
      ],
      "stateMutability": "view",
      "type": "function"
    },
    {
      "inputs": [
        {
          "internalType": "address",
          "name": "",
          "type": "address"
        }
      ],
      "name": "ownerPropertyCount",
      "outputs": [
        {
          "internalType": "uint256",
          "name": "",
          "type": "uint256"
        }
      ],
      "stateMutability": "view",
      "type": "function"
    },
    {
      "inputs": [
        {
          "internalType": "address",
          "name": "",
          "type": "address"
        },
        {
          "internalType": "uint256",
          "name": "",
          "type": "uint256"
        }
      ],
      "name": "owner_to_property",
      "outputs": [
        {
          "internalType": "uint256",
          "name": "",
          "type": "uint256"
        }
      ],
      "stateMutability": "view",
      "type": "function"
    },
    {
      "inputs": [
        {
          "internalType": "uint256",
          "name": "",
          "type": "uint256"
        }
      ],
      "name": "owners",
      "outputs": [
        {
          "internalType": "uint256",
          "name": "id",
          "type": "uint256"
        },
        {
          "internalType": "string",
          "name": "firstName",
          "type": "string"
        },
        {
          "internalType": "string",
          "name": "lastName",
          "type": "string"
        },
        {
          "internalType": "string",
          "name": "gender",
          "type": "string"
        },
        {
          "internalType": "string",
          "name": "codiceFisc",
          "type": "string"
        },
        {
          "internalType": "string",
          "name": "docType",
          "type": "string"
        },
        {
          "internalType": "string",
          "name": "docNumber",
          "type": "string"
        }
      ],
      "stateMutability": "view",
      "type": "function"
    },
    {
      "inputs": [
        {
          "internalType": "uint256",
          "name": "",
          "type": "uint256"
        }
      ],
      "name": "properties",
      "outputs": [
        {
          "internalType": "uint256",
          "name": "id",
          "type": "uint256"
        },
        {
          "internalType": "uint256",
          "name": "sqm",
          "type": "uint256"
        },
        {
          "internalType": "uint256",
          "name": "floor",
          "type": "uint256"
        },
        {
          "internalType": "uint256",
          "name": "zipCode",
          "type": "uint256"
        },
        {
          "internalType": "string",
          "name": "country",
          "type": "string"
        },
        {
          "internalType": "string",
          "name": "region",
          "type": "string"
        },
        {
          "internalType": "string",
          "name": "city",
          "type": "string"
        },
        {
          "internalType": "string",
          "name": "street",
          "type": "string"
        },
        {
          "internalType": "string",
          "name": "streetnum",
          "type": "string"
        },
        {
          "internalType": "string",
          "name": "addressAdditional",
          "type": "string"
        },
        {
          "internalType": "string",
          "name": "houseType",
          "type": "string"
        }
      ],
      "stateMutability": "view",
      "type": "function"
    },
    {
      "inputs": [
        {
          "internalType": "string",
          "name": "_firstName",
          "type": "string"
        },
        {
          "internalType": "string",
          "name": "_lastName",
          "type": "string"
        },
        {
          "internalType": "string",
          "name": "_gender",
          "type": "string"
        },
        {
          "internalType": "string",
          "name": "_codiceFiscale",
          "type": "string"
        },
        {
          "internalType": "string",
          "name": "_docType",
          "type": "string"
        },
        {
          "internalType": "string",
          "name": "_docNumber",
          "type": "string"
        }
      ],
      "name": "registerOwner",
      "outputs": [],
      "stateMutability": "nonpayable",
      "type": "function"
    },
    {
      "inputs": [
        {
          "internalType": "address",
          "name": "_Owner",
          "type": "address"
        },
        {
          "internalType": "uint256",
          "name": "_areaSqm",
          "type": "uint256"
        },
        {
          "internalType": "uint256",
          "name": "_floor",
          "type": "uint256"
        },
        {
          "internalType": "uint256",
          "name": "_zipCode",
          "type": "uint256"
        },
        {
          "internalType": "string",
          "name": "_country",
          "type": "string"
        },
        {
          "internalType": "string",
          "name": "_region",
          "type": "string"
        },
        {
          "internalType": "string",
          "name": "_city",
          "type": "string"
        },
        {
          "internalType": "string",
          "name": "_street",
          "type": "string"
        },
        {
          "internalType": "string",
          "name": "_streetNumber",
          "type": "string"
        },
        {
          "internalType": "string",
          "name": "_addressAdditional",
          "type": "string"
        },
        {
          "internalType": "string",
          "name": "_houseType",
          "type": "string"
        }
      ],
      "name": "registerProperty",
      "outputs": [],
      "stateMutability": "nonpayable",
      "type": "function"
    },
    {
      "inputs": [],
      "name": "revenue",
      "outputs": [
        {
          "internalType": "uint256",
          "name": "",
          "type": "uint256"
        }
      ],
      "stateMutability": "view",
      "type": "function"
    },
    {
      "inputs": [],
      "name": "showBalance",
      "outputs": [
        {
          "internalType": "uint256",
          "name": "",
          "type": "uint256"
        }
      ],
      "stateMutability": "view",
      "type": "function"
    },
    {
      "inputs": [
        {
          "internalType": "address",
          "name": "_owner",
          "type": "address"
        }
      ],
      "name": "showOwnerBalance",
      "outputs": [
        {
          "internalType": "uint256",
          "name": "",
          "type": "uint256"
        }
      ],
      "stateMutability": "view",
      "type": "function"
    },
    {
      "inputs": [],
      "name": "showOwnersCount",
      "outputs": [
        {
          "internalType": "uint256",
          "name": "",
          "type": "uint256"
        }
      ],
      "stateMutability": "view",
      "type": "function"
    },
    {
      "inputs": [],
      "name": "showPropertyCount",
      "outputs": [
        {
          "internalType": "uint256",
          "name": "",
          "type": "uint256"
        }
      ],
      "stateMutability": "view",
      "type": "function"
    },
    {
      "inputs": [],
      "name": "showRegistrationPrice",
      "outputs": [
        {
          "internalType": "uint256",
          "name": "",
          "type": "uint256"
        }
      ],
      "stateMutability": "view",
      "type": "function"
    },
    {
      "inputs": [],
      "name": "showSubsriptionPrice",
      "outputs": [
        {
          "internalType": "uint256",
          "name": "",
          "type": "uint256"
        }
      ],
      "stateMutability": "view",
      "type": "function"
    },
    {
      "inputs": [],
      "name": "showTransferPrice",
      "outputs": [
        {
          "internalType": "uint256",
          "name": "",
          "type": "uint256"
        }
      ],
      "stateMutability": "view",
      "type": "function"
    },
    {
      "inputs": [],
      "name": "show_revenue",
      "outputs": [
        {
          "internalType": "uint256",
          "name": "",
          "type": "uint256"
        }
      ],
      "stateMutability": "view",
      "type": "function"
    },
    {
      "inputs": [],
      "name": "show_sub_count",
      "outputs": [
        {
          "internalType": "uint256",
          "name": "",
          "type": "uint256"
        }
      ],
      "stateMutability": "view",
      "type": "function"
    },
    {
      "inputs": [
        {
          "internalType": "address",
          "name": "to_unsub",
          "type": "address"
        }
      ],
      "name": "sub_expired",
      "outputs": [],
      "stateMutability": "nonpayable",
      "type": "function"
    },
    {
      "inputs": [],
      "name": "subscribe",
      "outputs": [],
      "stateMutability": "nonpayable",
      "type": "function"
    },
    {
      "inputs": [
        {
          "internalType": "uint256",
          "name": "",
          "type": "uint256"
        }
      ],
      "name": "subscribersList",
      "outputs": [
        {
          "internalType": "address",
          "name": "",
          "type": "address"
        }
      ],
      "stateMutability": "view",
      "type": "function"
    },
    {
      "inputs": [],
      "name": "subscription_payments",
      "outputs": [],
      "stateMutability": "nonpayable",
      "type": "function"
    },
    {
      "inputs": [],
      "name": "unsubscribe",
      "outputs": [],
      "stateMutability": "nonpayable",
      "type": "function"
    },
    {
      "stateMutability": "payable",
      "type": "receive"
    }
  ],
  "bytecode": "60806040526001600655600160075560146008556005600955600a60125534801561002957600080fd5b50600b80546001600160a01b031916331790556001601155613168806100506000396000f3fe6080604052600436106102085760003560e01c80638f449a0511610118578063c38c1b35116100a0578063eda943b51161006f578063eda943b514610665578063f26ec41714610692578063f7b10808146106b2578063f969c083146106e9578063fcae4484146106fe57600080fd5b8063c38c1b35146105da578063dd7bfcb8146105fa578063e2d24b441461060f578063e3c16efe1461062f57600080fd5b8063a33b1260116100e7578063a33b126014610550578063abe1dcf914610558578063aeb272e814610578578063b74404671461058d578063c088512a146105ba57600080fd5b80638f449a05146104f157806392fd14d0146105065780639aa8ae9e1461051b5780639bdb448f1461053057600080fd5b80633e9491a21161019b5780635bcf45901161016a5780635bcf45901461044057806360e38ae2146104605780637399a7191461048f57806381b2d07b146104af57806389cb8f6d146104c457600080fd5b80633e9491a2146103ba578063421235d5146103d05780634fd1f68b146103fd57806351d9f2491461042b57600080fd5b80632e735c7d116101d75780632e735c7d14610322578063306acf0214610358578063311cadb31461036d57806337ebe47b1461038d57600080fd5b8063025e7c271461026d5780630c12f4d2146102a9578063225898c9146102c85780632a32d1a61461030057600080fd5b3661026857336000908152602081905260409020546102425760405162461bcd60e51b81526004016102399061284b565b60405180910390fd5b3360009081526003602052604081208054349290610261908490612891565b9091555050005b600080fd5b34801561027957600080fd5b5061028d6102883660046128a9565b610713565b6040516102a0979695949392919061290f565b60405180910390f35b3480156102b557600080fd5b506012545b6040519081526020016102a0565b3480156102d457600080fd5b506102e86102e33660046128a9565b610a91565b6040516001600160a01b0390911681526020016102a0565b34801561030c57600080fd5b5061032061031b3660046129af565b610abb565b005b34801561032e57600080fd5b506102ba61033d3660046129af565b6001600160a01b031660009081526003602052604090205490565b34801561036457600080fd5b506008546102ba565b34801561037957600080fd5b506103206103883660046128a9565b610ca6565b34801561039957600080fd5b506102ba6103a83660046129af565b60036020526000908152604090205481565b3480156103c657600080fd5b506102ba600a5481565b3480156103dc57600080fd5b506102ba6103eb3660046129af565b60006020819052908152604090205481565b34801561040957600080fd5b5061041d6104183660046129af565b610cd5565b6040516102a09291906129d1565b34801561043757600080fd5b50610320610e9d565b34801561044c57600080fd5b5061032061045b366004612aa2565b61115f565b34801561046c57600080fd5b5061048061047b3660046128a9565b61124f565b6040516102a093929190612bf2565b34801561049b57600080fd5b506102e86104aa3660046128a9565b611401565b3480156104bb57600080fd5b506102ba611411565b3480156104d057600080fd5b506102ba6104df3660046129af565b60016020526000908152604090205481565b3480156104fd57600080fd5b50610320611443565b34801561051257600080fd5b506009546102ba565b34801561052757600080fd5b506102ba61158a565b34801561053c57600080fd5b506102ba61054b366004612c30565b6115a0565b6103206115d1565b34801561056457600080fd5b50610320610573366004612c5a565b6116c4565b34801561058457600080fd5b50600d546102ba565b34801561059957600080fd5b506105ad6105a83660046129af565b611a42565b6040516102a09190612c86565b3480156105c657600080fd5b506103206105d5366004612cca565b611ada565b3480156105e657600080fd5b506103206105f5366004612dbf565b611d42565b34801561060657600080fd5b506102ba612174565b34801561061b57600080fd5b5061032061062a3660046128a9565b6121a8565b34801561063b57600080fd5b506102ba61064a3660046129af565b6001600160a01b031660009081526001602052604090205490565b34801561067157600080fd5b506102ba6106803660046128a9565b60056020526000908152604090205481565b34801561069e57600080fd5b506103206106ad3660046128a9565b6121d7565b3480156106be57600080fd5b506106d26106cd3660046128a9565b612206565b6040516102a09b9a99989796959493929190612e1b565b3480156106f557600080fd5b50600c546102ba565b34801561070a57600080fd5b50610320612628565b600d818154811061072357600080fd5b6000918252602090912060079091020180546001820180549193509061074890612ed4565b80601f016020809104026020016040519081016040528092919081815260200182805461077490612ed4565b80156107c15780601f10610796576101008083540402835291602001916107c1565b820191906000526020600020905b8154815290600101906020018083116107a457829003601f168201915b5050505050908060020180546107d690612ed4565b80601f016020809104026020016040519081016040528092919081815260200182805461080290612ed4565b801561084f5780601f106108245761010080835404028352916020019161084f565b820191906000526020600020905b81548152906001019060200180831161083257829003601f168201915b50505050509080600301805461086490612ed4565b80601f016020809104026020016040519081016040528092919081815260200182805461089090612ed4565b80156108dd5780601f106108b2576101008083540402835291602001916108dd565b820191906000526020600020905b8154815290600101906020018083116108c057829003601f168201915b5050505050908060040180546108f290612ed4565b80601f016020809104026020016040519081016040528092919081815260200182805461091e90612ed4565b801561096b5780601f106109405761010080835404028352916020019161096b565b820191906000526020600020905b81548152906001019060200180831161094e57829003601f168201915b50505050509080600501805461098090612ed4565b80601f01602080910402602001604051908101604052809291908181526020018280546109ac90612ed4565b80156109f95780601f106109ce576101008083540402835291602001916109f9565b820191906000526020600020905b8154815290600101906020018083116109dc57829003601f168201915b505050505090806006018054610a0e90612ed4565b80601f0160208091040260200160405190810160405280929190818152602001828054610a3a90612ed4565b8015610a875780601f10610a5c57610100808354040283529160200191610a87565b820191906000526020600020905b815481529060010190602001808311610a6a57829003601f168201915b5050505050905087565b600e8181548110610aa157600080fd5b6000918252602090912001546001600160a01b0316905081565b600b546001600160a01b03163314610ae55760405162461bcd60e51b815260040161023990612f0f565b6001600160a01b0381166000908152601060208190526040822054600f80549193849392909190610b1890600190612f3a565b81548110610b2857610b28612f51565b60009182526020808320909101546001600160a01b03168352820192909252604001902055600f8054610b5d90600190612f3a565b81548110610b6d57610b6d612f51565b6000918252602090912001546001600160a01b0316600f610b8f600184612f3a565b81548110610b9f57610b9f612f51565b9060005260206000200160006101000a8154816001600160a01b0302191690836001600160a01b03160217905550600f805480610bde57610bde612f67565b600082815260208120820160001990810180546001600160a01b03191690559091019091556011805491610c1183612f7d565b9091555050604080516001600160a01b0384168152602081018290526034818301527f537562736372697074696f6e207761732063616e63656c6c65642064756520746060820152736f20696e73756666696369656e742066756e647360601b608082015290517f3820b84434df6b8f4a780dd9b9b085656177396049560008538ace1982b6a9a89181900360a00190a15050565b600b546001600160a01b03163314610cd05760405162461bcd60e51b815260040161023990612f0f565b601255565b600b5460609081906001600160a01b03163314610d045760405162461bcd60e51b815260040161023990612f0f565b6001600160a01b038316600090815260208190526040902054600d610d2a600183612f3a565b81548110610d3a57610d3a612f51565b9060005260206000209060070201600101600d600183610d5a9190612f3a565b81548110610d6a57610d6a612f51565b9060005260206000209060070201600201818054610d8790612ed4565b80601f0160208091040260200160405190810160405280929190818152602001828054610db390612ed4565b8015610e005780601f10610dd557610100808354040283529160200191610e00565b820191906000526020600020905b815481529060010190602001808311610de357829003601f168201915b50505050509150808054610e1390612ed4565b80601f0160208091040260200160405190810160405280929190818152602001828054610e3f90612ed4565b8015610e8c5780601f10610e6157610100808354040283529160200191610e8c565b820191906000526020600020905b815481529060010190602001808311610e6f57829003601f168201915b505050505090509250925050915091565b600b546001600160a01b03163314610ec75760405162461bcd60e51b815260040161023990612f0f565b60005b600f5481101561115c5760125460036000600f8481548110610eee57610eee612f51565b60009182526020808320909101546001600160a01b031683528201929092526040019020541015610f4e57610f49600f8281548110610f2f57610f2f612f51565b6000918252602090912001546001600160a01b0316610abb565b61114a565b601254610f5c906002612f94565b60036000600f8481548110610f7357610f73612f51565b60009182526020808320909101546001600160a01b0316835282019290925260400190205410156110dc5760006001600080600f8581548110610fb857610fb8612f51565b60009182526020808320909101546001600160a01b03168352820192909252604001902054610fe79190612f3a565b90507f65b02c2fe6d7199c80cadf78baf63e66bcb939ba143d259cc28881a8f05ac92a600d828154811061101d5761101d612f51565b9060005260206000209060070201600101600d838154811061104157611041612f51565b9060005260206000209060070201600201604051611060929190613053565b60405180910390a160125460036000600f858154811061108257611082612f51565b60009182526020808320909101546001600160a01b03168352820192909252604001812080549091906110b6908490612f3a565b9091555050601254600a80546000906110d0908490612891565b9091555061114a915050565b60125460036000600f84815481106110f6576110f6612f51565b60009182526020808320909101546001600160a01b031683528201929092526040018120805490919061112a908490612f3a565b9091555050601254600a8054600090611144908490612891565b90915550505b8061115481613078565b915050610eca565b50565b6000600c61116e60018e612f3a565b8154811061117e5761117e612f51565b60009182526020918290206001600b909202019081018d9055600281018c9055600381018b905589519092506111bc916004840191908b01906127b2565b5086516111d290600583019060208a01906127b2565b5085516111e890600683019060208901906127b2565b5084516111fe90600783019060208801906127b2565b50835161121490600883019060208701906127b2565b50825161122a90600983019060208601906127b2565b50815161124090600a83019060208501906127b2565b50505050505050505050505050565b6000818152600260209081526040808320546001600160a01b03168084529183905282205460609283929091600d611288600183612f3a565b8154811061129857611298612f51565b9060005260206000209060070201600101600d6001836112b89190612f3a565b815481106112c8576112c8612f51565b9060005260206000209060070201600201838280546112e690612ed4565b80601f016020809104026020016040519081016040528092919081815260200182805461131290612ed4565b801561135f5780601f106113345761010080835404028352916020019161135f565b820191906000526020600020905b81548152906001019060200180831161134257829003601f168201915b5050505050925081805461137290612ed4565b80601f016020809104026020016040519081016040528092919081815260200182805461139e90612ed4565b80156113eb5780601f106113c0576101008083540402835291602001916113eb565b820191906000526020600020905b8154815290600101906020018083116113ce57829003601f168201915b5050505050915094509450945050509193909250565b600f8181548110610aa157600080fd5b600b546000906001600160a01b0316331461143e5760405162461bcd60e51b815260040161023990612f0f565b504790565b3360009081526020819052604090205461146f5760405162461bcd60e51b81526004016102399061284b565b336000908152600160205260409020546114f15760405162461bcd60e51b815260206004820152603e60248201527f506c6561736520726567697374657220612070726f7065727479206265666f7260448201527f65207375627363726962696e6720746f207468697320736572766963652e00006064820152608401610239565b600f8054600181019091557f8d1108e10bcb7c27dddfc02ed9d693a074039d026cf4ea4240b40f7d581ac8020180546001600160a01b031916339081179091556011805460009283526010602052604083208190559161155083613078565b90915550506040513381527fe43e86faaac76243cb61b453af8c2c147217afb896a2b336dd6eca7e0203e2479060200160405180910390a1565b6000600160115461159b9190612f3a565b905090565b600460205281600052604060002081815481106115bc57600080fd5b90600052602060002001600091509150505481565b600b546001600160a01b031633146115fb5760405162461bcd60e51b815260040161023990612f0f565b600b546001600160a01b0316600a471161161457600080fd5b6000600a80546116249190612f3a565b600a80556040519091506000906001600160a01b0384169083908381818185875af1925050503d8060008114611676576040519150601f19603f3d011682016040523d82523d6000602084013e61167b565b606091505b50509050806116bf5760405162461bcd60e51b815260206004820152601060248201526f2a3930b739b332b9103330b4b632b21760811b6044820152606401610239565b505050565b6000828152600260205260409020546001600160a01b031633146117695760405162461bcd60e51b815260206004820152605060248201527f4f6e6c79204f776e6572732063616e207472616e736665722070726f7065727460448201527f792e20576520646f206e6f74206861766520796f75206173206f776e6572206f60648201526f33103a3434b990383937b832b93a3c9760811b608482015260a401610239565b6009546001600160a01b03821660009081526003602052604090205410156117f95760405162461bcd60e51b815260206004820152603760248201527f42616c616e6365206f662061206e6577206f776e657220697320746f6f206c6f60448201527f7720746f207472616e736665722070726f70657274792e0000000000000000006064820152608401610239565b6001600160a01b03811660009081526020819052604090205461185e5760405162461bcd60e51b815260206004820152601b60248201527f4e6577206f776e6572206973206e6f74207265676973746572656400000000006044820152606401610239565b600082815260026020908152604080832080546001600160a01b0319166001600160a01b0386161790553383526004909152902080546118a090600190612f3a565b815481106118b0576118b0612f51565b60009182526020808320909101543383526004825260408084206007548552600590935290922054815481106118e8576118e8612f51565b600091825260208083209091019290925533815260049091526040902080548061191457611914612f67565b6000828152602080822083016000199081018390559092019092556001600160a01b038316808352600482526040808420805460018181018355918652848620018790559184529152812080549161196b83613078565b90915550506001600160a01b0381166000908152600160208181526040808420546007548552600583528185205533845291905281208054916119ad83612f7d565b9091555050604080516001600160a01b0383168152602081018490527fbf0996050d830a4094913360f3aca6a3d35dc19fbda52e1f983f5e1e3c5f8f2d910160405180910390a16009546001600160a01b03821660009081526003602052604081208054909190611a1f908490612f3a565b9091555050600954600a8054600090611a39908490612891565b90915550505050565b600b546060906001600160a01b03163314611a6f5760405162461bcd60e51b815260040161023990612f0f565b6001600160a01b03821660009081526004602090815260409182902080548351818402810184019094528084529091830182828015611acd57602002820191906000526020600020905b815481526020019060010190808311611ab9575b505050505090505b919050565b3360009081526020819052604090205415611b375760405162461bcd60e51b815260206004820152601e60248201527f4164647265737320697320616c726561647920726567697374657265642e00006044820152606401610239565b6040805160e08101825260065481526020808201898152928201889052606082018790526080820186905260a0820185905260c08201849052600d8054600181018255600091909152825160079091027fd7b6990105719101dabeb77144f2a3385c8033acd3af97e9423a695e81ad1eb581019182559351805193949193611be8937fd7b6990105719101dabeb77144f2a3385c8033acd3af97e9423a695e81ad1eb69093019291909101906127b2565b5060408201518051611c049160028401916020909101906127b2565b5060608201518051611c209160038401916020909101906127b2565b5060808201518051611c3c9160048401916020909101906127b2565b5060a08201518051611c589160058401916020909101906127b2565b5060c08201518051611c749160068401916020909101906127b2565b5050600e80546001810182556000919091527fbb7b4a454dc3493923482f07822329ed19e8244eff582cc204f8554c3620c3fd0180546001600160a01b031916339081179091556006546040517fa77dab45c413501c01e68e486ba7b3713c4fbb1d6140cd3f949cd709cee6f1139350611cfb9291908a908a908a908a908a908a90613093565b60405180910390a160068054336000908152602081905260408120829055909190611d2583613078565b909155505033600090815260036020526040812055505050505050565b600b546001600160a01b03163314611d6c5760405162461bcd60e51b815260040161023990612f0f565b6008546001600160a01b038c166000908152600360205260409020541015611e145760405162461bcd60e51b815260206004820152604f60248201527f42616c616e636520746f6f206c6f7720746f2072656769737465722070726f7060448201527f657274792e20506c6561736520696e63726561736520796f75722062616c616e60648201526e31b29013103a393c9030b3b0b4b71760891b608482015260a401610239565b6040805161016081018252600754815260208082018d81529282018c8152606083018c8152608084018c815260a085018c905260c085018b905260e085018a9052610100850189905261012085018890526101408501879052600c80546001810182556000919091528551600b9091027fdf6966c971051c3d54ec59162606531493a51404a002842f56009d7e5cf4a8c7810191825596517fdf6966c971051c3d54ec59162606531493a51404a002842f56009d7e5cf4a8c888015592517fdf6966c971051c3d54ec59162606531493a51404a002842f56009d7e5cf4a8c987015590517fdf6966c971051c3d54ec59162606531493a51404a002842f56009d7e5cf4a8ca86015551805193949193611f56937fdf6966c971051c3d54ec59162606531493a51404a002842f56009d7e5cf4a8cb9093019291909101906127b2565b5060a08201518051611f729160058401916020909101906127b2565b5060c08201518051611f8e9160068401916020909101906127b2565b5060e08201518051611faa9160078401916020909101906127b2565b506101008201518051611fc79160088401916020909101906127b2565b506101208201518051611fe49160098401916020909101906127b2565b50610140820151805161200191600a8401916020909101906127b2565b5050507f7a320318f8ddfe7528cb7b0a1fdaf9466f7fd11a31f4d72ed4c96a07624589d96007548b8b8b8b8b8b8b8b8b8b6040516120499b9a99989796959493929190612e1b565b60405180910390a18a60026000600754815260200190815260200160002060006101000a8154816001600160a01b0302191690836001600160a01b03160217905550600160008c6001600160a01b03166001600160a01b0316815260200190815260200160002060008154809291906120c190613078565b90915550506001600160a01b038b1660008181526004602090815260408083206007805482546001818101855593875285872001559484528252808320548454845260059092528220558154919061211883613078565b90915550506008546001600160a01b038c1660009081526003602052604081208054909190612148908490612f3a565b9091555050600854600a8054600090612162908490612891565b90915550505050505050505050505050565b600b546000906001600160a01b031633146121a15760405162461bcd60e51b815260040161023990612f0f565b50600a5490565b600b546001600160a01b031633146121d25760405162461bcd60e51b815260040161023990612f0f565b600855565b600b546001600160a01b031633146122015760405162461bcd60e51b815260040161023990612f0f565b600955565b600c818154811061221657600080fd5b90600052602060002090600b020160009150905080600001549080600101549080600201549080600301549080600401805461225190612ed4565b80601f016020809104026020016040519081016040528092919081815260200182805461227d90612ed4565b80156122ca5780601f1061229f576101008083540402835291602001916122ca565b820191906000526020600020905b8154815290600101906020018083116122ad57829003601f168201915b5050505050908060050180546122df90612ed4565b80601f016020809104026020016040519081016040528092919081815260200182805461230b90612ed4565b80156123585780601f1061232d57610100808354040283529160200191612358565b820191906000526020600020905b81548152906001019060200180831161233b57829003601f168201915b50505050509080600601805461236d90612ed4565b80601f016020809104026020016040519081016040528092919081815260200182805461239990612ed4565b80156123e65780601f106123bb576101008083540402835291602001916123e6565b820191906000526020600020905b8154815290600101906020018083116123c957829003601f168201915b5050505050908060070180546123fb90612ed4565b80601f016020809104026020016040519081016040528092919081815260200182805461242790612ed4565b80156124745780601f1061244957610100808354040283529160200191612474565b820191906000526020600020905b81548152906001019060200180831161245757829003601f168201915b50505050509080600801805461248990612ed4565b80601f01602080910402602001604051908101604052809291908181526020018280546124b590612ed4565b80156125025780601f106124d757610100808354040283529160200191612502565b820191906000526020600020905b8154815290600101906020018083116124e557829003601f168201915b50505050509080600901805461251790612ed4565b80601f016020809104026020016040519081016040528092919081815260200182805461254390612ed4565b80156125905780601f1061256557610100808354040283529160200191612590565b820191906000526020600020905b81548152906001019060200180831161257357829003601f168201915b50505050509080600a0180546125a590612ed4565b80601f01602080910402602001604051908101604052809291908181526020018280546125d190612ed4565b801561261e5780601f106125f35761010080835404028352916020019161261e565b820191906000526020600020905b81548152906001019060200180831161260157829003601f168201915b505050505090508b565b336000908152602081905260409020546126545760405162461bcd60e51b81526004016102399061284b565b336000908152601060208190526040822054600f8054919384939290919061267e90600190612f3a565b8154811061268e5761268e612f51565b60009182526020808320909101546001600160a01b03168352820192909252604001902055600f80546126c390600190612f3a565b815481106126d3576126d3612f51565b6000918252602090912001546001600160a01b0316600f6126f5600184612f3a565b8154811061270557612705612f51565b9060005260206000200160006101000a8154816001600160a01b0302191690836001600160a01b03160217905550600f80548061274457612744612f67565b600082815260208120820160001990810180546001600160a01b0319169055909101909155601180549161277783612f7d565b90915550506040513381527f8014b222f8096605728ba3f51b1cefd8c3a9af47f7b9626833532ac2ac9cdb369060200160405180910390a150565b8280546127be90612ed4565b90600052602060002090601f0160209004810192826127e05760008555612826565b82601f106127f957805160ff1916838001178555612826565b82800160010185558215612826579182015b8281111561282657825182559160200191906001019061280b565b50612832929150612836565b5090565b5b808211156128325760008155600101612837565b602080825260169082015275165bdd48185c99481b9bdd081c9959da5cdd195c995960521b604082015260600190565b634e487b7160e01b600052601160045260246000fd5b600082198211156128a4576128a461287b565b500190565b6000602082840312156128bb57600080fd5b5035919050565b6000815180845260005b818110156128e8576020818501810151868301820152016128cc565b818111156128fa576000602083870101525b50601f01601f19169290920160200192915050565b87815260e06020820152600061292860e08301896128c2565b828103604084015261293a81896128c2565b9050828103606084015261294e81886128c2565b9050828103608084015261296281876128c2565b905082810360a084015261297681866128c2565b905082810360c084015261298a81856128c2565b9a9950505050505050505050565b80356001600160a01b0381168114611ad557600080fd5b6000602082840312156129c157600080fd5b6129ca82612998565b9392505050565b6040815260006129e460408301856128c2565b82810360208401526129f681856128c2565b95945050505050565b634e487b7160e01b600052604160045260246000fd5b600082601f830112612a2657600080fd5b813567ffffffffffffffff80821115612a4157612a416129ff565b604051601f8301601f19908116603f01168101908282118183101715612a6957612a696129ff565b81604052838152866020858801011115612a8257600080fd5b836020870160208301376000602085830101528094505050505092915050565b60008060008060008060008060008060006101608c8e031215612ac457600080fd5b8b359a5060208c0135995060408c0135985060608c0135975067ffffffffffffffff8060808e01351115612af757600080fd5b612b078e60808f01358f01612a15565b97508060a08e01351115612b1a57600080fd5b612b2a8e60a08f01358f01612a15565b96508060c08e01351115612b3d57600080fd5b612b4d8e60c08f01358f01612a15565b95508060e08e01351115612b6057600080fd5b612b708e60e08f01358f01612a15565b9450806101008e01351115612b8457600080fd5b612b958e6101008f01358f01612a15565b9350806101208e01351115612ba957600080fd5b612bba8e6101208f01358f01612a15565b9250806101408e01351115612bce57600080fd5b50612be08d6101408e01358e01612a15565b90509295989b509295989b9093969950565b606081526000612c0560608301866128c2565b8281036020840152612c1781866128c2565b91505060018060a01b0383166040830152949350505050565b60008060408385031215612c4357600080fd5b612c4c83612998565b946020939093013593505050565b60008060408385031215612c6d57600080fd5b82359150612c7d60208401612998565b90509250929050565b6020808252825182820181905260009190848201906040850190845b81811015612cbe57835183529284019291840191600101612ca2565b50909695505050505050565b60008060008060008060c08789031215612ce357600080fd5b863567ffffffffffffffff80821115612cfb57600080fd5b612d078a838b01612a15565b97506020890135915080821115612d1d57600080fd5b612d298a838b01612a15565b96506040890135915080821115612d3f57600080fd5b612d4b8a838b01612a15565b95506060890135915080821115612d6157600080fd5b612d6d8a838b01612a15565b94506080890135915080821115612d8357600080fd5b612d8f8a838b01612a15565b935060a0890135915080821115612da557600080fd5b50612db289828a01612a15565b9150509295509295509295565b60008060008060008060008060008060006101608c8e031215612de157600080fd5b612dea8c612998565b9a5060208c0135995060408c0135985060608c0135975067ffffffffffffffff8060808e01351115612af757600080fd5b60006101608d83528c60208401528b60408401528a6060840152806080840152612e478184018b6128c2565b905082810360a0840152612e5b818a6128c2565b905082810360c0840152612e6f81896128c2565b905082810360e0840152612e8381886128c2565b9050828103610100840152612e9881876128c2565b9050828103610120840152612ead81866128c2565b9050828103610140840152612ec281856128c2565b9e9d5050505050505050505050505050565b600181811c90821680612ee857607f821691505b60208210811415612f0957634e487b7160e01b600052602260045260246000fd5b50919050565b60208082526011908201527014195c9b5a5cdcda5bdb8819195b9a5959607a1b604082015260600190565b600082821015612f4c57612f4c61287b565b500390565b634e487b7160e01b600052603260045260246000fd5b634e487b7160e01b600052603160045260246000fd5b600081612f8c57612f8c61287b565b506000190190565b6000816000190483118215151615612fae57612fae61287b565b500290565b8054600090600181811c9080831680612fcd57607f831692505b6020808410821415612fef57634e487b7160e01b600052602260045260246000fd5b8388526020880182801561300a576001811461301b57613046565b60ff19871682528282019750613046565b60008981526020902060005b8781101561304057815484820152908601908401613027565b83019850505b5050505050505092915050565b6040815260006130666040830185612fb3565b82810360208401526129f68185612fb3565b600060001982141561308c5761308c61287b565b5060010190565b6001600160a01b038916815260208101889052610100604082018190526000906130bf8382018a6128c2565b905082810360608401526130d381896128c2565b905082810360808401526130e781886128c2565b905082810360a08401526130fb81876128c2565b905082810360c084015261310f81866128c2565b905082810360e084015261312381856128c2565b9b9a505050505050505050505056fea264697066735822122075cd2fcee6fcbb2c602443a81fa9288b7ca21841b1b3f562829929166a994c9364736f6c634300080b0033",
  "bytecodeSha1": "74380ba95a4b22d1d0520b79d0d4670449ce2120",
  "compiler": {
    "evm_version": "istanbul",
    "optimizer": {
      "enabled": true,
      "runs": 200
    },
    "version": "0.8.11+commit.d7f03943"
  },
  "contractName": "Subscription",
  "language": "Solidity",
  "natspec": {
    "kind": "dev",
    "methods": {},
    "version": 1
  },
  "opcodes": "PUSH1 0x80 PUSH1 0x40 MSTORE PUSH1 0x4 CALLDATASIZE LT PUSH2 0x208 JUMPI PUSH1 0x0 CALLDATALOAD PUSH1 0xE0 SHR DUP1 PUSH4 0x8F449A05 GT PUSH2 0x118 JUMPI DUP1 PUSH4 0xC38C1B35 GT PUSH2 0xA0 JUMPI DUP1 PUSH4 0xEDA943B5 GT PUSH2 0x6F JUMPI DUP1 PUSH4 0xEDA943B5 EQ PUSH2 0x665 JUMPI DUP1 PUSH4 0xF26EC417 EQ PUSH2 0x692 JUMPI DUP1 PUSH4 0xF7B10808 EQ PUSH2 0x6B2 JUMPI DUP1 PUSH4 0xF969C083 EQ PUSH2 0x6E9 JUMPI DUP1 PUSH4 0xFCAE4484 EQ PUSH2 0x6FE JUMPI PUSH1 0x0 DUP1 REVERT JUMPDEST DUP1 PUSH4 0xC38C1B35 EQ PUSH2 0x5DA JUMPI DUP1 PUSH4 0xDD7BFCB8 EQ PUSH2 0x5FA JUMPI DUP1 PUSH4 0xE2D24B44 EQ PUSH2 0x60F JUMPI DUP1 PUSH4 0xE3C16EFE EQ PUSH2 0x62F JUMPI PUSH1 0x0 DUP1 REVERT JUMPDEST DUP1 PUSH4 0xA33B1260 GT PUSH2 0xE7 JUMPI DUP1 PUSH4 0xA33B1260 EQ PUSH2 0x550 JUMPI DUP1 PUSH4 0xABE1DCF9 EQ PUSH2 0x558 JUMPI DUP1 PUSH4 0xAEB272E8 EQ PUSH2 0x578 JUMPI DUP1 PUSH4 0xB7440467 EQ PUSH2 0x58D JUMPI DUP1 PUSH4 0xC088512A EQ PUSH2 0x5BA JUMPI PUSH1 0x0 DUP1 REVERT JUMPDEST DUP1 PUSH4 0x8F449A05 EQ PUSH2 0x4F1 JUMPI DUP1 PUSH4 0x92FD14D0 EQ PUSH2 0x506 JUMPI DUP1 PUSH4 0x9AA8AE9E EQ PUSH2 0x51B JUMPI DUP1 PUSH4 0x9BDB448F EQ PUSH2 0x530 JUMPI PUSH1 0x0 DUP1 REVERT JUMPDEST DUP1 PUSH4 0x3E9491A2 GT PUSH2 0x19B JUMPI DUP1 PUSH4 0x5BCF4590 GT PUSH2 0x16A JUMPI DUP1 PUSH4 0x5BCF4590 EQ PUSH2 0x440 JUMPI DUP1 PUSH4 0x60E38AE2 EQ PUSH2 0x460 JUMPI DUP1 PUSH4 0x7399A719 EQ PUSH2 0x48F JUMPI DUP1 PUSH4 0x81B2D07B EQ PUSH2 0x4AF JUMPI DUP1 PUSH4 0x89CB8F6D EQ PUSH2 0x4C4 JUMPI PUSH1 0x0 DUP1 REVERT JUMPDEST DUP1 PUSH4 0x3E9491A2 EQ PUSH2 0x3BA JUMPI DUP1 PUSH4 0x421235D5 EQ PUSH2 0x3D0 JUMPI DUP1 PUSH4 0x4FD1F68B EQ PUSH2 0x3FD JUMPI DUP1 PUSH4 0x51D9F249 EQ PUSH2 0x42B JUMPI PUSH1 0x0 DUP1 REVERT JUMPDEST DUP1 PUSH4 0x2E735C7D GT PUSH2 0x1D7 JUMPI DUP1 PUSH4 0x2E735C7D EQ PUSH2 0x322 JUMPI DUP1 PUSH4 0x306ACF02 EQ PUSH2 0x358 JUMPI DUP1 PUSH4 0x311CADB3 EQ PUSH2 0x36D JUMPI DUP1 PUSH4 0x37EBE47B EQ PUSH2 0x38D JUMPI PUSH1 0x0 DUP1 REVERT JUMPDEST DUP1 PUSH4 0x25E7C27 EQ PUSH2 0x26D JUMPI DUP1 PUSH4 0xC12F4D2 EQ PUSH2 0x2A9 JUMPI DUP1 PUSH4 0x225898C9 EQ PUSH2 0x2C8 JUMPI DUP1 PUSH4 0x2A32D1A6 EQ PUSH2 0x300 JUMPI PUSH1 0x0 DUP1 REVERT JUMPDEST CALLDATASIZE PUSH2 0x268 JUMPI CALLER PUSH1 0x0 SWAP1 DUP2 MSTORE PUSH1 0x20 DUP2 SWAP1 MSTORE PUSH1 0x40 SWAP1 KECCAK256 SLOAD PUSH2 0x242 JUMPI PUSH1 0x40 MLOAD PUSH3 0x461BCD PUSH1 0xE5 SHL DUP2 MSTORE PUSH1 0x4 ADD PUSH2 0x239 SWAP1 PUSH2 0x284B JUMP JUMPDEST PUSH1 0x40 MLOAD DUP1 SWAP2 SUB SWAP1 REVERT JUMPDEST CALLER PUSH1 0x0 SWAP1 DUP2 MSTORE PUSH1 0x3 PUSH1 0x20 MSTORE PUSH1 0x40 DUP2 KECCAK256 DUP1 SLOAD CALLVALUE SWAP3 SWAP1 PUSH2 0x261 SWAP1 DUP5 SWAP1 PUSH2 0x2891 JUMP JUMPDEST SWAP1 SWAP2 SSTORE POP POP STOP JUMPDEST PUSH1 0x0 DUP1 REVERT JUMPDEST CALLVALUE DUP1 ISZERO PUSH2 0x279 JUMPI PUSH1 0x0 DUP1 REVERT JUMPDEST POP PUSH2 0x28D PUSH2 0x288 CALLDATASIZE PUSH1 0x4 PUSH2 0x28A9 JUMP JUMPDEST PUSH2 0x713 JUMP JUMPDEST PUSH1 0x40 MLOAD PUSH2 0x2A0 SWAP8 SWAP7 SWAP6 SWAP5 SWAP4 SWAP3 SWAP2 SWAP1 PUSH2 0x290F JUMP JUMPDEST PUSH1 0x40 MLOAD DUP1 SWAP2 SUB SWAP1 RETURN JUMPDEST CALLVALUE DUP1 ISZERO PUSH2 0x2B5 JUMPI PUSH1 0x0 DUP1 REVERT JUMPDEST POP PUSH1 0x12 SLOAD JUMPDEST PUSH1 0x40 MLOAD SWAP1 DUP2 MSTORE PUSH1 0x20 ADD PUSH2 0x2A0 JUMP JUMPDEST CALLVALUE DUP1 ISZERO PUSH2 0x2D4 JUMPI PUSH1 0x0 DUP1 REVERT JUMPDEST POP PUSH2 0x2E8 PUSH2 0x2E3 CALLDATASIZE PUSH1 0x4 PUSH2 0x28A9 JUMP JUMPDEST PUSH2 0xA91 JUMP JUMPDEST PUSH1 0x40 MLOAD PUSH1 0x1 PUSH1 0x1 PUSH1 0xA0 SHL SUB SWAP1 SWAP2 AND DUP2 MSTORE PUSH1 0x20 ADD PUSH2 0x2A0 JUMP JUMPDEST CALLVALUE DUP1 ISZERO PUSH2 0x30C JUMPI PUSH1 0x0 DUP1 REVERT JUMPDEST POP PUSH2 0x320 PUSH2 0x31B CALLDATASIZE PUSH1 0x4 PUSH2 0x29AF JUMP JUMPDEST PUSH2 0xABB JUMP JUMPDEST STOP JUMPDEST CALLVALUE DUP1 ISZERO PUSH2 0x32E JUMPI PUSH1 0x0 DUP1 REVERT JUMPDEST POP PUSH2 0x2BA PUSH2 0x33D CALLDATASIZE PUSH1 0x4 PUSH2 0x29AF JUMP JUMPDEST PUSH1 0x1 PUSH1 0x1 PUSH1 0xA0 SHL SUB AND PUSH1 0x0 SWAP1 DUP2 MSTORE PUSH1 0x3 PUSH1 0x20 MSTORE PUSH1 0x40 SWAP1 KECCAK256 SLOAD SWAP1 JUMP JUMPDEST CALLVALUE DUP1 ISZERO PUSH2 0x364 JUMPI PUSH1 0x0 DUP1 REVERT JUMPDEST POP PUSH1 0x8 SLOAD PUSH2 0x2BA JUMP JUMPDEST CALLVALUE DUP1 ISZERO PUSH2 0x379 JUMPI PUSH1 0x0 DUP1 REVERT JUMPDEST POP PUSH2 0x320 PUSH2 0x388 CALLDATASIZE PUSH1 0x4 PUSH2 0x28A9 JUMP JUMPDEST PUSH2 0xCA6 JUMP JUMPDEST CALLVALUE DUP1 ISZERO PUSH2 0x399 JUMPI PUSH1 0x0 DUP1 REVERT JUMPDEST POP PUSH2 0x2BA PUSH2 0x3A8 CALLDATASIZE PUSH1 0x4 PUSH2 0x29AF JUMP JUMPDEST PUSH1 0x3 PUSH1 0x20 MSTORE PUSH1 0x0 SWAP1 DUP2 MSTORE PUSH1 0x40 SWAP1 KECCAK256 SLOAD DUP2 JUMP JUMPDEST CALLVALUE DUP1 ISZERO PUSH2 0x3C6 JUMPI PUSH1 0x0 DUP1 REVERT JUMPDEST POP PUSH2 0x2BA PUSH1 0xA SLOAD DUP2 JUMP JUMPDEST CALLVALUE DUP1 ISZERO PUSH2 0x3DC JUMPI PUSH1 0x0 DUP1 REVERT JUMPDEST POP PUSH2 0x2BA PUSH2 0x3EB CALLDATASIZE PUSH1 0x4 PUSH2 0x29AF JUMP JUMPDEST PUSH1 0x0 PUSH1 0x20 DUP2 SWAP1 MSTORE SWAP1 DUP2 MSTORE PUSH1 0x40 SWAP1 KECCAK256 SLOAD DUP2 JUMP JUMPDEST CALLVALUE DUP1 ISZERO PUSH2 0x409 JUMPI PUSH1 0x0 DUP1 REVERT JUMPDEST POP PUSH2 0x41D PUSH2 0x418 CALLDATASIZE PUSH1 0x4 PUSH2 0x29AF JUMP JUMPDEST PUSH2 0xCD5 JUMP JUMPDEST PUSH1 0x40 MLOAD PUSH2 0x2A0 SWAP3 SWAP2 SWAP1 PUSH2 0x29D1 JUMP JUMPDEST CALLVALUE DUP1 ISZERO PUSH2 0x437 JUMPI PUSH1 0x0 DUP1 REVERT JUMPDEST POP PUSH2 0x320 PUSH2 0xE9D JUMP JUMPDEST CALLVALUE DUP1 ISZERO PUSH2 0x44C JUMPI PUSH1 0x0 DUP1 REVERT JUMPDEST POP PUSH2 0x320 PUSH2 0x45B CALLDATASIZE PUSH1 0x4 PUSH2 0x2AA2 JUMP JUMPDEST PUSH2 0x115F JUMP JUMPDEST CALLVALUE DUP1 ISZERO PUSH2 0x46C JUMPI PUSH1 0x0 DUP1 REVERT JUMPDEST POP PUSH2 0x480 PUSH2 0x47B CALLDATASIZE PUSH1 0x4 PUSH2 0x28A9 JUMP JUMPDEST PUSH2 0x124F JUMP JUMPDEST PUSH1 0x40 MLOAD PUSH2 0x2A0 SWAP4 SWAP3 SWAP2 SWAP1 PUSH2 0x2BF2 JUMP JUMPDEST CALLVALUE DUP1 ISZERO PUSH2 0x49B JUMPI PUSH1 0x0 DUP1 REVERT JUMPDEST POP PUSH2 0x2E8 PUSH2 0x4AA CALLDATASIZE PUSH1 0x4 PUSH2 0x28A9 JUMP JUMPDEST PUSH2 0x1401 JUMP JUMPDEST CALLVALUE DUP1 ISZERO PUSH2 0x4BB JUMPI PUSH1 0x0 DUP1 REVERT JUMPDEST POP PUSH2 0x2BA PUSH2 0x1411 JUMP JUMPDEST CALLVALUE DUP1 ISZERO PUSH2 0x4D0 JUMPI PUSH1 0x0 DUP1 REVERT JUMPDEST POP PUSH2 0x2BA PUSH2 0x4DF CALLDATASIZE PUSH1 0x4 PUSH2 0x29AF JUMP JUMPDEST PUSH1 0x1 PUSH1 0x20 MSTORE PUSH1 0x0 SWAP1 DUP2 MSTORE PUSH1 0x40 SWAP1 KECCAK256 SLOAD DUP2 JUMP JUMPDEST CALLVALUE DUP1 ISZERO PUSH2 0x4FD JUMPI PUSH1 0x0 DUP1 REVERT JUMPDEST POP PUSH2 0x320 PUSH2 0x1443 JUMP JUMPDEST CALLVALUE DUP1 ISZERO PUSH2 0x512 JUMPI PUSH1 0x0 DUP1 REVERT JUMPDEST POP PUSH1 0x9 SLOAD PUSH2 0x2BA JUMP JUMPDEST CALLVALUE DUP1 ISZERO PUSH2 0x527 JUMPI PUSH1 0x0 DUP1 REVERT JUMPDEST POP PUSH2 0x2BA PUSH2 0x158A JUMP JUMPDEST CALLVALUE DUP1 ISZERO PUSH2 0x53C JUMPI PUSH1 0x0 DUP1 REVERT JUMPDEST POP PUSH2 0x2BA PUSH2 0x54B CALLDATASIZE PUSH1 0x4 PUSH2 0x2C30 JUMP JUMPDEST PUSH2 0x15A0 JUMP JUMPDEST PUSH2 0x320 PUSH2 0x15D1 JUMP JUMPDEST CALLVALUE DUP1 ISZERO PUSH2 0x564 JUMPI PUSH1 0x0 DUP1 REVERT JUMPDEST POP PUSH2 0x320 PUSH2 0x573 CALLDATASIZE PUSH1 0x4 PUSH2 0x2C5A JUMP JUMPDEST PUSH2 0x16C4 JUMP JUMPDEST CALLVALUE DUP1 ISZERO PUSH2 0x584 JUMPI PUSH1 0x0 DUP1 REVERT JUMPDEST POP PUSH1 0xD SLOAD PUSH2 0x2BA JUMP JUMPDEST CALLVALUE DUP1 ISZERO PUSH2 0x599 JUMPI PUSH1 0x0 DUP1 REVERT JUMPDEST POP PUSH2 0x5AD PUSH2 0x5A8 CALLDATASIZE PUSH1 0x4 PUSH2 0x29AF JUMP JUMPDEST PUSH2 0x1A42 JUMP JUMPDEST PUSH1 0x40 MLOAD PUSH2 0x2A0 SWAP2 SWAP1 PUSH2 0x2C86 JUMP JUMPDEST CALLVALUE DUP1 ISZERO PUSH2 0x5C6 JUMPI PUSH1 0x0 DUP1 REVERT JUMPDEST POP PUSH2 0x320 PUSH2 0x5D5 CALLDATASIZE PUSH1 0x4 PUSH2 0x2CCA JUMP JUMPDEST PUSH2 0x1ADA JUMP JUMPDEST CALLVALUE DUP1 ISZERO PUSH2 0x5E6 JUMPI PUSH1 0x0 DUP1 REVERT JUMPDEST POP PUSH2 0x320 PUSH2 0x5F5 CALLDATASIZE PUSH1 0x4 PUSH2 0x2DBF JUMP JUMPDEST PUSH2 0x1D42 JUMP JUMPDEST CALLVALUE DUP1 ISZERO PUSH2 0x606 JUMPI PUSH1 0x0 DUP1 REVERT JUMPDEST POP PUSH2 0x2BA PUSH2 0x2174 JUMP JUMPDEST CALLVALUE DUP1 ISZERO PUSH2 0x61B JUMPI PUSH1 0x0 DUP1 REVERT JUMPDEST POP PUSH2 0x320 PUSH2 0x62A CALLDATASIZE PUSH1 0x4 PUSH2 0x28A9 JUMP JUMPDEST PUSH2 0x21A8 JUMP JUMPDEST CALLVALUE DUP1 ISZERO PUSH2 0x63B JUMPI PUSH1 0x0 DUP1 REVERT JUMPDEST POP PUSH2 0x2BA PUSH2 0x64A CALLDATASIZE PUSH1 0x4 PUSH2 0x29AF JUMP JUMPDEST PUSH1 0x1 PUSH1 0x1 PUSH1 0xA0 SHL SUB AND PUSH1 0x0 SWAP1 DUP2 MSTORE PUSH1 0x1 PUSH1 0x20 MSTORE PUSH1 0x40 SWAP1 KECCAK256 SLOAD SWAP1 JUMP JUMPDEST CALLVALUE DUP1 ISZERO PUSH2 0x671 JUMPI PUSH1 0x0 DUP1 REVERT JUMPDEST POP PUSH2 0x2BA PUSH2 0x680 CALLDATASIZE PUSH1 0x4 PUSH2 0x28A9 JUMP JUMPDEST PUSH1 0x5 PUSH1 0x20 MSTORE PUSH1 0x0 SWAP1 DUP2 MSTORE PUSH1 0x40 SWAP1 KECCAK256 SLOAD DUP2 JUMP JUMPDEST CALLVALUE DUP1 ISZERO PUSH2 0x69E JUMPI PUSH1 0x0 DUP1 REVERT JUMPDEST POP PUSH2 0x320 PUSH2 0x6AD CALLDATASIZE PUSH1 0x4 PUSH2 0x28A9 JUMP JUMPDEST PUSH2 0x21D7 JUMP JUMPDEST CALLVALUE DUP1 ISZERO PUSH2 0x6BE JUMPI PUSH1 0x0 DUP1 REVERT JUMPDEST POP PUSH2 0x6D2 PUSH2 0x6CD CALLDATASIZE PUSH1 0x4 PUSH2 0x28A9 JUMP JUMPDEST PUSH2 0x2206 JUMP JUMPDEST PUSH1 0x40 MLOAD PUSH2 0x2A0 SWAP12 SWAP11 SWAP10 SWAP9 SWAP8 SWAP7 SWAP6 SWAP5 SWAP4 SWAP3 SWAP2 SWAP1 PUSH2 0x2E1B JUMP JUMPDEST CALLVALUE DUP1 ISZERO PUSH2 0x6F5 JUMPI PUSH1 0x0 DUP1 REVERT JUMPDEST POP PUSH1 0xC SLOAD PUSH2 0x2BA JUMP JUMPDEST CALLVALUE DUP1 ISZERO PUSH2 0x70A JUMPI PUSH1 0x0 DUP1 REVERT JUMPDEST POP PUSH2 0x320 PUSH2 0x2628 JUMP JUMPDEST PUSH1 0xD DUP2 DUP2 SLOAD DUP2 LT PUSH2 0x723 JUMPI PUSH1 0x0 DUP1 REVERT JUMPDEST PUSH1 0x0 SWAP2 DUP3 MSTORE PUSH1 0x20 SWAP1 SWAP2 KECCAK256 PUSH1 0x7 SWAP1 SWAP2 MUL ADD DUP1 SLOAD PUSH1 0x1 DUP3 ADD DUP1 SLOAD SWAP2 SWAP4 POP SWAP1 PUSH2 0x748 SWAP1 PUSH2 0x2ED4 JUMP JUMPDEST DUP1 PUSH1 0x1F ADD PUSH1 0x20 DUP1 SWAP2 DIV MUL PUSH1 0x20 ADD PUSH1 0x40 MLOAD SWAP1 DUP2 ADD PUSH1 0x40 MSTORE DUP1 SWAP3 SWAP2 SWAP1 DUP2 DUP2 MSTORE PUSH1 0x20 ADD DUP3 DUP1 SLOAD PUSH2 0x774 SWAP1 PUSH2 0x2ED4 JUMP JUMPDEST DUP1 ISZERO PUSH2 0x7C1 JUMPI DUP1 PUSH1 0x1F LT PUSH2 0x796 JUMPI PUSH2 0x100 DUP1 DUP4 SLOAD DIV MUL DUP4 MSTORE SWAP2 PUSH1 0x20 ADD SWAP2 PUSH2 0x7C1 JUMP JUMPDEST DUP3 ADD SWAP2 SWAP1 PUSH1 0x0 MSTORE PUSH1 0x20 PUSH1 0x0 KECCAK256 SWAP1 JUMPDEST DUP2 SLOAD DUP2 MSTORE SWAP1 PUSH1 0x1 ADD SWAP1 PUSH1 0x20 ADD DUP1 DUP4 GT PUSH2 0x7A4 JUMPI DUP3 SWAP1 SUB PUSH1 0x1F AND DUP3 ADD SWAP2 JUMPDEST POP POP POP POP POP SWAP1 DUP1 PUSH1 0x2 ADD DUP1 SLOAD PUSH2 0x7D6 SWAP1 PUSH2 0x2ED4 JUMP JUMPDEST DUP1 PUSH1 0x1F ADD PUSH1 0x20 DUP1 SWAP2 DIV MUL PUSH1 0x20 ADD PUSH1 0x40 MLOAD SWAP1 DUP2 ADD PUSH1 0x40 MSTORE DUP1 SWAP3 SWAP2 SWAP1 DUP2 DUP2 MSTORE PUSH1 0x20 ADD DUP3 DUP1 SLOAD PUSH2 0x802 SWAP1 PUSH2 0x2ED4 JUMP JUMPDEST DUP1 ISZERO PUSH2 0x84F JUMPI DUP1 PUSH1 0x1F LT PUSH2 0x824 JUMPI PUSH2 0x100 DUP1 DUP4 SLOAD DIV MUL DUP4 MSTORE SWAP2 PUSH1 0x20 ADD SWAP2 PUSH2 0x84F JUMP JUMPDEST DUP3 ADD SWAP2 SWAP1 PUSH1 0x0 MSTORE PUSH1 0x20 PUSH1 0x0 KECCAK256 SWAP1 JUMPDEST DUP2 SLOAD DUP2 MSTORE SWAP1 PUSH1 0x1 ADD SWAP1 PUSH1 0x20 ADD DUP1 DUP4 GT PUSH2 0x832 JUMPI DUP3 SWAP1 SUB PUSH1 0x1F AND DUP3 ADD SWAP2 JUMPDEST POP POP POP POP POP SWAP1 DUP1 PUSH1 0x3 ADD DUP1 SLOAD PUSH2 0x864 SWAP1 PUSH2 0x2ED4 JUMP JUMPDEST DUP1 PUSH1 0x1F ADD PUSH1 0x20 DUP1 SWAP2 DIV MUL PUSH1 0x20 ADD PUSH1 0x40 MLOAD SWAP1 DUP2 ADD PUSH1 0x40 MSTORE DUP1 SWAP3 SWAP2 SWAP1 DUP2 DUP2 MSTORE PUSH1 0x20 ADD DUP3 DUP1 SLOAD PUSH2 0x890 SWAP1 PUSH2 0x2ED4 JUMP JUMPDEST DUP1 ISZERO PUSH2 0x8DD JUMPI DUP1 PUSH1 0x1F LT PUSH2 0x8B2 JUMPI PUSH2 0x100 DUP1 DUP4 SLOAD DIV MUL DUP4 MSTORE SWAP2 PUSH1 0x20 ADD SWAP2 PUSH2 0x8DD JUMP JUMPDEST DUP3 ADD SWAP2 SWAP1 PUSH1 0x0 MSTORE PUSH1 0x20 PUSH1 0x0 KECCAK256 SWAP1 JUMPDEST DUP2 SLOAD DUP2 MSTORE SWAP1 PUSH1 0x1 ADD SWAP1 PUSH1 0x20 ADD DUP1 DUP4 GT PUSH2 0x8C0 JUMPI DUP3 SWAP1 SUB PUSH1 0x1F AND DUP3 ADD SWAP2 JUMPDEST POP POP POP POP POP SWAP1 DUP1 PUSH1 0x4 ADD DUP1 SLOAD PUSH2 0x8F2 SWAP1 PUSH2 0x2ED4 JUMP JUMPDEST DUP1 PUSH1 0x1F ADD PUSH1 0x20 DUP1 SWAP2 DIV MUL PUSH1 0x20 ADD PUSH1 0x40 MLOAD SWAP1 DUP2 ADD PUSH1 0x40 MSTORE DUP1 SWAP3 SWAP2 SWAP1 DUP2 DUP2 MSTORE PUSH1 0x20 ADD DUP3 DUP1 SLOAD PUSH2 0x91E SWAP1 PUSH2 0x2ED4 JUMP JUMPDEST DUP1 ISZERO PUSH2 0x96B JUMPI DUP1 PUSH1 0x1F LT PUSH2 0x940 JUMPI PUSH2 0x100 DUP1 DUP4 SLOAD DIV MUL DUP4 MSTORE SWAP2 PUSH1 0x20 ADD SWAP2 PUSH2 0x96B JUMP JUMPDEST DUP3 ADD SWAP2 SWAP1 PUSH1 0x0 MSTORE PUSH1 0x20 PUSH1 0x0 KECCAK256 SWAP1 JUMPDEST DUP2 SLOAD DUP2 MSTORE SWAP1 PUSH1 0x1 ADD SWAP1 PUSH1 0x20 ADD DUP1 DUP4 GT PUSH2 0x94E JUMPI DUP3 SWAP1 SUB PUSH1 0x1F AND DUP3 ADD SWAP2 JUMPDEST POP POP POP POP POP SWAP1 DUP1 PUSH1 0x5 ADD DUP1 SLOAD PUSH2 0x980 SWAP1 PUSH2 0x2ED4 JUMP JUMPDEST DUP1 PUSH1 0x1F ADD PUSH1 0x20 DUP1 SWAP2 DIV MUL PUSH1 0x20 ADD PUSH1 0x40 MLOAD SWAP1 DUP2 ADD PUSH1 0x40 MSTORE DUP1 SWAP3 SWAP2 SWAP1 DUP2 DUP2 MSTORE PUSH1 0x20 ADD DUP3 DUP1 SLOAD PUSH2 0x9AC SWAP1 PUSH2 0x2ED4 JUMP JUMPDEST DUP1 ISZERO PUSH2 0x9F9 JUMPI DUP1 PUSH1 0x1F LT PUSH2 0x9CE JUMPI PUSH2 0x100 DUP1 DUP4 SLOAD DIV MUL DUP4 MSTORE SWAP2 PUSH1 0x20 ADD SWAP2 PUSH2 0x9F9 JUMP JUMPDEST DUP3 ADD SWAP2 SWAP1 PUSH1 0x0 MSTORE PUSH1 0x20 PUSH1 0x0 KECCAK256 SWAP1 JUMPDEST DUP2 SLOAD DUP2 MSTORE SWAP1 PUSH1 0x1 ADD SWAP1 PUSH1 0x20 ADD DUP1 DUP4 GT PUSH2 0x9DC JUMPI DUP3 SWAP1 SUB PUSH1 0x1F AND DUP3 ADD SWAP2 JUMPDEST POP POP POP POP POP SWAP1 DUP1 PUSH1 0x6 ADD DUP1 SLOAD PUSH2 0xA0E SWAP1 PUSH2 0x2ED4 JUMP JUMPDEST DUP1 PUSH1 0x1F ADD PUSH1 0x20 DUP1 SWAP2 DIV MUL PUSH1 0x20 ADD PUSH1 0x40 MLOAD SWAP1 DUP2 ADD PUSH1 0x40 MSTORE DUP1 SWAP3 SWAP2 SWAP1 DUP2 DUP2 MSTORE PUSH1 0x20 ADD DUP3 DUP1 SLOAD PUSH2 0xA3A SWAP1 PUSH2 0x2ED4 JUMP JUMPDEST DUP1 ISZERO PUSH2 0xA87 JUMPI DUP1 PUSH1 0x1F LT PUSH2 0xA5C JUMPI PUSH2 0x100 DUP1 DUP4 SLOAD DIV MUL DUP4 MSTORE SWAP2 PUSH1 0x20 ADD SWAP2 PUSH2 0xA87 JUMP JUMPDEST DUP3 ADD SWAP2 SWAP1 PUSH1 0x0 MSTORE PUSH1 0x20 PUSH1 0x0 KECCAK256 SWAP1 JUMPDEST DUP2 SLOAD DUP2 MSTORE SWAP1 PUSH1 0x1 ADD SWAP1 PUSH1 0x20 ADD DUP1 DUP4 GT PUSH2 0xA6A JUMPI DUP3 SWAP1 SUB PUSH1 0x1F AND DUP3 ADD SWAP2 JUMPDEST POP POP POP POP POP SWAP1 POP DUP8 JUMP JUMPDEST PUSH1 0xE DUP2 DUP2 SLOAD DUP2 LT PUSH2 0xAA1 JUMPI PUSH1 0x0 DUP1 REVERT JUMPDEST PUSH1 0x0 SWAP2 DUP3 MSTORE PUSH1 0x20 SWAP1 SWAP2 KECCAK256 ADD SLOAD PUSH1 0x1 PUSH1 0x1 PUSH1 0xA0 SHL SUB AND SWAP1 POP DUP2 JUMP JUMPDEST PUSH1 0xB SLOAD PUSH1 0x1 PUSH1 0x1 PUSH1 0xA0 SHL SUB AND CALLER EQ PUSH2 0xAE5 JUMPI PUSH1 0x40 MLOAD PUSH3 0x461BCD PUSH1 0xE5 SHL DUP2 MSTORE PUSH1 0x4 ADD PUSH2 0x239 SWAP1 PUSH2 0x2F0F JUMP JUMPDEST PUSH1 0x1 PUSH1 0x1 PUSH1 0xA0 SHL SUB DUP2 AND PUSH1 0x0 SWAP1 DUP2 MSTORE PUSH1 0x10 PUSH1 0x20 DUP2 SWAP1 MSTORE PUSH1 0x40 DUP3 KECCAK256 SLOAD PUSH1 0xF DUP1 SLOAD SWAP2 SWAP4 DUP5 SWAP4 SWAP3 SWAP1 SWAP2 SWAP1 PUSH2 0xB18 SWAP1 PUSH1 0x1 SWAP1 PUSH2 0x2F3A JUMP JUMPDEST DUP2 SLOAD DUP2 LT PUSH2 0xB28 JUMPI PUSH2 0xB28 PUSH2 0x2F51 JUMP JUMPDEST PUSH1 0x0 SWAP2 DUP3 MSTORE PUSH1 0x20 DUP1 DUP4 KECCAK256 SWAP1 SWAP2 ADD SLOAD PUSH1 0x1 PUSH1 0x1 PUSH1 0xA0 SHL SUB AND DUP4 MSTORE DUP3 ADD SWAP3 SWAP1 SWAP3 MSTORE PUSH1 0x40 ADD SWAP1 KECCAK256 SSTORE PUSH1 0xF DUP1 SLOAD PUSH2 0xB5D SWAP1 PUSH1 0x1 SWAP1 PUSH2 0x2F3A JUMP JUMPDEST DUP2 SLOAD DUP2 LT PUSH2 0xB6D JUMPI PUSH2 0xB6D PUSH2 0x2F51 JUMP JUMPDEST PUSH1 0x0 SWAP2 DUP3 MSTORE PUSH1 0x20 SWAP1 SWAP2 KECCAK256 ADD SLOAD PUSH1 0x1 PUSH1 0x1 PUSH1 0xA0 SHL SUB AND PUSH1 0xF PUSH2 0xB8F PUSH1 0x1 DUP5 PUSH2 0x2F3A JUMP JUMPDEST DUP2 SLOAD DUP2 LT PUSH2 0xB9F JUMPI PUSH2 0xB9F PUSH2 0x2F51 JUMP JUMPDEST SWAP1 PUSH1 0x0 MSTORE PUSH1 0x20 PUSH1 0x0 KECCAK256 ADD PUSH1 0x0 PUSH2 0x100 EXP DUP2 SLOAD DUP2 PUSH1 0x1 PUSH1 0x1 PUSH1 0xA0 SHL SUB MUL NOT AND SWAP1 DUP4 PUSH1 0x1 PUSH1 0x1 PUSH1 0xA0 SHL SUB AND MUL OR SWAP1 SSTORE POP PUSH1 0xF DUP1 SLOAD DUP1 PUSH2 0xBDE JUMPI PUSH2 0xBDE PUSH2 0x2F67 JUMP JUMPDEST PUSH1 0x0 DUP3 DUP2 MSTORE PUSH1 0x20 DUP2 KECCAK256 DUP3 ADD PUSH1 0x0 NOT SWAP1 DUP2 ADD DUP1 SLOAD PUSH1 0x1 PUSH1 0x1 PUSH1 0xA0 SHL SUB NOT AND SWAP1 SSTORE SWAP1 SWAP2 ADD SWAP1 SWAP2 SSTORE PUSH1 0x11 DUP1 SLOAD SWAP2 PUSH2 0xC11 DUP4 PUSH2 0x2F7D JUMP JUMPDEST SWAP1 SWAP2 SSTORE POP POP PUSH1 0x40 DUP1 MLOAD PUSH1 0x1 PUSH1 0x1 PUSH1 0xA0 SHL SUB DUP5 AND DUP2 MSTORE PUSH1 0x20 DUP2 ADD DUP3 SWAP1 MSTORE PUSH1 0x34 DUP2 DUP4 ADD MSTORE PUSH32 0x537562736372697074696F6E207761732063616E63656C6C6564206475652074 PUSH1 0x60 DUP3 ADD MSTORE PUSH20 0x6F20696E73756666696369656E742066756E6473 PUSH1 0x60 SHL PUSH1 0x80 DUP3 ADD MSTORE SWAP1 MLOAD PUSH32 0x3820B84434DF6B8F4A780DD9B9B085656177396049560008538ACE1982B6A9A8 SWAP2 DUP2 SWAP1 SUB PUSH1 0xA0 ADD SWAP1 LOG1 POP POP JUMP JUMPDEST PUSH1 0xB SLOAD PUSH1 0x1 PUSH1 0x1 PUSH1 0xA0 SHL SUB AND CALLER EQ PUSH2 0xCD0 JUMPI PUSH1 0x40 MLOAD PUSH3 0x461BCD PUSH1 0xE5 SHL DUP2 MSTORE PUSH1 0x4 ADD PUSH2 0x239 SWAP1 PUSH2 0x2F0F JUMP JUMPDEST PUSH1 0x12 SSTORE JUMP JUMPDEST PUSH1 0xB SLOAD PUSH1 0x60 SWAP1 DUP2 SWAP1 PUSH1 0x1 PUSH1 0x1 PUSH1 0xA0 SHL SUB AND CALLER EQ PUSH2 0xD04 JUMPI PUSH1 0x40 MLOAD PUSH3 0x461BCD PUSH1 0xE5 SHL DUP2 MSTORE PUSH1 0x4 ADD PUSH2 0x239 SWAP1 PUSH2 0x2F0F JUMP JUMPDEST PUSH1 0x1 PUSH1 0x1 PUSH1 0xA0 SHL SUB DUP4 AND PUSH1 0x0 SWAP1 DUP2 MSTORE PUSH1 0x20 DUP2 SWAP1 MSTORE PUSH1 0x40 SWAP1 KECCAK256 SLOAD PUSH1 0xD PUSH2 0xD2A PUSH1 0x1 DUP4 PUSH2 0x2F3A JUMP JUMPDEST DUP2 SLOAD DUP2 LT PUSH2 0xD3A JUMPI PUSH2 0xD3A PUSH2 0x2F51 JUMP JUMPDEST SWAP1 PUSH1 0x0 MSTORE PUSH1 0x20 PUSH1 0x0 KECCAK256 SWAP1 PUSH1 0x7 MUL ADD PUSH1 0x1 ADD PUSH1 0xD PUSH1 0x1 DUP4 PUSH2 0xD5A SWAP2 SWAP1 PUSH2 0x2F3A JUMP JUMPDEST DUP2 SLOAD DUP2 LT PUSH2 0xD6A JUMPI PUSH2 0xD6A PUSH2 0x2F51 JUMP JUMPDEST SWAP1 PUSH1 0x0 MSTORE PUSH1 0x20 PUSH1 0x0 KECCAK256 SWAP1 PUSH1 0x7 MUL ADD PUSH1 0x2 ADD DUP2 DUP1 SLOAD PUSH2 0xD87 SWAP1 PUSH2 0x2ED4 JUMP JUMPDEST DUP1 PUSH1 0x1F ADD PUSH1 0x20 DUP1 SWAP2 DIV MUL PUSH1 0x20 ADD PUSH1 0x40 MLOAD SWAP1 DUP2 ADD PUSH1 0x40 MSTORE DUP1 SWAP3 SWAP2 SWAP1 DUP2 DUP2 MSTORE PUSH1 0x20 ADD DUP3 DUP1 SLOAD PUSH2 0xDB3 SWAP1 PUSH2 0x2ED4 JUMP JUMPDEST DUP1 ISZERO PUSH2 0xE00 JUMPI DUP1 PUSH1 0x1F LT PUSH2 0xDD5 JUMPI PUSH2 0x100 DUP1 DUP4 SLOAD DIV MUL DUP4 MSTORE SWAP2 PUSH1 0x20 ADD SWAP2 PUSH2 0xE00 JUMP JUMPDEST DUP3 ADD SWAP2 SWAP1 PUSH1 0x0 MSTORE PUSH1 0x20 PUSH1 0x0 KECCAK256 SWAP1 JUMPDEST DUP2 SLOAD DUP2 MSTORE SWAP1 PUSH1 0x1 ADD SWAP1 PUSH1 0x20 ADD DUP1 DUP4 GT PUSH2 0xDE3 JUMPI DUP3 SWAP1 SUB PUSH1 0x1F AND DUP3 ADD SWAP2 JUMPDEST POP POP POP POP POP SWAP2 POP DUP1 DUP1 SLOAD PUSH2 0xE13 SWAP1 PUSH2 0x2ED4 JUMP JUMPDEST DUP1 PUSH1 0x1F ADD PUSH1 0x20 DUP1 SWAP2 DIV MUL PUSH1 0x20 ADD PUSH1 0x40 MLOAD SWAP1 DUP2 ADD PUSH1 0x40 MSTORE DUP1 SWAP3 SWAP2 SWAP1 DUP2 DUP2 MSTORE PUSH1 0x20 ADD DUP3 DUP1 SLOAD PUSH2 0xE3F SWAP1 PUSH2 0x2ED4 JUMP JUMPDEST DUP1 ISZERO PUSH2 0xE8C JUMPI DUP1 PUSH1 0x1F LT PUSH2 0xE61 JUMPI PUSH2 0x100 DUP1 DUP4 SLOAD DIV MUL DUP4 MSTORE SWAP2 PUSH1 0x20 ADD SWAP2 PUSH2 0xE8C JUMP JUMPDEST DUP3 ADD SWAP2 SWAP1 PUSH1 0x0 MSTORE PUSH1 0x20 PUSH1 0x0 KECCAK256 SWAP1 JUMPDEST DUP2 SLOAD DUP2 MSTORE SWAP1 PUSH1 0x1 ADD SWAP1 PUSH1 0x20 ADD DUP1 DUP4 GT PUSH2 0xE6F JUMPI DUP3 SWAP1 SUB PUSH1 0x1F AND DUP3 ADD SWAP2 JUMPDEST POP POP POP POP POP SWAP1 POP SWAP3 POP SWAP3 POP POP SWAP2 POP SWAP2 JUMP JUMPDEST PUSH1 0xB SLOAD PUSH1 0x1 PUSH1 0x1 PUSH1 0xA0 SHL SUB AND CALLER EQ PUSH2 0xEC7 JUMPI PUSH1 0x40 MLOAD PUSH3 0x461BCD PUSH1 0xE5 SHL DUP2 MSTORE PUSH1 0x4 ADD PUSH2 0x239 SWAP1 PUSH2 0x2F0F JUMP JUMPDEST PUSH1 0x0 JUMPDEST PUSH1 0xF SLOAD DUP2 LT ISZERO PUSH2 0x115C JUMPI PUSH1 0x12 SLOAD PUSH1 0x3 PUSH1 0x0 PUSH1 0xF DUP5 DUP2 SLOAD DUP2 LT PUSH2 0xEEE JUMPI PUSH2 0xEEE PUSH2 0x2F51 JUMP JUMPDEST PUSH1 0x0 SWAP2 DUP3 MSTORE PUSH1 0x20 DUP1 DUP4 KECCAK256 SWAP1 SWAP2 ADD SLOAD PUSH1 0x1 PUSH1 0x1 PUSH1 0xA0 SHL SUB AND DUP4 MSTORE DUP3 ADD SWAP3 SWAP1 SWAP3 MSTORE PUSH1 0x40 ADD SWAP1 KECCAK256 SLOAD LT ISZERO PUSH2 0xF4E JUMPI PUSH2 0xF49 PUSH1 0xF DUP3 DUP2 SLOAD DUP2 LT PUSH2 0xF2F JUMPI PUSH2 0xF2F PUSH2 0x2F51 JUMP JUMPDEST PUSH1 0x0 SWAP2 DUP3 MSTORE PUSH1 0x20 SWAP1 SWAP2 KECCAK256 ADD SLOAD PUSH1 0x1 PUSH1 0x1 PUSH1 0xA0 SHL SUB AND PUSH2 0xABB JUMP JUMPDEST PUSH2 0x114A JUMP JUMPDEST PUSH1 0x12 SLOAD PUSH2 0xF5C SWAP1 PUSH1 0x2 PUSH2 0x2F94 JUMP JUMPDEST PUSH1 0x3 PUSH1 0x0 PUSH1 0xF DUP5 DUP2 SLOAD DUP2 LT PUSH2 0xF73 JUMPI PUSH2 0xF73 PUSH2 0x2F51 JUMP JUMPDEST PUSH1 0x0 SWAP2 DUP3 MSTORE PUSH1 0x20 DUP1 DUP4 KECCAK256 SWAP1 SWAP2 ADD SLOAD PUSH1 0x1 PUSH1 0x1 PUSH1 0xA0 SHL SUB AND DUP4 MSTORE DUP3 ADD SWAP3 SWAP1 SWAP3 MSTORE PUSH1 0x40 ADD SWAP1 KECCAK256 SLOAD LT ISZERO PUSH2 0x10DC JUMPI PUSH1 0x0 PUSH1 0x1 PUSH1 0x0 DUP1 PUSH1 0xF DUP6 DUP2 SLOAD DUP2 LT PUSH2 0xFB8 JUMPI PUSH2 0xFB8 PUSH2 0x2F51 JUMP JUMPDEST PUSH1 0x0 SWAP2 DUP3 MSTORE PUSH1 0x20 DUP1 DUP4 KECCAK256 SWAP1 SWAP2 ADD SLOAD PUSH1 0x1 PUSH1 0x1 PUSH1 0xA0 SHL SUB AND DUP4 MSTORE DUP3 ADD SWAP3 SWAP1 SWAP3 MSTORE PUSH1 0x40 ADD SWAP1 KECCAK256 SLOAD PUSH2 0xFE7 SWAP2 SWAP1 PUSH2 0x2F3A JUMP JUMPDEST SWAP1 POP PUSH32 0x65B02C2FE6D7199C80CADF78BAF63E66BCB939BA143D259CC28881A8F05AC92A PUSH1 0xD DUP3 DUP2 SLOAD DUP2 LT PUSH2 0x101D JUMPI PUSH2 0x101D PUSH2 0x2F51 JUMP JUMPDEST SWAP1 PUSH1 0x0 MSTORE PUSH1 0x20 PUSH1 0x0 KECCAK256 SWAP1 PUSH1 0x7 MUL ADD PUSH1 0x1 ADD PUSH1 0xD DUP4 DUP2 SLOAD DUP2 LT PUSH2 0x1041 JUMPI PUSH2 0x1041 PUSH2 0x2F51 JUMP JUMPDEST SWAP1 PUSH1 0x0 MSTORE PUSH1 0x20 PUSH1 0x0 KECCAK256 SWAP1 PUSH1 0x7 MUL ADD PUSH1 0x2 ADD PUSH1 0x40 MLOAD PUSH2 0x1060 SWAP3 SWAP2 SWAP1 PUSH2 0x3053 JUMP JUMPDEST PUSH1 0x40 MLOAD DUP1 SWAP2 SUB SWAP1 LOG1 PUSH1 0x12 SLOAD PUSH1 0x3 PUSH1 0x0 PUSH1 0xF DUP6 DUP2 SLOAD DUP2 LT PUSH2 0x1082 JUMPI PUSH2 0x1082 PUSH2 0x2F51 JUMP JUMPDEST PUSH1 0x0 SWAP2 DUP3 MSTORE PUSH1 0x20 DUP1 DUP4 KECCAK256 SWAP1 SWAP2 ADD SLOAD PUSH1 0x1 PUSH1 0x1 PUSH1 0xA0 SHL SUB AND DUP4 MSTORE DUP3 ADD SWAP3 SWAP1 SWAP3 MSTORE PUSH1 0x40 ADD DUP2 KECCAK256 DUP1 SLOAD SWAP1 SWAP2 SWAP1 PUSH2 0x10B6 SWAP1 DUP5 SWAP1 PUSH2 0x2F3A JUMP JUMPDEST SWAP1 SWAP2 SSTORE POP POP PUSH1 0x12 SLOAD PUSH1 0xA DUP1 SLOAD PUSH1 0x0 SWAP1 PUSH2 0x10D0 SWAP1 DUP5 SWAP1 PUSH2 0x2891 JUMP JUMPDEST SWAP1 SWAP2 SSTORE POP PUSH2 0x114A SWAP2 POP POP JUMP JUMPDEST PUSH1 0x12 SLOAD PUSH1 0x3 PUSH1 0x0 PUSH1 0xF DUP5 DUP2 SLOAD DUP2 LT PUSH2 0x10F6 JUMPI PUSH2 0x10F6 PUSH2 0x2F51 JUMP JUMPDEST PUSH1 0x0 SWAP2 DUP3 MSTORE PUSH1 0x20 DUP1 DUP4 KECCAK256 SWAP1 SWAP2 ADD SLOAD PUSH1 0x1 PUSH1 0x1 PUSH1 0xA0 SHL SUB AND DUP4 MSTORE DUP3 ADD SWAP3 SWAP1 SWAP3 MSTORE PUSH1 0x40 ADD DUP2 KECCAK256 DUP1 SLOAD SWAP1 SWAP2 SWAP1 PUSH2 0x112A SWAP1 DUP5 SWAP1 PUSH2 0x2F3A JUMP JUMPDEST SWAP1 SWAP2 SSTORE POP POP PUSH1 0x12 SLOAD PUSH1 0xA DUP1 SLOAD PUSH1 0x0 SWAP1 PUSH2 0x1144 SWAP1 DUP5 SWAP1 PUSH2 0x2891 JUMP JUMPDEST SWAP1 SWAP2 SSTORE POP POP JUMPDEST DUP1 PUSH2 0x1154 DUP2 PUSH2 0x3078 JUMP JUMPDEST SWAP2 POP POP PUSH2 0xECA JUMP JUMPDEST POP JUMP JUMPDEST PUSH1 0x0 PUSH1 0xC PUSH2 0x116E PUSH1 0x1 DUP15 PUSH2 0x2F3A JUMP JUMPDEST DUP2 SLOAD DUP2 LT PUSH2 0x117E JUMPI PUSH2 0x117E PUSH2 0x2F51 JUMP JUMPDEST PUSH1 0x0 SWAP2 DUP3 MSTORE PUSH1 0x20 SWAP2 DUP3 SWAP1 KECCAK256 PUSH1 0x1 PUSH1 0xB SWAP1 SWAP3 MUL ADD SWAP1 DUP2 ADD DUP14 SWAP1 SSTORE PUSH1 0x2 DUP2 ADD DUP13 SWAP1 SSTORE PUSH1 0x3 DUP2 ADD DUP12 SWAP1 SSTORE DUP10 MLOAD SWAP1 SWAP3 POP PUSH2 0x11BC SWAP2 PUSH1 0x4 DUP5 ADD SWAP2 SWAP1 DUP12 ADD SWAP1 PUSH2 0x27B2 JUMP JUMPDEST POP DUP7 MLOAD PUSH2 0x11D2 SWAP1 PUSH1 0x5 DUP4 ADD SWAP1 PUSH1 0x20 DUP11 ADD SWAP1 PUSH2 0x27B2 JUMP JUMPDEST POP DUP6 MLOAD PUSH2 0x11E8 SWAP1 PUSH1 0x6 DUP4 ADD SWAP1 PUSH1 0x20 DUP10 ADD SWAP1 PUSH2 0x27B2 JUMP JUMPDEST POP DUP5 MLOAD PUSH2 0x11FE SWAP1 PUSH1 0x7 DUP4 ADD SWAP1 PUSH1 0x20 DUP9 ADD SWAP1 PUSH2 0x27B2 JUMP JUMPDEST POP DUP4 MLOAD PUSH2 0x1214 SWAP1 PUSH1 0x8 DUP4 ADD SWAP1 PUSH1 0x20 DUP8 ADD SWAP1 PUSH2 0x27B2 JUMP JUMPDEST POP DUP3 MLOAD PUSH2 0x122A SWAP1 PUSH1 0x9 DUP4 ADD SWAP1 PUSH1 0x20 DUP7 ADD SWAP1 PUSH2 0x27B2 JUMP JUMPDEST POP DUP2 MLOAD PUSH2 0x1240 SWAP1 PUSH1 0xA DUP4 ADD SWAP1 PUSH1 0x20 DUP6 ADD SWAP1 PUSH2 0x27B2 JUMP JUMPDEST POP POP POP POP POP POP POP POP POP POP POP POP POP JUMP JUMPDEST PUSH1 0x0 DUP2 DUP2 MSTORE PUSH1 0x2 PUSH1 0x20 SWAP1 DUP2 MSTORE PUSH1 0x40 DUP1 DUP4 KECCAK256 SLOAD PUSH1 0x1 PUSH1 0x1 PUSH1 0xA0 SHL SUB AND DUP1 DUP5 MSTORE SWAP2 DUP4 SWAP1 MSTORE DUP3 KECCAK256 SLOAD PUSH1 0x60 SWAP3 DUP4 SWAP3 SWAP1 SWAP2 PUSH1 0xD PUSH2 0x1288 PUSH1 0x1 DUP4 PUSH2 0x2F3A JUMP JUMPDEST DUP2 SLOAD DUP2 LT PUSH2 0x1298 JUMPI PUSH2 0x1298 PUSH2 0x2F51 JUMP JUMPDEST SWAP1 PUSH1 0x0 MSTORE PUSH1 0x20 PUSH1 0x0 KECCAK256 SWAP1 PUSH1 0x7 MUL ADD PUSH1 0x1 ADD PUSH1 0xD PUSH1 0x1 DUP4 PUSH2 0x12B8 SWAP2 SWAP1 PUSH2 0x2F3A JUMP JUMPDEST DUP2 SLOAD DUP2 LT PUSH2 0x12C8 JUMPI PUSH2 0x12C8 PUSH2 0x2F51 JUMP JUMPDEST SWAP1 PUSH1 0x0 MSTORE PUSH1 0x20 PUSH1 0x0 KECCAK256 SWAP1 PUSH1 0x7 MUL ADD PUSH1 0x2 ADD DUP4 DUP3 DUP1 SLOAD PUSH2 0x12E6 SWAP1 PUSH2 0x2ED4 JUMP JUMPDEST DUP1 PUSH1 0x1F ADD PUSH1 0x20 DUP1 SWAP2 DIV MUL PUSH1 0x20 ADD PUSH1 0x40 MLOAD SWAP1 DUP2 ADD PUSH1 0x40 MSTORE DUP1 SWAP3 SWAP2 SWAP1 DUP2 DUP2 MSTORE PUSH1 0x20 ADD DUP3 DUP1 SLOAD PUSH2 0x1312 SWAP1 PUSH2 0x2ED4 JUMP JUMPDEST DUP1 ISZERO PUSH2 0x135F JUMPI DUP1 PUSH1 0x1F LT PUSH2 0x1334 JUMPI PUSH2 0x100 DUP1 DUP4 SLOAD DIV MUL DUP4 MSTORE SWAP2 PUSH1 0x20 ADD SWAP2 PUSH2 0x135F JUMP JUMPDEST DUP3 ADD SWAP2 SWAP1 PUSH1 0x0 MSTORE PUSH1 0x20 PUSH1 0x0 KECCAK256 SWAP1 JUMPDEST DUP2 SLOAD DUP2 MSTORE SWAP1 PUSH1 0x1 ADD SWAP1 PUSH1 0x20 ADD DUP1 DUP4 GT PUSH2 0x1342 JUMPI DUP3 SWAP1 SUB PUSH1 0x1F AND DUP3 ADD SWAP2 JUMPDEST POP POP POP POP POP SWAP3 POP DUP2 DUP1 SLOAD PUSH2 0x1372 SWAP1 PUSH2 0x2ED4 JUMP JUMPDEST DUP1 PUSH1 0x1F ADD PUSH1 0x20 DUP1 SWAP2 DIV MUL PUSH1 0x20 ADD PUSH1 0x40 MLOAD SWAP1 DUP2 ADD PUSH1 0x40 MSTORE DUP1 SWAP3 SWAP2 SWAP1 DUP2 DUP2 MSTORE PUSH1 0x20 ADD DUP3 DUP1 SLOAD PUSH2 0x139E SWAP1 PUSH2 0x2ED4 JUMP JUMPDEST DUP1 ISZERO PUSH2 0x13EB JUMPI DUP1 PUSH1 0x1F LT PUSH2 0x13C0 JUMPI PUSH2 0x100 DUP1 DUP4 SLOAD DIV MUL DUP4 MSTORE SWAP2 PUSH1 0x20 ADD SWAP2 PUSH2 0x13EB JUMP JUMPDEST DUP3 ADD SWAP2 SWAP1 PUSH1 0x0 MSTORE PUSH1 0x20 PUSH1 0x0 KECCAK256 SWAP1 JUMPDEST DUP2 SLOAD DUP2 MSTORE SWAP1 PUSH1 0x1 ADD SWAP1 PUSH1 0x20 ADD DUP1 DUP4 GT PUSH2 0x13CE JUMPI DUP3 SWAP1 SUB PUSH1 0x1F AND DUP3 ADD SWAP2 JUMPDEST POP POP POP POP POP SWAP2 POP SWAP5 POP SWAP5 POP SWAP5 POP POP POP SWAP2 SWAP4 SWAP1 SWAP3 POP JUMP JUMPDEST PUSH1 0xF DUP2 DUP2 SLOAD DUP2 LT PUSH2 0xAA1 JUMPI PUSH1 0x0 DUP1 REVERT JUMPDEST PUSH1 0xB SLOAD PUSH1 0x0 SWAP1 PUSH1 0x1 PUSH1 0x1 PUSH1 0xA0 SHL SUB AND CALLER EQ PUSH2 0x143E JUMPI PUSH1 0x40 MLOAD PUSH3 0x461BCD PUSH1 0xE5 SHL DUP2 MSTORE PUSH1 0x4 ADD PUSH2 0x239 SWAP1 PUSH2 0x2F0F JUMP JUMPDEST POP SELFBALANCE SWAP1 JUMP JUMPDEST CALLER PUSH1 0x0 SWAP1 DUP2 MSTORE PUSH1 0x20 DUP2 SWAP1 MSTORE PUSH1 0x40 SWAP1 KECCAK256 SLOAD PUSH2 0x146F JUMPI PUSH1 0x40 MLOAD PUSH3 0x461BCD PUSH1 0xE5 SHL DUP2 MSTORE PUSH1 0x4 ADD PUSH2 0x239 SWAP1 PUSH2 0x284B JUMP JUMPDEST CALLER PUSH1 0x0 SWAP1 DUP2 MSTORE PUSH1 0x1 PUSH1 0x20 MSTORE PUSH1 0x40 SWAP1 KECCAK256 SLOAD PUSH2 0x14F1 JUMPI PUSH1 0x40 MLOAD PUSH3 0x461BCD PUSH1 0xE5 SHL DUP2 MSTORE PUSH1 0x20 PUSH1 0x4 DUP3 ADD MSTORE PUSH1 0x3E PUSH1 0x24 DUP3 ADD MSTORE PUSH32 0x506C6561736520726567697374657220612070726F7065727479206265666F72 PUSH1 0x44 DUP3 ADD MSTORE PUSH32 0x65207375627363726962696E6720746F207468697320736572766963652E0000 PUSH1 0x64 DUP3 ADD MSTORE PUSH1 0x84 ADD PUSH2 0x239 JUMP JUMPDEST PUSH1 0xF DUP1 SLOAD PUSH1 0x1 DUP2 ADD SWAP1 SWAP2 SSTORE PUSH32 0x8D1108E10BCB7C27DDDFC02ED9D693A074039D026CF4EA4240B40F7D581AC802 ADD DUP1 SLOAD PUSH1 0x1 PUSH1 0x1 PUSH1 0xA0 SHL SUB NOT AND CALLER SWAP1 DUP2 OR SWAP1 SWAP2 SSTORE PUSH1 0x11 DUP1 SLOAD PUSH1 0x0 SWAP3 DUP4 MSTORE PUSH1 0x10 PUSH1 0x20 MSTORE PUSH1 0x40 DUP4 KECCAK256 DUP2 SWAP1 SSTORE SWAP2 PUSH2 0x1550 DUP4 PUSH2 0x3078 JUMP JUMPDEST SWAP1 SWAP2 SSTORE POP POP PUSH1 0x40 MLOAD CALLER DUP2 MSTORE PUSH32 0xE43E86FAAAC76243CB61B453AF8C2C147217AFB896A2B336DD6ECA7E0203E247 SWAP1 PUSH1 0x20 ADD PUSH1 0x40 MLOAD DUP1 SWAP2 SUB SWAP1 LOG1 JUMP JUMPDEST PUSH1 0x0 PUSH1 0x1 PUSH1 0x11 SLOAD PUSH2 0x159B SWAP2 SWAP1 PUSH2 0x2F3A JUMP JUMPDEST SWAP1 POP SWAP1 JUMP JUMPDEST PUSH1 0x4 PUSH1 0x20 MSTORE DUP2 PUSH1 0x0 MSTORE PUSH1 0x40 PUSH1 0x0 KECCAK256 DUP2 DUP2 SLOAD DUP2 LT PUSH2 0x15BC JUMPI PUSH1 0x0 DUP1 REVERT JUMPDEST SWAP1 PUSH1 0x0 MSTORE PUSH1 0x20 PUSH1 0x0 KECCAK256 ADD PUSH1 0x0 SWAP2 POP SWAP2 POP POP SLOAD DUP2 JUMP JUMPDEST PUSH1 0xB SLOAD PUSH1 0x1 PUSH1 0x1 PUSH1 0xA0 SHL SUB AND CALLER EQ PUSH2 0x15FB JUMPI PUSH1 0x40 MLOAD PUSH3 0x461BCD PUSH1 0xE5 SHL DUP2 MSTORE PUSH1 0x4 ADD PUSH2 0x239 SWAP1 PUSH2 0x2F0F JUMP JUMPDEST PUSH1 0xB SLOAD PUSH1 0x1 PUSH1 0x1 PUSH1 0xA0 SHL SUB AND PUSH1 0xA SELFBALANCE GT PUSH2 0x1614 JUMPI PUSH1 0x0 DUP1 REVERT JUMPDEST PUSH1 0x0 PUSH1 0xA DUP1 SLOAD PUSH2 0x1624 SWAP2 SWAP1 PUSH2 0x2F3A JUMP JUMPDEST PUSH1 0xA DUP1 SSTORE PUSH1 0x40 MLOAD SWAP1 SWAP2 POP PUSH1 0x0 SWAP1 PUSH1 0x1 PUSH1 0x1 PUSH1 0xA0 SHL SUB DUP5 AND SWAP1 DUP4 SWAP1 DUP4 DUP2 DUP2 DUP2 DUP6 DUP8 GAS CALL SWAP3 POP POP POP RETURNDATASIZE DUP1 PUSH1 0x0 DUP2 EQ PUSH2 0x1676 JUMPI PUSH1 0x40 MLOAD SWAP2 POP PUSH1 0x1F NOT PUSH1 0x3F RETURNDATASIZE ADD AND DUP3 ADD PUSH1 0x40 MSTORE RETURNDATASIZE DUP3 MSTORE RETURNDATASIZE PUSH1 0x0 PUSH1 0x20 DUP5 ADD RETURNDATACOPY PUSH2 0x167B JUMP JUMPDEST PUSH1 0x60 SWAP2 POP JUMPDEST POP POP SWAP1 POP DUP1 PUSH2 0x16BF JUMPI PUSH1 0x40 MLOAD PUSH3 0x461BCD PUSH1 0xE5 SHL DUP2 MSTORE PUSH1 0x20 PUSH1 0x4 DUP3 ADD MSTORE PUSH1 0x10 PUSH1 0x24 DUP3 ADD MSTORE PUSH16 0x2A3930B739B332B9103330B4B632B217 PUSH1 0x81 SHL PUSH1 0x44 DUP3 ADD MSTORE PUSH1 0x64 ADD PUSH2 0x239 JUMP JUMPDEST POP POP POP JUMP JUMPDEST PUSH1 0x0 DUP3 DUP2 MSTORE PUSH1 0x2 PUSH1 0x20 MSTORE PUSH1 0x40 SWAP1 KECCAK256 SLOAD PUSH1 0x1 PUSH1 0x1 PUSH1 0xA0 SHL SUB AND CALLER EQ PUSH2 0x1769 JUMPI PUSH1 0x40 MLOAD PUSH3 0x461BCD PUSH1 0xE5 SHL DUP2 MSTORE PUSH1 0x20 PUSH1 0x4 DUP3 ADD MSTORE PUSH1 0x50 PUSH1 0x24 DUP3 ADD MSTORE PUSH32 0x4F6E6C79204F776E6572732063616E207472616E736665722070726F70657274 PUSH1 0x44 DUP3 ADD MSTORE PUSH32 0x792E20576520646F206E6F74206861766520796F75206173206F776E6572206F PUSH1 0x64 DUP3 ADD MSTORE PUSH16 0x33103A3434B990383937B832B93A3C97 PUSH1 0x81 SHL PUSH1 0x84 DUP3 ADD MSTORE PUSH1 0xA4 ADD PUSH2 0x239 JUMP JUMPDEST PUSH1 0x9 SLOAD PUSH1 0x1 PUSH1 0x1 PUSH1 0xA0 SHL SUB DUP3 AND PUSH1 0x0 SWAP1 DUP2 MSTORE PUSH1 0x3 PUSH1 0x20 MSTORE PUSH1 0x40 SWAP1 KECCAK256 SLOAD LT ISZERO PUSH2 0x17F9 JUMPI PUSH1 0x40 MLOAD PUSH3 0x461BCD PUSH1 0xE5 SHL DUP2 MSTORE PUSH1 0x20 PUSH1 0x4 DUP3 ADD MSTORE PUSH1 0x37 PUSH1 0x24 DUP3 ADD MSTORE PUSH32 0x42616C616E6365206F662061206E6577206F776E657220697320746F6F206C6F PUSH1 0x44 DUP3 ADD MSTORE PUSH32 0x7720746F207472616E736665722070726F70657274792E000000000000000000 PUSH1 0x64 DUP3 ADD MSTORE PUSH1 0x84 ADD PUSH2 0x239 JUMP JUMPDEST PUSH1 0x1 PUSH1 0x1 PUSH1 0xA0 SHL SUB DUP2 AND PUSH1 0x0 SWAP1 DUP2 MSTORE PUSH1 0x20 DUP2 SWAP1 MSTORE PUSH1 0x40 SWAP1 KECCAK256 SLOAD PUSH2 0x185E JUMPI PUSH1 0x40 MLOAD PUSH3 0x461BCD PUSH1 0xE5 SHL DUP2 MSTORE PUSH1 0x20 PUSH1 0x4 DUP3 ADD MSTORE PUSH1 0x1B PUSH1 0x24 DUP3 ADD MSTORE PUSH32 0x4E6577206F776E6572206973206E6F7420726567697374657265640000000000 PUSH1 0x44 DUP3 ADD MSTORE PUSH1 0x64 ADD PUSH2 0x239 JUMP JUMPDEST PUSH1 0x0 DUP3 DUP2 MSTORE PUSH1 0x2 PUSH1 0x20 SWAP1 DUP2 MSTORE PUSH1 0x40 DUP1 DUP4 KECCAK256 DUP1 SLOAD PUSH1 0x1 PUSH1 0x1 PUSH1 0xA0 SHL SUB NOT AND PUSH1 0x1 PUSH1 0x1 PUSH1 0xA0 SHL SUB DUP7 AND OR SWAP1 SSTORE CALLER DUP4 MSTORE PUSH1 0x4 SWAP1 SWAP2 MSTORE SWAP1 KECCAK256 DUP1 SLOAD PUSH2 0x18A0 SWAP1 PUSH1 0x1 SWAP1 PUSH2 0x2F3A JUMP JUMPDEST DUP2 SLOAD DUP2 LT PUSH2 0x18B0 JUMPI PUSH2 0x18B0 PUSH2 0x2F51 JUMP JUMPDEST PUSH1 0x0 SWAP2 DUP3 MSTORE PUSH1 0x20 DUP1 DUP4 KECCAK256 SWAP1 SWAP2 ADD SLOAD CALLER DUP4 MSTORE PUSH1 0x4 DUP3 MSTORE PUSH1 0x40 DUP1 DUP5 KECCAK256 PUSH1 0x7 SLOAD DUP6 MSTORE PUSH1 0x5 SWAP1 SWAP4 MSTORE SWAP1 SWAP3 KECCAK256 SLOAD DUP2 SLOAD DUP2 LT PUSH2 0x18E8 JUMPI PUSH2 0x18E8 PUSH2 0x2F51 JUMP JUMPDEST PUSH1 0x0 SWAP2 DUP3 MSTORE PUSH1 0x20 DUP1 DUP4 KECCAK256 SWAP1 SWAP2 ADD SWAP3 SWAP1 SWAP3 SSTORE CALLER DUP2 MSTORE PUSH1 0x4 SWAP1 SWAP2 MSTORE PUSH1 0x40 SWAP1 KECCAK256 DUP1 SLOAD DUP1 PUSH2 0x1914 JUMPI PUSH2 0x1914 PUSH2 0x2F67 JUMP JUMPDEST PUSH1 0x0 DUP3 DUP2 MSTORE PUSH1 0x20 DUP1 DUP3 KECCAK256 DUP4 ADD PUSH1 0x0 NOT SWAP1 DUP2 ADD DUP4 SWAP1 SSTORE SWAP1 SWAP3 ADD SWAP1 SWAP3 SSTORE PUSH1 0x1 PUSH1 0x1 PUSH1 0xA0 SHL SUB DUP4 AND DUP1 DUP4 MSTORE PUSH1 0x4 DUP3 MSTORE PUSH1 0x40 DUP1 DUP5 KECCAK256 DUP1 SLOAD PUSH1 0x1 DUP2 DUP2 ADD DUP4 SSTORE SWAP2 DUP7 MSTORE DUP5 DUP7 KECCAK256 ADD DUP8 SWAP1 SSTORE SWAP2 DUP5 MSTORE SWAP2 MSTORE DUP2 KECCAK256 DUP1 SLOAD SWAP2 PUSH2 0x196B DUP4 PUSH2 0x3078 JUMP JUMPDEST SWAP1 SWAP2 SSTORE POP POP PUSH1 0x1 PUSH1 0x1 PUSH1 0xA0 SHL SUB DUP2 AND PUSH1 0x0 SWAP1 DUP2 MSTORE PUSH1 0x1 PUSH1 0x20 DUP2 DUP2 MSTORE PUSH1 0x40 DUP1 DUP5 KECCAK256 SLOAD PUSH1 0x7 SLOAD DUP6 MSTORE PUSH1 0x5 DUP4 MSTORE DUP2 DUP6 KECCAK256 SSTORE CALLER DUP5 MSTORE SWAP2 SWAP1 MSTORE DUP2 KECCAK256 DUP1 SLOAD SWAP2 PUSH2 0x19AD DUP4 PUSH2 0x2F7D JUMP JUMPDEST SWAP1 SWAP2 SSTORE POP POP PUSH1 0x40 DUP1 MLOAD PUSH1 0x1 PUSH1 0x1 PUSH1 0xA0 SHL SUB DUP4 AND DUP2 MSTORE PUSH1 0x20 DUP2 ADD DUP5 SWAP1 MSTORE PUSH32 0xBF0996050D830A4094913360F3ACA6A3D35DC19FBDA52E1F983F5E1E3C5F8F2D SWAP2 ADD PUSH1 0x40 MLOAD DUP1 SWAP2 SUB SWAP1 LOG1 PUSH1 0x9 SLOAD PUSH1 0x1 PUSH1 0x1 PUSH1 0xA0 SHL SUB DUP3 AND PUSH1 0x0 SWAP1 DUP2 MSTORE PUSH1 0x3 PUSH1 0x20 MSTORE PUSH1 0x40 DUP2 KECCAK256 DUP1 SLOAD SWAP1 SWAP2 SWAP1 PUSH2 0x1A1F SWAP1 DUP5 SWAP1 PUSH2 0x2F3A JUMP JUMPDEST SWAP1 SWAP2 SSTORE POP POP PUSH1 0x9 SLOAD PUSH1 0xA DUP1 SLOAD PUSH1 0x0 SWAP1 PUSH2 0x1A39 SWAP1 DUP5 SWAP1 PUSH2 0x2891 JUMP JUMPDEST SWAP1 SWAP2 SSTORE POP POP POP POP JUMP JUMPDEST PUSH1 0xB SLOAD PUSH1 0x60 SWAP1 PUSH1 0x1 PUSH1 0x1 PUSH1 0xA0 SHL SUB AND CALLER EQ PUSH2 0x1A6F JUMPI PUSH1 0x40 MLOAD PUSH3 0x461BCD PUSH1 0xE5 SHL DUP2 MSTORE PUSH1 0x4 ADD PUSH2 0x239 SWAP1 PUSH2 0x2F0F JUMP JUMPDEST PUSH1 0x1 PUSH1 0x1 PUSH1 0xA0 SHL SUB DUP3 AND PUSH1 0x0 SWAP1 DUP2 MSTORE PUSH1 0x4 PUSH1 0x20 SWAP1 DUP2 MSTORE PUSH1 0x40 SWAP2 DUP3 SWAP1 KECCAK256 DUP1 SLOAD DUP4 MLOAD DUP2 DUP5 MUL DUP2 ADD DUP5 ADD SWAP1 SWAP5 MSTORE DUP1 DUP5 MSTORE SWAP1 SWAP2 DUP4 ADD DUP3 DUP3 DUP1 ISZERO PUSH2 0x1ACD JUMPI PUSH1 0x20 MUL DUP3 ADD SWAP2 SWAP1 PUSH1 0x0 MSTORE PUSH1 0x20 PUSH1 0x0 KECCAK256 SWAP1 JUMPDEST DUP2 SLOAD DUP2 MSTORE PUSH1 0x20 ADD SWAP1 PUSH1 0x1 ADD SWAP1 DUP1 DUP4 GT PUSH2 0x1AB9 JUMPI JUMPDEST POP POP POP POP POP SWAP1 POP JUMPDEST SWAP2 SWAP1 POP JUMP JUMPDEST CALLER PUSH1 0x0 SWAP1 DUP2 MSTORE PUSH1 0x20 DUP2 SWAP1 MSTORE PUSH1 0x40 SWAP1 KECCAK256 SLOAD ISZERO PUSH2 0x1B37 JUMPI PUSH1 0x40 MLOAD PUSH3 0x461BCD PUSH1 0xE5 SHL DUP2 MSTORE PUSH1 0x20 PUSH1 0x4 DUP3 ADD MSTORE PUSH1 0x1E PUSH1 0x24 DUP3 ADD MSTORE PUSH32 0x4164647265737320697320616C726561647920726567697374657265642E0000 PUSH1 0x44 DUP3 ADD MSTORE PUSH1 0x64 ADD PUSH2 0x239 JUMP JUMPDEST PUSH1 0x40 DUP1 MLOAD PUSH1 0xE0 DUP2 ADD DUP3 MSTORE PUSH1 0x6 SLOAD DUP2 MSTORE PUSH1 0x20 DUP1 DUP3 ADD DUP10 DUP2 MSTORE SWAP3 DUP3 ADD DUP9 SWAP1 MSTORE PUSH1 0x60 DUP3 ADD DUP8 SWAP1 MSTORE PUSH1 0x80 DUP3 ADD DUP7 SWAP1 MSTORE PUSH1 0xA0 DUP3 ADD DUP6 SWAP1 MSTORE PUSH1 0xC0 DUP3 ADD DUP5 SWAP1 MSTORE PUSH1 0xD DUP1 SLOAD PUSH1 0x1 DUP2 ADD DUP3 SSTORE PUSH1 0x0 SWAP2 SWAP1 SWAP2 MSTORE DUP3 MLOAD PUSH1 0x7 SWAP1 SWAP2 MUL PUSH32 0xD7B6990105719101DABEB77144F2A3385C8033ACD3AF97E9423A695E81AD1EB5 DUP2 ADD SWAP2 DUP3 SSTORE SWAP4 MLOAD DUP1 MLOAD SWAP4 SWAP5 SWAP2 SWAP4 PUSH2 0x1BE8 SWAP4 PUSH32 0xD7B6990105719101DABEB77144F2A3385C8033ACD3AF97E9423A695E81AD1EB6 SWAP1 SWAP4 ADD SWAP3 SWAP2 SWAP1 SWAP2 ADD SWAP1 PUSH2 0x27B2 JUMP JUMPDEST POP PUSH1 0x40 DUP3 ADD MLOAD DUP1 MLOAD PUSH2 0x1C04 SWAP2 PUSH1 0x2 DUP5 ADD SWAP2 PUSH1 0x20 SWAP1 SWAP2 ADD SWAP1 PUSH2 0x27B2 JUMP JUMPDEST POP PUSH1 0x60 DUP3 ADD MLOAD DUP1 MLOAD PUSH2 0x1C20 SWAP2 PUSH1 0x3 DUP5 ADD SWAP2 PUSH1 0x20 SWAP1 SWAP2 ADD SWAP1 PUSH2 0x27B2 JUMP JUMPDEST POP PUSH1 0x80 DUP3 ADD MLOAD DUP1 MLOAD PUSH2 0x1C3C SWAP2 PUSH1 0x4 DUP5 ADD SWAP2 PUSH1 0x20 SWAP1 SWAP2 ADD SWAP1 PUSH2 0x27B2 JUMP JUMPDEST POP PUSH1 0xA0 DUP3 ADD MLOAD DUP1 MLOAD PUSH2 0x1C58 SWAP2 PUSH1 0x5 DUP5 ADD SWAP2 PUSH1 0x20 SWAP1 SWAP2 ADD SWAP1 PUSH2 0x27B2 JUMP JUMPDEST POP PUSH1 0xC0 DUP3 ADD MLOAD DUP1 MLOAD PUSH2 0x1C74 SWAP2 PUSH1 0x6 DUP5 ADD SWAP2 PUSH1 0x20 SWAP1 SWAP2 ADD SWAP1 PUSH2 0x27B2 JUMP JUMPDEST POP POP PUSH1 0xE DUP1 SLOAD PUSH1 0x1 DUP2 ADD DUP3 SSTORE PUSH1 0x0 SWAP2 SWAP1 SWAP2 MSTORE PUSH32 0xBB7B4A454DC3493923482F07822329ED19E8244EFF582CC204F8554C3620C3FD ADD DUP1 SLOAD PUSH1 0x1 PUSH1 0x1 PUSH1 0xA0 SHL SUB NOT AND CALLER SWAP1 DUP2 OR SWAP1 SWAP2 SSTORE PUSH1 0x6 SLOAD PUSH1 0x40 MLOAD PUSH32 0xA77DAB45C413501C01E68E486BA7B3713C4FBB1D6140CD3F949CD709CEE6F113 SWAP4 POP PUSH2 0x1CFB SWAP3 SWAP2 SWAP1 DUP11 SWAP1 DUP11 SWAP1 DUP11 SWAP1 DUP11 SWAP1 DUP11 SWAP1 DUP11 SWAP1 PUSH2 0x3093 JUMP JUMPDEST PUSH1 0x40 MLOAD DUP1 SWAP2 SUB SWAP1 LOG1 PUSH1 0x6 DUP1 SLOAD CALLER PUSH1 0x0 SWAP1 DUP2 MSTORE PUSH1 0x20 DUP2 SWAP1 MSTORE PUSH1 0x40 DUP2 KECCAK256 DUP3 SWAP1 SSTORE SWAP1 SWAP2 SWAP1 PUSH2 0x1D25 DUP4 PUSH2 0x3078 JUMP JUMPDEST SWAP1 SWAP2 SSTORE POP POP CALLER PUSH1 0x0 SWAP1 DUP2 MSTORE PUSH1 0x3 PUSH1 0x20 MSTORE PUSH1 0x40 DUP2 KECCAK256 SSTORE POP POP POP POP POP POP JUMP JUMPDEST PUSH1 0xB SLOAD PUSH1 0x1 PUSH1 0x1 PUSH1 0xA0 SHL SUB AND CALLER EQ PUSH2 0x1D6C JUMPI PUSH1 0x40 MLOAD PUSH3 0x461BCD PUSH1 0xE5 SHL DUP2 MSTORE PUSH1 0x4 ADD PUSH2 0x239 SWAP1 PUSH2 0x2F0F JUMP JUMPDEST PUSH1 0x8 SLOAD PUSH1 0x1 PUSH1 0x1 PUSH1 0xA0 SHL SUB DUP13 AND PUSH1 0x0 SWAP1 DUP2 MSTORE PUSH1 0x3 PUSH1 0x20 MSTORE PUSH1 0x40 SWAP1 KECCAK256 SLOAD LT ISZERO PUSH2 0x1E14 JUMPI PUSH1 0x40 MLOAD PUSH3 0x461BCD PUSH1 0xE5 SHL DUP2 MSTORE PUSH1 0x20 PUSH1 0x4 DUP3 ADD MSTORE PUSH1 0x4F PUSH1 0x24 DUP3 ADD MSTORE PUSH32 0x42616C616E636520746F6F206C6F7720746F2072656769737465722070726F70 PUSH1 0x44 DUP3 ADD MSTORE PUSH32 0x657274792E20506C6561736520696E63726561736520796F75722062616C616E PUSH1 0x64 DUP3 ADD MSTORE PUSH15 0x31B29013103A393C9030B3B0B4B717 PUSH1 0x89 SHL PUSH1 0x84 DUP3 ADD MSTORE PUSH1 0xA4 ADD PUSH2 0x239 JUMP JUMPDEST PUSH1 0x40 DUP1 MLOAD PUSH2 0x160 DUP2 ADD DUP3 MSTORE PUSH1 0x7 SLOAD DUP2 MSTORE PUSH1 0x20 DUP1 DUP3 ADD DUP14 DUP2 MSTORE SWAP3 DUP3 ADD DUP13 DUP2 MSTORE PUSH1 0x60 DUP4 ADD DUP13 DUP2 MSTORE PUSH1 0x80 DUP5 ADD DUP13 DUP2 MSTORE PUSH1 0xA0 DUP6 ADD DUP13 SWAP1 MSTORE PUSH1 0xC0 DUP6 ADD DUP12 SWAP1 MSTORE PUSH1 0xE0 DUP6 ADD DUP11 SWAP1 MSTORE PUSH2 0x100 DUP6 ADD DUP10 SWAP1 MSTORE PUSH2 0x120 DUP6 ADD DUP9 SWAP1 MSTORE PUSH2 0x140 DUP6 ADD DUP8 SWAP1 MSTORE PUSH1 0xC DUP1 SLOAD PUSH1 0x1 DUP2 ADD DUP3 SSTORE PUSH1 0x0 SWAP2 SWAP1 SWAP2 MSTORE DUP6 MLOAD PUSH1 0xB SWAP1 SWAP2 MUL PUSH32 0xDF6966C971051C3D54EC59162606531493A51404A002842F56009D7E5CF4A8C7 DUP2 ADD SWAP2 DUP3 SSTORE SWAP7 MLOAD PUSH32 0xDF6966C971051C3D54EC59162606531493A51404A002842F56009D7E5CF4A8C8 DUP9 ADD SSTORE SWAP3 MLOAD PUSH32 0xDF6966C971051C3D54EC59162606531493A51404A002842F56009D7E5CF4A8C9 DUP8 ADD SSTORE SWAP1 MLOAD PUSH32 0xDF6966C971051C3D54EC59162606531493A51404A002842F56009D7E5CF4A8CA DUP7 ADD SSTORE MLOAD DUP1 MLOAD SWAP4 SWAP5 SWAP2 SWAP4 PUSH2 0x1F56 SWAP4 PUSH32 0xDF6966C971051C3D54EC59162606531493A51404A002842F56009D7E5CF4A8CB SWAP1 SWAP4 ADD SWAP3 SWAP2 SWAP1 SWAP2 ADD SWAP1 PUSH2 0x27B2 JUMP JUMPDEST POP PUSH1 0xA0 DUP3 ADD MLOAD DUP1 MLOAD PUSH2 0x1F72 SWAP2 PUSH1 0x5 DUP5 ADD SWAP2 PUSH1 0x20 SWAP1 SWAP2 ADD SWAP1 PUSH2 0x27B2 JUMP JUMPDEST POP PUSH1 0xC0 DUP3 ADD MLOAD DUP1 MLOAD PUSH2 0x1F8E SWAP2 PUSH1 0x6 DUP5 ADD SWAP2 PUSH1 0x20 SWAP1 SWAP2 ADD SWAP1 PUSH2 0x27B2 JUMP JUMPDEST POP PUSH1 0xE0 DUP3 ADD MLOAD DUP1 MLOAD PUSH2 0x1FAA SWAP2 PUSH1 0x7 DUP5 ADD SWAP2 PUSH1 0x20 SWAP1 SWAP2 ADD SWAP1 PUSH2 0x27B2 JUMP JUMPDEST POP PUSH2 0x100 DUP3 ADD MLOAD DUP1 MLOAD PUSH2 0x1FC7 SWAP2 PUSH1 0x8 DUP5 ADD SWAP2 PUSH1 0x20 SWAP1 SWAP2 ADD SWAP1 PUSH2 0x27B2 JUMP JUMPDEST POP PUSH2 0x120 DUP3 ADD MLOAD DUP1 MLOAD PUSH2 0x1FE4 SWAP2 PUSH1 0x9 DUP5 ADD SWAP2 PUSH1 0x20 SWAP1 SWAP2 ADD SWAP1 PUSH2 0x27B2 JUMP JUMPDEST POP PUSH2 0x140 DUP3 ADD MLOAD DUP1 MLOAD PUSH2 0x2001 SWAP2 PUSH1 0xA DUP5 ADD SWAP2 PUSH1 0x20 SWAP1 SWAP2 ADD SWAP1 PUSH2 0x27B2 JUMP JUMPDEST POP POP POP PUSH32 0x7A320318F8DDFE7528CB7B0A1FDAF9466F7FD11A31F4D72ED4C96A07624589D9 PUSH1 0x7 SLOAD DUP12 DUP12 DUP12 DUP12 DUP12 DUP12 DUP12 DUP12 DUP12 DUP12 PUSH1 0x40 MLOAD PUSH2 0x2049 SWAP12 SWAP11 SWAP10 SWAP9 SWAP8 SWAP7 SWAP6 SWAP5 SWAP4 SWAP3 SWAP2 SWAP1 PUSH2 0x2E1B JUMP JUMPDEST PUSH1 0x40 MLOAD DUP1 SWAP2 SUB SWAP1 LOG1 DUP11 PUSH1 0x2 PUSH1 0x0 PUSH1 0x7 SLOAD DUP2 MSTORE PUSH1 0x20 ADD SWAP1 DUP2 MSTORE PUSH1 0x20 ADD PUSH1 0x0 KECCAK256 PUSH1 0x0 PUSH2 0x100 EXP DUP2 SLOAD DUP2 PUSH1 0x1 PUSH1 0x1 PUSH1 0xA0 SHL SUB MUL NOT AND SWAP1 DUP4 PUSH1 0x1 PUSH1 0x1 PUSH1 0xA0 SHL SUB AND MUL OR SWAP1 SSTORE POP PUSH1 0x1 PUSH1 0x0 DUP13 PUSH1 0x1 PUSH1 0x1 PUSH1 0xA0 SHL SUB AND PUSH1 0x1 PUSH1 0x1 PUSH1 0xA0 SHL SUB AND DUP2 MSTORE PUSH1 0x20 ADD SWAP1 DUP2 MSTORE PUSH1 0x20 ADD PUSH1 0x0 KECCAK256 PUSH1 0x0 DUP2 SLOAD DUP1 SWAP3 SWAP2 SWAP1 PUSH2 0x20C1 SWAP1 PUSH2 0x3078 JUMP JUMPDEST SWAP1 SWAP2 SSTORE POP POP PUSH1 0x1 PUSH1 0x1 PUSH1 0xA0 SHL SUB DUP12 AND PUSH1 0x0 DUP2 DUP2 MSTORE PUSH1 0x4 PUSH1 0x20 SWAP1 DUP2 MSTORE PUSH1 0x40 DUP1 DUP4 KECCAK256 PUSH1 0x7 DUP1 SLOAD DUP3 SLOAD PUSH1 0x1 DUP2 DUP2 ADD DUP6 SSTORE SWAP4 DUP8 MSTORE DUP6 DUP8 KECCAK256 ADD SSTORE SWAP5 DUP5 MSTORE DUP3 MSTORE DUP1 DUP4 KECCAK256 SLOAD DUP5 SLOAD DUP5 MSTORE PUSH1 0x5 SWAP1 SWAP3 MSTORE DUP3 KECCAK256 SSTORE DUP2 SLOAD SWAP2 SWAP1 PUSH2 0x2118 DUP4 PUSH2 0x3078 JUMP JUMPDEST SWAP1 SWAP2 SSTORE POP POP PUSH1 0x8 SLOAD PUSH1 0x1 PUSH1 0x1 PUSH1 0xA0 SHL SUB DUP13 AND PUSH1 0x0 SWAP1 DUP2 MSTORE PUSH1 0x3 PUSH1 0x20 MSTORE PUSH1 0x40 DUP2 KECCAK256 DUP1 SLOAD SWAP1 SWAP2 SWAP1 PUSH2 0x2148 SWAP1 DUP5 SWAP1 PUSH2 0x2F3A JUMP JUMPDEST SWAP1 SWAP2 SSTORE POP POP PUSH1 0x8 SLOAD PUSH1 0xA DUP1 SLOAD PUSH1 0x0 SWAP1 PUSH2 0x2162 SWAP1 DUP5 SWAP1 PUSH2 0x2891 JUMP JUMPDEST SWAP1 SWAP2 SSTORE POP POP POP POP POP POP POP POP POP POP POP POP POP JUMP JUMPDEST PUSH1 0xB SLOAD PUSH1 0x0 SWAP1 PUSH1 0x1 PUSH1 0x1 PUSH1 0xA0 SHL SUB AND CALLER EQ PUSH2 0x21A1 JUMPI PUSH1 0x40 MLOAD PUSH3 0x461BCD PUSH1 0xE5 SHL DUP2 MSTORE PUSH1 0x4 ADD PUSH2 0x239 SWAP1 PUSH2 0x2F0F JUMP JUMPDEST POP PUSH1 0xA SLOAD SWAP1 JUMP JUMPDEST PUSH1 0xB SLOAD PUSH1 0x1 PUSH1 0x1 PUSH1 0xA0 SHL SUB AND CALLER EQ PUSH2 0x21D2 JUMPI PUSH1 0x40 MLOAD PUSH3 0x461BCD PUSH1 0xE5 SHL DUP2 MSTORE PUSH1 0x4 ADD PUSH2 0x239 SWAP1 PUSH2 0x2F0F JUMP JUMPDEST PUSH1 0x8 SSTORE JUMP JUMPDEST PUSH1 0xB SLOAD PUSH1 0x1 PUSH1 0x1 PUSH1 0xA0 SHL SUB AND CALLER EQ PUSH2 0x2201 JUMPI PUSH1 0x40 MLOAD PUSH3 0x461BCD PUSH1 0xE5 SHL DUP2 MSTORE PUSH1 0x4 ADD PUSH2 0x239 SWAP1 PUSH2 0x2F0F JUMP JUMPDEST PUSH1 0x9 SSTORE JUMP JUMPDEST PUSH1 0xC DUP2 DUP2 SLOAD DUP2 LT PUSH2 0x2216 JUMPI PUSH1 0x0 DUP1 REVERT JUMPDEST SWAP1 PUSH1 0x0 MSTORE PUSH1 0x20 PUSH1 0x0 KECCAK256 SWAP1 PUSH1 0xB MUL ADD PUSH1 0x0 SWAP2 POP SWAP1 POP DUP1 PUSH1 0x0 ADD SLOAD SWAP1 DUP1 PUSH1 0x1 ADD SLOAD SWAP1 DUP1 PUSH1 0x2 ADD SLOAD SWAP1 DUP1 PUSH1 0x3 ADD SLOAD SWAP1 DUP1 PUSH1 0x4 ADD DUP1 SLOAD PUSH2 0x2251 SWAP1 PUSH2 0x2ED4 JUMP JUMPDEST DUP1 PUSH1 0x1F ADD PUSH1 0x20 DUP1 SWAP2 DIV MUL PUSH1 0x20 ADD PUSH1 0x40 MLOAD SWAP1 DUP2 ADD PUSH1 0x40 MSTORE DUP1 SWAP3 SWAP2 SWAP1 DUP2 DUP2 MSTORE PUSH1 0x20 ADD DUP3 DUP1 SLOAD PUSH2 0x227D SWAP1 PUSH2 0x2ED4 JUMP JUMPDEST DUP1 ISZERO PUSH2 0x22CA JUMPI DUP1 PUSH1 0x1F LT PUSH2 0x229F JUMPI PUSH2 0x100 DUP1 DUP4 SLOAD DIV MUL DUP4 MSTORE SWAP2 PUSH1 0x20 ADD SWAP2 PUSH2 0x22CA JUMP JUMPDEST DUP3 ADD SWAP2 SWAP1 PUSH1 0x0 MSTORE PUSH1 0x20 PUSH1 0x0 KECCAK256 SWAP1 JUMPDEST DUP2 SLOAD DUP2 MSTORE SWAP1 PUSH1 0x1 ADD SWAP1 PUSH1 0x20 ADD DUP1 DUP4 GT PUSH2 0x22AD JUMPI DUP3 SWAP1 SUB PUSH1 0x1F AND DUP3 ADD SWAP2 JUMPDEST POP POP POP POP POP SWAP1 DUP1 PUSH1 0x5 ADD DUP1 SLOAD PUSH2 0x22DF SWAP1 PUSH2 0x2ED4 JUMP JUMPDEST DUP1 PUSH1 0x1F ADD PUSH1 0x20 DUP1 SWAP2 DIV MUL PUSH1 0x20 ADD PUSH1 0x40 MLOAD SWAP1 DUP2 ADD PUSH1 0x40 MSTORE DUP1 SWAP3 SWAP2 SWAP1 DUP2 DUP2 MSTORE PUSH1 0x20 ADD DUP3 DUP1 SLOAD PUSH2 0x230B SWAP1 PUSH2 0x2ED4 JUMP JUMPDEST DUP1 ISZERO PUSH2 0x2358 JUMPI DUP1 PUSH1 0x1F LT PUSH2 0x232D JUMPI PUSH2 0x100 DUP1 DUP4 SLOAD DIV MUL DUP4 MSTORE SWAP2 PUSH1 0x20 ADD SWAP2 PUSH2 0x2358 JUMP JUMPDEST DUP3 ADD SWAP2 SWAP1 PUSH1 0x0 MSTORE PUSH1 0x20 PUSH1 0x0 KECCAK256 SWAP1 JUMPDEST DUP2 SLOAD DUP2 MSTORE SWAP1 PUSH1 0x1 ADD SWAP1 PUSH1 0x20 ADD DUP1 DUP4 GT PUSH2 0x233B JUMPI DUP3 SWAP1 SUB PUSH1 0x1F AND DUP3 ADD SWAP2 JUMPDEST POP POP POP POP POP SWAP1 DUP1 PUSH1 0x6 ADD DUP1 SLOAD PUSH2 0x236D SWAP1 PUSH2 0x2ED4 JUMP JUMPDEST DUP1 PUSH1 0x1F ADD PUSH1 0x20 DUP1 SWAP2 DIV MUL PUSH1 0x20 ADD PUSH1 0x40 MLOAD SWAP1 DUP2 ADD PUSH1 0x40 MSTORE DUP1 SWAP3 SWAP2 SWAP1 DUP2 DUP2 MSTORE PUSH1 0x20 ADD DUP3 DUP1 SLOAD PUSH2 0x2399 SWAP1 PUSH2 0x2ED4 JUMP JUMPDEST DUP1 ISZERO PUSH2 0x23E6 JUMPI DUP1 PUSH1 0x1F LT PUSH2 0x23BB JUMPI PUSH2 0x100 DUP1 DUP4 SLOAD DIV MUL DUP4 MSTORE SWAP2 PUSH1 0x20 ADD SWAP2 PUSH2 0x23E6 JUMP JUMPDEST DUP3 ADD SWAP2 SWAP1 PUSH1 0x0 MSTORE PUSH1 0x20 PUSH1 0x0 KECCAK256 SWAP1 JUMPDEST DUP2 SLOAD DUP2 MSTORE SWAP1 PUSH1 0x1 ADD SWAP1 PUSH1 0x20 ADD DUP1 DUP4 GT PUSH2 0x23C9 JUMPI DUP3 SWAP1 SUB PUSH1 0x1F AND DUP3 ADD SWAP2 JUMPDEST POP POP POP POP POP SWAP1 DUP1 PUSH1 0x7 ADD DUP1 SLOAD PUSH2 0x23FB SWAP1 PUSH2 0x2ED4 JUMP JUMPDEST DUP1 PUSH1 0x1F ADD PUSH1 0x20 DUP1 SWAP2 DIV MUL PUSH1 0x20 ADD PUSH1 0x40 MLOAD SWAP1 DUP2 ADD PUSH1 0x40 MSTORE DUP1 SWAP3 SWAP2 SWAP1 DUP2 DUP2 MSTORE PUSH1 0x20 ADD DUP3 DUP1 SLOAD PUSH2 0x2427 SWAP1 PUSH2 0x2ED4 JUMP JUMPDEST DUP1 ISZERO PUSH2 0x2474 JUMPI DUP1 PUSH1 0x1F LT PUSH2 0x2449 JUMPI PUSH2 0x100 DUP1 DUP4 SLOAD DIV MUL DUP4 MSTORE SWAP2 PUSH1 0x20 ADD SWAP2 PUSH2 0x2474 JUMP JUMPDEST DUP3 ADD SWAP2 SWAP1 PUSH1 0x0 MSTORE PUSH1 0x20 PUSH1 0x0 KECCAK256 SWAP1 JUMPDEST DUP2 SLOAD DUP2 MSTORE SWAP1 PUSH1 0x1 ADD SWAP1 PUSH1 0x20 ADD DUP1 DUP4 GT PUSH2 0x2457 JUMPI DUP3 SWAP1 SUB PUSH1 0x1F AND DUP3 ADD SWAP2 JUMPDEST POP POP POP POP POP SWAP1 DUP1 PUSH1 0x8 ADD DUP1 SLOAD PUSH2 0x2489 SWAP1 PUSH2 0x2ED4 JUMP JUMPDEST DUP1 PUSH1 0x1F ADD PUSH1 0x20 DUP1 SWAP2 DIV MUL PUSH1 0x20 ADD PUSH1 0x40 MLOAD SWAP1 DUP2 ADD PUSH1 0x40 MSTORE DUP1 SWAP3 SWAP2 SWAP1 DUP2 DUP2 MSTORE PUSH1 0x20 ADD DUP3 DUP1 SLOAD PUSH2 0x24B5 SWAP1 PUSH2 0x2ED4 JUMP JUMPDEST DUP1 ISZERO PUSH2 0x2502 JUMPI DUP1 PUSH1 0x1F LT PUSH2 0x24D7 JUMPI PUSH2 0x100 DUP1 DUP4 SLOAD DIV MUL DUP4 MSTORE SWAP2 PUSH1 0x20 ADD SWAP2 PUSH2 0x2502 JUMP JUMPDEST DUP3 ADD SWAP2 SWAP1 PUSH1 0x0 MSTORE PUSH1 0x20 PUSH1 0x0 KECCAK256 SWAP1 JUMPDEST DUP2 SLOAD DUP2 MSTORE SWAP1 PUSH1 0x1 ADD SWAP1 PUSH1 0x20 ADD DUP1 DUP4 GT PUSH2 0x24E5 JUMPI DUP3 SWAP1 SUB PUSH1 0x1F AND DUP3 ADD SWAP2 JUMPDEST POP POP POP POP POP SWAP1 DUP1 PUSH1 0x9 ADD DUP1 SLOAD PUSH2 0x2517 SWAP1 PUSH2 0x2ED4 JUMP JUMPDEST DUP1 PUSH1 0x1F ADD PUSH1 0x20 DUP1 SWAP2 DIV MUL PUSH1 0x20 ADD PUSH1 0x40 MLOAD SWAP1 DUP2 ADD PUSH1 0x40 MSTORE DUP1 SWAP3 SWAP2 SWAP1 DUP2 DUP2 MSTORE PUSH1 0x20 ADD DUP3 DUP1 SLOAD PUSH2 0x2543 SWAP1 PUSH2 0x2ED4 JUMP JUMPDEST DUP1 ISZERO PUSH2 0x2590 JUMPI DUP1 PUSH1 0x1F LT PUSH2 0x2565 JUMPI PUSH2 0x100 DUP1 DUP4 SLOAD DIV MUL DUP4 MSTORE SWAP2 PUSH1 0x20 ADD SWAP2 PUSH2 0x2590 JUMP JUMPDEST DUP3 ADD SWAP2 SWAP1 PUSH1 0x0 MSTORE PUSH1 0x20 PUSH1 0x0 KECCAK256 SWAP1 JUMPDEST DUP2 SLOAD DUP2 MSTORE SWAP1 PUSH1 0x1 ADD SWAP1 PUSH1 0x20 ADD DUP1 DUP4 GT PUSH2 0x2573 JUMPI DUP3 SWAP1 SUB PUSH1 0x1F AND DUP3 ADD SWAP2 JUMPDEST POP POP POP POP POP SWAP1 DUP1 PUSH1 0xA ADD DUP1 SLOAD PUSH2 0x25A5 SWAP1 PUSH2 0x2ED4 JUMP JUMPDEST DUP1 PUSH1 0x1F ADD PUSH1 0x20 DUP1 SWAP2 DIV MUL PUSH1 0x20 ADD PUSH1 0x40 MLOAD SWAP1 DUP2 ADD PUSH1 0x40 MSTORE DUP1 SWAP3 SWAP2 SWAP1 DUP2 DUP2 MSTORE PUSH1 0x20 ADD DUP3 DUP1 SLOAD PUSH2 0x25D1 SWAP1 PUSH2 0x2ED4 JUMP JUMPDEST DUP1 ISZERO PUSH2 0x261E JUMPI DUP1 PUSH1 0x1F LT PUSH2 0x25F3 JUMPI PUSH2 0x100 DUP1 DUP4 SLOAD DIV MUL DUP4 MSTORE SWAP2 PUSH1 0x20 ADD SWAP2 PUSH2 0x261E JUMP JUMPDEST DUP3 ADD SWAP2 SWAP1 PUSH1 0x0 MSTORE PUSH1 0x20 PUSH1 0x0 KECCAK256 SWAP1 JUMPDEST DUP2 SLOAD DUP2 MSTORE SWAP1 PUSH1 0x1 ADD SWAP1 PUSH1 0x20 ADD DUP1 DUP4 GT PUSH2 0x2601 JUMPI DUP3 SWAP1 SUB PUSH1 0x1F AND DUP3 ADD SWAP2 JUMPDEST POP POP POP POP POP SWAP1 POP DUP12 JUMP JUMPDEST CALLER PUSH1 0x0 SWAP1 DUP2 MSTORE PUSH1 0x20 DUP2 SWAP1 MSTORE PUSH1 0x40 SWAP1 KECCAK256 SLOAD PUSH2 0x2654 JUMPI PUSH1 0x40 MLOAD PUSH3 0x461BCD PUSH1 0xE5 SHL DUP2 MSTORE PUSH1 0x4 ADD PUSH2 0x239 SWAP1 PUSH2 0x284B JUMP JUMPDEST CALLER PUSH1 0x0 SWAP1 DUP2 MSTORE PUSH1 0x10 PUSH1 0x20 DUP2 SWAP1 MSTORE PUSH1 0x40 DUP3 KECCAK256 SLOAD PUSH1 0xF DUP1 SLOAD SWAP2 SWAP4 DUP5 SWAP4 SWAP3 SWAP1 SWAP2 SWAP1 PUSH2 0x267E SWAP1 PUSH1 0x1 SWAP1 PUSH2 0x2F3A JUMP JUMPDEST DUP2 SLOAD DUP2 LT PUSH2 0x268E JUMPI PUSH2 0x268E PUSH2 0x2F51 JUMP JUMPDEST PUSH1 0x0 SWAP2 DUP3 MSTORE PUSH1 0x20 DUP1 DUP4 KECCAK256 SWAP1 SWAP2 ADD SLOAD PUSH1 0x1 PUSH1 0x1 PUSH1 0xA0 SHL SUB AND DUP4 MSTORE DUP3 ADD SWAP3 SWAP1 SWAP3 MSTORE PUSH1 0x40 ADD SWAP1 KECCAK256 SSTORE PUSH1 0xF DUP1 SLOAD PUSH2 0x26C3 SWAP1 PUSH1 0x1 SWAP1 PUSH2 0x2F3A JUMP JUMPDEST DUP2 SLOAD DUP2 LT PUSH2 0x26D3 JUMPI PUSH2 0x26D3 PUSH2 0x2F51 JUMP JUMPDEST PUSH1 0x0 SWAP2 DUP3 MSTORE PUSH1 0x20 SWAP1 SWAP2 KECCAK256 ADD SLOAD PUSH1 0x1 PUSH1 0x1 PUSH1 0xA0 SHL SUB AND PUSH1 0xF PUSH2 0x26F5 PUSH1 0x1 DUP5 PUSH2 0x2F3A JUMP JUMPDEST DUP2 SLOAD DUP2 LT PUSH2 0x2705 JUMPI PUSH2 0x2705 PUSH2 0x2F51 JUMP JUMPDEST SWAP1 PUSH1 0x0 MSTORE PUSH1 0x20 PUSH1 0x0 KECCAK256 ADD PUSH1 0x0 PUSH2 0x100 EXP DUP2 SLOAD DUP2 PUSH1 0x1 PUSH1 0x1 PUSH1 0xA0 SHL SUB MUL NOT AND SWAP1 DUP4 PUSH1 0x1 PUSH1 0x1 PUSH1 0xA0 SHL SUB AND MUL OR SWAP1 SSTORE POP PUSH1 0xF DUP1 SLOAD DUP1 PUSH2 0x2744 JUMPI PUSH2 0x2744 PUSH2 0x2F67 JUMP JUMPDEST PUSH1 0x0 DUP3 DUP2 MSTORE PUSH1 0x20 DUP2 KECCAK256 DUP3 ADD PUSH1 0x0 NOT SWAP1 DUP2 ADD DUP1 SLOAD PUSH1 0x1 PUSH1 0x1 PUSH1 0xA0 SHL SUB NOT AND SWAP1 SSTORE SWAP1 SWAP2 ADD SWAP1 SWAP2 SSTORE PUSH1 0x11 DUP1 SLOAD SWAP2 PUSH2 0x2777 DUP4 PUSH2 0x2F7D JUMP JUMPDEST SWAP1 SWAP2 SSTORE POP POP PUSH1 0x40 MLOAD CALLER DUP2 MSTORE PUSH32 0x8014B222F8096605728BA3F51B1CEFD8C3A9AF47F7B9626833532AC2AC9CDB36 SWAP1 PUSH1 0x20 ADD PUSH1 0x40 MLOAD DUP1 SWAP2 SUB SWAP1 LOG1 POP JUMP JUMPDEST DUP3 DUP1 SLOAD PUSH2 0x27BE SWAP1 PUSH2 0x2ED4 JUMP JUMPDEST SWAP1 PUSH1 0x0 MSTORE PUSH1 0x20 PUSH1 0x0 KECCAK256 SWAP1 PUSH1 0x1F ADD PUSH1 0x20 SWAP1 DIV DUP2 ADD SWAP3 DUP3 PUSH2 0x27E0 JUMPI PUSH1 0x0 DUP6 SSTORE PUSH2 0x2826 JUMP JUMPDEST DUP3 PUSH1 0x1F LT PUSH2 0x27F9 JUMPI DUP1 MLOAD PUSH1 0xFF NOT AND DUP4 DUP1 ADD OR DUP6 SSTORE PUSH2 0x2826 JUMP JUMPDEST DUP3 DUP1 ADD PUSH1 0x1 ADD DUP6 SSTORE DUP3 ISZERO PUSH2 0x2826 JUMPI SWAP2 DUP3 ADD JUMPDEST DUP3 DUP2 GT ISZERO PUSH2 0x2826 JUMPI DUP3 MLOAD DUP3 SSTORE SWAP2 PUSH1 0x20 ADD SWAP2 SWAP1 PUSH1 0x1 ADD SWAP1 PUSH2 0x280B JUMP JUMPDEST POP PUSH2 0x2832 SWAP3 SWAP2 POP PUSH2 0x2836 JUMP JUMPDEST POP SWAP1 JUMP JUMPDEST JUMPDEST DUP1 DUP3 GT ISZERO PUSH2 0x2832 JUMPI PUSH1 0x0 DUP2 SSTORE PUSH1 0x1 ADD PUSH2 0x2837 JUMP JUMPDEST PUSH1 0x20 DUP1 DUP3 MSTORE PUSH1 0x16 SWAP1 DUP3 ADD MSTORE PUSH22 0x165BDD48185C99481B9BDD081C9959DA5CDD195C9959 PUSH1 0x52 SHL PUSH1 0x40 DUP3 ADD MSTORE PUSH1 0x60 ADD SWAP1 JUMP JUMPDEST PUSH4 0x4E487B71 PUSH1 0xE0 SHL PUSH1 0x0 MSTORE PUSH1 0x11 PUSH1 0x4 MSTORE PUSH1 0x24 PUSH1 0x0 REVERT JUMPDEST PUSH1 0x0 DUP3 NOT DUP3 GT ISZERO PUSH2 0x28A4 JUMPI PUSH2 0x28A4 PUSH2 0x287B JUMP JUMPDEST POP ADD SWAP1 JUMP JUMPDEST PUSH1 0x0 PUSH1 0x20 DUP3 DUP5 SUB SLT ISZERO PUSH2 0x28BB JUMPI PUSH1 0x0 DUP1 REVERT JUMPDEST POP CALLDATALOAD SWAP2 SWAP1 POP JUMP JUMPDEST PUSH1 0x0 DUP2 MLOAD DUP1 DUP5 MSTORE PUSH1 0x0 JUMPDEST DUP2 DUP2 LT ISZERO PUSH2 0x28E8 JUMPI PUSH1 0x20 DUP2 DUP6 ADD DUP2 ADD MLOAD DUP7 DUP4 ADD DUP3 ADD MSTORE ADD PUSH2 0x28CC JUMP JUMPDEST DUP2 DUP2 GT ISZERO PUSH2 0x28FA JUMPI PUSH1 0x0 PUSH1 0x20 DUP4 DUP8 ADD ADD MSTORE JUMPDEST POP PUSH1 0x1F ADD PUSH1 0x1F NOT AND SWAP3 SWAP1 SWAP3 ADD PUSH1 0x20 ADD SWAP3 SWAP2 POP POP JUMP JUMPDEST DUP8 DUP2 MSTORE PUSH1 0xE0 PUSH1 0x20 DUP3 ADD MSTORE PUSH1 0x0 PUSH2 0x2928 PUSH1 0xE0 DUP4 ADD DUP10 PUSH2 0x28C2 JUMP JUMPDEST DUP3 DUP2 SUB PUSH1 0x40 DUP5 ADD MSTORE PUSH2 0x293A DUP2 DUP10 PUSH2 0x28C2 JUMP JUMPDEST SWAP1 POP DUP3 DUP2 SUB PUSH1 0x60 DUP5 ADD MSTORE PUSH2 0x294E DUP2 DUP9 PUSH2 0x28C2 JUMP JUMPDEST SWAP1 POP DUP3 DUP2 SUB PUSH1 0x80 DUP5 ADD MSTORE PUSH2 0x2962 DUP2 DUP8 PUSH2 0x28C2 JUMP JUMPDEST SWAP1 POP DUP3 DUP2 SUB PUSH1 0xA0 DUP5 ADD MSTORE PUSH2 0x2976 DUP2 DUP7 PUSH2 0x28C2 JUMP JUMPDEST SWAP1 POP DUP3 DUP2 SUB PUSH1 0xC0 DUP5 ADD MSTORE PUSH2 0x298A DUP2 DUP6 PUSH2 0x28C2 JUMP JUMPDEST SWAP11 SWAP10 POP POP POP POP POP POP POP POP POP POP JUMP JUMPDEST DUP1 CALLDATALOAD PUSH1 0x1 PUSH1 0x1 PUSH1 0xA0 SHL SUB DUP2 AND DUP2 EQ PUSH2 0x1AD5 JUMPI PUSH1 0x0 DUP1 REVERT JUMPDEST PUSH1 0x0 PUSH1 0x20 DUP3 DUP5 SUB SLT ISZERO PUSH2 0x29C1 JUMPI PUSH1 0x0 DUP1 REVERT JUMPDEST PUSH2 0x29CA DUP3 PUSH2 0x2998 JUMP JUMPDEST SWAP4 SWAP3 POP POP POP JUMP JUMPDEST PUSH1 0x40 DUP2 MSTORE PUSH1 0x0 PUSH2 0x29E4 PUSH1 0x40 DUP4 ADD DUP6 PUSH2 0x28C2 JUMP JUMPDEST DUP3 DUP2 SUB PUSH1 0x20 DUP5 ADD MSTORE PUSH2 0x29F6 DUP2 DUP6 PUSH2 0x28C2 JUMP JUMPDEST SWAP6 SWAP5 POP POP POP POP POP JUMP JUMPDEST PUSH4 0x4E487B71 PUSH1 0xE0 SHL PUSH1 0x0 MSTORE PUSH1 0x41 PUSH1 0x4 MSTORE PUSH1 0x24 PUSH1 0x0 REVERT JUMPDEST PUSH1 0x0 DUP3 PUSH1 0x1F DUP4 ADD SLT PUSH2 0x2A26 JUMPI PUSH1 0x0 DUP1 REVERT JUMPDEST DUP2 CALLDATALOAD PUSH8 0xFFFFFFFFFFFFFFFF DUP1 DUP3 GT ISZERO PUSH2 0x2A41 JUMPI PUSH2 0x2A41 PUSH2 0x29FF JUMP JUMPDEST PUSH1 0x40 MLOAD PUSH1 0x1F DUP4 ADD PUSH1 0x1F NOT SWAP1 DUP2 AND PUSH1 0x3F ADD AND DUP2 ADD SWAP1 DUP3 DUP3 GT DUP2 DUP4 LT OR ISZERO PUSH2 0x2A69 JUMPI PUSH2 0x2A69 PUSH2 0x29FF JUMP JUMPDEST DUP2 PUSH1 0x40 MSTORE DUP4 DUP2 MSTORE DUP7 PUSH1 0x20 DUP6 DUP9 ADD ADD GT ISZERO PUSH2 0x2A82 JUMPI PUSH1 0x0 DUP1 REVERT JUMPDEST DUP4 PUSH1 0x20 DUP8 ADD PUSH1 0x20 DUP4 ADD CALLDATACOPY PUSH1 0x0 PUSH1 0x20 DUP6 DUP4 ADD ADD MSTORE DUP1 SWAP5 POP POP POP POP POP SWAP3 SWAP2 POP POP JUMP JUMPDEST PUSH1 0x0 DUP1 PUSH1 0x0 DUP1 PUSH1 0x0 DUP1 PUSH1 0x0 DUP1 PUSH1 0x0 DUP1 PUSH1 0x0 PUSH2 0x160 DUP13 DUP15 SUB SLT ISZERO PUSH2 0x2AC4 JUMPI PUSH1 0x0 DUP1 REVERT JUMPDEST DUP12 CALLDATALOAD SWAP11 POP PUSH1 0x20 DUP13 ADD CALLDATALOAD SWAP10 POP PUSH1 0x40 DUP13 ADD CALLDATALOAD SWAP9 POP PUSH1 0x60 DUP13 ADD CALLDATALOAD SWAP8 POP PUSH8 0xFFFFFFFFFFFFFFFF DUP1 PUSH1 0x80 DUP15 ADD CALLDATALOAD GT ISZERO PUSH2 0x2AF7 JUMPI PUSH1 0x0 DUP1 REVERT JUMPDEST PUSH2 0x2B07 DUP15 PUSH1 0x80 DUP16 ADD CALLDATALOAD DUP16 ADD PUSH2 0x2A15 JUMP JUMPDEST SWAP8 POP DUP1 PUSH1 0xA0 DUP15 ADD CALLDATALOAD GT ISZERO PUSH2 0x2B1A JUMPI PUSH1 0x0 DUP1 REVERT JUMPDEST PUSH2 0x2B2A DUP15 PUSH1 0xA0 DUP16 ADD CALLDATALOAD DUP16 ADD PUSH2 0x2A15 JUMP JUMPDEST SWAP7 POP DUP1 PUSH1 0xC0 DUP15 ADD CALLDATALOAD GT ISZERO PUSH2 0x2B3D JUMPI PUSH1 0x0 DUP1 REVERT JUMPDEST PUSH2 0x2B4D DUP15 PUSH1 0xC0 DUP16 ADD CALLDATALOAD DUP16 ADD PUSH2 0x2A15 JUMP JUMPDEST SWAP6 POP DUP1 PUSH1 0xE0 DUP15 ADD CALLDATALOAD GT ISZERO PUSH2 0x2B60 JUMPI PUSH1 0x0 DUP1 REVERT JUMPDEST PUSH2 0x2B70 DUP15 PUSH1 0xE0 DUP16 ADD CALLDATALOAD DUP16 ADD PUSH2 0x2A15 JUMP JUMPDEST SWAP5 POP DUP1 PUSH2 0x100 DUP15 ADD CALLDATALOAD GT ISZERO PUSH2 0x2B84 JUMPI PUSH1 0x0 DUP1 REVERT JUMPDEST PUSH2 0x2B95 DUP15 PUSH2 0x100 DUP16 ADD CALLDATALOAD DUP16 ADD PUSH2 0x2A15 JUMP JUMPDEST SWAP4 POP DUP1 PUSH2 0x120 DUP15 ADD CALLDATALOAD GT ISZERO PUSH2 0x2BA9 JUMPI PUSH1 0x0 DUP1 REVERT JUMPDEST PUSH2 0x2BBA DUP15 PUSH2 0x120 DUP16 ADD CALLDATALOAD DUP16 ADD PUSH2 0x2A15 JUMP JUMPDEST SWAP3 POP DUP1 PUSH2 0x140 DUP15 ADD CALLDATALOAD GT ISZERO PUSH2 0x2BCE JUMPI PUSH1 0x0 DUP1 REVERT JUMPDEST POP PUSH2 0x2BE0 DUP14 PUSH2 0x140 DUP15 ADD CALLDATALOAD DUP15 ADD PUSH2 0x2A15 JUMP JUMPDEST SWAP1 POP SWAP3 SWAP6 SWAP9 SWAP12 POP SWAP3 SWAP6 SWAP9 SWAP12 SWAP1 SWAP4 SWAP7 SWAP10 POP JUMP JUMPDEST PUSH1 0x60 DUP2 MSTORE PUSH1 0x0 PUSH2 0x2C05 PUSH1 0x60 DUP4 ADD DUP7 PUSH2 0x28C2 JUMP JUMPDEST DUP3 DUP2 SUB PUSH1 0x20 DUP5 ADD MSTORE PUSH2 0x2C17 DUP2 DUP7 PUSH2 0x28C2 JUMP JUMPDEST SWAP2 POP POP PUSH1 0x1 DUP1 PUSH1 0xA0 SHL SUB DUP4 AND PUSH1 0x40 DUP4 ADD MSTORE SWAP5 SWAP4 POP POP POP POP JUMP JUMPDEST PUSH1 0x0 DUP1 PUSH1 0x40 DUP4 DUP6 SUB SLT ISZERO PUSH2 0x2C43 JUMPI PUSH1 0x0 DUP1 REVERT JUMPDEST PUSH2 0x2C4C DUP4 PUSH2 0x2998 JUMP JUMPDEST SWAP5 PUSH1 0x20 SWAP4 SWAP1 SWAP4 ADD CALLDATALOAD SWAP4 POP POP POP JUMP JUMPDEST PUSH1 0x0 DUP1 PUSH1 0x40 DUP4 DUP6 SUB SLT ISZERO PUSH2 0x2C6D JUMPI PUSH1 0x0 DUP1 REVERT JUMPDEST DUP3 CALLDATALOAD SWAP2 POP PUSH2 0x2C7D PUSH1 0x20 DUP5 ADD PUSH2 0x2998 JUMP JUMPDEST SWAP1 POP SWAP3 POP SWAP3 SWAP1 POP JUMP JUMPDEST PUSH1 0x20 DUP1 DUP3 MSTORE DUP3 MLOAD DUP3 DUP3 ADD DUP2 SWAP1 MSTORE PUSH1 0x0 SWAP2 SWAP1 DUP5 DUP3 ADD SWAP1 PUSH1 0x40 DUP6 ADD SWAP1 DUP5 JUMPDEST DUP2 DUP2 LT ISZERO PUSH2 0x2CBE JUMPI DUP4 MLOAD DUP4 MSTORE SWAP3 DUP5 ADD SWAP3 SWAP2 DUP5 ADD SWAP2 PUSH1 0x1 ADD PUSH2 0x2CA2 JUMP JUMPDEST POP SWAP1 SWAP7 SWAP6 POP POP POP POP POP POP JUMP JUMPDEST PUSH1 0x0 DUP1 PUSH1 0x0 DUP1 PUSH1 0x0 DUP1 PUSH1 0xC0 DUP8 DUP10 SUB SLT ISZERO PUSH2 0x2CE3 JUMPI PUSH1 0x0 DUP1 REVERT JUMPDEST DUP7 CALLDATALOAD PUSH8 0xFFFFFFFFFFFFFFFF DUP1 DUP3 GT ISZERO PUSH2 0x2CFB JUMPI PUSH1 0x0 DUP1 REVERT JUMPDEST PUSH2 0x2D07 DUP11 DUP4 DUP12 ADD PUSH2 0x2A15 JUMP JUMPDEST SWAP8 POP PUSH1 0x20 DUP10 ADD CALLDATALOAD SWAP2 POP DUP1 DUP3 GT ISZERO PUSH2 0x2D1D JUMPI PUSH1 0x0 DUP1 REVERT JUMPDEST PUSH2 0x2D29 DUP11 DUP4 DUP12 ADD PUSH2 0x2A15 JUMP JUMPDEST SWAP7 POP PUSH1 0x40 DUP10 ADD CALLDATALOAD SWAP2 POP DUP1 DUP3 GT ISZERO PUSH2 0x2D3F JUMPI PUSH1 0x0 DUP1 REVERT JUMPDEST PUSH2 0x2D4B DUP11 DUP4 DUP12 ADD PUSH2 0x2A15 JUMP JUMPDEST SWAP6 POP PUSH1 0x60 DUP10 ADD CALLDATALOAD SWAP2 POP DUP1 DUP3 GT ISZERO PUSH2 0x2D61 JUMPI PUSH1 0x0 DUP1 REVERT JUMPDEST PUSH2 0x2D6D DUP11 DUP4 DUP12 ADD PUSH2 0x2A15 JUMP JUMPDEST SWAP5 POP PUSH1 0x80 DUP10 ADD CALLDATALOAD SWAP2 POP DUP1 DUP3 GT ISZERO PUSH2 0x2D83 JUMPI PUSH1 0x0 DUP1 REVERT JUMPDEST PUSH2 0x2D8F DUP11 DUP4 DUP12 ADD PUSH2 0x2A15 JUMP JUMPDEST SWAP4 POP PUSH1 0xA0 DUP10 ADD CALLDATALOAD SWAP2 POP DUP1 DUP3 GT ISZERO PUSH2 0x2DA5 JUMPI PUSH1 0x0 DUP1 REVERT JUMPDEST POP PUSH2 0x2DB2 DUP10 DUP3 DUP11 ADD PUSH2 0x2A15 JUMP JUMPDEST SWAP2 POP POP SWAP3 SWAP6 POP SWAP3 SWAP6 POP SWAP3 SWAP6 JUMP JUMPDEST PUSH1 0x0 DUP1 PUSH1 0x0 DUP1 PUSH1 0x0 DUP1 PUSH1 0x0 DUP1 PUSH1 0x0 DUP1 PUSH1 0x0 PUSH2 0x160 DUP13 DUP15 SUB SLT ISZERO PUSH2 0x2DE1 JUMPI PUSH1 0x0 DUP1 REVERT JUMPDEST PUSH2 0x2DEA DUP13 PUSH2 0x2998 JUMP JUMPDEST SWAP11 POP PUSH1 0x20 DUP13 ADD CALLDATALOAD SWAP10 POP PUSH1 0x40 DUP13 ADD CALLDATALOAD SWAP9 POP PUSH1 0x60 DUP13 ADD CALLDATALOAD SWAP8 POP PUSH8 0xFFFFFFFFFFFFFFFF DUP1 PUSH1 0x80 DUP15 ADD CALLDATALOAD GT ISZERO PUSH2 0x2AF7 JUMPI PUSH1 0x0 DUP1 REVERT JUMPDEST PUSH1 0x0 PUSH2 0x160 DUP14 DUP4 MSTORE DUP13 PUSH1 0x20 DUP5 ADD MSTORE DUP12 PUSH1 0x40 DUP5 ADD MSTORE DUP11 PUSH1 0x60 DUP5 ADD MSTORE DUP1 PUSH1 0x80 DUP5 ADD MSTORE PUSH2 0x2E47 DUP2 DUP5 ADD DUP12 PUSH2 0x28C2 JUMP JUMPDEST SWAP1 POP DUP3 DUP2 SUB PUSH1 0xA0 DUP5 ADD MSTORE PUSH2 0x2E5B DUP2 DUP11 PUSH2 0x28C2 JUMP JUMPDEST SWAP1 POP DUP3 DUP2 SUB PUSH1 0xC0 DUP5 ADD MSTORE PUSH2 0x2E6F DUP2 DUP10 PUSH2 0x28C2 JUMP JUMPDEST SWAP1 POP DUP3 DUP2 SUB PUSH1 0xE0 DUP5 ADD MSTORE PUSH2 0x2E83 DUP2 DUP9 PUSH2 0x28C2 JUMP JUMPDEST SWAP1 POP DUP3 DUP2 SUB PUSH2 0x100 DUP5 ADD MSTORE PUSH2 0x2E98 DUP2 DUP8 PUSH2 0x28C2 JUMP JUMPDEST SWAP1 POP DUP3 DUP2 SUB PUSH2 0x120 DUP5 ADD MSTORE PUSH2 0x2EAD DUP2 DUP7 PUSH2 0x28C2 JUMP JUMPDEST SWAP1 POP DUP3 DUP2 SUB PUSH2 0x140 DUP5 ADD MSTORE PUSH2 0x2EC2 DUP2 DUP6 PUSH2 0x28C2 JUMP JUMPDEST SWAP15 SWAP14 POP POP POP POP POP POP POP POP POP POP POP POP POP POP JUMP JUMPDEST PUSH1 0x1 DUP2 DUP2 SHR SWAP1 DUP3 AND DUP1 PUSH2 0x2EE8 JUMPI PUSH1 0x7F DUP3 AND SWAP2 POP JUMPDEST PUSH1 0x20 DUP3 LT DUP2 EQ ISZERO PUSH2 0x2F09 JUMPI PUSH4 0x4E487B71 PUSH1 0xE0 SHL PUSH1 0x0 MSTORE PUSH1 0x22 PUSH1 0x4 MSTORE PUSH1 0x24 PUSH1 0x0 REVERT JUMPDEST POP SWAP2 SWAP1 POP JUMP JUMPDEST PUSH1 0x20 DUP1 DUP3 MSTORE PUSH1 0x11 SWAP1 DUP3 ADD MSTORE PUSH17 0x14195C9B5A5CDCDA5BDB8819195B9A5959 PUSH1 0x7A SHL PUSH1 0x40 DUP3 ADD MSTORE PUSH1 0x60 ADD SWAP1 JUMP JUMPDEST PUSH1 0x0 DUP3 DUP3 LT ISZERO PUSH2 0x2F4C JUMPI PUSH2 0x2F4C PUSH2 0x287B JUMP JUMPDEST POP SUB SWAP1 JUMP JUMPDEST PUSH4 0x4E487B71 PUSH1 0xE0 SHL PUSH1 0x0 MSTORE PUSH1 0x32 PUSH1 0x4 MSTORE PUSH1 0x24 PUSH1 0x0 REVERT JUMPDEST PUSH4 0x4E487B71 PUSH1 0xE0 SHL PUSH1 0x0 MSTORE PUSH1 0x31 PUSH1 0x4 MSTORE PUSH1 0x24 PUSH1 0x0 REVERT JUMPDEST PUSH1 0x0 DUP2 PUSH2 0x2F8C JUMPI PUSH2 0x2F8C PUSH2 0x287B JUMP JUMPDEST POP PUSH1 0x0 NOT ADD SWAP1 JUMP JUMPDEST PUSH1 0x0 DUP2 PUSH1 0x0 NOT DIV DUP4 GT DUP3 ISZERO ISZERO AND ISZERO PUSH2 0x2FAE JUMPI PUSH2 0x2FAE PUSH2 0x287B JUMP JUMPDEST POP MUL SWAP1 JUMP JUMPDEST DUP1 SLOAD PUSH1 0x0 SWAP1 PUSH1 0x1 DUP2 DUP2 SHR SWAP1 DUP1 DUP4 AND DUP1 PUSH2 0x2FCD JUMPI PUSH1 0x7F DUP4 AND SWAP3 POP JUMPDEST PUSH1 0x20 DUP1 DUP5 LT DUP3 EQ ISZERO PUSH2 0x2FEF JUMPI PUSH4 0x4E487B71 PUSH1 0xE0 SHL PUSH1 0x0 MSTORE PUSH1 0x22 PUSH1 0x4 MSTORE PUSH1 0x24 PUSH1 0x0 REVERT JUMPDEST DUP4 DUP9 MSTORE PUSH1 0x20 DUP9 ADD DUP3 DUP1 ISZERO PUSH2 0x300A JUMPI PUSH1 0x1 DUP2 EQ PUSH2 0x301B JUMPI PUSH2 0x3046 JUMP JUMPDEST PUSH1 0xFF NOT DUP8 AND DUP3 MSTORE DUP3 DUP3 ADD SWAP8 POP PUSH2 0x3046 JUMP JUMPDEST PUSH1 0x0 DUP10 DUP2 MSTORE PUSH1 0x20 SWAP1 KECCAK256 PUSH1 0x0 JUMPDEST DUP8 DUP2 LT ISZERO PUSH2 0x3040 JUMPI DUP2 SLOAD DUP5 DUP3 ADD MSTORE SWAP1 DUP7 ADD SWAP1 DUP5 ADD PUSH2 0x3027 JUMP JUMPDEST DUP4 ADD SWAP9 POP POP JUMPDEST POP POP POP POP POP POP POP SWAP3 SWAP2 POP POP JUMP JUMPDEST PUSH1 0x40 DUP2 MSTORE PUSH1 0x0 PUSH2 0x3066 PUSH1 0x40 DUP4 ADD DUP6 PUSH2 0x2FB3 JUMP JUMPDEST DUP3 DUP2 SUB PUSH1 0x20 DUP5 ADD MSTORE PUSH2 0x29F6 DUP2 DUP6 PUSH2 0x2FB3 JUMP JUMPDEST PUSH1 0x0 PUSH1 0x0 NOT DUP3 EQ ISZERO PUSH2 0x308C JUMPI PUSH2 0x308C PUSH2 0x287B JUMP JUMPDEST POP PUSH1 0x1 ADD SWAP1 JUMP JUMPDEST PUSH1 0x1 PUSH1 0x1 PUSH1 0xA0 SHL SUB DUP10 AND DUP2 MSTORE PUSH1 0x20 DUP2 ADD DUP9 SWAP1 MSTORE PUSH2 0x100 PUSH1 0x40 DUP3 ADD DUP2 SWAP1 MSTORE PUSH1 0x0 SWAP1 PUSH2 0x30BF DUP4 DUP3 ADD DUP11 PUSH2 0x28C2 JUMP JUMPDEST SWAP1 POP DUP3 DUP2 SUB PUSH1 0x60 DUP5 ADD MSTORE PUSH2 0x30D3 DUP2 DUP10 PUSH2 0x28C2 JUMP JUMPDEST SWAP1 POP DUP3 DUP2 SUB PUSH1 0x80 DUP5 ADD MSTORE PUSH2 0x30E7 DUP2 DUP9 PUSH2 0x28C2 JUMP JUMPDEST SWAP1 POP DUP3 DUP2 SUB PUSH1 0xA0 DUP5 ADD MSTORE PUSH2 0x30FB DUP2 DUP8 PUSH2 0x28C2 JUMP JUMPDEST SWAP1 POP DUP3 DUP2 SUB PUSH1 0xC0 DUP5 ADD MSTORE PUSH2 0x310F DUP2 DUP7 PUSH2 0x28C2 JUMP JUMPDEST SWAP1 POP DUP3 DUP2 SUB PUSH1 0xE0 DUP5 ADD MSTORE PUSH2 0x3123 DUP2 DUP6 PUSH2 0x28C2 JUMP JUMPDEST SWAP12 SWAP11 POP POP POP POP POP POP POP POP POP POP POP JUMP INVALID LOG2 PUSH5 0x6970667358 0x22 SLT KECCAK256 PUSH22 0xCD2FCEE6FCBB2C602443A81FA9288B7CA21841B1B3F5 PUSH3 0x829929 AND PUSH11 0x994C9364736F6C63430008 SIGNEXTEND STOP CALLER ",
  "sha1": "59d6c27f4dc07e72466eabcab0ba911b0026508f",
  "source": "//Main Land Registry Contract\n//SPDX-License-Identifier: UNLICENSED\n\npragma solidity  ^0.8.0;\n\n//import \"./ownable.sol\"; //this is a standard file from OpenZeppelin used for transferring or used for validating \n                        //also used as function modiers so that only an owner of a contract can call a function and make changes\n                        //need to integerate it with our land registry contract especially the Transfer function\n\nimport \"./Registry.sol\";\ncontract Subscription is Registry { \n\n    address [] public subscribersList;\n    mapping (address => uint) subscribersID;\n    uint subscribers_count;\n\n\n    constructor() {\n        subscribers_count = 1;\n    } \n\n    uint subscription_price = 10; //at current market value ~$3.7 \n\n    event OwnerSubscribed(address owner_address);\n    event OwnerUnubscribed(address owner_address);\n    event OwnerSubExpired(address owner_address, string message);\n    event lowBalance(string first_name, string last_name);\n    \n    function subscribe() public isRegistered {\n        require(ownerPropertyCount[msg.sender] > 0, \"Please register a property before subscribing to this service.\");\n        subscribersList.push(msg.sender);\n        subscribersID[msg.sender] = subscribers_count;\n        subscribers_count ++;\n        emit OwnerSubscribed(msg.sender);       \n    }\n\n\n    function unsubscribe() public isRegistered {\n        uint sub_id = subscribersID[msg.sender];\n        subscribersID[subscribersList[subscribersList.length -1]] = sub_id;\n        subscribersList[sub_id -1 ] = subscribersList[subscribersList.length -1];\n        subscribersList.pop();\n        subscribers_count --;\n        emit OwnerUnubscribed(msg.sender);\n    }   \n\n    function sub_expired(address to_unsub) public validateSender{\n        uint sub_id = subscribersID[to_unsub];\n        subscribersID[subscribersList[subscribersList.length -1]] = sub_id;\n        subscribersList[sub_id - 1] = subscribersList[subscribersList.length -1];\n        subscribersList.pop();\n        subscribers_count --;\n        emit OwnerSubExpired(to_unsub,\"Subscription was cancelled due to insufficient funds\");\n\n    }\n\n    function subscription_payments () public validateSender { //Function to call once monthly to receive subscription payments\n        for (uint i=0; i < subscribersList.length; i++) {\n            if(customerBalance[subscribersList[i]] < subscription_price) {  \n                    sub_expired(subscribersList[i]);\n                } else if(customerBalance[subscribersList[i]] < subscription_price * 2){\n                    uint owner_id = address_to_owner[subscribersList[i]]-1;\n                    emit lowBalance(owners[owner_id].firstName,owners[owner_id].lastName);\n                    customerBalance[subscribersList[i]] -= subscription_price;\n                    revenue += subscription_price;\n                } else {\n                    customerBalance[subscribersList[i]] -= subscription_price;\n                    revenue += subscription_price;\n                }\n        }\n    }\n\n    function changePriceSubscription(uint _new_price_subscription) public validateSender {\n        subscription_price = _new_price_subscription;\n    }\n\n    function showSubsriptionPrice () public view returns (uint) {\n        return subscription_price;\n    }\n\n    function show_sub_count () public view returns (uint) {\n        return subscribers_count - 1;\n    }\n}\n\n\n\n",
  "sourcePath": "contracts/Subscription.sol",
  "type": "contract"
}